:1000000000800020BD010000E14E0000A54E000070
:10001000A54E0000A54E0000A54E0000A54E000014
:10002000A54E0000A54E0000A54E0000E14E0000C8
:10003000E14E0000A54E0000E14E0000954E00008C
:10004000E14E0000E14E0000E14E0000E14E0000F4
:10005000E14E0000E14E0000E14E0000E14E0000E4
:10006000E14E0000E14E0000E14E0000E14E0000D4
:10007000E14E0000E14E0000E14E0000E14E0000C4
:10008000E14E0000E14E0000E14E0000E14E0000B4
:10009000E14E0000E14E0000E14E0000E14E0000A4
:1000A0008D470000E14E0000E14E0000E14E0000EF
:1000B000E14E0000E14E0000E14E0000E14E000084
:1000C000E14E0000E14E0000E14E0000E14E000074
:1000D000E14E0000E14E0000E14E0000E14E000064
:1000E000E14E0000E14E0000E14E0000E14E000054
:1000F000E14E00007D6E0000E14E0000E175000061
:10010000E14E00005D7B0000E14E0000E14E00008A
:10011000E14E0000E14E0000E14E0000E14E000023
:10012000E14E0000E14E0000E14E0000E14E000013
:10013000E14E0000E14E0000E14E0000E14E000003
:10014000E14E0000E14E0000E14E0000E14E0000F3
:10015000E14E0000E14E0000E14E0000E14E0000E3
:10016000E14E0000D9540000E14E0000E14E0000D5
:10017000E14E0000E14E0000E14E0000E14E0000C3
:10018000E14E0000E14E0000E14E0000E14E0000B3
:10019000E14E0000E14E0000E14E0000E14E0000A3
:1001A000E14E0000E14E0000E14E0000E14E000093
:1001B000E14E0000E14E0000E5610000574B4CF2BB
:1001C000205210B51A804DF628121A8000BF00BFC9
:1001D00004F08AFE524B4FF010621A60514A9A6046
:1001E000514ADA60A3F53043203B1A6812F480725A
:1001F00004D14E490A604FF4A8521A604C4B1A7849
:10020000110703D51A7842F008021A70494B4A4C7C
:100210004A482A221A704A4A00239918A14203D256
:10022000195899500433F8E7464B474900228B424E
:1002300002D243F8042BFAE74448454900235A58B0
:100240001A500433B3F5DE7FF9D1424B424A802184
:1002500003F8011B9342FBD1404B3C4A1A60404BD0
:100260008A221A70A3F5805324225A70A0221A7091
:100270009A799207FCD59A79D406FCD4394A9379B5
:1002800003F00C03082B374BF9D103221A714022DB
:100290005A719A799006FCD5324A9179314B4906C8
:1002A000FBD5314A314911600221516020221A7078
:1002B0009A7902F00C020C2AFAD12D4B2D4A1A60C1
:1002C0002D4B2E4A1A6000225A60072243F8042C54
:1002D0002B4AC3F80C2D62B604F0BEFF134B1B680B
:1002E000DA0705D5274804F07DFE274B274A1A6018
:1002F000274B1B785B0609D5234C244A236893427D
:1003000004D1204804F06EFE0023236009F070FF42
:1003100004F0F0FD06F032FAFEE700BF0E200540C3
:1003200030800440823F04000100002B14D00340C1
:1003300002D0074000E0074018C9FF1F8CD800001A
:1003400060BDFF1F18C9FF1F98E2FF1F00B8FF1F05
:100350000000000000E400E05FE400E008ED00E0E1
:100360000050064000400640448004400000030165
:1003700004800440C010050014E000E0FF76010096
:10038000000020202872CE581CE00340A5C3945AD8
:1003900000F00740FFFFFFFFFFFFFFFFFFFFFFFF32
:1003A000FFFFFFFFFFFFFFFFFFFFFFFFFFFFFFFF5D
:1003B000FFFFFFFFFFFFFFFFFFFFFFFFFFFFFFFF4D
:1003C000FFFFFFFFFFFFFFFFFFFFFFFFFFFFFFFF3D
:1003D000FFFFFFFFFFFFFFFFFFFFFFFFFFFFFFFF2D
:1003E000FFFFFFFFFFFFFFFFFFFFFFFFFFFFFFFF1D
:1003F000FFFFFFFFFFFFFFFFFFFFFFFFFFFFFFFF0D
:10040000FFFFFFFFFFFFFFFFFFFFFFFFDEF9FFFF23
:1004100010B5054C237833B9044B13B10448AFF33E
:1004200000800123237010BD18C9FF1F00000000C9
:100430008CD8000008B5064B1BB106480649AFF33F
:1004400000800648036813B1054B03B1984708BD07
:10045000000000008CD800001CC9FF1F18C9FF1F36
:100460000000000010B5044600F5836002F0BAFCFD
:10047000204610BD0F4B03604172026100230372DE
:10048000C36039B11946026942F823100133427A38
:100490009A42F8DC084B1A680AB9186004E05369FC
:1004A0000BB11A46FBE75061002343618380C38090
:1004B000704700BFE8B4000044E0FF1F144B036026
:1004C0000423437200F12803036100230372C36015
:1004D0001946026942F823100133427A9342F8DB4D
:1004E0000C4B1A680AB9186004E053690BB11A463C
:1004F000FBE75061002343618380C380064B0360A8
:100500004FF480338361C36103624362704700BF6D
:10051000E8B4000044E0FF1F60D300000F4B03600D
:100520000023437203610372C3600D4B1A680AB95A
:10053000186004E053690BB11A46FBE750610023D1
:1005400043618380C380074A026003834383C3619E
:10055000036283628385C38503637047E8B4000048
:1005600044E0FF1F80D300002DE9F04F85B0514BD0
:10057000514A126803EB021202F1140B4F4A12683F
:1005800003EB021303F5057301934D4B1B78002B0E
:100590003AD04C4B1B6802934B4B1B6803930024CF
:1005A0002546A146DFF830A13BF805301AB2FF2AF4
:1005B00025D0029901FA83F301994A5F134483F32A
:1005C0000703424A52F82360414BE65030460399F4
:1005D00009F0E8FB80463E4B234418613D496758CB
:1005E0003046394609F0D4FA4AF804000AEB04060A
:1005F0004046394609F0CCFA306109F1020902356A
:100600000434082DD0D127E02E4B1B68029300251F
:100610002C46A946DFF8B4A0DFF8B8802C4F3BF891
:1006200004301AB2FF2A13D0029A02FA83F3019916
:100630000A5F134483F307035AF82360304655F8E2
:10064000081009F0A5FA244A5051EE5109F10109A8
:1006500002340435102CE2D109F1FF321F4B53F85C
:100660002200174B1B789BB1ABF102021C4C04F12A
:1006700010032034002532F9021FFF291ABF43F866
:10068000100C186043F8105C0433A342F3D10DE062
:10069000ABF102020023124C002532F9021FFF29A0
:1006A00014BF18511D510433202BF6D105B0BDE8FD
:1006B000F08F00BF94C9FF1F74C9FF1F14D1FF1F23
:1006C00054CEFF1F6CCEFF1F48BEFF1F20D1FF1F5F
:1006D0004CBEFF1FECBEFF1FA8D0FF1F74BEFF1F44
:1006E00010BFFF1F2DE9F84F834600244FF000088C
:1006F000164FDFF864A04FF07C59154BE558154BA9
:10070000E65847F6FF732B833046414609F0E8FC74
:1007100028B93046394609F001FD10B902E04646D5
:1007200000E03E463046514609F03CFB494609F0A0
:1007300031FA09F023FDA8620023EB61A5F82CB083
:100740000434202CD9D1BDE8F88F00BFA655AC46A3
:1007500088D0FF1F4CBEFF1F4B243E4708B504380E
:100760000A4B034003D5013B63F007030133084AFA
:1007700052F8230007490B1F1C3153F8042F106354
:100780008B42FAD10420FFF7ADFF08BD07000080BF
:10079000C8BEFF1F88D0FF1F2DE9F04F83B03F4B2D
:1007A0001B78002B4DD03E4B1B68019301983D4BAD
:1007B0001B68C01A09F09EFA3B4B196809F0F2FA5F
:1007C00001464FF07E5009F0E3F98146002109F01F
:1007D00087FC20B10022314B1A704FF00009002431
:1007E0000027DFF8D880DFF8D8B04FF07C5A4846B1
:1007F0002E4BE15809F0D6FA01462D4BE05809F08E
:10080000C7F905462B4BE0502B4BE658394609F00B
:1008100067FC28B92846414609F080FC10B902E07F
:100820003D4600E045462846594609F0BBFA514688
:1008300009F0B0F909F0A2FCB0620434202CD6D142
:1008400028E00024DFF870B00027DFF87080DFF8C0
:1008500070904FF07C5A54F80B60154BE5582846C1
:10086000394609F03DFC28B92846414609F056FCB6
:1008700010B902E03D4600E045462846494609F0E9
:1008800091FA514609F086F909F078FCB062043417
:10089000202CE0D103B0BDE8F08F00BF78C9FF1F66
:1008A0004CDFFF1F5CCEFF1F34BFFF1FA8D0FF1F10
:1008B0004CBEFF1FECBEFF1F88D0FF1FA655AC46E5
:1008C0004B243E4738B5734B1A68734B53F822409C
:1008D0002046724B196809F065FA0546704909F01F
:1008E0001DFC28B928466F4909F0FAFB10B902E04F
:1008F0006B4D00E06B4D28464FF08F4109F052FAE6
:1009000009F016FC684B98612046644B596809F061
:1009100049FA0546624909F001FC28B928466149AF
:1009200009F0DEFB10B902E05D4D00E05D4D2846A8
:100930004FF08F4109F036FA09F0FAFB5A4BD861B3
:100940002046564B996809F02DFA0546544909F09E
:10095000E5FB28B92846534909F0C2FB10B902E06B
:100960004F4D00E04F4D28464FF08F4109F01AFAE5
:1009700009F0DEFB4C4B18622046484BD96809F061
:1009800011FA0546464909F0C9FB28B928464549E8
:1009900009F0A6FB10B902E0414D00E0414D2846A8
:1009A0004FF08F4109F0FEF909F0C2FB3E4B58624F
:1009B00020463A4B196909F0F5F90546384909F01E
:1009C000ADFB28B92846374909F08AFB10B902E087
:1009D000334D00E0334D28464FF08F4109F0E2F9E6
:1009E00009F0A6FB314B986120462C4B596909F060
:1009F000D9F905462A4909F091FB28B92846294921
:100A000009F06EFB10B902E0254D00E0254D2846A7
:100A10004FF08F4109F0C6F909F08AFB234BD861EA
:100A200020461E4B996909F0BDF905461C4909F09D
:100A300075FB28B928461B4909F052FB10B902E0A2
:100A4000174D00E0174D28464FF08F4109F0AAF9E5
:100A500009F06EFB154B18622046104BD96909F05E
:100A6000A1F904460E4909F059FB28B920460D4961
:100A700009F036FB10B902E0094C00E0094C2046B1
:100A80004FF08F4109F08EF909F052FB074B586285
:100A900038BD00BFD4D0FF1F98BEFF1F10BFFF1F7F
:100AA00000FEFF4600FEFFC624D3FF1F5CD3FF1FDE
:100AB00010B50446D0F1010138BF0021032004F035
:100AC000A1FA0420012C14BF0021012104F09AFA9C
:100AD0000520022C14BF0021012104F093FA062006
:100AE000032C14BF0021012104F08CFA10BD00BFBB
:100AF0002DE9F04115480A2102F054FA064608BBD8
:100B00000024DFF848800A27114D14E00F20FFF77A
:100B1000CFFF142004F08AFB14EA050003D5013846
:100B200060F003000130FFF7C3FF142004F07EFBE8
:100B30000134052C06D04046394602F033FA064609
:100B40000028E3D03046BDE8F08100BF70DCFF1F15
:100B50000300008010B582B004468310184A136069
:100B6000002B08DD0122174B1A70174B1B680193ED
:100B7000019A164B1A601648204003D5013860F0E0
:100B800003000130FFF794FF40F2D240E1B204F0DD
:100B90005FF94FF080420F4B1A60094B1B682BB96D
:100BA0000D4B33F91400FFF79DFD02E02046FFF7DF
:100BB000D5FD4FF08042094B1A6002B010BD00BF56
:100BC000E4DBFF1F68CEFF1F4CDFFF1FC8D0FF1FF5
:100BD0000300008088E100E040BEFF1F08E100E064
:100BE00000B583B0184B1B68002B29DD174A12682B
:100BF00000920099013B4FF4967202FB03F36433B9
:100C0000134A12688A1A93421AD8104B1B68019330
:100C1000019A0F4B1A600F4A137883F00103137087
:100C20005BB10D4B18680D4B184003D5013860F0CF
:100C300003000130FFF73CFF02E00F20FFF738FF11
:100C400003B05DF804FB00BFE4DBFF1F4CDFFF1FB8
:100C5000C8D0FF1F68CEFF1FD4D0FF1F0300008045
:100C6000F0B40F4A52F821300E4C0F4D03EBC11C6B
:100C700054F8217055F82C60BE1B45F82C00304408
:100C800044F821005C1C094B2340002B03DA013B94
:100C900063F07F03013342F82130C011F0BC70478C
:100CA000DCD0FF1F54D0FF1FE0D3FF1F7F00008068
:100CB0002DE9F041064690461F46069D2C680068C7
:100CC000FFF7CEFFE319984201DD444404E0E71B3F
:100CD000B842B8BFC8EB04042B68A34204D0002874
:100CE00004DD2C60012002E0002000E000203460E0
:100CF000BDE8F081F0B591B0092003F0B5FF039095
:100D0000062003F0B1FF0490072003F0ADFF05902B
:100D1000082003F0A9FF4F4F002139704E4E31706B
:100D20004E4D29704E4C2170800006904D4B1A6834
:100D30004D4B1B684D48009003A8FFF7B9FF0030EA
:100D400018BF012038704A4B1A684A4B1B684A4941
:100D5000009104A80121FFF7ABFF003018BF01206C
:100D60003070464B1A68464B1B684649009105A8EF
:100D70000221FFF79DFF003018BF01202870424B71
:100D80001A68424B1B684249009106A80321FFF7ED
:100D90008FFF051C18BF012525703E4B1B683E4A7E
:100DA0001268934204D001213C4A11703A4A136000
:100DB0003B4B1B683B4A1268934204D00121374ADF
:100DC0001170384A1360234B1B7813B9224B1B78E0
:100DD00033B1049B039A134483F30D0332490B6030
:100DE000314B1B682C4A1268934273D02A4A136015
:100DF000039808F083FF2D4B196808F0D3FF09F022
:100E000097F904462A4B1860049808F077FF294B9D
:100E1000196808F0C7FF09F08BF9274B1860274BBA
:100E20001B7873B1264B1B6823B91A4B1C601C4BF3
:100E300018604CE0012B4AD1164B1860184B1C600F
:100E400045E0204B1B6824183ED4581E8442B8BF8E
:100E500020463AE0D0D3FF1FD8D0FF1F20D3FF1F7A
:100E600045D0FF1F8CC9FF1FE0DBFF1F64CEFF1FB3
:100E700060CEFF1F84C9FF1FECD0FF1F74CEFF1F81
:100E8000D0D0FF1F88C9FF1FE8DBFF1F84D0FF1FE2
:100E900070CEFF1F74C9FF1FD4D3FF1F30BFFF1FC9
:100EA00014D1FF1F10D1FF1FCCD3FF1FDCD3FF1FB6
:100EB00050D0FF1F1CCEFF1F8CCEFF1F18D1FF1F6D
:100EC0004CD0FF1F70BEFF1F0020494B186001224D
:100ED000484B1A70484B1B7803B95DB3474B1868F1
:100EE000069B181A08F00AFF454B196808F05AFFCC
:100EF00009F01EF90446059808F000FF414B1968F7
:100F000008F050FF0546204608F0F8FE0146284646
:100F100008F040FE3C4908F03DFE4FF07E5108F0DD
:100F200039FE09F005F9394B1860394B1C60012274
:100F3000304B1A70082004F089F8364B1B68079371
:100F4000079B354A12689B1A0A2B0DD960B9314BA1
:100F50001B6808930899314B1B68CB1AB3F57A7F4D
:100F600002D301212E4B19702A4B19680991099C53
:100F700019680A910A99A21A02FB1010264A1060F9
:100F80001B680B930B9B181AB0F57A7F0DD90122C1
:100F9000244B1A701F4B1A680C920C991F4A11604F
:100FA0001B680D930D9A1C4B1A601F4B1B78EBB9F5
:100FB0001E4C204601F0EEF9204601F023FA1C4BAE
:100FC000187028B1134B1B680E930E9A194B1A60B8
:100FD000104B1B680F930F99164B1B68C91A0B20F7
:100FE00013298CBF0021012104F00CF811B0F0BDD1
:100FF00074C9FF1F30BFFF1F20D3FF1FE8DBFF1F97
:1010000090C9FF1F30CEFF1F000010426CCEFF1FA3
:101010007CC9FF1F4CDFFF1F1CD1FF1F88CEFF1FA5
:1010200080C9FF1FD9D3FF1F44D0FF1F34C9FF1F42
:10103000ECDBFF1F58CEFF1F10B586B0FFF75AFE3E
:101040004A4B1B786BB1FFF78FFA494B1B7843B1C2
:10105000484B1B680093009A474B1A600122474B8C
:101060001A70444A136801930198454B1968411A54
:101070004448007812680292029A00FB112119601C
:10108000414B1B7893B1414B19680131404A1268BA
:10109000920091FBF2F002FB10101860FFF75AFD6E
:1010A0000122324B1A700022374B1A702F4B1B78DB
:1010B0000BB3304B1B680393039A364B1A60012421
:1010C000354B1C700920214603F0CEFF0B20214632
:1010D00003F098FF0920214603F094FF4FF080446D
:1010E0002E4B1C60FFF758FBFFF7ECFB2C4B1C60F2
:1010F00000221E4B1A70214B1B78ABB11D4B1B6895
:101100000493049A1C4B1B68D31A264A12689A420D
:1011100002D80022194B1A704FF080441F4B1C60FC
:10112000FFF73AFB1E4B1C60FFF75AFD1A4B1B786A
:10113000CBB1104B1B680593059A164B1B68D31A4D
:10114000194A12689A420ED20B20002103F05AFF6E
:101150000920002103F056FF0920002103F084FF3D
:1011600000220D4B1A7006B010BD00BF30BFFF1F2C
:10117000D8D3FF1F4CDFFF1F5CCEFF1F78C9FF1FB6
:10118000CCD0FF1F90CEFF1F80C9FF1FD4D0FF1F00
:1011900038BFFF1F48D0FF1F44D0FF1F88E100E089
:1011A00008E100E0E8BEFF1F0CBFFF1FFFFFFFFFCD
:1011B00008B5453808F098F902460B4606A1D1E972
:1011C000000106F091FF0022054B08F0F3F908F04A
:1011D0008BFC08BDAFF30080000000A08FF3F03F50
:1011E00000807B40AFF3008070B582B00220002108
:1011F00003F03AFF0820002103F036FF0920002108
:1012000003F032FF0B20012103F02EFF0620012105
:1012100003F02AFF0520012103F026FF042001210D
:1012200003F022FF0320012103F01EFF8F4832212B
:1012300004F0B8FE0D2003F0E9FC8D4B8D4A1A60D6
:101240008D4A5A608D4A9A608D4ADA608D4A1A61D9
:101250008D4A5A618D4A9A618D4ADA618D4D00241A
:101260002046FFF7A5FF45F8040F0134802CF7D185
:10127000894B1B7843F001028849096811F4805FAB
:1012800002D0934240F0948183490A7043F00503F1
:101290008249096811F4805F02D09A4240F092813D
:1012A0007D4A137040F2D24003F0BCFD7C4B1860C5
:1012B0007C4B184003D5013860F003000130FFF784
:1012C000F7FBFFF715FC0146774C204601F01AF8B2
:1012D000A27C764B1A606378002B40F07D8184E11C
:1012E000714CA278724B1A70E068724B186008F06B
:1012F00001FD01464FF07E5008F008FE6E4B18606D
:10130000227C6E4B1A6022786D4B1A7022796D4BDD
:101310001A70A3686C4A1360E2786C4B1A70627C96
:101320006B4B1A605248031F1C304FF0804153F83A
:10133000042F11628342FAD166494FF480438B61D6
:10134000654A9361CB61D3610B6213624B62536256
:10135000624B47F670529A61DA6100221A625A6251
:101360005F4806234385C3854FF48032026383863A
:1013700001F002F95B4B1B683BB9494B1A685A4BA9
:1013800033F91200FFF7AEF90CE0454B1868FFF790
:10139000E5F90122554B1A70554B1B680193019AD0
:1013A000544B1A60414B1868013808F0A7FC0146FD
:1013B0004FF08C4008F0AAFD08F0BAFE06464E4BEE
:1013C000186008F09BFC04464FF07E50214608F060
:1013D0009DFD0546494B18602046494908F0E2FC4E
:1013E00008F0A6FE474B1860474B1E60474B1D6038
:1013F0002046474908F0D6FC08F09AFE454B186095
:10140000AE22454B1A60454A454B1A607922454B3E
:101410001A602E4B1B78002B00F09080424C236802
:101420005B68204641490B229847294D2046296890
:1014300005F014F8204604F0C5FF2C68204608F09B
:101440005DFC01463A4808F0A3FB08F071FE394BF9
:101450001860C4F5637008F051FC01464FF07E50EF
:1014600008F054FD344B186096E000BF0082FF1F67
:1014700088D0FF1FA4CEFF1FD8CEFF1F0CCFFF1FA9
:1014800040CFFF1F74CFFF1FA8CFFF1FDCCFFF1F70
:1014900010D0FF1F1CD1FF1F74E0FF1F3C800440D1
:1014A000D4D0FF1F0300008094C9FF1F70BEFF1F30
:1014B000D8D3FF1FE8BEFF1F34BFFF1F94BEFF1F1E
:1014C00054CEFF1F18D1FF1F4CD0FF1F80D0FF1F2D
:1014D0006CBEFF1F24D3FF1F5CD3FF1F94D3FF1FDD
:1014E0003CC9FF1FE4DBFF1F40BEFF1F68CEFF1F8C
:1014F0004CDFFF1FC8D0FF1F8CC9FF1FDCD3FF1FAD
:101500003333333FE0DBFF1F60CEFF1F1CCEFF1FD6
:10151000CDCC0C3F84C9FF1F74CEFF1F6452BC3B6F
:1015200030CEFF1FD0D0FF1F78E0FF1F2CC100007E
:10153000398E6344E8DBFF1F90C9FF1F2F4C2368DF
:101540005B6820462E49102298472E4D2046296878
:1015500004F084FF204604F035FF2C68204608F094
:10156000CDFB01464FF08C4008F0D0FC4FF081419C
:1015700008F018FC08F0DCFD234B18604FF4005015
:1015800090FBF4F0800008F0B9FB01464FF07E506C
:1015900008F0BCFC1D4B18601B4B186808F0AEFB34
:1015A0001B4908F0FFFB08F0C3FD1A4B186023E04D
:1015B0004FF4A270184908604FF4007001F57F6184
:1015C000086061E64FF4A271144A11604FF4007193
:1015D00002F57F62116063E60322114B1A60114B22
:1015E0001A689210104B1A607AE601220C4B1A60AE
:1015F00000220C4B1A6073E602B070BD78E0FF1F4A
:1016000038C1000094BEFF1FE8DBFF1F90C9FF1F19
:10161000CDCC0C3F84D0FF1F18B0044014B0044060
:1016200038BFFF1FD4D0FF1FE4DBFF1F2DE9F04FB1
:1016300089B003F0B3FB824C204600F08BFE2046BD
:10164000092100F08FFE2046282100F0A1FE7D4BED
:101650001A68079207997C4A11601A6806920699DF
:101660007A4A11601A6805920599794A11601A68D8
:1016700004920499774A11601A6803920399764A92
:1016800011601A6802920299744A11601B680193F2
:10169000019A734B1A60DFF838B25846FEF73EFFE6
:1016A000DFF830A25046FEF739FF6E48FEF736FFEE
:1016B0006D48FEF733FF6D48FEF730FF6C48FEF7CC
:1016C0002DFF6C48FEF72AFF6B48FEF727FF6B4F94
:1016D0003846FEF7F3FE6A4E3046FEF7EFFEDFF8BF
:1016E000F8914846FEF7EAFE664D2846012105F1CD
:1016F0001802FEF7BFFE644B2B6000242C772C856C
:1017000009236B854FF00303AB855323EB854AF622
:10171000C0232B63A623AB86DFF8C081404601219E
:1017200008F11802FEF7A6FE584BC8F800304046F4
:1017300001F05CF85648C0F800B04760047244728B
:10174000C46004F021FD5348C0F800A04760047253
:101750004FF0010A80F809A0C46004F015FD4E485E
:10176000404B0360476004724FF0020B80F809B0F1
:10177000C46004F009FD49483B4B036047600472B4
:101780004FF003034372C46004F0FEFC4448374B3F
:101790000360466004724472C46004F0F5FC414882
:1017A000334B03604660047280F809A0C46004F003
:1017B000EBFC3D482F4B03604660047280F809B093
:1017C000C46004F0E1FC39482B4B036046600472AE
:1017D0004FF003034372C46004F0D6FC3448076042
:1017E000C0F8049004724472C46004F0CDFC314827
:1017F0000660C0F80490047280F809A0C46004F088
:10180000C3FC2D48C0F80090456004724472C46067
:1018100004F0BAFC29480560C0F8048004724472E0
:10182000C46004F0B1FC264C2046264900F058F86C
:1018300020462549254A08F0C1FC09B0BDE8F08FD3
:1018400034C9FF1F4CDFFF1FCCD0FF1F58CEFF1F36
:101850001CD1FF1F88CEFF1F48D0FF1FC8D0FF1F1D
:101860005CCEFF1F0CCFFF1F40CFFF1F74CFFF1FA9
:10187000A8CFFF1FDCCFFF1F10D0FF1F24D3FF1FF7
:101880005CD3FF1F3CC9FF1F50D3000070D3000082
:10189000CCCDFF1FDCCDFF1F20CEFF1F94CEFF1F3E
:1018A000ECCDFF1FFCCDFF1F0CCEFF1F78CEFF1F1E
:1018B00034CEFF1FF0D0FF1F00D1FF1F44CEFF1F0B
:1018C00094C9FF1F4CC10000650400003CBEFF1F0F
:1018D000A4CEFF1FD8CEFF1F94D3FF1F64D0FF1FDD
:1018E0002DE9F04104468846002505704570857055
:1018F000C570057185603223C360262303743023CD
:1019000043748574C574124F4FF480761430394691
:10191000324602F0D3FF04F58A70B919324602F05C
:10192000CDFF04F505702946324608F0C9FF04F5DD
:10193000457007F50071324602F0C0FF04F5836080
:1019400001F042FAC4F814842046BDE8F08100BFDB
:1019500064C5000010B400F1120300F589740DE0B5
:10196000B3F8022123F8022F8B42F9D1A14204D10E
:1019700000F2122300F212340CE00B4603F11001C6
:10198000EEE7B3F8022123F8022F8B42F9D1A142EE
:1019900003D00B4603F11001F3E7102383745DF8C5
:1019A000044B704770B588B00546AE4C2046D5F85C
:1019B000141401F021FC68462146D5F814241323A1
:1019C00001F090FB9DF8043085F81C34029BC5F8AB
:1019D00020349DF80C3085F8243408AB53F8134DAF
:1019E00058689968C5F82544C5F82904C5F82D1428
:1019F0001B7B85F83134079BC5F83434684601F009
:101A0000F1F905F58364D5F818345B6820469649EA
:101A10003C229847204604F0D5FCD5F818345B6882
:101A2000204692493C229847204604F0CBFCD5F84A
:101A300018345B6820468E493D229847204604F0C2
:101A4000C1FCD5F818345B6820468A493D22984786
:101A5000204604F0B7FCD5F818345B682046864968
:101A60003C229847204604F0ADFCD5F81834834E4C
:101A70005B682046314600229847204604F0A2FCCD
:101A8000D5F818345B6820467D493E2298472046A9
:101A900004F098FCD5F818345B68204679493E225A
:101AA0009847204604F08EFCD5F818345B68204631
:101AB00075493E229847204604F084FCD5F8183436
:101AC0005B68204671493E229847204604F07AFC24
:101AD000D5F818345B6820466D493D22984720466A
:101AE00004F070FCD5F818345B68204631460022BB
:101AF0009847204604F066FCD5F818345B68204609
:101B0000644928229847204604F05CFCD5F8183434
:101B10005B682046604933229847204604F052FC17
:101B2000D5F818345B6820465C492F229847204638
:101B300004F048FCD5F818345B6820465849332235
:101B40009847204604F03EFCD5F818345B682046E0
:101B5000544919229847204604F034FCD5F818342B
:101B60005B682046314600229847204604F02AFC54
:101B7000D5F818345B6820464B4915229847204613
:101B800004F020FCD5F818345B682046474915223C
:101B90009847204604F016FCD5F818345B682046B8
:101BA000434919229847204604F00CFCD5F8183414
:101BB0005B6820463F4919229847204604F002FC02
:101BC000D5F818345B6820463B491A2298472046CE
:101BD00004F0F8FBD5F818345B68204637491A2220
:101BE0009847204604F0EEFBD5F818345B68204691
:101BF00033491D229847204604F0E4FBD5F81834F9
:101C00005B6820462F4919229847204604F0DAFBEA
:101C1000D5F818345B6820462B491922984720468E
:101C200004F0D0FBD5F818345B6820462749182209
:101C30009847204604F0C6FBD5F818345B68204668
:101C4000234918229847204604F0BCFBD5F81834E5
:101C50005B6820461F4919229847204604F0B2FBD2
:101C60003AE000BF70DCFF1F64C80000A4C8000099
:101C7000E4C8000024C9000064C90000E0C80000F6
:101C8000A4C90000E4C9000024CA000064CA00001E
:101C9000A4CA0000E4CA000010CB000044CB00003E
:101CA00074CB0000A8CB0000C4CB0000DCCB00004C
:101CB000F4CB000010CC00002CCC000048CC00007D
:101CC00064CC000084CC0000A0CC0000BCCC0000A0
:101CD000D8CC0000F4CC0000D5F818345B6820465E
:101CE000824918229847204604F06CFBD5F8183436
:101CF0005B6820467E4913229847204604F062FB29
:101D0000D5F818345B6820467A491D22984720464A
:101D100004F058FBD5F818345B6820467649262233
:101D20009847204604F04EFBD5F818345B682046EF
:101D3000314600229847204604F044FBD5F8183479
:101D40005B6820466D492C229847204604F03AFBF8
:101D5000D5F818345B6820466949372298472046F1
:101D600004F030FBD5F818345B682046654928221A
:101D70009847204604F026FBD5F818345B682046C7
:101D8000614937229847204604F01CFBD5F81834E7
:101D90005B682046314600229847204604F012FB3B
:101DA000D5F818345B6820465849242298472046C5
:101DB00004F008FBD5F818345B68204654492B2200
:101DC0009847204604F0FEFAD5F818345B682046A0
:101DD00050492F229847204604F0F4FAD5F81834D9
:101DE0005B6820464C4918229847204604F0EAFADE
:101DF000D5F818345B682046484918229847204691
:101E000004F0E0FAD5F818345B68204644491922FA
:101E10009847204604F0D6FAD5F818345B68204677
:101E2000404918229847204604F0CCFAD5F81834D7
:101E30005B6820463C4926229847204604F0C2FAB7
:101E4000D5F818345B68204638492922984720463F
:101E500004F0B8FAD5F818345B68204634493222C9
:101E60009847204604F0AEFAD5F818345B6820464F
:101E7000304934229847204604F0A4FAD5F81834A3
:101E80005B6820462C494F229847204604F09AFA76
:101E9000D5F818345B682046284916229847204612
:101EA00004F090FAD5F818345B68204624491722CC
:101EB0009847204604F086FAD5F818345B68204627
:101EC00020492D229847204604F07CFAD5F8183492
:101ED0005B6820461C4937229847204604F072FA76
:101EE000204600F0A7FF08B070BD00BF10CD000075
:101EF0002CCD000040CD000060CD000088CD00005A
:101F0000B8CD0000F0CD00001CCE000054CE000083
:101F10007CCE0000A8CE0000D8CE0000F4CE000099
:101F200010CF00002CCF000048CF000070CF000081
:101F30009CCF0000D0CF000008D0000058D0000097
:101F400070D0000088D00000B8D000002DE9F04F1C
:101F5000B5B0044600268674C6746846314604F05F
:101F600019FB04A8AC49D4F81424012301F0BAF8F1
:101F70009DF8143084F81C34069BC4F820349DF876
:101F80001C3084F8243434AB53F8B35D5868996836
:101F9000C4F82554C4F82904C4F82D141B7B84F814
:101FA00031340B9BC4F8343404A800F01BFF3546D1
:101FB000B0469A4FDFF880A2DFF8809283E158465E
:101FC00000F09AFEC1B25B2903D1A37C0F2B33D959
:101FD00088E17B2903D1E37C0F2B5FD982E12129A2
:101FE00000F06D81012D2CD12C2910D194F812B064
:101FF000684604F0BBFB06EBCB0B04EB4B0BABF8DA
:1020000014006846864904F0D9FA01365BE15D297F
:1020100012D1A57C684604F0A9FB06EBC50504EBCC
:102020004505A88268467E4904F0C8FAA37C0133BE
:10203000A3740026354646E1684604F005FB0125F9
:1020400041E1032D2FD12C2911D194F813B068460A
:1020500004F08CFB08EBCB0B04EB4B0BABF814023E
:1020600068466F4904F0AAFA08F101082BE17D29BE
:1020700014D1E57C684604F079FB08EBC50504EB58
:102080004505A5F814026846654904F097FAE37C13
:102090000133E3744FF00008454614E1684604F04C
:1020A000D3FA03250FE1022D40F00D810A2940F0FB
:1020B00006813B685B683846514607229847384698
:1020C000694604F059F93B685B6838464946012285
:1020D0009847384604F076F90CA8524904F05AFAA9
:1020E00068460CA904F0DAFA05460CA804F006FAD2
:1020F00015B101236370DCE010A84B4904F04AFAE3
:10210000684610A904F0CAFA054610A804F0F6F9CA
:102110000DB30123A3706846202104F0F5FA021ED6
:1021200040F3C78014A8694604F018FB14A804F013
:102130001DFBE06014A804F0E1F9E368042B02DC65
:102140000523E360B5E0B3F5967F40F3B2804FF42A
:102150009673E360ADE018A8344904F01BFA6846B2
:1021600018A904F09BFA054618A804F0C7F9EDB1C8
:102170006846202104F0C8FA021E40F39A801CA889
:10218000694604F0EBFA1CA804F0F0FA20741CA8CD
:1021900004F0B4F9237C0B2B02D80C23237488E0C1
:1021A000482B40F286804823237482E020A82049EF
:1021B00004F0F0F9684620A904F070FA054620A85A
:1021C00004F09CF9C5B10123E3706846202104F0B6
:1021D0009BFA021E6DDD24A8694604F0BFFA24A80C
:1021E00004F0C4FA607424A804F088F9637CB62B68
:1021F0005FD9B62363745CE028A80E4904F0CAF9DD
:10220000684628A904F04AFA054628A804F076F999
:10221000B5B1012323704CE070DCFF1F78E0FF1F95
:10222000E0C80000F8D0000000D1000008D1000094
:1022300010D1000018D10000F0D00000C0CB000089
:102240002CA82C4904F0A6F968462CA904F026FA1B
:1022500005462CA804F052F9C5B101232371684644
:10226000202104F051FA021E23DD30A8694604F053
:1022700075FA30A804F07AFAA06030A804F03EF9AC
:10228000A368012B15D90023A36012E03B685B68AB
:10229000384619490F2298473846694604F06CF8C9
:1022A0003B685B683846154901229847384604F078
:1022B00089F86846124904F081F9002503E0684670
:1022C00004F0C2F9022504F5836B584600F09EFD28
:1022D00000287FF474AE584600F0ACFD684604F068
:1022E0000DF903E0012D7FF4ACAEA5E635B0BDE8F5
:1022F000F08F00BF20D1000028D1000038D10000AD
:10230000E0C8000030B589B0044611B9FFF722FBE0
:1023100019E00E4D684629460D4A012300F0E2FE01
:102320002846D4F8141400F05BFF18B12046FFF7DC
:102330000DFE05E02046FFF735FB2046FFF706FEC1
:10234000684600F04FFD09B030BD00BF70DCFF1FD4
:102350003CD10000002202600A2181808271C2719A
:10236000704700BF10B582B00446C8B2E0710023C8
:10237000A37102F06BFE08B10323A371034B1B682A
:102380000193019B236002B010BD00BF4CDFFF1F13
:102390008180704730B585B00446C07902F056FEA2
:1023A000003018BF0120A37903F0F702A271C3F334
:1023B0004001884208D0124B1B680193019B2360A7
:1023C00082F00202A27116E00D4909680291029D95
:1023D0002168691AA588A9420DD303F00103984228
:1023E00009D0074B1B680393039B236082F0010213
:1023F00042F00802A271A079C0F3C00005B030BD60
:102400004CDFFF1F807900F00900092814BF00206D
:10241000012070472DE9F84F0446002103F090FE9B
:102420008046002800F0A680237F1BB903F046FEFB
:10243000BDE8F88F031D00F5827E734580F0928021
:102440004FF6FF7A4FF000094FF0040CE28B002AA0
:1024500055D1227F022A17D1A28DE28342B14FF0DB
:10246000030121774FF480322262C4F8249076E091
:10247000E28DE28384F81CC0216BA1F58031D2008B
:1024800091FBF2F262626AE0032A0BD184F81CC06D
:10249000E28DE283216BA1F5803191FBF2F2D21043
:1024A00062625CE0042A09D14FF005012177A4F8AB
:1024B0001EA0226B2262C4F8249020E0052A02D1DB
:1024C000A4F81EA01BE0062A0BD1002222779E450D
:1024D00048D91A605A609A60DA6010339E45F8D87D
:1024E00040E0012A0BD14FF002022277628DE28395
:1024F0004FF4803191FBF2F2D21062622FE01E683D
:102500005D689F68D968626A206A02EB000B3BFB3A
:1025100006F093443BFB16F6C0EA064693443BFBA9
:1025200005F093443BFB15F5C0EA054593443BFB9E
:1025300007F093443BFB17F7C0EA074093443BFB8B
:1025400001F75A44226232FB11F2C7EA02471E60C9
:102550005D609860DF60E28B013AE28310339E4554
:102560003FF674AF20464146002203F0C7FD4046C7
:1025700003F0A4FDBDE8F88F72B600230362038D5B
:10258000C38323B1012303770023436209E00223BD
:102590000377438DC3834FF4803292FBF3F3DB1058
:1025A000436262B6704700BF10B5044603F0B6FE42
:1025B000204610BD08B503480349044A07F0FEFD54
:1025C00008BD00BFF0DBFF1FA92500003CBEFF1FB8
:1025D00038B5064D064C07482946224607F0EEFD61
:1025E00005482946224607F0E9FD38BDA925000027
:1025F0003CBEFF1FF8DBFF1F00DCFF1F08B50348D0
:102600000349044A07F0DAFD08BD00BF08DCFF1FDC
:10261000A92500003CBEFF1F08B503480349044A32
:1026200007F0CCFD08BD00BF10DCFF1FA92500008E
:102630003CBEFF1F2DE9F843814680460026374601
:10264000F7B94846314603F07BFD0746002853D0D2
:10265000D8F81810B1F5803F4ED0031D00F58274F4
:102660001A6831FB02F031FB12F200F30F0002F3A3
:102670000F02C0EA024243F8042B9C42F0D83BE030
:102680004846314603F050FD8446A8B33B1D051D66
:10269000D8F8184007F5827EB4F5803F16D107F1CF
:1026A0000C040C3054F8082C50F8081C92FA11F263
:1026B00044F8082C5A6850F8041C92FA11F25A6037
:1026C0000833083408309E45ECD812E055F8042B46
:1026D00034FB02F034FB12F200F30F0002F30F029E
:1026E000C0EA0242196892FA11F143F8041B9E45B0
:1026F000ECD8604603F0E2FC013608F10408042E31
:102700009ED13FB148463946002203F0F7FC3846D7
:1027100003F0D4FCBDE8F88308B5002103F004FD04
:102720000246A0B172B60A4B186810B91A6062B6B8
:1027300008BD084B1B681BB9064B1A6062B608BD82
:1027400003490B60034B1A6062B603F0B7FC08BD87
:1027500028DCFF1F18DCFF1F38B51C4B1A681268F5
:1027600019791B4B19701B4B9A4206D2A3F5807442
:1027700004F5807304F5007402E0174B03F58074D0
:10278000164A106898B1021D47F6FF7532F9021B10
:102790002944091123F8021B9C42F7D803F08EFC50
:1027A0000F4B1A680D490A6000221A6005E040F2DA
:1027B000FF7223F8022B9C42FBD80A4B1B781BB1FB
:1027C0004FF08042084B1A6038BD00BF1CDCFF1F71
:1027D0001F800040C8B5FF1FC8B4FF1F28DCFF1FC3
:1027E00018DCFF1F24DCFF1F08E200E070B54F4833
:1027F000012103F035FD4E4B1A6842F480521A60F5
:10280000802203F5032303F6F5731A700024494E62
:1028100001253480284602F009FD0834A4B223B211
:10282000B3F5006FF5D1444B1B6813F4800F16D03D
:10283000424B1A6848F6A2731A409A420FD1404B95
:102840001A6840F23F439A4209D13E4B1B68012B64
:1028500005D13D4B1A6840F201139A4217D0364B0E
:102860001A6842F480021A600122A3F59033303BCB
:102870001A6040F23F42083B1A60043B48F6A372DC
:102880001A60324A1A6040F2011210331A60274C63
:1028900023681A6800222E491960236802211971E1
:1028A0005A7101209871D87119725A729A72DA723B
:1028B0001A736FF0010159734FF0FF319973D97397
:1028C00019691C4919611A755A75D98A4FF48071B2
:1028D000D9821A765A769A76DA76D88BD983998BFA
:1028E00006219983237903F1804303F504331A7099
:1028F000B0221A7003F060FC164B18702279164B48
:102900001A70227902F110011448154B43F8210086
:1029100053119B0003F1604303F5614302F01F0272
:10292000012101FA02F21A6070BD00BF1CDCFF1F1A
:102930002C80044000C00C403C80044000600340F8
:10294000046003400C60034010600340A28F01004C
:10295000C8B4FF1F24DCFF1F1B8000405927000064
:1029600000B8FF1F08B503480349044A07F026FCD6
:1029700008BD00BF1CDCFF1FA92500003CBEFF1FD7
:1029800008B503480349044A07F018FC08BD00BF16
:102990002CDCFF1FA92500003CBEFF1F08B5034823
:1029A0000349044A07F00AFC08BD00BF34DCFF1FDE
:1029B000A92500003CBEFF1F08B503480349044A8F
:1029C00007F0FCFB08BD00BF3CDCFF1FA925000091
:1029D0003CBEFF1F08B503480349044A07F0EEFB5D
:1029E00008BD00BF44DCFF1FA92500003CBEFF1F3F
:1029F00008B503480349044A07F0E0FB08BD00BFDF
:102A00004CDCFF1FA92500003CBEFF1F2DE9F84349
:102A10000446B0F91830002B00F0FD8003F0F2FA04
:102A20000746002800F0F780061DB4F92C30072B6C
:102A300000F2D980DFE803F0046A58922BAF7EC120
:102A400000F5827E33464FF6FF757448E269D10D7A
:102A5000C2F3CF12B4F918C0C2EB050830F91190D7
:102A6000013130F9111002FB01F109FB08121214B7
:102A700002FB0CF2D21323F8022BA16AE2698A1836
:102A800048BF22F00042E2617345DFD1ABE0236B27
:102A90001BB903F013FBBDE8F88300F5827E3346D3
:102AA0004FF6FF75E269D00D216BC2F3CF12B4F976
:102AB00018C031F91080C2EB05090130C0B231F9FC
:102AC000101002FB01F109FB0812121402FB0CF2B8
:102AD000D21323F8022BA16AE2690A4422F00042D1
:102AE000E2617345DED17EE0821D8023E16911F051
:102AF000804F218B18BF494222F8021CA06AE1696D
:102B00000144E1610232013BF0D16CE000F58270DA
:102B10003346E26942F3CF32B4F9181001FB02F2F6
:102B2000D21323F8022BA16AE2690A44E2618342CC
:102B3000EFD158E000F582703346E26942F3CF32BC
:102B4000B4F9181001FB02F2D21323F8022BA16A88
:102B5000E269521AE2618342EFD144E000F58270EB
:102B60003246E369002B258BBCBF6D42ADB29900A4
:102B700013F0804F18BF4942490C2BB203FB01F1FF
:102B8000C91322F8021BA16AE36903EB4103E36165
:102B90008242E6D127E0821D8023E069216A8842D3
:102BA000218B38BF494222F8021CA06AE169014426
:102BB000E1610232013BF0D115E000F58278354643
:102BC000A26AE369934205D2B4F91810484203F0AF
:102BD0008BFCA084A38C25F8023BA26AE369134412
:102BE000E3614545ECD1B4F92E3063B107F582714C
:102BF000B6F90030B4F92E20134403F30F0326F87E
:102C0000023BB142F4D820463946002203F076FA5E
:102C1000384603F053FABDE8F88300BF40D1000006
:102C2000184B1A6842F480521A60174B174A1A6000
:102C3000174ADA6002F180421A61164A1A60164B8E
:102C40001B7813F0010F07BF4FF41072134B4FF4B2
:102C50000072134B1A60104B1B7813F0020F4FF4E5
:102C600000720CBF0F4B104B1A600B4B1B7813F00C
:102C7000040F07BF4FF410720C4B4FF400720C4B53
:102C80001A6070473C80044000C0024001401F00B1
:102C90000110003800001F8074E0FF1F18B00440CE
:102CA00008C004401CB004400CC0044014B00440F0
:102CB00004C0044010B582B002AB03F8011D0268E5
:102CC000546819460122A04702B010BD10B5044651
:102CD000C3691BB901230371002010BD00201871C6
:102CE000E06992B201F056F9E3691B7913B101234F
:102CF0002371002010BD00BF00B583B0C06960B172
:102D00000DF10701012200F0ABFE01280CBF9DF878
:102D100007004FF6FF7000B201E04FF0FF3003B044
:102D20005DF804FB30B583B00446C06978B10DF19D
:102D30000701012200F094FE01280AD19DF80750F6
:102D4000E069C168013900F045FF284603E0002032
:102D500001E04FF0FF3003B030BD00BF08B5C069DF
:102D600008B100F06FFF08BD2DE9F04104460E46A2
:102D70009046002303714FF47A7282600373114B03
:102D80000360242007F05CFAE061B8B135460746DD
:102D900006F1200E3E4628686968AA68EB680FC6EF
:102DA000103537467545F5D12868306004F10D00BF
:102DB00041460C2208F034F9002363762046BDE832
:102DC000F08100BF90D30000002202714FF47A71AD
:102DD0008160027302490160C2614273704700BFA3
:102DE00090D30000014B0360704700BF90D30000F8
:102DF000C3690BB1D86870474FF0FF30704700BF10
:102E0000C3690BB1986970470020704738B5044614
:102E1000C36963B1FFF7F4FF05462046FFF7E8FFFB
:102E2000281A47F6FF73984228BF184638BD00207D
:102E300038BD00BF10B50446C06930B100F02EFFA8
:102E4000E06907F005FA0023E36110BD10B58AB010
:102E500004460A4600238DF80830094901918DF88F
:102E60000A3001A82146012300F0CAFF041C18BF44
:102E7000012414B101A800F011FF20460AB010BDD2
:102E8000B0D3000008B52AB101F068F8003018BFCF
:102E9000012008BD012008BDF0B40C68035D2F2B94
:102EA0001CD101341AE0002563B11EE00135013464
:102EB00007F8013F0C2D05D016F8013F2F2B01D04C
:102EC000002BF3D100235355035D2F2B08BF013492
:102ED0000C60005D003018BF01200BE00619035D97
:102EE0002F2B08BF0025EDD0DDE701341370174606
:102EF0000125E1E7F0BC70472DE9F04F99B082461B
:102F00000F469146984600238DF81C30244A0692BD
:102F10008DF81E308DF840300F928DF842300193BD
:102F20000C4606AE4FF0010B03E00FAC23463446CF
:102F30001E46504601A902AAFFF7AEFF054680F0E3
:102F40000102204602A9D2B24346C84730B9BC426A
:102F50001CD0204600F0A2FE00201EE07DB13046CD
:102F6000214602AA5B4600F04BFF0546BC4211D049
:102F7000204600F093FE002DD8D100200DE0BC4289
:102F800006D0204600F08AFE012006E0002004E082
:102F9000012002E00028C8D1002019B0BDE8F08F60
:102FA000B0D3000038B504460A46012100F076FA95
:102FB000A8B1251D28462146012201F099FA28B919
:102FC00028462146002201F093FA50B104F12C006A
:102FD000294600F01BFD003018BF012038BD00203D
:102FE00038BD002038BD00BF2DE9F04F99B08146B3
:102FF0009346019300238DF81C30394A06928DF8D0
:103000001E308DF840300F928DF8423006A8043102
:1030100000F0FCFC5C460FAE06AD4FF02F084FF001
:10302000000A2CE023782F2B01D1013427E03F1B2D
:10303000FFB20C2F28BF0C2702A821463A4607F002
:10304000EFFF18AB3B4403F858AC304600F026FEC7
:103050003046294602AA012300F0D2FE40B90023DF
:1030600089F804301E4AC9F8002089F8063032E099
:103070003C44284600F012FE2B4635461E462046AC
:10308000414607F06BFE07460028CBD1CBEB04048A
:10309000019B1C602B7989F80430114BC9F8003072
:1030A0006B7989F80530AB7989F80630AB68C9F8D7
:1030B0000830EB68C9F80C302B69C9F810302B7D4B
:1030C00089F81430AB69C9F81830EB69C9F81C30BD
:1030D0002B6AC9F82030484619B0BDE8F08F00BF10
:1030E000B0D30000F0B5A7B0044615461F4602A8AD
:1030F00001ABFFF779FF01996E18695C19BB9DF868
:103100000C308DF85430344B14939DF80D308DF8FD
:1031100055309DF80E308DF85630049B1693059B64
:103120001793069B18939DF81C308DF86430089B0C
:103130001A93099B1B930A9B1C93204614A9274AA8
:10314000FFF712FE45E000218DF83010224B0B9363
:103150008DF832109DF80E301BB92046FFF734FE73
:1031600037E00BA802A932463B4600F049FE18B9E9
:103170002046FFF729FE2CE002A800F08FFD17F093
:10318000060F03D00BA8119900F024FD9DF83030F4
:103190008DF87830104B1D939DF831308DF87930D3
:1031A0009DF832308DF87A300D9B1F930E9B209343
:1031B0000F9B21939DF840308DF88830119B23930D
:1031C000129B2493139B259320461DA93246FFF79B
:1031D000CBFD204627B0F0BDB0D300003CD10000AD
:1031E00008B500F12C0308461946024A0023FFF7F0
:1031F00083FE08BD4D2E000008B500F12C030846E3
:103200001946024A0023FFF777FE08BD852E00000D
:10321000064B00229A700221596083F8242083F81B
:1032200030200349D96283F83220704770DCFF1FD9
:10323000B0D30000084B1A6842F480621A604FF065
:103240000042DA62FF225A631A46D36A002BFCDA84
:10325000014B986BC0B2704700C00240064B1A6821
:1032600042F480621A604FF00042DA6258631A46F4
:10327000D36A002BFCDA704700C0024008B505286D
:103280001ED8DFE800F003080D1115194FF0384281
:103290000E4B1A6017E04FF038420C4B1A6012E0E8
:1032A0000B4A0A4B1A600EE00A4A084B1A600AE001
:1032B000094A064B1A6006E0084A044B1A6002E00D
:1032C000074A024B1A60FFF7ABFC08BDC4DCFF1FC6
:1032D00000000138011001380320003803200138B4
:1032E0000650003808B50078012101F08BFE114B23
:1032F0001B78F3B100220F4B1A700F4B1B78C3B130
:1033000013F0010F03D00D4B1A680D4B1A600A4BD6
:103310001B7813F0020F03D0084B5A68094B1A6050
:10332000054B1B7813F0040F03D0044B9A68064B2F
:103330001A6008BDC8DCFF1F6CDCFF1F60DCFF1FCC
:1033400000E100E004E100E008E100E010B5244BFA
:103350001B78002B3ED10122214B1A70214B1A6899
:10336000214B1B78002B28D072B61F4B1B7813F013
:10337000010F07D01D4B1C681D49096821401D4CD9
:1033800021601960184B1B7813F0020F07D01A4BFD
:103390001C68174949682140164C61601960124B3E
:1033A0001B7813F0040F07D0144B1C681049896870
:1033B0002140104CA160196062B6114BDB6893424A
:1033C00008D00F4B0F491960DA6042F080421A6151
:1033D0000D4A1A600078002101F014FE10BD00BFF4
:1033E000C8DCFF1FC4DCFF1F6CDCFF1F80E100E0B6
:1033F00054DCFF1F60DCFF1F84E100E088E100E097
:1034000000C0024001401F0000001F8070B582B064
:103410000E460B4B1B680093009C094DA4B2FFF7AE
:1034200009FFFF2807D02B680193019B9BB21B1B50
:10343000B342F4DB01E0012000E0002002B070BDE7
:103440004CDFFF1FF8B505460F4616464FF4967140
:10345000FFF7DCFF47F04000FFF700FF182426FAD3
:1034600004F0C0B2FFF7FAFE083C14F1080FF6D1E1
:1034700027B1082F0CBF8720FF2000E09520FFF721
:10348000EDFE0024FFF7D6FE687010F0800F03D029
:103490000134B4F5807FF5D1F8BD00BF2DE9F04FC0
:1034A00087B0044601910023837002707D4B1B6836
:1034B0000393039FBFB21046012101F0A3FD2078C2
:1034C000012101F0D1FD2078012101F09BFD764B17
:1034D0001A6842F480521A600620FFF7CFFE734B41
:1034E0001A68734B1B78002B28D072B6704B1B7870
:1034F00013F0010F07D06F4B18686F49096801403E
:103500006E48016019606A4B1B7813F0020F07D0F8
:103510006B4B186868494968014068484160196008
:10352000634B1B7813F0040F07D0664B1868624991
:103530008968014061488160196062B6624BDB684E
:10354000934200F0A080604B60491960DA6042F05D
:1035500080421A615E4A1A6095E02846FFF77EFEB7
:10356000013E16F0FF06F8D1514B1B78C3B113F0A2
:10357000010F03D0514B1A68564B1A604C4B1B7805
:1035800013F0020F03D04D4B5A68534B1A60484B4F
:103590001B7813F0040F03D0484B9A684F4B1A6006
:1035A0002046FFF7D3FE4FF00008DFF8F89008E060
:1035B000D9F800300493049BDB1B9BB2B3F5FA6F80
:1035C0005DD8204641464246FFF73CFF0546607005
:1035D0000128EDD1204608214FF4D572FFF732FFC4
:1035E00010F0040F04D00123A3704FF0000A0FE085
:1035F0004FF00408FFF71EFE607008F1FF3313F070
:10360000FF08F7D1AA283AD10223A3704FF0804ACD
:103610004FF037094FF00008DFF888B008E0DBF81A
:1036200000300593059BDB1B9BB2B3F5FA6F26D8E0
:10363000204649464246FFF705FF204629215246CB
:10364000FFF700FF60700028E9D1A378022B0ED1AC
:1036500020463A210022FFF7F5FE80B9FFF7EAFD88
:1036600000F0C000C02811D10323A3700EE0204653
:10367000FFF738FE0198FFF701FE2E460DE02046C9
:10368000FFF730FE09E00A26FF2566E7FFF7D2FDC7
:10369000FFF7D0FDFFF7CEFDE9E7304607B0BDE804
:1036A000F08F00BF4CDFFF1F3C800440C4DCFF1FD5
:1036B0006CDCFF1F80E100E054DCFF1F60DCFF1FBB
:1036C00084E100E088E100E000C0024001401F000A
:1036D00000001F8000E100E004E100E008E100E0FC
:1036E00070B582B004460E4B1B680093009D0C4ED3
:1036F000ADB207E033680193019B9BB25B1BB3F54E
:10370000967F09DCFFF796FD6070FF28F2D0FE2857
:1037100014BF0020012000E0002002B070BD00BFF7
:103720004CDFFF1FF8B504460D4616468378032B81
:1037300018BF4D02FFF70AFE204611212A46FFF767
:1037400081FE002847D12046FFF7CAFF002842D05B
:10375000234B244A1A60244A5A635A635A6306F573
:10376000FD7E764513D2B01C06F5FE771946CB6A6E
:1037700013F0F00FFBD04A638B6BC3F3072500F8FF
:10378000025C00F8013C0230B842F0D100E0B646DD
:1037900006F5007676450DD97146114AD36A13F0C5
:1037A000F00FFBD0936BC3F3072008704B7002310E
:1037B0008E42F3D80A4B0B4A1A600B4A5A631A46D8
:1037C000D36A13F0F00FFBD0054B9B6B2046FFF73D
:1037D00089FD0120F8BD2046FFF784FD0020F8BDDB
:1037E00000C0024000041F80FFFF0090F8B50646AD
:1037F0001E4B186840F4806018604FF00040D8629B
:103800005963114602F500770446DA6A002A08DB9C
:10381000FBE7DA6A002A0DDBFBE7D36A002B15DB36
:10382000FBE708460A781D6845F480651D60DC6288
:103830005A63EEE742781D6845F480651D60DC62DE
:103840005A630231B942E0D1084AE6E7FF20FFF7A8
:1038500005FDFF20FFF702FDFFF7ECFC707000F0A4
:103860001F00052814BF00200120F8BD00C0024041
:1038700070B5044616460D4629B38378032B18BF4E
:103880004D02FFF763FD204618212A46FFF7DAFDB7
:10389000C8B92046FE213246FFF7A8FF98B120465E
:1038A0004FF41671FFF7B2FD68B120460D210022DA
:1038B000FFF7C8FD38B9FFF7BDFC20B92046FFF778
:1038C00011FD012070BD2046FFF70CFD002070BDEA
:1038D000014A024B1A60704701100138C4DCFF1F17
:1038E00010B50446006A012104F1080200F076FDDB
:1038F000034650B1E3693BB9A368E361637963F0C0
:103900007F036371012300E00123184610BD00BF4F
:1039100070B50646FFF7E4FF0346E0B1336AB268CC
:10392000023A197C02FA01F55A6915441C794CB126
:10393000013D281900F088FC034660B1013C14F0F9
:10394000FF04F6D1336A1B7C4FF400729A40B369CE
:103950001344B3610123184670BD00BF10B504467F
:10396000006900F04DFC20B1207D034B03EB4010BB
:1039700010BD002010BD00BFD8DCFF1F2DE9F001F5
:1039800000232022CA5401330B2BFBD10138002520
:1039900007264FF008084FF00A0C1B4F21E02E2C91
:1039A00001D03A4606E00A2E24D04546664618E085
:1039B000A34221D012F8013F002BF9D1AE421DD312
:1039C000A4F12103DBB25D2B1AD86B1CDBB20D44D2
:1039D000A4F16102D2B2192A9CBF203CE4B22C703F
:1039E0001D4610F8014F002CD9D10878203818BF97
:1039F000012006E0002004E0002002E0002000E0BA
:103A00000020BDE8F0017047B7D3000038B5044688
:103A10000D4683790BBB91F82020102A07D1022391
:103A200083710023C3614B8C5B0183610CE0202A0E
:103A300014D103238371496AC161284604F1180235
:103A400000F058FC034648B125620123637100224F
:103A5000A260E2602261227500E00023184638BDB2
:103A60002DE9F04F83B00446884601928379002BFC
:103A700069D0437913F0010F68D08269C368D11A05
:103A80000198884201D98BB20193019B002B57D03A
:103A90001D46DFF8F8A0DFF8F890DFF8F8B0E3682B
:103AA000C3F30807A279022A04D1226A516A01EB02
:103AB00053211BE0206A0679013E06EA5326F6B23E
:103AC0005FB956B913B9E369A36006E0224652F81C
:103AD000081F00F0D9FB00283BD0226AA368023BF4
:103AE000117C03FA01F1526911443144C7F50073A6
:103AF0009D42C6BF1E46B6B22E46637913F0400FF4
:103B000002D1B6F5007F36D1D9F8003099422AD1DA
:103B100031E0B0440DE05744B819874209D03B4624
:103B2000424613F8011B02F8011B8342F9D1C71B5F
:103B3000B844E3683344E360AD1BADB2002DAED1B1
:103B4000019B98B20DE04FF6FF700AE04FF6FF7050
:103B500007E04FF6FF7004E04FF6FF7001E04FF60C
:103B6000FF7000B20EE0DBF800004246FFF7DAFD1E
:103B70000028CED1F0E70846002100F041FB0028E4
:103B8000C9D1ECE703B0BDE8F08F00BFD8DCFF1F60
:103B90003CBFFF1FD4DCFF1F30B583B004468379E0
:103BA000012B0FD9C5680DF107010122FFF758FF5E
:103BB000012809D1E3681F33E36005F4F070044B7A
:103BC000184402E0002000E0002003B030BD00BF38
:103BD000D8DCFF1FF8B504460F4683797BB38269B2
:103BE0008A422BD3022B02D1E160012327E021B9C5
:103BF00000238360C360012321E0C368026A157C4F
:103C000009355A1EEA40013921FA05F5AA4200D8C1
:103C100013B9E369A3600AE0AD1A08E0206AA1685D
:103C2000324600F031FB013D034610B907E004F1D4
:103C30000806002DF2D1E760012300E000231846BA
:103C4000F8BD00BF38B50446807918B394F9053043
:103C5000002B1BDA20460121FFF780FE0546C0B18C
:103C6000A379012B9CBFA369C361A38B4383E38B1F
:103C70008382094B1B682BB1183005F11601984758
:103C80002B8B6B82637903F07F03637100F08CFAF6
:103C900038BD002038BD00BFCCDCFF1F10B5044686
:103CA000FFF7D0FF034610B10023A371012318468C
:103CB00010BD00BFF0B583B004460D468379012BDB
:103CC0004ED1427902F0020202F0FF01002A49D0EF
:103CD0008269AA4248D3002A47D0C6682946FFF71E
:103CE00079FF0346002840D04DB9206AE16900F011
:103CF000D9FB0346002838D00023E3611DE0206A89
:103D0000A16801AA00F0C0FAA8B1206A019990F850
:103D100020704FF6F872164B102F08BF13469942C9
:103D20000BD200F0BFFB30B1206AA1686FF0704287
:103D300000F00CFB08B9002317E0A561637963F07C
:103D40007F0363712046FFF77DFF034668B120467D
:103D5000B54234BF29463146FFF73CFF034604E035
:103D6000002302E00B4600E00023184603B0F0BD3C
:103D7000F8FFFF0F38B5044615461F4B03EB411300
:103D8000DA7A12F0110F02D015F0420F2CD1217502
:103D90001A4A12682261998A0904E1615A8B114317
:103DA000E161D87A10F0180004D1DB69A361012326
:103DB000A3710AE0102819D1206A04F1180200F05A
:103DC00099FA0346A8B10423A37105F00F036371A8
:103DD0000023A360E36015F0400F09D02046194688
:103DE000FFF768FF034604E0002302E0002300E041
:103DF0000123184638BD00BFD8DCFF1F3CBFFF1FA2
:103E00002DE9F04F85B005460C469A468679002E7E
:103E10007FD1104601A9FFF7B1FD00287BD0236AAE
:103E20002B620027A760E760DFF8FC904FF00108E5
:103E300025E0C1F3431B2046FFF7AEFE01460028F4
:103E40006AD003780BB1E52B09D12FB985F814B0EE
:103E5000D9F800302B6147460B7883B913E001A8ED
:103E60000B2206F099FC50B90AF03003302B53D0E6
:103E7000284659465246FFF77DFF06464CE0E1686A
:103E8000A3699942D5D30AF01203122B44D137B15A
:103E900028460121FFF762FD044660B93CE0A379A2
:103EA000022B39D02046FFF733FD0646002833D0D9
:103EB00000232B751A4C20460021202206F000FD1D
:103EC00001AB03CB206061601A889B782281A372CA
:103ED000144B1B682BB104F1100004F10E0198473C
:103EE00007E021232374282363740023A37308238A
:103EF000E373238A63822383E389E38200F054F926
:103F0000064648B12846297D5246FFF733FF06464C
:103F100002E0002600E00646304605B0BDE8F08F1E
:103F2000D8DCFF1FCCDCFF1F3CBFFF1F10B50446D1
:103F30000021FFF7BFFE034668B120460121FFF7CD
:103F40000DFD38B1E52202700023A37100F02CF9B9
:103F5000034600E00023184610BD00BF10B58AB02C
:103F600004460A4600238DF80830094901918DF86E
:103F70000A3001A821460223FFF742FF034618B189
:103F800001A8FFF7D3FF034618460AB010BD00BFD3
:103F9000B0D300002DE9F04F85B004468846019269
:103FA0008379012B40F0BE80437913F0020F00F0BB
:103FB000B98013F0040F08D08169C3688B4204D024
:103FC000FFF708FE002800F0AD80019A002A00F0FB
:103FD0008C801646DFF8B0A1DFF8B0B1206AE76840
:103FE00090F8049009F1FF3909EA5729C7F3080747
:103FF00019F0FF0929D1002F40F0AA80A16851B91A
:10400000E36933B92046FFF76BFC002840F08E804F
:1040100088E0A3608AE003AA00F036F9002800F0E7
:10402000A880039B226A92F820004FF6F871524A4A
:10403000102808BF0A46934205D32046FFF750FCDC
:10404000002873D16EE0A36070E0C7F50075ADB2D3
:10405000AE4238BF3546A368023B027C93404269BA
:1040600013449944B5F5007F12D1DBF800304B457D
:1040700004BF4FF0FF33CBF80030404B186849467F
:104080004246FFF7F5FB00284CD008F5007824E005
:104090007FB9E268A3699A420BD300F085F8002843
:1040A00040D0CBF80090364A137843F001031370E8
:1040B00005E04846012100F0A3F8002832D057441B
:1040C0007819874209D03B46424612F8011B03F893
:1040D000011B8342F9D1C71BB844761BB6B2E36813
:1040E0001D44E560002E7FF479AFE368A269934236
:1040F00005D9A361637963F07F03637108E0214B05
:104100001B682BB1019B1BB1637963F07F03637163
:10411000637913F0080F03D02046FFF793FD08B131
:10412000019826E001232371002022E0B6F5007FEC
:1041300034BF35464FF40075236AA268023A197CF1
:1041400002FA01F95B699944B5F5007FA1D18CE7CA
:10415000C7F50075ADB2AE4238BF3546A368023B25
:10416000027C03FA02F943699944B5F5007FA0D1B6
:104170007BE705B0BDE8F08FF8FFFF0FD4DCFF1F31
:10418000D8DEFF1FCCDCFF1FD8DCFF1F3CBFFF1FAA
:1041900000B583B002AB03F8011D19460122FFF7F9
:1041A000F9FE03B05DF804FB08B5104B1B78D3B1E2
:1041B0000F4B18680F4B19680F4AFFF759FB03465E
:1041C00090B10E4B196849B1094B18680A4AFFF7BC
:1041D0004FFB034640B10022084B1A600022034BFC
:1041E0001A70012300E00123184608BDD8DEFF1F26
:1041F000D4DCFF1F3CBFFF1FD8DCFF1FD0DCFF1F3C
:1042000038B504460D460C4B1B6883420DD0FFF7B2
:10421000CBFF034670B1094B18682146084AFFF7E7
:1042200081FA034630B1044B1C60064B1A781543E3
:104230001D700123184638BD3CBFFF1FD4DCFF1F93
:10424000D8DCFF1FD8DEFF1F10B50446FFF7ACFF18
:10425000034680B109494B1E01F2FF11002203F809
:10426000012F8B42FBD1064B1C60064B1A7842F0A3
:1042700001021A700123184610BD00BFD8DCFF1FD1
:104280003CBFFF1FD8DEFF1F70B504460D46164623
:10429000C36801338B4225D3C36990F82020102ACC
:1042A0000CBF080AC8091844104B1B68984204D078
:1042B0000021FFF7A5FF0346A8B194F82030102B8A
:1042C00006D1EDB20A4B33F81530336001230AE012
:1042D00005F07F05064B53F8253023F0704333601B
:1042E000012300E00023184670BD00BF3CBFFF1F44
:1042F000D8DCFF1F2DE9F04383B0044602AE46F838
:10430000041D914600254FF400780F4F2046019977
:104310003246FFF7B9FF034688B1237C08FA03F35E
:104320001D4494F820104FF6F873102914BF394635
:104330001946019B8B42E9D3C9F800500123184666
:1043400003B0BDE8F08300BFF8FFFF0FF8B50446E7
:104350000D461746012931D9C368013399422FD838
:10436000C36990F82020102A0CBF0E0ACE091E4403
:10437000164B1B689E4205D030460021FFF740FFD8
:10438000034600B394F82030102B04D1EDB2104B4B
:1043900023F8157004E005F07F050D4B43F82570F8
:1043A0000C4B1A7842F001021A70237E012B09D9B6
:1043B000A3681E44084B1E60012304E0002302E0B2
:1043C000002300E001231846F8BD00BF3CBFFF1FDB
:1043D000D8DCFF1FD8DEFF1FD0DCFF1F2DE9F04F18
:1043E00085B006468A46009217681FB10137002340
:1043F000019305E00768012914BF002301230193FD
:10440000F36803F10108DBB13C4600254FF00209D7
:10441000CB46A0453CBF4C465F463046214603AAEA
:10442000FFF732FF60B1039B0BB1671C03E0631C15
:10443000DB1B534506D001350134F368AB42E8D8A5
:1044400000232AE0304621466FF07042FFF77EFFDE
:10445000034648B921E0651E304629462246FFF74B
:1044600075FF034618B918E0BC42F4D803E0BD421A
:1044700001D92C46EFE7009B196829B130463A462E
:10448000FFF764FF034640B1009B1F60019B1BB117
:1044900001373760012300E00123184605B0BDE86D
:1044A000F08F00BFF0B583B005460C4602230360D1
:1044B00000260E4F2846214601AAFFF7E5FE80B1EF
:1044C000284621463246FFF741FF50B1019C95F83E
:1044D00020104FF6F873102918BF3B469C42E9D3D1
:1044E00001E0002000E0012003B0F0BDF8FFFF0F65
:1044F000F8B50546494B19601446DAB1042A7FD84D
:1045000000200146FFF77CFE0346002800F0838070
:10451000434B03EB041494F8AE3104F5D47413F058
:104520007F036FD1D4F81210632974D9D4F80E40E8
:104530000CB970E0002420460021FFF761FE03461D
:10454000002868D0364BB3F80B30B3F5007F5BD151
:10455000334B1B7C002B5ED0314AD289002A55D0C8
:104560002F4A517B002953D02B76297100232B74BD
:10457000012003E05A1C2A74072B4BD82B7C1E46C3
:1045800000FA03F29142F5D1254BD98A01B9596A53
:10459000A960234BDA892244EA61B3F8110087B29B
:1045A00068841B7C03FB01236B627A0102F2FF1219
:1045B00003EB62236B611A4AB2F813200AB9184A56
:1045C000126AE31A134423FA06F6EE6040F6F47317
:1045D0009E4204D80C2385F8203001231BE04FF6BF
:1045E000F4739E4204D8102385F82030012312E092
:1045F0000B4BDB6A6B62202385F8203001230AE035
:10460000002308E0002306E0002304E0002302E08A
:104610000B4600E000231846F8BD00BFD4DCFF1FA6
:10462000D8DCFF1F0B4B1B7813B90B4B1B7873B1F6
:104630000A4B1B78202B03D90123037100207047FC
:10464000581C064A1070064AD154012070470020B9
:10465000704700BF42DFFF1F04DFFF1F43DFFF1F64
:10466000E0DEFF1F704700BF024B1878024B1B783B
:10467000C01A704741DFFF1F40DFFF1F074B1B7849
:10468000074A12789A4205D9591C044A1170054A02
:10469000D05C70474FF0FF30704700BF40DFFF1F16
:1046A00041DFFF1F08DFFF1F054B1B78054A12780B
:1046B0009A4286BF044AD05C4FF0FF30704700BF7B
:1046C00040DFFF1F41DFFF1F08DFFF1F08B5104B52
:1046D000DB7813F0200F0CD1122000F039FC0D4BC9
:1046E0001B689BB100210C4A11700C4A1078984746
:1046F00008BD0B4A13780133DBB21370012B02D8CB
:10470000084B1B7813B9122000F022FC08BD00BF33
:1047100000600640DCDEFF1F40DFFF1F41DFFF1FA0
:104720002CDFFF1F04DFFF1F38B514460D4B1B782D
:1047300013B90D4B1B7893B10C4B1D78C5F12103B8
:10474000A34202D2012202711C4609482844224693
:1047500000F0B4F82544054B1D70204638BD0020FC
:1047600038BD00BF42DFFF1F04DFFF1F43DFFF1F15
:10477000E0DEFF1F002202714FF47A718160027344
:10478000014A0260704700BFD0D3000008B53D4B1E
:10479000DB78DBB213F0100F06D01021394AD1704C
:1047A00013F0400F03D108BD13F0400F2CD013F0CD
:1047B000040F1BD00023344A1370344A1370344B57
:1047C0001B681BB19847314B1B782BB901222F4B2B
:1047D0001A7000222F4B1A702A4BD0229A702D4A41
:1047E00012781A7101222C4B1A7009E00122264B13
:1047F0001A700022294B1A70224BC0229A701B7922
:104800000222204BDA7008BD1E4A927812F0100F77
:104810001CD013F0010F14D11F4B1B781B4A1278C8
:104820009A4207D9591C1C4A11701A4AD25C154B7E
:104830001A7102E00022134B1A71D022114B9A70A8
:104840001BE0104BC0229A701B7916E00022144B1B
:104850001A7012201349032200F046FC094B1B7901
:10486000DAB20E4B1B781F2B07D80749097821B104
:10487000581C0A4908700C49CA540222014BDA70CC
:1048800008BD00BF00600640D9DEFF1F43DFFF1FE9
:1048900028DFFF1FE0DEFF1F44DFFF1F41DFFF1F98
:1048A0002CDFFF1FCD46000008DFFF1F08B50248C0
:1048B000FFF760FF08BD00BF30DFFF1F844641EAFD
:1048C000000313F003036DD1403A41D351F8043B88
:1048D00040F8043B51F8043B40F8043B51F8043BDA
:1048E00040F8043B51F8043B40F8043B51F8043BCA
:1048F00040F8043B51F8043B40F8043B51F8043BBA
:1049000040F8043B51F8043B40F8043B51F8043BA9
:1049100040F8043B51F8043B40F8043B51F8043B99
:1049200040F8043B51F8043B40F8043B51F8043B89
:1049300040F8043B51F8043B40F8043B51F8043B79
:1049400040F8043B51F8043B40F8043B403ABDD2E8
:10495000303211D351F8043B40F8043B51F8043B8A
:1049600040F8043B51F8043B40F8043B51F8043B49
:1049700040F8043B103AEDD20C3205D351F8043B19
:1049800040F8043B043AF9D2043208D0D2071CBFE5
:1049900011F8013B00F8013B01D30B88038060460E
:1049A000704700BF082A13D38B078DD010F0030384
:1049B0008AD0C3F10403D21ADB071CBF11F8013BF4
:1049C00000F8013B80D331F8023B20F8023B7BE743
:1049D000043AD9D3013A11F8013B00F8013BF9D26E
:1049E0000B7803704B7843708B7883706046704708
:1049F00030B4394A3949136813F0800FFBD10B6882
:104A000013F0800FF7D172B6354B1B78002B5FD0B7
:104A1000344B1C6804331D68043318680433196868
:104A200004331A6804331B682C44204401440A44AC
:104A30001A44C2F34E0242F400422B4B1A602C334C
:104A40001C6804331D680433186804331968043380
:104A50001A6804331B682C44204401440A441A4455
:104A6000C2F34E0242F40042204B1A6003F10813D5
:104A70001C6804331D680433186804331968043350
:104A80001A6804331B682C44204401440A441A4425
:104A9000C2F34E0242F40042154B1A602C331C68DC
:104AA00004331D68043318680433196804331A6822
:104AB00004331B682C44204401440A441A44C2F3C2
:104AC0004E0242F400420B4B1A600022044B1A7053
:104AD00062B630BC704700BF24B0034024B00B4026
:104AE00046DFFF1F38B003402CB0034030B0034016
:104AF0002CB00B4030B00B4060223A4B1A70E122D0
:104B000001331A70384B1B78082B10D1012203F1A6
:104B1000804303F56C331A60132334490B6001F5AD
:104B2000FF2101F2FC710A60314A13601FE00A2B79
:104B30000DD139222F4B1A6013232C490B6001F53C
:104B4000FF2101F2FC710A60294A13600FE00C2B6F
:104B50000CBF35223D22274B1A60122323490B60DC
:104B600001F5FF2101F2FC710A60214A1360224B1A
:104B70001B7833B10123214A136002F50022136030
:104B800005E000231D4A136002F5002213601C4B50
:104B90001B78012B06D880231A4A136002F50022E5
:104BA00013601AE0042B06D88423164A136002F51A
:104BB0000022136011E0082B06D88523114A1360E8
:104BC00002F50022136008E0102B94BF8623872390
:104BD0000C4A136002F50022136001220A4B1A707E
:104BE000704700BF0040074040BFFF1F0CB00340AC
:104BF0000CB00B4008B0034049DFFF1F20B003405A
:104C000041BFFF1F24B0034046DFFF1F08B50C283B
:104C100004D9102828BF1020102307E00A2804D840
:104C2000092834BF08230A2300E00C23DAB2101A43
:104C3000094908700949097899420CD0074B1A7044
:104C4000074B1B782BB10023064A136002F50022A4
:104C50001360FFF751FF08BD45DFFF1F40BFFF1F77
:104C600046DFFF1F24B003402DE9F843282873D8FE
:104C70003C4B1E5CFF2E72D03B4B1B780BB1FFF7F9
:104C8000B7FE16F0800F29D172B6384C384D4FF070
:104C9000010726602F7062B672B6236813F0800F8A
:104CA00004D12B7813F0FF0F0FD1F2E7314B1868C6
:104CB00000222F4B1A7062B62F4B1B781841BDE8AB
:104CC000F8832B7813F0FF0FE3D062B601F08EFD6E
:104CD00072B6236813F0800FF3D0E7E772B606F0E0
:104CE00040095FFA89F9254F254C06F03F06254D0E
:104CF0004FF00108B9F1000F04D03B6823F0100316
:104D00003B6003E03B6843F010033B60266085F89E
:104D1000008062B672B6236813F0800F04D12B783E
:104D200013F0FF0F0FD1E5E7174B18680022154B62
:104D30001A7062B6104B1B781841BDE8F8832B78C7
:104D400013F0FF0FD6D062B601F050FD72B62368A3
:104D500013F0800FF3D0E7E70020BDE8F8830020D0
:104D6000BDE8F883E8D3000046DFFF1F00B0034032
:104D700048DFFF1F10B0034045DFFF1F0CB00B40A2
:104D800000B00B4047DFFF1F10B00B40024A137802
:104D900013F0010FFBD070470100024010B584B042
:104DA0001B4B6C46186859689A68DB680FC4194B2E
:104DB0001B7813F0020F23D0174B1B7813F07003EE
:104DC0001CBF154A13708022144B1A700022033B3B
:104DD0001A70332207331A700322013B1A7072B61D
:104DE0006B4643F001030C4C2046984762B623788B
:104DF00013F0700304D0237008E0013B02D105E0FA
:104E0000074B04490A7812F0010FF6D004B010BD28
:104E100014D40000010002400000024007000240DC
:104E2000410D030010B50446B0F5006F0BD2074BDF
:104E30001B7813F0010F01D1FFF7B0FF04F1A0546C
:104E40002078C0B210BD002010BD00BF010002409C
:104E500038B504460D46B0F5006F16D20B4B1B78E3
:104E600013F0010F01D1FFF799FF04F1A05423784B
:104E7000DBB2AB4209D0064B1B7813F070031CBFAA
:104E8000034A13702570FFF781FF38BD010002400F
:104E900000000240024B1A6801321A60704700BFDE
:104EA0004CDFFF1F08B50D4C236813F4802F01D091
:104EB00000F012FB236813F4806F01D001F0DEFFD5
:104EC000236813F4006F01D002F08AFB236813F407
:104ED000805FE9D002F042FEE6E700BF3480044084
:104EE00008B5FFF7DFFF00BF1022014B1A807047A3
:104EF00000200540704700BF024A13681844106044
:104F00001846704744BFFF1FFEE700BFEFF313834F
:104F1000ABB9EFF31083ABB9EFF3058323B10F2BDC
:104F200005D9094A985C03E04FF4807000E0002046
:104F3000EFF311833BB1834238BF184670474FF0FF
:104F4000FF30704700207047F0E300E0704700BF7B
:104F50001D4B03EBC000436803F14042A2F59222CF
:104F60007C2A18D903F14042A2F594227C2A14D954
:104F700003F14042A2F596227C2A10D903F1404267
:104F8000A2F598227C2A0CD903F14042A2F59A227C
:104F90007C2A08D970470D4906E00D4904E00D4907
:104FA00002E00D4900E00D4972B61A6822F08772DE
:104FB00022F4803242F080721A60C3F38403084AFC
:104FC00041F8232062B6704724D4000048BFFF1F79
:104FD00080BFFF1FD0BFFF1F00C0FF1F20C0FF1FEB
:104FE0004D4F0000044B00221A6004490A60044A35
:104FF000106010221A60704714D0034004D00340A0
:1050000000D0034021281ED80F4B53F8303093F8BE
:10501000802212F0FF0F08D019B1012283F88020FE
:105020007047012283F800217047074B03EBC00053
:10503000436821B11A6842F003021A6070471A6887
:1050400022F002021A60704724D40000212806D8FA
:10505000044B53F8303093F80002C0B27047002080
:10506000704700BF24D4000021283AD81D4B03EB21
:10507000C0035B68012919D0042925D0194A52F8C8
:105080003020002082F8800219B94FF480721A6033
:105090007047022903D140F203121A6070470329B6
:1050A0000CBF4FF4817200221A6070470D4A52F80B
:1050B0003020012182F880124FF4A2721A601A681F
:1050C00022F020021A607047064A52F8302001216F
:1050D00082F880124FF4A2721A601A6842F020021D
:1050E0001A60704724D4000070B50D46212861D89D
:1050F000042A5FD8DFE802F00709050B03000B2341
:1051000006E00A2304E0082302E00C2300E0092360
:105110001E04294B03EBC0035C68236813F4E06FA3
:1051200002D10021FFF7A0FF244B254AC3F89C21A0
:10513000244AC3F8A021244AC3F8A421234AC3F86F
:10514000A821234AC3F8AC2104F14043A3F59223DC
:105150007C2B18D904F14042A2F594227C2A14D960
:1051600004F14043A3F596237C2B10D904F140436E
:10517000A3F598237C2B0CD904F14043A3F59A2383
:105180007C2B08D970BD134906E0134904E013498C
:1051900002E0134900E0134972B6236823F4702338
:1051A0002360C4F3840241F8225043F080731E430D
:1051B000266062B670BD00BF24D4000000B8FF1F97
:1051C00011BEFF1FE5BDFF1FB9BDFF1F8DBDFF1F36
:1051D00061BDFF1F48BFFF1F80BFFF1FD0BFFF1F64
:1051E00000C0FF1F20C0FF1F72B60C4B1B680C4A8B
:1051F00012680C49096862B611F0806F02D0322B38
:1052000088BF0132C3F5BB33FF330749A1FB03035A
:105210009B094FF47A7000FB0230704718E000E001
:105220004CDFFF1F04ED00E0ABAAAAAA38B5054683
:10523000FFF7DAFF044625B938BD013D0AD004F571
:105240007A74FFF7D1FF001BB0F57A7FF5D201F039
:10525000CDFAF6E738BD00BF10B5264B4FF400027B
:105260001A604FF080721A604FF000721A604FF0AF
:1052700080621A604FF000621A6000201E4B1860B6
:105280004BF6FF710433196028231C4A136008325F
:10529000136008321360083213600832136008325A
:1052A000136008321360083213600922144C226024
:1052B00004F58054043420600434216004342360F5
:1052C00008342360143C226004F5FE24043420607A
:1052D0000C4801600C490B6008310B600B4B1A60E5
:1052E000FFF70AFC4FF4C870FFF7A0FF00F074FC52
:1052F00010BD00BF08E100E0048003400C800340C3
:105300000080034008800B400C800B4000800B4065
:1053100030B40E4B1B7843F002020D4C04EBC20478
:1053200060600C48007800280CBF8824C82444EA38
:105330000141074D45F8321080F00100054A107018
:1053400083F00103014A137030BC7047B8DFFF1FC0
:105350000080FF1F31E0FF1F10B4431E032B11D844
:1053600072B60A4A52F8230050B14268074941F820
:105370002320074A32F813400188611A22F81310DB
:1053800062B600E000205DF8044B7047A8DFFF1F05
:1053900080E2FF1F013803280DD872B6074B53F87F
:1053A00020302BB1002001305B68002BFBD100E0E6
:1053B000002062B670470020704700BFFCDFFF1F6F
:1053C00038B572B601231B491B4C5A1812F8012C30
:1053D00012F0080F24D09A0054F832506DB9164BD1
:1053E00003EBC20108304860144943F83210144BF3
:1053F0001A78013A1A7062B638BD42F0010254F8C8
:1054000032506DB90C4B03EBC201083048600D49B6
:1054100043F832100A4B1A78013A1A7062B638BD56
:105420000133052BD1D162B60022054B1A7000F072
:1054300037FC38BD60D500000080FF1F88004000A9
:1054400026E0FF1FC800400010B4431E032B37D8CE
:10545000400140F010001C4A104472B61B4AD25C56
:10546000032A09D8DFE802F019021B0508300222DE
:1054700016E00830042213E0154A52F823201AB926
:10548000134A42F8231003E0124A52F823205160D5
:10549000104A42F8231062B612E0032200E005220F
:1054A0000A4CE25401F10803436000F00803002BAA
:1054B0000CBF8823C8230A8843EA0243036062B60C
:1054C0005DF8044B704700BF0080FF1F64DFFF1FC3
:1054D000FCDFFF1F0CE0FF1F2DE9F84FA34CDFF8A6
:1054E000E092DFF8E0A2DFF8E0B22578EDB215F047
:1054F000040F1DD09E4B1B7813F0FF0F16D09D4B51
:105500001B7803F0FF022BB1531EDBB2994A1370D4
:1055100003B900BE984B1B7803F0FF0233B1531E52
:10552000DBB2954A13700BB900F018FD0423237009
:1055300015F0080F00F0E48299F80030DBB21D0985
:1055400040F021828D4D9E0805EBC6035A6855F840
:105550003630C3F38303013B0C2B00F21082DFE8EB
:1055600013F0CB01CB010E020E020E020E020E0250
:105570000E02E8010E020E020E020D0080491368B1
:105580000B6052684A607F4A45F8362000227E4907
:105590000A607A490A618A6101217C4A11709BB2D2
:1055A00040F28162934218D8B3F5D06F2ED2B3F592
:1055B000817F00F01E8106D8802B00F0C980822BED
:1055C00000F0CC8066E140F20232934200F0268186
:1055D000B3F5A06F00F062815CE142F221029342D8
:1055E00000F0868107D8B3F5086F00F0AB80B3F503
:1055F000106F11D04EE142F22122934200F041811E
:1056000042F22132934200F0498143E1604B5D68F0
:10561000002D40F0188130E1594B9A78544B1A70A4
:10562000564D05F180062B6A13F0800F03D0686A8F
:10563000083800F035FB0835B542F4D1DFF88C812D
:1056400000263746534AB05828B1456800F028FB79
:105650000DB12846F9E700234E4973504E4AB35026
:105660004E4BF05828B1456800F01AFB0DB12846A2
:10567000F9E7002349497350494AB35028F8023FDB
:10568000484BFB5C023B032B0AD8DFE803F0020621
:1056900002060022434BDA5502E00122414BDA5563
:1056A00001370436102ECDD100223F4B1A70012550
:1056B0003E4EDFF81C81314F05EB080313F8013C27
:1056C00006F8043B13F0080F2DD000F0C9FA48B1DA
:1056D000A90007EB451200F108035360344A47F86C
:1056E000312007E0AB00002247F833202E4B1A7818
:1056F00001321A7000F0B4FA58B1AB0043F0010364
:1057000007EBC30100F108024A601E4A47F8332044
:1057100009E0AB0043F00103002247F83320224B9D
:105720001A7801321A70AA0042F00201002347F8E9
:10573000313042F0030247F8323001351D4B9E42B2
:10574000BAD11EE20A4B1B781B4D2B700127AAE031
:10575000194D00232B706B700227A4E0084B9B8827
:10576000042B37D90F22154B1A70C1E08020074057
:1057700030E0FF1FB9DFFF1F32E0FF1F0080FF1F77
:105780001CE0FF1FC800400050DFFF1F31E0FF1F7B
:1057900064D50000A8DFFF1F54DFFF1FFCDFFF1FE1
:1057A0000CE0FF1F64DFFF1F26E0FF1FC42007403F
:1057B00088004000D420074028E0FF1FC020074099
:1057C0009020074094200740982007407EE2FF1F6A
:1057D00060D50000A04A0021117051709F4A12F854
:1057E000233013F0020F5CD09B4D01232B70022756
:1057F00059E09B4B9B8803F07F03042B02DC984A03
:1058000052881AB10F22954B1A7071E0934A12F820
:10581000231021F0020102F82310B2E1904B9B8883
:1058200003F07F03042B02DC8D4A52881AB10F2249
:105830008A4B1A705CE0894A12F8231041F0020189
:1058400002F823109DE1864B5E889F88854BA3F16B
:105850000C02114633F80C0CB04209D133F80A0C93
:10586000B84205D1360A032E0CBF2F7817891AE0EB
:105870000D690C330C32002DEBD10F22774B1A70CF
:1058800036E0794B1A68794B1A60754B9A78784BE9
:105890001A7076E10F22714B1A7029E000273D46FD
:1058A00001E002276C4D6E4BDB889F4228BF1F46EC
:1058B000402F34BF3E46402628463146FFF728FD9C
:1058C0003544BF1B03D13F2E00F2608110E0402F12
:1058D00034BF3E46402628463146FFF719FD354481
:1058E000BF1B01D13F2E03D9624B1D60624B1F804D
:1058F00001238AF8003042E0594B198842F2210313
:10590000994212D15D4BD81D12F8011B03F8011FFB
:105910008342F9D15A4B1B68862B02D10F22594B77
:105920001A7000200146FFF7F3FC574B45F836305C
:1059300025E0504B1E68BEB14F4FB7F80080B8F15C
:10594000400F34BF4546402530462946FFF7E0FC6E
:10595000C5EB08039BB23B800BB9402D01D1354408
:1059600000E00025434B1D603D4B1B88B3F5A06F45
:1059700005D13B4B00225A709B788BF800300123F5
:105980008AF80030B9E0414E9F0806EBC708D8F806
:105990000420A2F10800013DEDB213F0080F47D03A
:1059A00000F07EF93A4B53F825304BB35A6838492A
:1059B00041F8252003F10802C8F80420354A525D59
:1059C000032A12D8DFE802F002060A0E0321314A48
:1059D00051550AE002212F4A515506E005212D4A72
:1059E000515502E004212B4A515518F0080F0CBF05
:1059F0008822C8221B8842EA034346F837307CE0FD
:105A0000244B5B5D032B0BD8DFE803F077770206AE
:105A10000022204B5A5570E001221E4B5A556CE073
:105A200018F0080F0CBF022203221A4B5A5564E0EB
:105A300056F837301B0C22F8083C002B55D00023B9
:105A400022F8063C42F8043C134B53F825302BBB9C
:105A5000114B43F8250025E028E0FF1FC020074038
:105A60001CE0FF1F70D500004CDFFF1F90E2FF1FFE
:105A700040E0FF1F50DFFF1F24E0FF1F87E2FF1FF2
:105A800088E2FF1FB9DFFF1FC80040000080FF1F32
:105A9000FCDFFF1F64DFFF1FA8DFFF1F3F4B53F832
:105AA000253058603D4B43F825003D4B33F8151029
:105AB00032F8082C0A4423F8152000F0D1F860B120
:105AC00000F10803C8F8043018F0080F354B364AC7
:105AD00008BF134646F837300FE0002346F837304A
