:1000000000800020BD0100005D4800002148000084
:10001000214800002148000021480000214800003C
:100020002148000021480000214800005D480000F0
:100030005D480000214800005D48000011480000B4
:100040005D4800005D4800005D4800005D4800001C
:100050005D4800005D4800005D4800005D4800000C
:100060005D4800005D4800005D4800005D480000FC
:100070005D4800005D4800005D4800005D480000EC
:100080005D4800005D4800005D4800005D480000DC
:100090005D4800005D4800005D4800005D480000CC
:1000A000094100005D4800005D4800005D48000017
:1000B0005D4800005D4800005D4800005D480000AC
:1000C0005D4800005D4800005D4800005D4800009C
:1000D0005D4800005D4800005D4800005D4800008C
:1000E0005D4800005D4800005D4800005D4800007C
:1000F0005D4800008D6700005D480000F16E000063
:100100005D4800006D7400005D4800005D4800001F
:100110005D4800005D4800005D4800005D4800004B
:100120005D4800005D4800005D4800005D4800003B
:100130005D4800005D4800005D4800005D4800002B
:100140005D4800005D4800005D4800005D4800001B
:100150005D4800005D4800005D4800005D4800000B
:100160005D480000594E00005D4800005D480000F9
:100170005D4800005D4800005D4800005D480000EB
:100180005D4800005D4800005D4800005D480000DB
:100190005D4800005D4800005D4800005D480000CB
:1001A0005D4800005D4800005D4800005D480000BB
:1001B0005D4800005D480000655B0000574B4CF255
:1001C000205210B51A804DF628121A8000BF00BFC9
:1001D00004F048FB524B4FF010621A60514A9A608B
:1001E000514ADA60A3F53043203B1A6812F480725A
:1001F00004D14E490A604FF4A8521A604C4B1A7849
:10020000110703D51A7842F008021A70494B4A4C7C
:100210004A482A221A704A4A00239918A14203D256
:10022000195899500433F8E7464B474900228B424E
:1002300002D243F8042BFAE74448454900235A58B0
:100240001A500433B3F5DE7FF9D1424B424A802184
:1002500003F8011B9342FBD1404B3C4A1A60404BD0
:100260008A221A70A3F5805324225A70A0221A7091
:100270009A799207FCD59A79D406FCD4394A9379B5
:1002800003F00C03082B374BF9D105221A714322D6
:100290005A719A799006FCD5324A9179314B4906C8
:1002A000FBD5314A4FF08171116005215160202248
:1002B0001A709A7902F00C020C2AFAD12B4B2C4AB4
:1002C0001A602C4B2C4A1A6000225A60072243F80D
:1002D000042C2A4AC3F80C2D62B604F07DFC134BA3
:1002E0001B68DA0705D5264804F03AFB254B264A59
:1002F0001A60264B1B785B0609D5224C224A2368DC
:10030000934204D11E4804F02BFB0023236009F024
:10031000F7FB04F0ADFA05F0B9FEFEE70E2005404C
:1003200030800440823F04000100002B14D00340C1
:1003300002D0074000E0074018C9FF1F04CD0000AD
:1003400060BDFF1F18C9FF1F24D8FF1F00B8FF1F83
:100350000000000000E400E05FE400E008ED00E0E1
:1003600000500640004006404480044004800440A1
:10037000C010050014E000E03F190100000020203B
:10038000A830C9581CE00340A5C3945A00F00740A8
:10039000FFFFFFFFFFFFFFFFFFFFFFFFFFFFFFFF6D
:1003A000FFFFFFFFFFFFFFFFFFFFFFFFFFFFFFFF5D
:1003B000FFFFFFFFFFFFFFFFFFFFFFFFFFFFFFFF4D
:1003C000FFFFFFFFFFFFFFFFFFFFFFFFFFFFFFFF3D
:1003D000FFFFFFFFFFFFFFFFFFFFFFFFFFFFFFFF2D
:1003E000FFFFFFFFFFFFFFFFFFFFFFFFFFFFFFFF1D
:1003F000FFFFFFFFFFFFFFFFFFFFFFFFFFFFFFFF0D
:10040000FFFFFFFFFFFFFFFFFFFFFFFFDEF9FFFF23
:1004100010B5054C237833B9044B13B10448AFF33E
:1004200000800123237010BD18C9FF1F00000000C9
:1004300004CD000008B5064B1BB106480649AFF3D2
:1004400000800648036813B1054B03B1984708BD07
:100450000000000004CD00001CC9FF1F18C9FF1FC9
:100460000000000010B5044600F5047002F078F9B1
:10047000204610BD0F4B03604172026100230372DE
:10048000C36039B11946026942F823100133427A38
:100490009A42F8DC084B1A680AB9186004E05369FC
:1004A0000BB11A46FBE75061002343618380C38090
:1004B000704700BFF8AD0000D0D5FF1F144B03609C
:1004C0000423437200F12803036100230372C36015
:1004D0001946026942F823100133427A9342F8DB4D
:1004E0000C4B1A680AB9186004E053690BB11A463C
:1004F000FBE75061002343618380C380064B0360A8
:100500004FF480338361C36103624362704700BF6D
:10051000F8AD0000D0D5FF1FD8C700000F4B036017
:100520000023437203610372C3600D4B1A680AB95A
:10053000186004E053690BB11A46FBE750610023D1
:1005400043618380C380074A026003834383C3619E
:10055000036283628385C38503637047F8AD00003F
:10056000D0D5FF1FF8C700002DE9F04F85B04B4BE9
:100570001A684B4B03EB02130A330193494B1B7868
:10058000002B39D0484B1B680293484B1B680393E0
:10059000019A971E00242546DFF81CB1DFF824A13C
:1005A00037F8023F1AB2FF2A22D0029A02FA83F3E6
:1005B00083F307033E4A52F8236044F80B60304649
:1005C000039909F077F881460BEB04031861394B66
:1005D00054F803803046414608F062FF4AF80400B0
:1005E0000AEB04064846414608F05AFF30610235DE
:1005F0000434102CD4D124E02B4BD3F800B0019A52
:10060000971E00242546DFF8A8A0DFF8B890DFF891
:10061000A48037F8023F1AB2FF2A0FD00BFA83F3F7
:1006200083F307035AF82360304654F8081008F0A3
:1006300037FF49F80400204BE65001350434202CE4
:10064000E7D1013D1D4B53F82500164B1B789BB19C
:10065000019B9A1E1A4C04F110032034002532F934
:10066000021FFF291ABF43F8100C186043F8105CF2
:100670000433A342F3D10DE0019B9A1E0023104CDA
:10068000002532F9021FFF2914BF18511D510433F0
:10069000202BF6D105B0BDE8F08F00BFA4CFFF1F1F
:1006A00008CDFF1F60D1FF1F68D1FF1FC0BEFF1F15
:1006B000B0CAFF1FF4BEFF1FD4BEFF1FA0BEFF1FA6
:1006C00040BEFF1F4CD0FF1F2DE9F84F834600248A
:1006D0004FF00008164FDFF864A04FF07C59154B1F
:1006E000E558154BE65847F6FF732B8330464146D5
:1006F00009F07EF928B93046394609F097F910B962
:1007000002E0464600E03E463046514608F0D2FF41
:10071000494608F0C7FE09F0B9F9A8620023EB6169
:10072000A5F82CB00434202CD9D1BDE8F88F00BF37
:10073000A655AC4638CFFF1FD4BEFF1F4B243E4703
:1007400008B504380A4B034003D5013B63F00703A7
:100750000133084A52F8230007490B1F1C3153F894
:10076000042F10638B42FAD10420FFF7ADFF08BDC0
:100770000700008014BFFF1F38CFFF1F2DE9F04F87
:1007800083B03F4B1B78002B4DD03E4B1B68019331
:1007900001983D4B1B68C01A08F034FF3B4B1968A9
:1007A00008F088FF01464FF07E5008F079FE814640
:1007B000002109F01DF920B10022314B1A704FF0D1
:1007C000000900240027DFF8D880DFF8D8B04FF008
:1007D0007C5A48462E4BE15808F06CFF01462D4BE1
:1007E000E05808F05DFE05462B4BE0502B4BE658D9
:1007F000394609F0FDF828B92846414609F016F9AE
:1008000010B902E03D4600E045462846594608F04A
:1008100051FF514608F046FE09F038F9B062043441
:10082000202CD6D128E00024DFF870B00027DFF8B4
:100830007080DFF870904FF07C5A54F80B60154BC5
:10084000E5582846394609F0D3F828B928464146E4
:1008500009F0ECF810B902E03D4600E045462846B4
:10086000494608F027FF514608F01CFE09F00EF932
:10087000B0620434202CE0D103B0BDE8F08F00BF9B
:100880007CD0FF1FD8D4FF1F38C9FF1F34BFFF1F04
:100890004CD0FF1FD4BEFF1FF4BEFF1F38CFFF1F79
:1008A000A655AC464B243E4738B5734B1A68734B7C
:1008B00053F822402046724B196808F0FBFE0546AB
:1008C000704909F0B3F828B928466F4909F090F843
:1008D00010B902E06B4D00E06B4D28464FF08F41A0
:1008E00008F0E8FE09F0ACF8684B98612046644BCC
:1008F000596808F0DFFE0546624909F097F828B903
:100900002846614909F074F810B902E05D4D00E035
:100910005D4D28464FF08F4108F0CCFE09F090F86D
:100920005A4BD8612046564B996808F0C3FE0546DD
:10093000544909F07BF828B92846534909F058F87A
:1009400010B902E04F4D00E04F4D28464FF08F4167
:1009500008F0B0FE09F074F84C4B18622046484B82
:10096000D96808F0A7FE0546464909F05FF828B99E
:100970002846454909F03CF810B902E0414D00E035
:10098000414D28464FF08F4108F094FE09F058F889
:100990003E4B586220463A4B196908F08BFE0546DB
:1009A000384909F043F828B92846374909F020F8B2
:1009B00010B902E0334D00E0334D28464FF08F412F
:1009C00008F078FE09F03CF8314B986120462C4B3A
:1009D000596908F06FFE05462A4909F027F828B939
:1009E0002846294909F004F810B902E0254D00E035
:1009F000254D28464FF08F4108F05CFE09F020F8A5
:100A0000234BD86120461E4B996908F053FE0546DA
:100A10001C4909F00BF828B928461B4908F0E8FFE3
:100A200010B902E0174D00E0174D28464FF08F41F6
:100A300008F040FE09F004F8154B18622046104BF0
:100A4000D96908F037FE04460E4908F0EFFF28B9CF
:100A500020460D4908F0CCFF10B902E0094C00E037
:100A6000094C20464FF08F4108F024FE08F0E8FFC3
:100A7000074B586238BD00BFFCD0FF1F70BEFF1F80
:100A800040BEFF1F00FEFF4600FEFFC66CCFFF1FEB
:100A900074C9FF1F10B50446D0F1010138BF002111
:100AA000032003F06DFF0420012C14BF002101215D
:100AB00003F066FF0520022C14BF0021012103F082
:100AC0005FFF0620032C14BF0021012103F058FF13
:100AD00010BD00BF2DE9F04115480A2101F020FFAB
:100AE000064608BB0024DFF848800A27114D14E0B1
:100AF0000F20FFF7CFFF142004F058F814EA050088
:100B000003D5013860F003000130FFF7C3FF142064
:100B100004F04CF80134052C06D04046394601F06B
:100B2000FFFE06460028E3D03046BDE8F08100BF56
:100B3000FCD1FF1F0300008010B582B00446831073
:100B4000184A1360002B08DD0122174B1A70174B4F
:100B50001B680193019A164B1A601648204003D572
:100B6000013860F003000130FFF794FF40F2D240FB
:100B7000E1B203F02BFE4FF080420F4B1A60094B9D
:100B80001B682BB90D4B33F91400FFF79DFD02E0F4
:100B90002046FFF7D5FD4FF08042094B1A6002B0A6
:100BA00010BD00BFACCAFF1F98CAFF1FD8D4FF1FDB
:100BB000D4D0FF1F0300008088E100E0C8BEFF1F03
:100BC00008E100E000B583B0184B1B68002B29DD5D
:100BD000174A126800920099013B4FF4967202FB8B
:100BE00003F36433134A12688A1A93421AD8104BDB
:100BF0001B680193019A0F4B1A600F4A137883F018
:100C0000010313705BB10D4B18680D4B184003D5F1
:100C1000013860F003000130FFF73CFF02E00F20D5
:100C2000FFF738FF03B05DF804FB00BFACCAFF1F3D
:100C3000D8D4FF1FD4D0FF1F98CAFF1FFCD0FF1FBE
:100C40000300008070B58CB0092003F0CBFC064691
:100C5000062003F0C7FC0446072003F0C3FC05464A
:100C6000082003F0BFFC331941F6FF74A342A8BF6C
:100C7000234623EAE373764A1360A542A8BF2546BC
:100C800025EAE575A042A8BF204620EAE0740021CD
:100C9000704A1170704A126802F14001994203DBF8
:100CA000A2F14001994202DD6B4A136006E09B1AF3
:100CB00002EB6312684B1A60654B1A60674B1B6846
:100CC00003F14002AA4203DBA3F14002AA4205DD80
:100CD000624B1D6001225F4B1A7004E0ED1A03EBBA
:100CE00065155E4B1D605E4B1B6803F1400294422C
:100CF00003DCA3F14002944205DA594B1C60012247
:100D0000544B1A7004E0E41A03EB6414544B1C6057
:100D10004F4B1868534B1B68009300214FF400524F
:100D20000B4605F065F8504B1860504B1B68984215
:100D300004D001224E4B1A704C4B18604D4B186872
:100D4000844211DD201A08F061FC4B4B196808F051
:100D5000B1FC4A4908F0A6FB4FF07E5108F0A2FB17
:100D600008F06EFE044600E0242430230093284659
:100D700000214FF400520B4605F03AF82044404B56
:100D80001860404B1B68984204D00122384B1A70FF
:100D90003C4B1860082003F017FE3B4B1B68039385
:100DA000039B3A4A12689B1A0A2B0DD960B9364B3D
:100DB0001B6804930499364B1B68CB1AB3F57A7FF2
:100DC00002D30121334B19702F4B19680591059CF3
:100DD000196806910699A21A02FB10102B4A10609E
:100DE0001B680793079B181AB0F57A7F0DD901226B
:100DF000294B1A70244B1A6808920899244A1160EA
:100E00001B680993099A214B1A60244B1B78EBB994
:100E1000234C204600F07CFF204600F0B1FF214B20
:100E2000187028B1184B1B680A930A9A1E4B1A6057
:100E3000154B1B680B930B991B4B1B68C91A0B2096
:100E400013298CBF0021012103F09AFD0CB070BD65
:100E500040D1FF1FA4CAFF1FD8D0FF1F88D0FF1F9B
:100E6000A8CAFF1F68BEFF1FA4CFFF1FA0CAFF1F95
:100E700064BEFF1F14D0FF1F64D1FF1F000010428B
:100E800068D1FF1F34C9FF1FD8D4FF1F18CAFF1F26
:100E90003CD1FF1FC0CCFF1F8CD0FF1F54D1FF1FC0
:100EA00058D1FF1F68CFFF1F9CCAFF1F10B586B027
:100EB000FFF7C8FE4A4B1B786BB1FFF755FB494B58
:100EC0001B7843B1484B1B680093009A474B1A604C
:100ED0000122474B1A70444A136801930198454B0D
:100EE0001968411A4448007812680292029A00FB7D
:100EF00011211960414B1B7893B1414B19680131A5
:100F0000404A1268920091FBF2F002FB1010186048
:100F1000FFF712FE0122324B1A700022374B1A7073
:100F20002F4B1B780BB3304B1B680393039A364B44
:100F30001A600124354B1C700920214603F052FD34
:100F40000B20214603F01CFD0920214603F018FD6B
:100F50004FF080442E4B1C60FFF710FCFFF7A4FC01
:100F60002C4B1C6000221E4B1A70214B1B78ABB11E
:100F70001D4B1B680493049A1C4B1B68D31A264A0A
:100F800012689A4202D80022194B1A704FF080441E
:100F90001F4B1C60FFF7F2FB1E4B1C60FFF712FE9D
:100FA0001A4B1B78CBB1104B1B680593059A164B57
:100FB0001B68D31A194A12689A420ED20B200021DC
:100FC00003F0DEFC0920002103F0DAFC09200021F7
:100FD00003F008FD00220D4B1A7006B010BD00BFD3
:100FE00064BEFF1F14CAFF1FD8D4FF1F38C9FF1FDC
:100FF0007CD0FF1F3CC9FF1F84D0FF1FC0CCFF1F48
:10100000FCD0FF1F6CBEFF1F80D0FF1F54D1FF1FFD
:1010100088E100E008E100E0C4BEFF1F60BEFF1FE2
:1010200008B5453807F0E8FE02460B4606A1D1E9AF
:10103000000106F0E1FC0022054B07F043FF08F039
:10104000DBF908BDAFF30080000000A08FF3F03F94
:1010500000807B40AFF3008030B583B002200021D8
:1010600003F0C0FC0820002103F0BCFC0920002193
:1010700003F0B8FC0B20012103F0B4FC0620012191
:1010800003F0B0FC0520012103F0ACFC0420012199
:1010900003F0A8FC0320012103F0A4FC79483221CD
:1010A00004F040FC0D2003F06FFA774B774A1A608A
:1010B000774A5A60774A9A60774ADA60774A1A61C3
:1010C000774A5A61774A9A61774ADA61774D002404
:1010D0002046FFF7A5FF45F8040F0134802CF7D117
:1010E000734B1B7843F001027249096811F4805F69
:1010F00002D0934240F09F806D490A7043F005038F
:101100006C49096811F4805F02D09A4240F09D80DA
:10111000674A137040F2D24003F042FB664B1860FE
:10112000664B184003D5013860F003000130FFF72B
:10113000B1FCFFF7CFFC0146614C204600F0A0FD5A
:10114000627A604B1A606378002B40F088808FE0F1
:101150005B4CA2785C4B1A7060685C4B186008F0BE
:1011600051FA01464FF07E5008F058FB584B18607A
:10117000227A584B1A602278574B1A704248031F44
:101180001C304FF0804153F8042F11628342FAD192
:1011900052494FF480438B61514A9361CB61D361D3
:1011A0000B6213624B6253624E4B47F670529A6168
:1011B000DA6100221A625A624B4806234385C385CE
:1011C0004FF480320263838600F094FE474B1B6825
:1011D0003BB9394B1A68464B33F91200FFF774FAE2
:1011E0000CE0354B1868FFF7ABFA0122414B1A703F
:1011F000414B1B680193019A404B1A60354B1868AC
:1012000008F004FA04464FF08C40214608F006FB33
:101210004FF07C5108F04EFA08F012FC384B186081
:10122000C0F5005008F0F2F90146204608F0F6FA41
:10123000344B186023E04FF4A270334908604FF438
:10124000007001F57F61086056E74FF4A2712F4AE4
:1012500011604FF4007102F57F62116058E70322BC
:101260002B4B1A60144B1A689210204B1A606FE7D0
:101270000122274B1A6000220F4B1A6068E703B067
:1012800030BD00BF0082FF1F38CFFF1FE0CFFF1F20
:1012900040C9FF1F18D0FF1FACC9FF1FE0C9FF1FC7
:1012A000D4CCFF1F90D0FF1F1CCAFF1FACCAFF1F6A
:1012B00000D6FF1F3C800440FCD0FF1F03000080CD
:1012C00008CDFF1F68BEFF1F14CAFF1FC4BEFF1F4B
:1012D00034BFFF1FD0BEFF1F60D1FF1F6CCFFF1FA9
:1012E00074C9FF1FA8CFFF1F60CAFF1FACCAFF1F32
:1012F000C8BEFF1F98CAFF1FD8D4FF1FD4D0FF1F3E
:1013000014D0FF1F64D1FF1F18B0044014B0044074
:101310006CBEFF1F2DE9F04F89B003F0FDF9824C40
:10132000204600F0D5FC2046092100F0D9FC2046DB
:10133000282100F0EBFC7D4B1A68079207997C4A44
:1013400011601A68069206997A4A11601A68059225
:101350000599794A11601A6804920499774A1160D4
:101360001A6803920399764A11601A6802920299E8
:10137000744A11601B680193019A734B1A60DFF87D
:1013800038B25846FFF7CAF8DFF830A25046FFF7E8
:10139000C5F86E48FFF7C2F86D48FFF7BFF86D4813
:1013A000FFF7BCF86C48FFF7B9F86C48FFF7B6F8E0
:1013B0006B48FFF7B3F86B4F3846FFF77FF86A4E7C
:1013C0003046FFF77BF8DFF8F8914846FFF776F8EC
:1013D000664D2846012105F11802FFF74BF8644BD2
:1013E0002B6000242C772C8509236B854FF0030399
:1013F000AB855323EB854AF6C0232B63A623AB862C
:10140000DFF8C0814046012108F11802FFF732F8E9
:10141000584BC8F80030404600F0A6FE5648C0F8C9
:1014200000B0476004724472C46004F06DFB53481E
:10143000C0F800A0476004724FF0010A80F809A0CC
:10144000C46004F061FB4E48404B03604760047287
:101450004FF0020B80F809B0C46004F055FB494816
:101460003B4B0360476004724FF003034372C46058
:1014700004F04AFB4448374B0360466004724472F0
:10148000C46004F041FB4148334B03604660047282
:1014900080F809A0C46004F037FB3D482F4B03607F
:1014A0004660047280F809B0C46004F02DFB39482E
:1014B0002B4B0360466004724FF003034372C46019
:1014C00004F022FB34480760C0F8049004724472B0
:1014D000C46004F019FB31480660C0F8049004723F
:1014E00080F809A0C46004F00FFB2D48C0F80090FC
:1014F000456004724472C46004F006FB294805602C
:10150000C0F8048004724472C46004F0FDFA264CF2
:101510002046264900F058F820462549254A08F07B
:10152000D5FA09B0BDE8F08F58D1FF1FD8D4FF1FFE
:101530003CC9FF1F9CCAFF1F18CAFF1F3CD1FF1FD9
:1015400080D0FF1FD4D0FF1F38C9FF1F18D0FF1F46
:10155000ACC9FF1FE0C9FF1FD4CCFF1F90D0FF1FF5
:101560001CCAFF1F6CCFFF1F74C9FF1F60CAFF1F7B
:10157000C8C70000E8C70000DCD0FF1FB0CCFF1FC9
:101580006CD0FF1F50CAFF1F1CD1FF1FC4D0FF1F0C
:10159000C4CCFF1FECD0FF1F2CD1FF1F6CD1FF1F4D
:1015A00058CFFF1F44D1FF1F08CDFF1F44BE0000CE
:1015B000650400003CBEFF1FE0CFFF1F40C9FF1FB6
:1015C000A8CFFF1F00D1FF1FF8B504460F46002328
:1015D000037043708370322242602622027243728B
:1015E0000A4E4FF480750A3031462A4602F024FE36
:1015F00004F5857071192A4602F01EFE04F5047088
:1016000001F0A0F8C4F80C722046F8BD54BE0000EA
:1016100010B400F1080300F5847408E0B3F8022167
:1016200023F8022F8B42F9D1A14203D00B4603F1DC
:101630001001F3E7102343725DF8044B704700BFBD
:1016400070B588B00546AE4C2046D5F80C1201F0B6
:1016500091FA68462146D5F80C22132301F000FACE
:101660009DF8043085F81432029BC5F818329DF8B5
:101670000C3085F81C3208AB53F8134D5868996844
:10168000C5F81D42C5F82102C5F825121B7B85F857
:101690002932079BC5F82C32684601F061F805F540
:1016A0000474D5F810325B68204696493C2298476E
:1016B000204604F047FBD5F810325B68204692497B
:1016C0003C229847204604F03DFBD5F810325B6879
:1016D00020468E493D229847204604F033FBD5F83A
:1016E00010325B6820468A493D229847204604F024
:1016F00029FBD5F810325B68204686493C22984782
:10170000204604F01FFBD5F81032834E5B6820465C
:10171000314600229847204604F014FBD5F81032D9
:101720005B6820467D493E229847204604F00AFB2C
:10173000D5F810325B68204679493E22984720460A
:1017400004F000FBD5F810325B68204675493E2254
:101750009847204604F0F6FAD5F810325B68204628
:1017600071493E229847204604F0ECFAD5F8103231
:101770005B6820466D493D229847204604F0E2FA16
:10178000D5F810325B682046314600229847204643
:1017900004F0D8FAD5F810325B6820466449282254
:1017A0009847204604F0CEFAD5F810325B68204600
:1017B000604933229847204604F0C4FAD5F8103225
:1017C0005B6820465C492F229847204604F0BAFA0D
:1017D000D5F810325B682046584933229847204696
:1017E00004F0B0FAD5F810325B682046544919224B
:1017F0009847204604F0A6FAD5F810325B682046D8
:10180000314600229847204604F09CFAD5F8103261
:101810005B6820464B4915229847204604F092FA0F
:10182000D5F810325B682046474915229847204674
:1018300004F088FAD5F810325B6820464349192233
:101840009847204604F07EFAD5F810325B682046AF
:101850003F4919229847204604F074FAD5F810320F
:101860005B6820463B491A229847204604F06AFAF2
:10187000D5F810325B68204637491A22984720462F
:1018800004F060FAD5F810325B68204633491D2217
:101890009847204604F056FAD5F810325B68204687
:1018A0002F4919229847204604F04CFAD5F81032F7
:1018B0005B6820462B4919229847204604F042FADB
:1018C000D5F810325B6820462749182298472046F1
:1018D00004F038FAD5F810325B6820462349182204
:1018E0009847204604F02EFAD5F810325B6820465F
:1018F0001F4919229847204604F024FA3AE000BF15
:10190000FCD1FF1F54C0000094C00000D4C00000F0
:1019100014C1000054C10000D0C0000094C10000F8
:10192000D4C1000014C2000054C2000094C20000E0
:10193000D4C2000000C3000034C3000064C3000030
:1019400098C30000B4C30000CCC30000E4C300008F
:1019500000C400001CC4000038C4000054C40000CF
:1019600074C4000090C40000ACC40000C8C40000EF
:10197000E4C40000D5F810325B68204614491822F0
:101980009847204604F0DEF9D5F810325B6820460F
:10199000104913229847204604F0D4F9D5F81032A4
:1019A0005B6820460C491D229847204604F0CAF97E
:1019B000D5F810325B682046084926229847204611
:1019C00004F0C0F9204600F0F3FE08B070BD00BF7F
:1019D00000C500001CC5000030C5000050C5000057
:1019E0002DE9F047A4B005464FF0000880F80980C3
:1019F0006846414604F056FA04A89649D5F80C22E8
:101A0000012301F02DF89DF8143085F81432069B5F
:101A1000C5F818329DF81C3085F81C3224AB53F8F9
:101A2000734D58689968C5F81D42C5F82102C5F87C
:101A300025121B7B85F829320B9BC5F82C3204A894
:101A400000F08EFE4646844FDFF82CA2DFF82C9281
:101A5000E7E0204600F00EFEC1B25B2903D16B7AAD
:101A60000F2B2DD9ECE0212900F0D780012E2CD1AD
:101A70002C290FD16C7A684604F000FB08EBC404F3
:101A800005EB440460816846744904F01FFA08F1CC
:101A90000108C6E05D2913D16C7A684604F0EEFABD
:101AA00008EBC40405EB4404608168466B4904F00C
:101AB0000DFA6B7A01336B724FF000084646B0E0C6
:101AC000684604F049FA0126ABE0022E40F0A980F6
:101AD0000A2940F0A2803B685B68384651460722DD
:101AE00098473846694604F007F93B685B68384612
:101AF000494601229847384604F024F90CA8584971
:101B000004F0D0F968460CA904F050FA04460CA879
:101B100004F07CF914B101236B7078E010A85149EE
:101B200004F0C0F9684610A904F040FA044610A871
:101B300004F06CF9FCB10123AB706846202104F07D
:101B40006BFA021E63DD14A8694604F08FFA14A82C
:101B500004F094FA686014A804F058F96B68042B38
:101B600002DC05236B6052E0B3F5967F4FDD4FF446
:101B700096736B604BE018A83B4904F093F96846F4
:101B800018A904F013FA044618A804F03FF9DCB1D0
:101B90006846202104F040FA021E38DD1CA8694680
:101BA00004F064FA1CA804F069FA28721CA804F076
:101BB0002DF92B7A0B2B02D80C232B7227E0482B04
:101BC00025D948232B7222E020A8284904F06AF97D
:101BD000684620A904F0EAF9044620A804F016F9A2
:101BE00014B101232B7012E03B685B683846204932
:101BF0000F2298473846694604F07EF83B685B68D8
:101C000038461C4901229847384604F09BF868463C
:101C1000124904F05BF9002603E0684604F09CF9E1
:101C2000022605F50474204600F0AEFD00287FF47E
:101C300010AF204600F0BCFD684604F0E7F805E070
:101C4000012E3FF43DAF022EEBD1E6E724B0BDE814
:101C5000F08700BFFCD1FF1F04D6FF1FD0C00000DB
:101C600080C5000088C5000090C5000098C5000030
:101C7000A0C50000B0C5000078C50000B0C30000DA
:101C800030B589B0044611B9FFF7C2FC19E00E4D1A
:101C9000684629460D4A012300F0E2FE2846D4F8A2
:101CA0000C1200F05BFF18B12046FFF799FE05E02B
:101CB0002046FFF7C5FC2046FFF792FE684600F07D
:101CC0004FFD09B030BD00BFFCD1FF1FB4C50000FF
:101CD000002202600A2181808271C271704700BFB8
:101CE00010B582B00446C8B2E0710023A37102F0BF
:101CF0006BFE08B10323A371034B1B680193019B87
:101D0000236002B010BD00BFD8D4FF1F8180704790
:101D100030B585B00446C07902F056FE003018BFD9
:101D20000120A37903F0F702A271C3F340018842B6
:101D300008D0124B1B680193019B236082F00202C2
:101D4000A27116E00D4909680291029D2168691A85
:101D5000A588A9420DD303F00103984209D0074B8F
:101D60001B680393039B236082F0010242F0080288
:101D7000A271A079C0F3C00005B030BDD8D4FF1F58
:101D8000807900F00900092814BF00200120704765
:101D90002DE9F84F0446002103F092FE804600280A
:101DA00000F0A680237F1BB903F048FEBDE8F88F42
:101DB000031D00F5827E734580F092804FF6FF7A16
:101DC0004FF000094FF0040CE28B002A55D1227F1E
:101DD000022A17D1A28DE28342B14FF0030121778D
:101DE0004FF480322262C4F8249076E0E28DE283E0
:101DF00084F81CC0216BA1F58031D20091FBF2F276
:101E000062626AE0032A0BD184F81CC0E28DE2838F
:101E1000216BA1F5803191FBF2F2D21062625CE09D
:101E2000042A09D14FF005012177A4F81EA0226BE6
:101E30002262C4F8249020E0052A02D1A4F81EA052
:101E40001BE0062A0BD1002222779E4548D91A6052
:101E50005A609A60DA6010339E45F8D840E0012A53
:101E60000BD14FF002022277628DE2834FF4803172
:101E700091FBF2F2D21062622FE01E685D689F68EB
:101E8000D968626A206A02EB000B3BFB06F09344C0
:101E90003BFB16F6C0EA064693443BFB05F0934431
:101EA0003BFB15F5C0EA054593443BFB07F0934423
:101EB0003BFB17F7C0EA074093443BFB01F75A444A
:101EC000226232FB11F2C7EA02471E605D60986031
:101ED000DF60E28B013AE28310339E453FF674AF38
:101EE00020464146002203F0C9FD404603F0A6FD0E
:101EF000BDE8F88F72B600230362038DC38323B15C
:101F0000012303770023436209E002230377438D13
:101F1000C3834FF4803292FBF3F3DB10436262B66B
:101F2000704700BF10B5044603F0B8FE204610BD50
:101F300008B503480349044A07F0C8FD08BD00BFBF
:101F40007CD1FF1F251F00003CBEFF1F38B5064D8A
:101F5000064C07482946224607F0B8FD05482946A1
:101F6000224607F0B3FD38BD251F00003CBEFF1F11
:101F700084D1FF1F8CD1FF1F08B503480349044AD1
:101F800007F0A4FD08BD00BF94D1FF1F251F00006E
:101F90003CBEFF1F08B503480349044A07F096FDFD
:101FA00008BD00BF9CD1FF1F251F00003CBEFF1FC6
:101FB0002DE9F8438146804600263746F7B9484662
:101FC000314603F07DFD0746002853D0D8F818109D
:101FD000B1F5803F4ED0031D00F582741A6831FBC5
:101FE00002F031FB12F200F30F0002F30F02C0EA1D
:101FF000024243F8042B9C42F0D83BE0484631466D
:1020000003F052FD8446A8B33B1D051DD8F81840C7
:1020100007F5827EB4F5803F16D107F10C040C3031
:1020200054F8082C50F8081C92FA11F244F8082CC5
:102030005A6850F8041C92FA11F25A6008330834B6
:1020400008309E45ECD812E055F8042B34FB02F022
:1020500034FB12F200F30F0002F30F02C0EA024257
:10206000196892FA11F143F8041B9E45ECD86046BA
:1020700003F0E4FC013608F10408042E9ED13FB1C0
:1020800048463946002203F0F9FC384603F0D6FCF6
:10209000BDE8F88308B5002103F006FD0246A0B1B3
:1020A00072B60A4B186810B91A6062B608BD084BC0
:1020B0001B681BB9064B1A6062B608BD03490B606A
:1020C000034B1A6062B603F0B9FC08BDB4D1FF1F20
:1020D000A4D1FF1F38B51C4B1A68126819791B4B25
:1020E00019701B4B9A4206D2A3F5807404F58073D5
:1020F00004F5007402E0174B03F58074164A10686B
:1021000098B1021D47F6FF7532F9021B29440911E7
:1021100023F8021B9C42F7D803F090FC0F4B1A687F
:102120000D490A6000221A6005E040F2FF7223F8B0
:10213000022B9C42FBD80A4B1B781BB14FF080420C
:10214000084B1A6038BD00BFA8D1FF1F1F80004098
:10215000C8B5FF1FC8B4FF1FB4D1FF1FA4D1FF1F14
:10216000B0D1FF1F08E200E070B54F48012103F035
:1021700037FD4E4B1A6842F480521A60802203F5F4
:10218000032303F6F5731A700024494E01253480A9
:10219000284602F00BFD0834A4B223B2B3F5006F59
:1021A000F5D1444B1B6813F4800F16D0424B1A68CC
:1021B00048F6A2731A409A420FD1404B1A6840F277
:1021C0002F339A4209D13E4B1B68012B05D13D4B61
:1021D0001A6840F201139A4217D0364B1A6842F43B
:1021E00080021A600122A3F59033303B1A6040F25E
:1021F0002F32083B1A60043B48F6A3721A60324A39
:102200001A6040F2011210331A60274C23681A68D2
:1022100000222E4919602368022119715A71012088
:102220009871D87119725A729A72DA721A736FF0C1
:10223000010159734FF0FF319973D97319691C4922
:1022400019611A755A75D98A4FF48071D9821A7634
:102250005A769A76DA76D88BD983998B0621998328
:10226000237903F1804303F504331A70B0221A7006
:1022700003F062FC164B18702279164B1A70227903
:1022800002F110011448154B43F8210053119B0033
:1022900003F1604303F5614302F01F02012101FADB
:1022A00002F21A6070BD00BFA8D1FF1F2C8004404D
:1022B00000C00C403C8004400060034004600340C8
:1022C0000C60034010600340A28F0100C8B4FF1FE0
:1022D000B0D1FF1F1B800040D520000000B8FF1FB9
:1022E00008B503480349044A07F0F0FB08BD00BFE6
:1022F000A8D1FF1F251F00003CBEFF1F08B50348E3
:102300000349044A07F0E2FB08BD00BFB8D1FF1F34
:10231000251F00003CBEFF1F08B503480349044ABF
:1023200007F0D4FB08BD00BFC0D1FF1F251F000070
:102330003CBEFF1F08B503480349044A07F0C6FB2B
:1023400008BD00BFC8D1FF1F251F00003CBEFF1FF6
:1023500008B503480349044A07F0B8FB08BD00BFAD
:10236000D0D1FF1F251F00003CBEFF1F08B503484A
:102370000349044A07F0AAFB08BD00BFD8D1FF1FDC
:10238000251F00003CBEFF1F2DE9F8430446B0F9AD
:102390001830002B00F0FD8003F0F4FA0746002807
:1023A00000F0F780061DB4F92C30072B00F2D9801D
:1023B000DFE803F0046A58922BAF7EC100F5827EFD
:1023C00033464FF6FF757448E269D10DC2F3CF1260
:1023D000B4F918C0C2EB050830F91190013130F999
:1023E000111002FB01F109FB0812121402FB0CF29E
:1023F000D21323F8022BA16AE2698A1848BF22F09F
:102400000042E2617345DFD1ABE0236B1BB903F0FF
:1024100015FBBDE8F88300F5827E33464FF6FF7565
:10242000E269D00D216BC2F3CF12B4F918C031F9B3
:102430001080C2EB05090130C0B231F9101002FB67
:1024400001F109FB0812121402FB0CF2D21323F85B
:10245000022BA16AE2690A4422F00042E26173455C
:10246000DED17EE0821D8023E16911F0804F218B57
:1024700018BF494222F8021CA06AE1690144E161E7
:102480000232013BF0D16CE000F582703346E26924
:1024900042F3CF32B4F9181001FB02F2D21323F841
:1024A000022BA16AE2690A44E2618342EFD158E05B
:1024B00000F582703346E26942F3CF32B4F9181066
:1024C00001FB02F2D21323F8022BA16AE269521A2D
:1024D000E2618342EFD144E000F582703246E36965
:1024E000002B258BBCBF6D42ADB2990013F0804F1D
:1024F00018BF4942490C2BB203FB01F1C91322F862
:10250000021BA16AE36903EB4103E3618242E6D166
:1025100027E0821D8023E069216A8842218B38BF31
:10252000494222F8021CA06AE1690144E1610232D9
:10253000013BF0D115E000F582783546A26AE369E7
:10254000934205D2B4F91810484203F047FCA08426
:10255000A38C25F8023BA26AE3691344E361454575
:10256000ECD1B4F92E3063B107F58271B6F90030C1
:10257000B4F92E20134403F30F0326F8023BB142B3
:10258000F4D820463946002203F078FA384603F0A2
:1025900055FABDE8F88300BFB8C50000184B1A68AB
:1025A00042F480521A60174B174A1A60174ADA60D1
:1025B00002F180421A61164A1A60164B1B7813F01A
:1025C000010F07BF4FF41072134B4FF40072134BFF
:1025D0001A60104B1B7813F0020F4FF400720CBFFF
:1025E0000F4B104B1A600B4B1B7813F0040F07BFF7
:1025F0004FF410720C4B4FF400720C4B1A60704782
:102600003C80044000C0024001401F00011000381F
:1026100000001F8000D6FF1F18B0044008C004400F
:102620001CB004400CC0044014B0044004C004407A
:1026300010B582B002AB03F8011D02685468194658
:102640000122A04702B010BD10B50446C3691BB9F2
:1026500001230371002010BD00201871E06992B2BF
:1026600001F056F9E3691B7913B1012323710020AE
:1026700010BD00BF00B583B0C06960B10DF10701A6
:10268000012200F0ABFE01280CBF9DF807004FF6B9
:10269000FF7000B201E04FF0FF3003B05DF804FBC3
:1026A00030B583B00446C06978B10DF1070101224D
:1026B00000F094FE01280AD19DF80750E069C16836
:1026C000013900F045FF284603E0002001E04FF00B
:1026D000FF3003B030BD00BF08B5C06908B100F0DD
:1026E0006FFF08BD2DE9F04104460E4690460023D9
:1026F00003714FF47A7282600373114B03602420DC
:1027000007F026FAE061B8B13546074606F1200E1B
:102710003E4628686968AA68EB680FC610353746D8
:102720007545F5D12868306004F10D0041460C2252
:1027300008F0FEF8002363762046BDE8F08100BF74
:1027400008C80000002202714FF47A7181600273A0
:1027500002490160C2614273704700BF08C80000AF
:10276000014B0360704700BF08C80000C3690BB18C
:10277000D86870474FF0FF30704700BFC3690BB196
:10278000986970470020704738B50446C36963B143
:10279000FFF7F4FF05462046FFF7E8FF281A47F643
:1027A000FF73984228BF184638BD002038BD00BFCF
:1027B00010B50446C06930B100F02EFFE06907F0A3
:1027C000CFF90023E36110BD10B58AB004460A4674
:1027D00000238DF80830094901918DF80A3001A8CD
:1027E0002146012300F0CAFF041C18BF012414B1C4
:1027F00001A800F011FF20460AB010BD28C8000053
:1028000008B52AB101F068F8003018BF012008BDF2
:10281000012008BDF0B40C68035D2F2B1CD10134DE
:102820001AE0002563B11EE00135013407F8013FCD
:102830000C2D05D016F8013F2F2B01D0002BF3D122
:1028400000235355035D2F2B08BF01340C60005D3E
:10285000003018BF01200BE00619035D2F2B08BFC5
:102860000025EDD0DDE70134137017460125E1E7BF
:10287000F0BC70472DE9F04F99B082460F46914663
:10288000984600238DF81C30244A06928DF81E309D
:102890008DF840300F928DF8423001930C4606AE11
:1028A0004FF0010B03E00FAC234634461E46504662
:1028B00001A902AAFFF7AEFF054680F001022046FB
:1028C00002A9D2B24346C84730B9BC421CD0204608
:1028D00000F0A2FE00201EE07DB13046214602AA93
:1028E0005B4600F04BFF0546BC4211D0204600F08D
:1028F00093FE002DD8D100200DE0BC4206D020462A
:1029000000F08AFE012006E0002004E0012002E041
:102910000028C8D1002019B0BDE8F08F28C80000F9
:1029200038B504460A46012100F076FAA8B1251D03
:1029300028462146012201F099FA28B92846214665
:10294000002201F093FA50B104F12C00294600F066
:102950001BFD003018BF012038BD002038BD00200D
:1029600038BD00BF2DE9F04F99B0814693460193E1
:1029700000238DF81C30394A06928DF81E308DF8F0
:1029800040300F928DF8423006A8043100F0FCFC74
:102990005C460FAE06AD4FF02F084FF0000A2CE05A
:1029A00023782F2B01D1013427E03F1BFFB20C2FDE
:1029B00028BF0C2702A821463A4607F0B9FF18ABFA
:1029C0003B4403F858AC304600F026FE304629461A
:1029D00002AA012300F0D2FE40B9002389F8043096
:1029E0001E4AC9F8002089F8063032E03C442846E7
:1029F00000F012FE2B4635461E462046414607F0A3
:102A000035FE07460028CBD1CBEB0404019B1C60AC
:102A10002B7989F80430114BC9F800306B7989F8AB
:102A20000530AB7989F80630AB68C9F80830EB6837
:102A3000C9F80C302B69C9F810302B7D89F8143097
:102A4000AB69C9F81830EB69C9F81C302B6AC9F8B2
:102A50002030484619B0BDE8F08F00BF28C80000FC
:102A6000F0B5A7B0044615461F4602A801ABFFF714
:102A700079FF01996E18695C19BB9DF80C308DF8CF
:102A80005430344B14939DF80D308DF855309DF82B
:102A90000E308DF85630049B1693059B1793069BBA
:102AA00018939DF81C308DF86430089B1A93099B8D
:102AB0001B930A9B1C93204614A9274AFFF712FE7A
:102AC00045E000218DF83010224B0B938DF8321029
:102AD0009DF80E301BB92046FFF734FE37E00BA8F7
:102AE00002A932463B4600F049FE18B92046FFF7DE
:102AF00029FE2CE002A800F08FFD17F0060F03D08E
:102B00000BA8119900F024FD9DF830308DF8783035
:102B1000104B1D939DF831308DF879309DF832308F
:102B20008DF87A300D9B1F930E9B20930F9B219362
:102B30009DF840308DF88830119B2393129B24938D
:102B4000139B259320461DA93246FFF7CBFD204657
:102B500027B0F0BD28C80000B4C5000008B500F1DA
:102B60002C0308461946024A0023FFF783FE08BDDE
:102B7000C927000008B500F12C0308461946024A8F
:102B80000023FFF777FE08BD01280000064B002256
:102B90009A700221596083F8242083F83020034979
:102BA000D96283F832207047FCD1FF1F28C800008B
:102BB000084B1A6842F480621A604FF00042DA62F1
:102BC000FF225A631A46D36A002BFCDA014B986B3A
:102BD000C0B2704700C00240064B1A6842F48062DF
:102BE0001A604FF00042DA6258631A46D36A002B2B
:102BF000FCDA704700C0024008B505281ED8DFE89F
:102C000000F003080D1115194FF038420E4B1A60F1
:102C100017E04FF038420C4B1A6012E00B4A0A4B97
:102C20001A600EE00A4A084B1A600AE0094A064B8D
:102C30001A6006E0084A044B1A6002E0074A024B99
:102C40001A60FFF7ABFC08BD50D2FF1F000002B8AE
:102C50000000023801100138010002380540013837
:102C600008B50078012101F08BFE114B1B78F3B100
:102C700000220F4B1A700F4B1B78C3B113F0010FDA
:102C800003D00D4B1A680D4B1A600A4B1B7813F0DA
:102C9000020F03D0084B5A68094B1A60054B1B788A
:102CA00013F0040F03D0044B9A68064B1A6008BD5A
:102CB00054D2FF1FF8D1FF1FECD1FF1F00E100E04D
:102CC00004E100E008E100E010B5244B1B78002B84
:102CD0003ED10122214B1A70214B1A68214B1B78DF
:102CE000002B28D072B61F4B1B7813F0010F07D0B2
:102CF0001D4B1C681D49096821401D4C216019604D
:102D0000184B1B7813F0020F07D01A4B1C68174999
:102D100049682140164C61601960124B1B7813F012
:102D2000040F07D0144B1C68104989682140104CCF
:102D3000A160196062B6114BDB68934208D00F4B5B
:102D40000F491960DA6042F080421A610D4A1A6038
:102D50000078002101F014FE10BD00BF54D2FF1F07
:102D600050D2FF1FF8D1FF1F80E100E0E0D1FF1F2C
:102D7000ECD1FF1F84E100E088E100E000C00240E8
:102D800001401F0000001F8070B582B00E460B4B43
:102D90001B680093009C094DA4B2FFF709FFFF28B0
:102DA00007D02B680193019B9BB21B1BB342F4DB42
:102DB00001E0012000E0002002B070BDD8D4FF1F68
:102DC000F8B505460F4616464FF49671FFF7DCFF3F
:102DD00047F04000FFF700FF182426FA04F0C0B2C5
:102DE000FFF7FAFE083C14F1080FF6D127B1082FBF
:102DF0000CBF8720FF2000E09520FFF7EDFE0024A8
:102E0000FFF7D6FE687010F0800F03D00134B4F5E0
:102E1000807FF5D1F8BD00BF2DE9F04F87B00446A3
:102E200001910023837002707D4B1B680393039F05
:102E3000BFB21046012101F0A3FD2078012101F06D
:102E4000D1FD2078012101F09BFD764B1A6842F4F8
:102E500080521A600620FFF7CFFE734B1A68734B3F
:102E60001B78002B28D072B6704B1B7813F0010F23
:102E700007D06F4B18686F49096801406E480160C0
:102E800019606A4B1B7813F0020F07D06B4B186860
:102E9000684949680140684841601960634B1B7884
:102EA00013F0040F07D0664B186862498968014027
:102EB00061488160196062B6624BDB68934200F042
:102EC000A080604B60491960DA6042F080421A616C
:102ED0005E4A1A6095E02846FFF77EFE013E16F036
:102EE000FF06F8D1514B1B78C3B113F0010F03D08B
:102EF000514B1A68564B1A604C4B1B7813F0020F5B
:102F000003D04D4B5A68534B1A60484B1B7813F053
:102F1000040F03D0484B9A684F4B1A602046FFF7C6
:102F2000D3FE4FF00008DFF8F89008E0D9F8003041
:102F30000493049BDB1B9BB2B3F5FA6F5DD820466C
:102F400041464246FFF73CFF054660700128EDD13F
:102F5000204608214FF4D572FFF732FF10F0040F1E
:102F600004D00123A3704FF0000A0FE04FF00408D3
:102F7000FFF71EFE607008F1FF3313F0FF08F7D172
:102F8000AA283AD10223A3704FF0804A4FF03709A4
:102F90004FF00008DFF888B008E0DBF80030059358
:102FA000059BDB1B9BB2B3F5FA6F26D8204649463A
:102FB0004246FFF705FF204629215246FFF700FF52
:102FC00060700028E9D1A378022B0ED120463A2167
:102FD0000022FFF7F5FE80B9FFF7EAFD00F0C00020
:102FE000C02811D10323A3700EE02046FFF738FE5E
:102FF0000198FFF701FE2E460DE02046FFF730FE58
:1030000009E00A26FF2566E7FFF7D2FDFFF7D0FDAE
:10301000FFF7CEFDE9E7304607B0BDE8F08F00BF0F
:10302000D8D4FF1F3C80044050D2FF1FF8D1FF1FAF
:1030300080E100E0E0D1FF1FECD1FF1F84E100E060
:1030400088E100E000C0024001401F0000001F8036
:1030500000E100E004E100E008E100E070B582B0CA
:1030600004460E4B1B680093009D0C4EADB207E06A
:1030700033680193019B9BB25B1BB3F5967F09DC20
:10308000FFF796FD6070FF28F2D0FE2814BF0020E5
:10309000012000E0002002B070BD00BFD8D4FF1FA7
:1030A000F8B504460D4616468378032B18BF4D022B
:1030B000FFF70AFE204611212A46FFF781FE00286D
:1030C00047D12046FFF7CAFF002842D0234B244AAD
:1030D0001A60244A5A635A635A6306F5FD7E7645A0
:1030E00013D2B01C06F5FE771946CB6A13F0F00F29
:1030F000FBD04A638B6BC3F3072500F8025C00F832
:10310000013C0230B842F0D100E0B64606F5007648
:1031100076450DD97146114AD36A13F0F00FFBD0F2
:10312000936BC3F3072008704B7002318E42F3D8C3
:103130000A4B0B4A1A600B4A5A631A46D36A13F0B9
:10314000F00FFBD0054B9B6B2046FFF789FD01205C
:10315000F8BD2046FFF784FD0020F8BD00C0024006
:1031600000041F80FFFF0090F8B506461E4B18684C
:1031700040F4806018604FF00040D86259631146F7
:1031800002F500770446DA6A002A08DBFBE7DA6A10
:10319000002A0DDBFBE7D36A002B15DBFBE70846B3
:1031A0000A781D6845F480651D60DC625A63EEE7AD
:1031B00042781D6845F480651D60DC625A63023107
:1031C000B942E0D1084AE6E7FF20FFF705FDFF20FE
:1031D000FFF702FDFFF7ECFC707000F01F00052800
:1031E00014BF00200120F8BD00C0024070B50446A5
:1031F00016460D4629B38378032B18BF4D02FFF7FF
:1032000063FD204618212A46FFF7DAFDC8B920469B
:10321000FE213246FFF7A8FF98B120464FF4167101
:10322000FFF7B2FD68B120460D210022FFF7C8FD6F
:1032300038B9FFF7BDFC20B92046FFF711FD01208A
:1032400070BD2046FFF70CFD002070BD014A024B07
:103250001A6070470000023850D2FF1F10B50446B4
:10326000006A012104F1080200F076FD034650B126
:10327000E3693BB9A368E361637963F07F0363713A
:10328000012300E00123184610BD00BF70B50646BB
:10329000FFF7E4FF0346E0B1336AB268023A197CF3
:1032A00002FA01F55A6915441C794CB1013D2819FF
:1032B00000F088FC034660B1013C14F0FF04F6D135
:1032C000336A1B7C4FF400729A40B3691344B361B4
:1032D0000123184670BD00BF10B50446006900F018
:1032E0004DFC20B1207D034B03EB401010BD0020AE
:1032F00010BD00BF64D2FF1F2DE9F0010023202282
:10330000CA5401330B2BFBD10138002507264FF09F
:1033100008084FF00A0C1B4F21E02E2C01D03A4632
:1033200006E00A2E24D04546664618E0A34221D086
:1033300012F8013F002BF9D1AE421DD3A4F12103B5
:10334000DBB25D2B1AD86B1CDBB20D44A4F1610219
:10335000D2B2192A9CBF203CE4B22C701D4610F852
:10336000014F002CD9D10878203818BF012006E081
:10337000002004E0002002E0002000E00020BDE882
:10338000F00170472FC8000038B504460D46837918
:103390000BBB91F82020102A07D102238371002350
:1033A000C3614B8C5B0183610CE0202A14D10323A1
:1033B0008371496AC161284604F1180200F058FC83
:1033C000034648B12562012363710022A260E260D6
:1033D0002261227500E00023184638BD2DE9F04F28
:1033E00083B00446884601928379002B69D04379E3
:1033F00013F0010F68D08269C368D11A019888421E
:1034000001D98BB20193019B002B57D01D46DFF8E9
:10341000F8A0DFF8F890DFF8F8B0E368C3F3080726
:10342000A279022A04D1226A516A01EB53211BE0DE
:10343000206A0679013E06EA5326F6B25FB956B90C
:1034400013B9E369A36006E0224652F8081F00F0B2
:10345000D9FB00283BD0226AA368023B117C03FA07
:1034600001F1526911443144C7F500739D42C6BF52
:103470001E46B6B22E46637913F0400F02D1B6F560
:10348000007F36D1D9F8003099422AD131E0B044DA
:103490000DE05744B819874209D03B46424613F81D
:1034A000011B02F8011B8342F9D1C71BB844E36832
:1034B0003344E360AD1BADB2002DAED1019B98B299
:1034C0000DE04FF6FF700AE04FF6FF7007E04FF691
:1034D000FF7004E04FF6FF7001E04FF6FF7000B29E
:1034E0000EE0DBF800004246FFF7DAFD0028CED1FF
:1034F000F0E70846002100F041FB0028C9D1ECE7C5
:1035000003B0BDE8F08F00BF64D2FF1F38BFFF1FBC
:1035100060D2FF1F30B583B004468379012B0FD9E9
:10352000C5680DF107010122FFF758FF012809D1F5
:10353000E3681F33E36005F4F070044B184402E0C5
:10354000002000E0002003B030BD00BF64D2FF1FA8
:10355000F8B504460F4683797BB382698A422BD340
:10356000022B02D1E160012327E021B9002383600F
:10357000C360012321E0C368026A157C09355A1E25
:10358000EA40013921FA05F5AA4200D813B9E369E6
:10359000A3600AE0AD1A08E0206AA168324600F094
:1035A00031FB013D034610B907E004F10806002D88
:1035B000F2D1E760012300E000231846F8BD00BF08
:1035C00038B50446807918B394F90530002B1BDA1E
:1035D00020460121FFF780FE0546C0B1A379012BEB
:1035E0009CBFA369C361A38B4383E38B8382094B95
:1035F0001B682BB1183005F1160198472B8B6B8295
:10360000637903F07F03637100F08CFA38BD00200A
:1036100038BD00BF58D2FF1F10B50446FFF7D0FFDA
:10362000034610B10023A3710123184610BD00BF4B
:10363000F0B583B004460D468379012B4ED1427913
:1036400002F0020202F0FF01002A49D08269AA4278
:1036500048D3002A47D0C6682946FFF779FF0346BA
:10366000002840D04DB9206AE16900F0D9FB03463B
:10367000002838D00023E3611DE0206AA16801AA78
:1036800000F0C0FAA8B1206A019990F820704FF6B6
:10369000F872164B102F08BF134699420BD200F058
:1036A000BFFB30B1206AA1686FF0704200F00CFBE4
:1036B00008B9002317E0A561637963F07F036371A4
:1036C0002046FFF77DFF034668B12046B54234BF70
:1036D00029463146FFF73CFF034604E0002302E0A1
:1036E0000B4600E00023184603B0F0BDF8FFFF0FC3
:1036F00038B5044615461F4B03EB4113DA7A12F036
:10370000110F02D015F0420F2CD121751A4A126800
:103710002261998A0904E1615A8B1143E161D87AE7
:1037200010F0180004D1DB69A3610123A3710AE042
:10373000102819D1206A04F1180200F099FA034602
:10374000A8B10423A37105F00F0363710023A360E4
:10375000E36015F0400F09D020461946FFF768FFD7
:10376000034604E0002302E0002300E001231846A2
:1037700038BD00BF64D2FF1F38BFFF1F2DE9F04FD7
:1037800085B005460C469A468679002E7FD11046B4
:1037900001A9FFF7B1FD00287BD0236A2B62002727
:1037A000A760E760DFF8FC904FF0010825E0C1F367
:1037B000431B2046FFF7AEFE014600286AD003787F
:1037C0000BB1E52B09D12FB985F814B0D9F8003029
:1037D0002B6147460B7883B913E001A80B2206F052
:1037E00063FC50B90AF03003302B53D028465946B9
:1037F0005246FFF77DFF06464CE0E168A369994217
:10380000D5D30AF01203122B44D137B12846012137
:10381000FFF762FD044660B93CE0A379022B39D082
:103820002046FFF733FD0646002833D000232B75D2
:103830001A4C20460021202206F0CAFC01AB03CB23
:10384000206061601A889B782281A372144B1B68E8
:103850002BB104F1100004F10E01984707E0212379
:103860002374282363740023A3730823E373238A38
:1038700063822383E389E38200F054F9064648B16A
:103880002846297D5246FFF733FF064602E0002610
:1038900000E00646304605B0BDE8F08F64D2FF1F59
:1038A00058D2FF1F38BFFF1F10B504460021FFF795
:1038B000BFFE034668B120460121FFF70DFD38B178
:1038C000E52202700023A37100F02CF9034600E00A
:1038D0000023184610BD00BF10B58AB004460A4642
:1038E00000238DF80830094901918DF80A3001A8AC
:1038F00021460223FFF742FF034618B101A8FFF754
:10390000D3FF034618460AB010BD00BF28C8000008
:103910002DE9F04F85B00446884601928379012B4A
:1039200040F0BE80437913F0020F00F0B98013F02D
:10393000040F08D08169C3688B4204D0FFF708FEEA
:10394000002800F0AD80019A002A00F08C80164615
:10395000DFF8B0A1DFF8B0B1206AE76890F8049012
:1039600009F1FF3909EA5729C7F3080719F0FF09D8
:1039700029D1002F40F0AA80A16851B9E36933B979
:103980002046FFF76BFC002840F08E8088E0A360A3
:103990008AE003AA00F036F9002800F0A880039B13
:1039A000226A92F820004FF6F871524A102808BF98
:1039B0000A46934205D32046FFF750FC002873D1F6
:1039C0006EE0A36070E0C7F50075ADB2AE4238BFDF
:1039D0003546A368023B027C9340426913449944F4
:1039E000B5F5007F12D1DBF800304B4504BF4FF036
:1039F000FF33CBF80030404B186849464246FFF78A
:103A0000F5FB00284CD008F5007824E07FB9E26887
:103A1000A3699A420BD300F085F8002840D0CBF878
:103A20000090364A137843F00103137005E04846CE
:103A3000012100F0A3F8002832D0574478198742BA
:103A400009D03B46424612F8011B03F8011B834292
:103A5000F9D1C71BB844761BB6B2E3681D44E560D4
:103A6000002E7FF479AFE368A269934205D9A36180
:103A7000637963F07F03637108E0214B1B682BB10E
:103A8000019B1BB1637963F07F036371637913F06A
:103A9000080F03D02046FFF793FD08B1019826E0F8
:103AA00001232371002022E0B6F5007F34BF3546A4
:103AB0004FF40075236AA268023A197C02FA01F9F0
:103AC0005B699944B5F5007FA1D18CE7C7F5007516
:103AD000ADB2AE4238BF3546A368023B027C03FA62
:103AE00002F943699944B5F5007FA0D17BE705B0A1
:103AF000BDE8F08FF8FFFF0F60D2FF1F64D4FF1FF7
:103B000058D2FF1F64D2FF1F38BFFF1F00B583B01C
:103B100002AB03F8011D19460122FFF7F9FE03B0BD
:103B20005DF804FB08B5104B1B78D3B10F4B186838
:103B30000F4B19680F4AFFF759FB034690B10E4B24
:103B4000196849B1094B18680A4AFFF74FFB034649
:103B500040B10022084B1A600022034B1A70012367
:103B600000E00123184608BD64D4FF1F60D2FF1F88
:103B700038BFFF1F64D2FF1F5CD2FF1F38B5044659
:103B80000D460C4B1B6883420DD0FFF7CBFF03465D
:103B900070B1094B18682146084AFFF781FA0346BD
:103BA00030B1044B1C60064B1A7815431D7001237D
:103BB000184638BD38BFFF1F60D2FF1F64D2FF1FF9
:103BC00064D4FF1F10B50446FFF7ACFF034680B175
:103BD00009494B1E01F2FF11002203F8012F8B420D
:103BE000FBD1064B1C60064B1A7842F001021A709A
:103BF0000123184610BD00BF64D2FF1F38BFFF1F4E
:103C000064D4FF1F70B504460D461646C3680133E1
:103C10008B4225D3C36990F82020102A0CBF080AD4
:103C2000C8091844104B1B68984204D00021FFF7C4
:103C3000A5FF0346A8B194F82030102B06D1EDB2B1
:103C40000A4B33F81530336001230AE005F07F0595
:103C5000064B53F8253023F070433360012300E016
:103C60000023184670BD00BF38BFFF1F64D2FF1F7E
:103C70002DE9F04383B0044602AE46F8041D914698
:103C800000254FF400780F4F204601993246FFF788
:103C9000B9FF034688B1237C08FA03F31D4494F866
:103CA00020104FF6F873102914BF39461946019BAE
:103CB0008B42E9D3C9F800500123184603B0BDE890
:103CC000F08300BFF8FFFF0FF8B504460D46174616
:103CD000012931D9C368013399422FD8C36990F8BB
:103CE0002020102A0CBF0E0ACE091E44164B1B685A
:103CF0009E4205D030460021FFF740FF034600B347
:103D000094F82030102B04D1EDB2104B23F815702D
:103D100004E005F07F050D4B43F825700C4B1A7835
:103D200042F001021A70237E012B09D9A3681E44B8
:103D3000084B1E60012304E0002302E0002300E0A2
:103D400001231846F8BD00BF38BFFF1F64D2FF1F14
:103D500064D4FF1F5CD2FF1F2DE9F04F85B00646EB
:103D60008A46009217681FB101370023019305E0CE
:103D70000768012914BF002301230193F36803F1AD
:103D80000108DBB13C4600254FF00209CB46A045B7
:103D90003CBF4C465F463046214603AAFFF732FF40
:103DA00060B1039B0BB1671C03E0631CDB1B534535
:103DB00006D001350134F368AB42E8D800232AE08D
:103DC000304621466FF07042FFF77EFF034648B948
:103DD00021E0651E304629462246FFF775FF03465F
:103DE00018B918E0BC42F4D803E0BD4201D92C4612
:103DF000EFE7009B196829B130463A46FFF764FFA8
:103E0000034640B1009B1F60019B1BB10137376027
:103E1000012300E00123184605B0BDE8F08F00BF84
:103E2000F0B583B005460C460223036000260E4F12
:103E30002846214601AAFFF7E5FE80B12846214623
:103E40003246FFF741FF50B1019C95F820104FF624
:103E5000F873102918BF3B469C42E9D301E00020CB
:103E600000E0012003B0F0BDF8FFFF0FF8B50546F4
:103E7000494B19601446DAB1042A7FD80020014664
:103E8000FFF77CFE0346002800F08380434B03EBE2
:103E9000041494F8AE3104F5D47413F07F036FD199
:103EA000D4F81210632974D9D4F80E400CB970E01C
:103EB000002420460021FFF761FE0346002868D059
:103EC000364BB3F80B30B3F5007F5BD1334B1B7C23
:103ED000002B5ED0314AD289002A55D02F4A517B1F
:103EE000002953D02B76297100232B74012003E085
:103EF0005A1C2A74072B4BD82B7C1E4600FA03F25F
:103F00009142F5D1254BD98A01B9596AA960234B51
:103F1000DA892244EA61B3F8110087B268841B7C15
:103F200003FB01236B627A0102F2FF1203EB6223AF
:103F30006B611A4AB2F813200AB9184A126AE31AD6
:103F4000134423FA06F6EE6040F6F4739E4204D85A
:103F50000C2385F8203001231BE04FF6F4739E42BA
:103F600004D8102385F82030012312E00B4BDB6AC4
:103F70006B62202385F8203001230AE0002308E04B
:103F8000002306E0002304E0002302E00B4600E0EB
:103F900000231846F8BD00BF60D2FF1F64D2FF1F88
:103FA0000B4B1B7813B90B4B1B7873B10A4B1B7867
:103FB000202B03D90123037100207047581C064AA7
:103FC0001070064AD154012070470020704700BF8E
:103FD000CED4FF1F90D4FF1FCFD4FF1F6CD4FF1F80
:103FE000704700BF024B1878024B1B78C01A70470D
:103FF000CDD4FF1FCCD4FF1F074B1B78074A127884
:104000009A4205D9591C044A1170054AD05C704780
:104010004FF0FF30704700BFCCD4FF1FCDD4FF1F3F
:1040200094D4FF1F054B1B78054A12789A4286BF2D
:10403000044AD05C4FF0FF30704700BFCCD4FF1F64
:10404000CDD4FF1F94D4FF1F08B5104BDB7813F0BD
:10405000200F0CD1122000F039FC0D4B1B689BB1D6
:1040600000210C4A11700C4A1078984708BD0B4A81
:1040700013780133DBB21370012B02D8084B1B7885
:1040800013B9122000F022FC08BD00BF00600640FA
:1040900068D4FF1FCCD4FF1FCDD4FF1FB8D4FF1F9F
:1040A00090D4FF1F38B514460D4B1B7813B90D4B38
:1040B0001B7893B10C4B1D78C5F12103A34202D2AA
:1040C000012202711C4609482844224600F0B4F837
:1040D0002544054B1D70204638BD002038BD00BF6B
:1040E000CED4FF1F90D4FF1FCFD4FF1F6CD4FF1F6F
:1040F000002202714FF47A7181600273014A0260FA
:10410000704700BF48C8000008B53D4BDB78DBB204
:1041100013F0100F06D01021394AD17013F0400F60
:1041200003D108BD13F0400F2CD013F0040F1BD0A7
:104130000023344A1370344A1370344B1B681BB18C
:104140009847314B1B782BB901222F4B1A70002254
:104150002F4B1A702A4BD0229A702D4A12781A715E
:1041600001222C4B1A7009E00122264B1A70002202
:10417000294B1A70224BC0229A701B790222204BC5
:10418000DA7008BD1E4A927812F0100F1CD013F09E
:10419000010F14D11F4B1B781B4A12789A4207D982
:1041A000591C1C4A11701A4AD25C154B1A7102E054
:1041B0000022134B1A71D022114B9A701BE0104B46
:1041C000C0229A701B7916E00022144B1A7012203C
:1041D0001349032200F046FC094B1B79DAB20E4B5F
:1041E0001B781F2B07D80749097821B1581C0A49A9
:1041F00008700C49CA540222014BDA7008BD00BF96
:104200000060064065D4FF1FCFD4FF1FB4D4FF1F4A
:104210006CD4FF1FD0D4FF1FCDD4FF1FB8D4FF1F15
:104220004940000094D4FF1F08B50248FFF760FF23
:1042300008BD00BFBCD4FF1F844641EA000313F051
:1042400003036DD1403A41D351F8043B40F8043B9D
:1042500051F8043B40F8043B51F8043B40F8043B60
:1042600051F8043B40F8043B51F8043B40F8043B50
:1042700051F8043B40F8043B51F8043B40F8043B40
:1042800051F8043B40F8043B51F8043B40F8043B30
:1042900051F8043B40F8043B51F8043B40F8043B20
:1042A00051F8043B40F8043B51F8043B40F8043B10
:1042B00051F8043B40F8043B51F8043B40F8043B00
:1042C00051F8043B40F8043B403ABDD2303211D3A0
:1042D00051F8043B40F8043B51F8043B40F8043BE0
:1042E00051F8043B40F8043B51F8043B40F8043BD0
:1042F000103AEDD20C3205D351F8043B40F8043BA0
:10430000043AF9D2043208D0D2071CBF11F8013B9D
:1043100000F8013B01D30B8803806046704700BF63
:10432000082A13D38B078DD010F003038AD0C3F172
:104330000403D21ADB071CBF11F8013B00F8013B54
:1043400080D331F8023B20F8023B7BE7043AD9D313
:10435000013A11F8013B00F8013BF9D20B780370E8
:104360004B7843708B7883706046704730B4394A1D
:104370003949136813F0800FFBD10B6813F0800FDD
:10438000F7D172B6354B1B78002B5FD0344B1C68CD
:1043900004331D68043318680433196804331A6839
:1043A00004331B682C44204401440A441A44C2F3D9
:1043B0004E0242F400422B4B1A602C331C6804332B
:1043C0001D68043318680433196804331A68043309
:1043D0001B682C44204401440A441A44C2F34E0290
:1043E00042F40042204B1A6003F108131C680433A6
:1043F0001D68043318680433196804331A680433D9
:104400001B682C44204401440A441A44C2F34E025F
:1044100042F40042154B1A602C331C6804331D68AB
:10442000043318680433196804331A6804331B68AA
:104430002C44204401440A441A44C2F34E0242F47C
:1044400000420B4B1A600022044B1A7062B630BC5B
:10445000704700BF24B0034024B00B40D2D4FF1FEC
:1044600038B003402CB0034030B003402CB00B40B8
:1044700030B00B4060223A4B1A70E12201331A70BF
:10448000384B1B78082B10D1012203F1804303F530
:104490006C331A60132334490B6001F5FF2101F2DC
:1044A000FC710A60314A13601FE00A2B0DD11922FA
:1044B0002F4B1A6013232C490B6001F5FF2101F2E9
:1044C000FC710A60294A13600FE00C2B0CBF152207
:1044D0003D22274B1A60122323490B6001F5FF216F
:1044E00001F2FC710A60214A1360224B1B7833B140
:1044F0000123214A136002F50022136005E0002326
:104500001D4A136002F5002213601C4B1B78012B1F
:1045100006D880231A4A136002F5002213601AE0BD
:10452000042B06D88423164A136002F50022136078
:1045300011E0082B06D88523114A136002F50022EA
:10454000136008E0102B94BF862387230C4A136066
:1045500002F50022136001220A4B1A70704700BF57
:10456000004007403CBFFF1F0CB003400CB00B40A5
:1045700008B00340D5D4FF1F20B003403DBFFF1F4C
:1045800024B00340D2D4FF1F08B50C2804D910284A
:1045900028BF1020102307E00A2804D8092834BFB8
:1045A00008230A2300E00C23DAB2101A0949087024
:1045B0000949097899420CD0074B1A70074B1B78B0
:1045C0002BB10023064A136002F500221360FFF7A7
:1045D00051FF08BDD1D4FF1F3CBFFF1FD2D4FF1F26
:1045E00024B003402DE9F843282873D83C4B1E5CC7
:1045F000FF2E72D03B4B1B780BB1FFF7B7FE16F0C6
:10460000800F29D172B6384C384D4FF00107266023
:104610002F7062B672B6236813F0800F04D12B7826
:1046200013F0FF0F0FD1F2E7314B186800222F4B28
:104630001A7062B62F4B1B781841BDE8F8832B78AF
:1046400013F0FF0FE3D062B601F058FD72B6236895
:1046500013F0800FF3D0E7E772B606F040095FFA77
:1046600089F9254F254C06F03F06254D4FF00108EE
:10467000B9F1000F04D03B6823F010033B6003E066
:104680003B6843F010033B60266085F8008062B60B
:1046900072B6236813F0800F04D12B7813F0FF0F4C
:1046A0000FD1E5E7174B18680022154B1A7062B658
:1046B000104B1B781841BDE8F8832B7813F0FF0FDF
:1046C000D6D062B601F01AFD72B6236813F0800FDF
:1046D000F3D0E7E70020BDE8F8830020BDE8F883C9
:1046E00060C80000D2D4FF1F00B00340D4D4FF1F25
:1046F00010B00340D1D4FF1F0CB00B4000B00B40F2
:10470000D3D4FF1F10B00B40024A137813F0010FEF
:10471000FBD070470100024010B584B01B4B6C46C3
:10472000186859689A68DB680FC4194B1B7813F036
:10473000020F23D0174B1B7813F070031CBF154AD0
:1047400013708022144B1A700022033B1A7033221C
:1047500007331A700322013B1A7072B66B4643F09E
:1047600001030C4C2046984762B6237813F070037F
:1047700004D0237008E0013B02D105E0074B044957
:104780000A7812F0010FF6D004B010BD8CC80000FA
:10479000010002400000024007000240410D0300FA
:1047A00010B50446B0F5006F0BD2074B1B7813F021
:1047B000010F01D1FFF7B0FF04F1A0542078C0B27F
:1047C00010BD002010BD00BF0100024038B50446F6
:1047D0000D46B0F5006F16D20B4B1B7813F0010F8E
:1047E00001D1FFF799FF04F1A0542378DBB2AB426B
:1047F00009D0064B1B7813F070031CBF034A1370DB
:104800002570FFF781FF38BD010002400000024023
:10481000024B1A6801321A60704700BFD8D4FF1FDC
:1048200008B50D4C236813F4802F01D000F014FB61
:10483000236813F4806F01D001F0A8FF236813F4FC
:10484000006F01D002F054FB236813F4805FE9D0BD
:1048500002F00CFEE6E700BF3480044008B5FFF725
:10486000DFFF00BF1022014B1A8070470020054077
:10487000704700BF024A136818441060184670471A
:1048800040BFFF1FFEE700BFEFF31383ABB9EFF3A9
:104890001083ABB9EFF3058323B10F2B05D9094A78
:1048A000985C03E04FF4807000E00020EFF3118388
:1048B0003BB1834238BF184670474FF0FF30704716
:1048C00000207047F0E300E0704700BF1D4B03EB92
:1048D000C000436803F14042A2F592227C2A18D915
:1048E00003F14042A2F594227C2A14D903F14042FC
:1048F000A2F596227C2A10D903F14042A2F5982213
:104900007C2A0CD903F14042A2F59A227C2A08D9CC
:1049100070470D4906E00D4904E00D4902E00D49DC
:1049200000E00D4972B61A6822F0877222F48032D4
:1049300042F080721A60C3F38403084A41F82320CE
:1049400062B670479CC8000044BFFF1F7CBFFF1FBA
:10495000CCBFFF1FFCBFFF1F1CC0FF1FC9480000CA
:10496000044B00221A6004490A60044A10601022B5
:104970001A60704714D0034004D0034000D00340B5
:1049800021281ED80F4B53F8303093F8802212F0B4
:10499000FF0F08D019B1012283F88020704701224F
:1049A00083F800217047074B03EBC000436821B137
:1049B0001A6842F003021A6070471A6822F0020275
:1049C0001A6070479CC80000212806D8044B53F891
:1049D000303093F80002C0B270470020704700BF2B
:1049E0009CC8000021283AD81D4B03EBC0035B682C
:1049F000012919D0042925D0194A52F83020002065
:104A000082F8800219B94FF480721A607047022947
:104A100003D140F203121A60704703290CBF4FF410
:104A2000817200221A6070470D4A52F8302001212D
:104A300082F880124FF4A2721A601A6822F02002E3
:104A40001A607047064A52F83020012182F880121D
:104A50004FF4A2721A601A6842F020021A6070477E
:104A60009CC8000070B50D46212861D8042A5FD883
:104A7000DFE802F00709050B03000B2306E00A2319
:104A800004E0082302E00C2300E009231E04294B64
:104A900003EBC0035C68236813F4E06F02D10021CC
:104AA000FFF7A0FF244B254AC3F89C21244AC3F8F2
:104AB000A021244AC3F8A421234AC3F8A821234AE9
:104AC000C3F8AC2104F14043A3F592237C2B18D901
:104AD00004F14042A2F594227C2A14D904F1404307
:104AE000A3F596237C2B10D904F14043A3F598231A
:104AF0007C2B0CD904F14043A3F59A237C2B08D9D5
:104B000070BD134906E0134904E0134902E013495C
:104B100000E0134972B6236823F470232360C4F3C2
:104B2000840241F8225043F080731E43266062B62F
:104B300070BD00BF9CC8000000B8FF1F11BEFF1F62
:104B4000E5BDFF1FB9BDFF1F8DBDFF1F61BDFF1F6D
:104B500044BFFF1F7CBFFF1FCCBFFF1FFCBFFF1F59
:104B60001CC0FF1F72B60D4B1B680D4A12680D4921
:104B7000096862B611F0806F02D0322B88BF013213
:104B8000C3F58C3303F23F130749A1FB03031B0951
:104B90004FF47A7000FB0230704700BF18E000E06D
:104BA000D8D4FF1F04ED00E0398EE33838B5054650
:104BB000FFF7D8FF044625B938BD013D0AD004F5FA
:104BC0007A74FFF7CFFF001BB0F57A7FF5D201F0C2
:104BD00095FAF6E738BD00BF10B5264B4FF400023A
:104BE0001A604FF080721A604FF000721A604FF036
:104BF00080621A604FF000621A6000201E4B18603D
:104C000048F6FF710433196028231C4A13600832E8
:104C100013600832136008321360083213600832E0
:104C2000136008321360083213600922144C2260AA
:104C300004F580540434206004342160043423607B
:104C400008342360143C226004F5FE240434206000
:104C50000C4801600C490B6008310B600B4B1A606B
:104C6000FFF708FC4FF4C870FFF7A0FF00F074FCDA
:104C700010BD00BF08E100E0048003400C80034049
:104C80000080034008800B400C800B4000800B40EC
:104C900030B40E4B1B7843F002020D4C04EBC204FF
:104CA00060600C48007800280CBF8824C82444EABF
:104CB0000141074D45F8321080F00100054A10709F
:104CC00083F00103014A137030BC704744D5FF1FC5
:104CD0000080FF1FBDD5FF1F10B4431E032B11D84A
:104CE00072B60A4A52F8230050B14268074941F8A7
:104CF0002320074A32F813400188611A22F8131062
:104D000062B600E000205DF8044B704734D5FF1F09
:104D10000CD8FF1F013803280DD872B6074B53F883
:104D200020302BB1002001305B68002BFBD100E06C
:104D3000002062B670470020704700BF88D5FF1F73
:104D400038B572B601231B491B4C5A1812F8012CB6
:104D500012F0080F24D09A0054F832506DB9164B57
:104D600003EBC20108304860144943F83210144B79
:104D70001A78013A1A7062B638BD42F0010254F84E
:104D800032506DB90C4B03EBC201083048600D493D
:104D900043F832100A4B1A78013A1A7062B638BDDD
:104DA0000133052BD1D162B60022054B1A7000F0F9
:104DB00037FC38BDD8C900000080FF1F88004000C4
:104DC000B2D5FF1FC800400010B4431E032B37D8D4
:104DD000400140F010001C4A104472B61B4AD25CDD
:104DE000032A09D8DFE802F019021B050830022265
:104DF00016E00830042213E0154A52F823201AB9AD
:104E0000134A42F8231003E0124A52F8232051605B
:104E1000104A42F8231062B612E0032200E0052295
:104E20000A4CE25401F10803436000F00803002B30
:104E30000CBF8823C8230A8843EA0243036062B692
:104E40005DF8044B704700BF0080FF1FF0D4FF1FC8
:104E500088D5FF1F98D5FF1F2DE9F84FA34CDFF829
:104E6000E092DFF8E0A2DFF8E0B22578EDB215F0CD
:104E7000040F1DD09E4B1B7813F0FF0F16D09D4BD7
:104E80001B7803F0FF022BB1531EDBB2994A13705B
:104E900003B900BE984B1B7803F0FF0233B1531ED9
:104EA000DBB2954A13700BB900F018FD0423237090
:104EB00015F0080F00F0E48299F80030DBB21D090C
:104EC00040F021828D4D9E0805EBC6035A6855F8C7
:104ED0003630C3F38303013B0C2B00F21082DFE872
:104EE00013F0CB01CB010E020E020E020E020E02D7
:104EF0000E02E8010E020E020E020D008049136838
:104F00000B6052684A607F4A45F8362000227E498D
:104F10000A607A490A618A6101217C4A11709BB258
:104F200040F28162934218D8B3F5D06F2ED2B3F518
:104F3000817F00F01E8106D8802B00F0C980822B73
:104F400000F0CC8066E140F20232934200F026810C
:104F5000B3F5A06F00F062815CE142F2210293425E
:104F600000F0868107D8B3F5086F00F0AB80B3F589
:104F7000106F11D04EE142F22122934200F04181A4
:104F800042F22132934200F0498143E1604B5D6877
:104F9000002D40F0188130E1594B9A78544B1A702B
:104FA000564D05F180062B6A13F0800F03D0686A16
:104FB000083800F035FB0835B542F4D1DFF88C81B4
:104FC00000263746534AB05828B1456800F028FB00
:104FD0000DB12846F9E700234E4973504E4AB350AD
:104FE0004E4BF05828B1456800F01AFB0DB1284629
:104FF000F9E7002349497350494AB35028F8023F62
:10500000484BFB5C023B032B0AD8DFE803F00206A7
:1050100002060022434BDA5502E00122414BDA55E9
:1050200001370436102ECDD100223F4B1A700125D6
:105030003E4EDFF81C81314F05EB080313F8013CAD
:1050400006F8043B13F0080F2DD000F0C9FA48B160
:10505000A90007EB451200F108035360344A47F8F2
:10506000312007E0AB00002247F833202E4B1A789E
:1050700001321A7000F0B4FA58B1AB0043F00103EA
:1050800007EBC30100F108024A601E4A47F83320CB
:1050900009E0AB0043F00103002247F83320224B24
:1050A0001A7801321A70AA0042F00201002347F870
:1050B000313042F0030247F8323001351D4B9E4239
:1050C000BAD11EE20A4B1B781B4D2B700127AAE0B8
:1050D000194D00232B706B700227A4E0084B9B88AE
:1050E000042B37D90F22154B1A70C1E080200740DE
:1050F000BCD5FF1F45D5FF1FBED5FF1F0080FF1F7A
:10510000A8D5FF1FC8004000DCD4FF1FBDD5FF1F7E
:10511000DCC9000034D5FF1FE0D4FF1F88D5FF1F76
:1051200098D5FF1FF0D4FF1FB2D5FF1FC420074042
:1051300088004000D4200740B4D5FF1FC02007409E
:105140009020074094200740982007400AD8FF1F6E
:10515000D8C90000A04A0021117051709F4A12F86E
:10516000233013F0020F5CD09B4D01232B700227DC
:1051700059E09B4B9B8803F07F03042B02DC984A89
:1051800052881AB10F22954B1A7071E0934A12F8A7
:10519000231021F0020102F82310B2E1904B9B880A
:1051A00003F07F03042B02DC8D4A52881AB10F22D0
:1051B0008A4B1A705CE0894A12F8231041F0020110
:1051C00002F823109DE1864B5E889F88854BA3F1F2
:1051D0000C02114633F80C0CB04209D133F80A0C1A
:1051E000B84205D1360A032E0CBF2F7817891AE072
:1051F0000D690C330C32002DEBD10F22774B1A7056
:1052000036E0794B1A68794B1A60754B9A78784B6F
:105210001A7076E10F22714B1A7029E000273D4683
:1052200001E002276C4D6E4BDB889F4228BF1F4672
:10523000402F34BF3E46402628463146FFF728FD22
:105240003544BF1B03D13F2E00F2608110E0402F98
:1052500034BF3E46402628463146FFF719FD354407
:10526000BF1B01D13F2E03D9624B1D60624B1F80D3
:1052700001238AF8003042E0594B198842F2210399
:10528000994212D15D4BD81D12F8011B03F8011F82
:105290008342F9D15A4B1B68862B02D10F22594BFE
:1052A0001A7000200146FFF7F3FC574B45F83630E3
:1052B00025E0504B1E68BEB14F4FB7F80080B8F1E3
:1052C000400F34BF4546402530462946FFF7E0FCF5
:1052D000C5EB08039BB23B800BB9402D01D135448F
:1052E00000E00025434B1D603D4B1B88B3F5A06FCC
:1052F00005D13B4B00225A709B788BF8003001237C
:105300008AF80030B9E0414E9F0806EBC708D8F88C
:105310000420A2F10800013DEDB213F0080F47D0C0
:1053200000F07EF93A4B53F825304BB35A683849B0
:1053300041F8252003F10802C8F80420354A525DDF
:10534000032A12D8DFE802F002060A0E0321314ACE
:1053500051550AE002212F4A515506E005212D4AF8
:10536000515502E004212B4A515518F0080F0CBF8B
:105370008822C8221B8842EA034346F837307CE083
:10538000244B5B5D032B0BD8DFE803F07777020635
:105390000022204B5A5570E001221E4B5A556CE0FA
:1053A00018F0080F0CBF022203221A4B5A5564E072
:1053B00056F837301B0C22F8083C002B55D0002340
:1053C00022F8063C42F8043C134B53F825302BBB23
:1053D000114B43F8250025E0B4D5FF1FC02007403E
:1053E000A8D5FF1FE8C90000D8D4FF1F1CD8FF1F95
:1053F000CCD5FF1FDCD4FF1FB0D5FF1F13D8FF1F74
:1054000014D8FF1F45D5FF1FC80040000080FF1FB4
:1054100088D5FF1FF0D4FF1F34D5FF1F3F4B53F833
:10542000253058603D4B43F825003D4B33F81510AF
:1054300032F8082C0A4423F8152000F0D1F860B1A6
:1054400000F10803C8F8043018F0080F354B364A4D
:1054500008BF134646F837300FE0002346F83730D0
:10546000324B1A7801321A7007E018F0080F2D4BF2
:105470002D4A08BF134646F8373008232370F4E45A
:1054800015F0010F22D02A4902230B700022294B6C
:105490001A70294B24481860284C5C609860284892
:1054A000D8601A619A610D20264B1870FF23264898
:1054B00003700838037018300270244A13709F225A
:1054C000234B1A7001230B70BDE8F88F15F0800F85
:1054D00005D00D221B4B1A708022403B1A7015F02C
:1054E000020F06D0184B1A78D2B21A700222083B6B
:1054F0001A7015F0100F0ED01022164B1A70BDE85E
:10550000F88F00200146FFF7C3FBB1E628460021D3
:10551000FFF7BEFBACE6BDE8F88F00BFE0D4FF1F8D
:105520000CD8FF1FC800400088004000B2D5FF1F04
:105530009420074044D5FF1F0080FF1FF4D4FF1FB5
:1055400048D5FF1FC0200740882007408C20074017
:10555000842007408020074008B501F0FBFF0023AE
:105560001B491A465A50C81842600833882BF9D193
:10557000184B1A6842F480221A60154BC3F30721B6
:10558000154A1170C3F30741143211701B0E043217
:105590001370FF23343A137008321370783A137083
:1055A00001238432137000216C3211707C3A137025
:1055B00070220A4B1A704FF40072A3F241331A6042
:1055C000102203F1C04303F5C8231A7008BD00BFC1
:1055D0000080FF1F348004409C20074049E400E025
:1055E00072B60D4B1A68B2FA82F30B2B02D962B66F
:1055F000002070474FF00041D94022EA01020649DD
:105600000A6062B6054903EBC303DB00C818002239
:10561000CA504260704700BF24C0FF1F00BAFF1F7E
:1056200008B50F4BC31A0F4AA2FB03131B090B2B20
:1056300014D80D4A12783AB10C4A127812F0FF0FC2
:1056400002D0FFF77DFB08BD72B6094A4FF000415A
:1056500021FA03F311681943116062B608BD00BF57
:1056600000BAFF1F398EE338B2D5FF1FBCD5FF1F2C
:1056700024C0FF1F10B5134B1B6853B9124B1B7886
:1056800013F0FF0F18D00320FFF726FB0D4B186017
:10569000A8B10C4B186843885A1C03441C7A038831
:1056A0009A4206D3FFF7BCFF0022064B1A60204641
:1056B00010BD4280204610BD4FF0FF3010BD4FF0AE
:1056C000FF3010BDC8D5FF1FBCD5FF1F08B50D4B5F
:1056D0001B6883B90C4B1B7813F0FF0F08D0032015
:1056E000FFF7FAFA074B186028B94FF0FF3008BDF2
:1056F0004FF0FF3008BD034B1B685A881344187ADB
:1057000008BD00BFC8D5FF1FBCD5FF1F044B98883C
:10571000044B1B681BB11A885B88D31A1844704766
:105720000CD8FF1FC8D5FF1F10B50B4B1B7813F00B
:10573000FF0F0FD0094B186820B1FFF771FF00224F
:10574000064B1A6003242046FFF7C6FA10B1FFF794
:1057500067FFF8E710BD00BFBCD5FF1FC8D5FF1F0E
:105760002DE9F84F04460122384B1A708B46002968
:1057700065D00E46DFF8E080DFF8E0909A46344FBF
:10578000D8F8003083BB99F8003013F0FF0F06D132
:1057900000222E4B1A704FF0FF30BDE8F88F48F60C
:1057A00001450420FFF7B6FA07280AD801238AF832
:1057B0000030FFF715FFC8F80000A8B900238AF8E9
:1057C0000030013D01D03B7833B10122204B1A70EB
:1057D0004FF0FF30BDE8F88F00F090FC99F80030F2
:1057E00013F0FF0FDDD1D3E700233B70D8F8001092
:1057F0004A88C2F14005AE4238BF354602F108037F
:105800000B442A444A80761B3DB1254414F8012BF1
:1058100003F8012BAC42F9D100E025464B883F2B21
:1058200007D940230B800420FFF7CEFA0023C8F8E5
:1058300000300522074B1A700EB12C46A0E700225B
:10584000024B1A705846BDE8F88F00BFBFD5FF1F46
:10585000C4D5FF1FBED5FF1FC0D5FF1FBCD5FF1F7E
:1058600000B583B002AB03F8010D18460121FFF724
:1058700077FF03B05DF804FB10B5144B1B7813F0F1
:10588000FF0F21D00122124B1A70124B196851B12F
:105890000024114B1C704B880B800420FFF794FAF6
:1058A0000C4B1C600DE0FFF79BFE014630B100225F
:1058B000094B1A700420FFF787FA02E00122064B19
:1058C0001A700022024B1A7010BD00BFBCD5FF1F1A
:1058D000BFD5FF1FC0D5FF1FBED5FF1F08B50E4B9C
:1058E0001B7813F0FF0F16D10C4B196841B14B8890
:1058F0000B800420FFF768FA0022084B1A6008BDED
:10590000FFF76EFE014618B10420FFF75DFA08BDEF
:105910000122034B1A7008BDBFD5FF1FC0D5FF1F62
:10592000BED5FF1FF0B4C02928BFC02172B6134BEB
:105930001860134B00221A605A609A60DA601A618C
:105940005A61C1B113460E4C01275A0903F01F06D4
:1059500007FA06F654F82250354344F82250013332
:105960008B42F2D10022134684186370013302F592
:1059700082728B42F8D162B6F0BC7047D8D5FF1F57
:10598000E0D5FF1F10B472B6234B1B688BB9224BB6
:105990005B6883B9204B9B687BB91F4BDB6873B98D
:1059A0001D4B1B696BB91C4B5B6963B962B6002068
:1059B0002EE0194A08E0194A06E0194A04E0194A9B
:1059C00002E0194A00E0194AB3FA83F14FF00040AF
:1059D000C84023EA00031360154803780133DBB2A3
:1059E000037062B60C48121A9210C1EB421202EB1D
:1059F000821241F67C7101EB82020E490968881817
:105A000001248C540C4A12789A423CBF0A4A137003
:105A10005DF8044B704700BFE0D5FF1FE4D5FF1FC2
:105A2000E8D5FF1FECD5FF1FF0D5FF1FF4D5FF1FF2
:105A3000DDD5FF1FD8D5FF1FD4D5FF1F427872B622
:105A40000378012B02D9013B037011E05111094B7E
:105A5000D24302F01F024FF0004020FA02F253F846
:105A60002100104343F82100034B1A78013A1A70C1
:105A700062B67047E0D5FF1FDDD5FF1F30B4C368A5
:105A800083B1187A90420AD158685C7A006950F85C
:105A9000245025B940F82410087801300870DB68DC
:105AA000002BEED130BC7047437A8B4206D9036994
:105AB00053F82100002243F821207047002070474E
:105AC00038B5437A8B4218D9036953F82140002234
:105AD00043F821209CB12378012B12D9FFF752FF04
