:1000000000800020BD01000051500000155000008C
:10001000155000001550000015500000155000004C
:100020001550000015500000155000005150000000
:1000300051500000155000005150000005500000C4
:10004000515000005150000051500000515000002C
:10005000515000005150000051500000515000001C
:10006000515000005150000051500000515000000C
:1000700051500000515000005150000051500000FC
:1000800051500000515000005150000051500000EC
:1000900051500000515000005150000051500000DC
:1000A0003D480000515000005150000051500000E8
:1000B00051500000515000005150000051500000BC
:1000C00051500000515000005150000051500000AC
:1000D000515000005150000051500000515000009C
:1000E000515000005150000051500000515000008C
:1000F00051500000AD710000515000001179000016
:10010000515000008D7E0000515000005150000001
:10011000515000005150000051500000515000005B
:10012000515000005150000051500000515000004B
:10013000515000005150000051500000515000003B
:10014000515000005150000051500000515000002B
:10015000515000005150000051500000515000001B
:10016000515000004D560000515000005150000009
:1001700051500000515000005150000051500000FB
:1001800051500000515000005150000051500000EB
:1001900051500000515000005150000051500000DB
:1001A00051500000515000005150000051500000CB
:1001B000515000005150000059630000574B4CF261
:1001C000205210B51A804DF628121A8000BF00BFC9
:1001D00004F042FF524B4FF010621A60514A9A608D
:1001E000514ADA60A3F53043203B1A6812F480725A
:1001F00004D14E490A604FF4A8521A604C4B1A7849
:10020000110703D51A7842F008021A70494B4A4C7C
:100210004A482A221A704A4A00239918A14203D256
:10022000195899500433F8E7464B474900228B424E
:1002300002D243F8042BFAE74448454900235A58B0
:100240001A500433B3F5DE7FF9D1424B424A802184
:1002500003F8011B9342FBD1404B3C4A1A60404BD0
:100260008A221A70A3F5805324225A70A0221A7091
:100270009A799207FCD59A79D406FCD4394A9379B5
:1002800003F00C03082B374BF9D105221A714322D6
:100290005A719A799006FCD5324A9179314B4906C8
:1002A000FBD5314A4FF08171116005215160202248
:1002B0001A709A7902F00C020C2AFAD12B4B2C4AB4
:1002C0001A602C4B2C4A1A6000225A60072243F80D
:1002D000042C2A4AC3F80C2D62B605F077F8134BAC
:1002E0001B68DA0705D5264804F034FF254B264A5B
:1002F0001A60264B1B785B0609D5224C224A2368DC
:10030000934204D11E4804F025FF002323600AF025
:10031000E3F904F0A7FE06F0C9FBFEE70E20054056
:1003200030800440823F04000100002B14D00340C1
:1003300002D0074000E0074058C8FF1F5C020100E0
:1003400060BDFF1F58C8FF1F38DBFF1F00B8FF1F2D
:100350000000000000E400E05FE400E008ED00E0E1
:1003600000500640004006404480044004800440A1
:10037000C010050014E000E03F190100000020203B
:100380007392E3581CE00340A5C3945A00F0074061
:10039000FFFFFFFFFFFFFFFFFFFFFFFFFFFFFFFF6D
:1003A000FFFFFFFFFFFFFFFFFFFFFFFFFFFFFFFF5D
:1003B000FFFFFFFFFFFFFFFFFFFFFFFFFFFFFFFF4D
:1003C000FFFFFFFFFFFFFFFFFFFFFFFFFFFFFFFF3D
:1003D000FFFFFFFFFFFFFFFFFFFFFFFFFFFFFFFF2D
:1003E000FFFFFFFFFFFFFFFFFFFFFFFFFFFFFFFF1D
:1003F000FFFFFFFFFFFFFFFFFFFFFFFFFFFFFFFF0D
:10040000FFFFFFFFFFFFFFFFFFFFFFFFDEF9FFFF23
:1004100010B5054C237833B9044B13B10448AFF33E
:1004200000800123237010BD58C8FF1F000000008A
:100430005C02010008B5064B1BB106480649AFF344
:1004400000800648036813B1054B03B1984708BD07
:10045000000000005C0201005CC8FF1F58C8FF1FBD
:100460000000000010B40022026082604FF07E5451
:10047000C4600261426100228261064CC461046270
:1004800080F82420102282620522C26241605DF859
:10049000044B704718FCFFFF70B504460D46164626
:1004A000084611460AF0AEF810B1A660E56001E01A
:1004B000A560E660E068A16809F0DEFD4FF07E51BE
:1004C00009F0DCFD01464FF08C4009F093FF014636
:1004D00020614FF07E5009F08DFF6061256070BD96
:1004E0008162704780F82410704700BF0069704730
:1004F00038B50446007904F06FFC80F30D00A0616C
:1005000094F82430A3B1236AC31A83EAE371A1EB00
:10051000E371A26A914203DDE0612062012509E0F6
:10052000E26A1341E2691344E361A361002501E03B
:1005300020620125A06909F055FE616909F0A6FE57
:10054000A16809F09BFD2060284638BD10B504461F
:100550000529B8BF0521B1F5FA6FB4BF08464FF4BD
:10056000FA60C4F8840409F039FE01464FF07E5069
:1005700009F040FFC4F8880410BD00BF82B0054BED
:100580001B680193019BC0F88C340123437002B0B7
:10059000704700BFECD7FF1FF8B506460C4615465E
:1005A000084600210AF010F828B920461C490AF034
:1005B00029F810B902E0002400E0194C3DB12046B2
:1005C0000AF02AF8D6F8783453F82000F8BD20460F
:1005D00009F0C8F907F0F8FE09F0B2FC05467E28DC
:1005E00019DCD6F8783453F8206003EB80035868A0
:1005F000314609F041FD0746284609F0F3FD014662
:10060000204609F039FD0146384609F03FFE3146E3
:1006100009F034FDF8BDD6F87834D3F8FC01F8BD04
:100620000000FE422DE9F84F80468B46044600F15B
:10063000200A4FF00009174FD4F860534046D4F811
:10064000D8130122FFF7A8FF064647F6FF732B8356
:10065000494609F0B9FF28B93046394609F0D2FFBA
:1006600010B902E04E4600E03E4630460A4909F025
:100670000DFE4FF07C5109F001FD09F0F3FFA86277
:100680000023EB61A5F82CB004345445D4D1BDE867
:10069000F88F00BFA655AC464B243E4708B5D0F8AE
:1006A0008034043B0A4A134003D5013B63F007033F
:1006B0000133EE3350F823100023C218D2F8602320
:1006C00011630433202BF8D10421FFF7ABFF08BDE1
:1006D0000700008008B50346D0F88024032A02DD15
:1006E000FFF7DCFF08BD02F5E07233F91210FFF7E7
:1006F00099FF08BD10B5C0F880144FF08044034B3B
:100700001C60FFF7E7FF024B1C6010BD88E100E0B2
:1007100008E100E02DE9F04105460C4690461F46F1
:100720002348322105F0F8FC2846E168FFF70EFF68
:1007300023782B7000244FF080462819D0F86003EE
:1007400006620434202CF8D14FF48040C5F8BC0177
:10075000C5F8F401C5F8C001C5F8F801C5F8C40131
:10076000C5F8FC01C5F8C801C5F8000247F670538A
:10077000C5F82C32C5F830320023C5F83432C5F83C
:1007800038320623A5F87632A5F87A324FF4803253
:10079000C5F87C22A5F8803205F5137001F044FFFE
:1007A000C5F8788428463946FFF7A4FFBDE8F081F4
:1007B0000082FF1F70B50446E23150F821502846F0
:1007C000D4F8381409F062FD06466D4909F01AFFA5
:1007D00028B930466B4909F0F7FE10B902E0684EBF
:1007E00000E0684E30464FF08F4109F04FFD09F0B0
:1007F00013FFC4F8BC012846D4F83C1409F046FDA8
:1008000006465F4909F0FEFE28B930465D4909F009
:10081000DBFE10B902E05A4E00E05A4E30464FF06F
:100820008F4109F033FD09F0F7FEC4F8C0012846F6
:10083000D4F8401409F02AFD0646514909F0E2FEB9
:1008400028B930464F4909F0BFFE10B902E04C4EBE
:1008500000E04C4E30464FF08F4109F017FD09F093
:10086000DBFEC4F8C4012846D4F8441409F00EFD98
:100870000646434909F0C6FE28B93046414909F009
:10088000A3FE10B902E03E4E00E03E4E30464FF06F
:100890008F4109F0FBFC09F0BFFEC4F8C8012846EF
:1008A000D4F8481409F0F2FC0646354909F0AAFECE
:1008B00028B93046334909F087FE10B902E0304EBE
:1008C00000E0304E30464FF08F4109F0DFFC09F078
:1008D000A3FEC4F8F4012846D4F84C1409F0D6FC61
:1008E0000646274909F08EFE28B93046254909F009
:1008F0006BFE10B902E0224E00E0224E30464FF06F
:100900008F4109F0C3FC09F087FEC4F8F8012846BE
:10091000D4F8501409F0BAFC0646194909F072FEE1
:1009200028B93046174909F04FFE10B902E0144EBD
:1009300000E0144E30464FF08F4109F0A7FC09F05B
:100940006BFEC4F8FC012846D4F8541409F09EFC50
:1009500005460B4909F056FE28B92846094909F011
:1009600033FE10B902E0064D00E0064D28464FF078
:100970008F4109F08BFC09F04FFEC4F8000270BDF6
:1009800000FEFF4600FEFFC62DE9F04F85B0804611
:1009900001914378E3B12D4B1B6803930398D8F87A
:1009A0008C34C01A09F01AFCD8F8881409F06EFCCF
:1009B00001464FF07E5009F05FFB8346002109F0AD
:1009C00003FE38B1002388F801304FF0000B01E03E
:1009D0004FF0000B444600264FF00009DFF874A0EA
:1009E0005846D4F8F81309F051FC0146D4F8D8035E
:1009F00009F042FBC4F81804019909F03FFB0146D5
:100A000040460022FFF7C8FD0546D4F8607349460A
:100A100009F0DAFD28B92846514609F0F3FD10B96E
:100A200002E04D4600E055462846094909F02EFCF3
:100A30004FF07C5109F022FB09F014FEB862013638
:100A40000434082ECCD105B0BDE8F08FECD7FF1FE1
:100A50004B243E47A655AC4670B582B004460D46C1
:100A60001646437863B1144B1B680193019AD0F882
:100A70008C34D21AD0F8843493429CBF0023437044
:100A80004FF080420D4B1A60D4F88034AB4204D052
:100A9000C4F880542046FFF71DFE20463146FFF77C
:100AA00073FF20462946FFF785FE4FF08042044B36
:100AB0001A6002B070BD00BFECD7FF1F88E100E0F4
:100AC00008E100E02DE9F04782460E4691460446D3
:100AD0000025A846705B07B2FF2F0FD0384609F0FB
:100AE00081FB494609F0CAFAC4F8D803D4F81814AF
:100AF00009F0C2FAC4F8F80308F101080235043419
:100B0000102DE7D108F215185AF828105046002386
:100B10000024F25EFF2A14BFC0F83814C0F838442D
:100B200002330430102BF4D1BDE8F0872DE9F04FEB
:100B300083B081468B4601928D1E00F11003009315
:100B400004464FF0000A35F8020F03B2FF2B1FD006
:100B5000184609F047FB019909F090FA8046C4F85D
:100B6000D803D9F87C1409F091FB0746C4F8E803D0
:100B7000D4F818644046314609F07EFAC4F8F80308
:100B80003846314609F078FAC4F808040AF1020A36
:100B90000434009B9C42D6D10AF2151A59F82A1047
:100BA000002300203BF90320FF2A1ABFC9F838149C
:100BB000C9F84814C9F83804023309F10409082BAC
:100BC000F0D103B0BDE8F08F08B5037813B9FFF793
:100BD00079FF08BDFFF7AAFF08BD00BF10B50446A6
:100BE00000F5816002F056F9204610BD10B50446AC
:100BF00000F5067002F04EF9204610BD0F4B036061
:100C00004172026100230372C36039B1194602695F
:100C100042F823100133427A9A42F8DC084B1A68F2
:100C20000AB9186004E053690BB11A46FBE750613A
:100C3000002343618380C380704700BF20DF000032
:100C4000E4D8FF1F144B03600423437200F1280310
:100C5000036100230372C3601946026942F823103E
:100C60000133427A9342F8DB0C4B1A680AB91860D8
:100C700004E053690BB11A46FBE75061002343615E
:100C80008380C380064B03604FF480338361C3616C
:100C900003624362704700BF20DF0000E4D8FF1FFB
:100CA000B8FA00000F4B0360002343720361037224
:100CB000C3600D4B1A680AB9186004E053690BB1A0
:100CC0001A46FBE75061002343618380C380074AD3
:100CD000026003834383C361036283628385C385A8
:100CE0000363704720DF0000E4D8FF1FD8FA00003C
:100CF0002DE9F04116480A2102F0ACF9074618BB6D
:100D00000024DFF84C80134E134D16E030460F21BF
:100D100000F014FD142004F043FB14EA050103D590
:100D2000013961F003010131304600F007FD142064
:100D300004F036FB0134052C06D040460A2102F0AF
:100D400089F907460028E1D03846BDE8F08100BFA8
:100D500010D5FF1F84C9FF1F0300008038B53D4B2D
:100D60001B7843F001023C49096811F4805F01D00F
:100D700093424CD137490A7043F00503364909685C
:100D800011F4805F01D09A424BD1324A137033483C
:100D900000F0C2FC324801F0C3F8FFF7A9FF01469A
:100DA000304C204601F0A2F840F2D24004F0F2F8B4
:100DB0002D4B18606378002B3DD143E000222A4B75
:100DC0001A60284D2948294600F044FB284C20464B
:100DD00001F068FB204601F013FA0246224C254838
:100DE00029462368FFF796FC2168234B194003D559
:100DF000013961F003010131184800F09FFC1F4BDD
:100E00001B68002B24DD154800F0B8FC38BD4FF4FA
:100E1000A2701B4908604FF4007001F57F61086003
:100E2000A8E74FF4A271174A11604FF4007102F560
:100E30007F621160A9E70322134B1A6080100F4BE9
:100E40001860BEE70122104B1A600328B6DCB8E731
:100E500038BD00BF14D9FF1F3C80044084C9FF1F68
:100E60006CC9FF1F9CC9FF1F64D0FF1F78C8FF1FFC
:100E700068D0FF1FD4CBFF1F0300008074C8FF1F82
:100E800018B0044014B0044040BEFF1F10B5044623
:100E900083100B4A1360002B02DD0A4800F06EFC41
:100EA0000949214003D5013961F0030101310548A9
:100EB00000F044FC40F2D240E1B204F081F810BDF1
:100EC00074C8FF1F84C9FF1F0300008008B5074BCB
:100ED00019680131064A1268920091FBF2F002FB98
:100EE00010101860FFF7D2FF08BD00BF64D0FF1FCD
:100EF00040BEFF1F70B51F4800F0D0FB04461E48DF
:100F000001F034F804F04003DDB214F0A00F2ED04D
:100F10001A4E184B196F06EB0111194812315A6E0F
:100F2000FFF752FEB378FBB1124B1B78E3B11448C4
:100F3000FFF724FB18E0FFF7C9FF0F48012100F07D
:100F4000FFFF14B90E4B5B7833B10D480D4B196898
:100F5000084B9A6EFFF780FD0B480C4B1968094B44
:100F60001A6800F017FC70BD002DE6D0E3E7002DF5
:100F7000E7D0E0E778C8FF1F6CC9FF1F9CC9FF1FBF
:100F8000D4CBFF1F64D0FF1F84C9FF1F74C8FF1F8D
:100F90002DE9F04F87B003F0B9FFDFF8F0B3DBF8CD
:100FA00000300093009AE94B1A60E94C0025257047
:100FB0006570201DFFF776FE04F13800FFF772FE22
:100FC00004F16C00FFF76EFE04F1A000FFF76AFE6B
:100FD00004F1D400FFF766FE04F58470FFF762FEAB
:100FE00004F59E70FFF75EFE04F5B870FFF75AFE39
:100FF00004F5D2773846FFF725FE04F5EE76304645
:10100000FFF720FE04F505794846FFF71BFE04F5BF
:101010001370012104F51972FFF7F0FDCD4BC4F8F0
:101020004C3284F86852A4F874524FF00903A4F8C3
:1010300076324FF0030AA4F878A25323A4F87A3248
:101040004AF6C023C4F87C32A623A4F8803204F503
:101050002170012104F52772FFF7D0FDBE4BC4F8C3
:10106000843204F5217001F019FC231DC4F8A0326C
:10107000C4F8A47284F8A85284F8A952C4F8AC52F7
:1010800004F5287005F03AF904F13803C4F8B032D9
:10109000C4F8B47284F8B8524FF0010884F8B982E9
:1010A000C4F8BC5204F52C7005F028F904F16C0367
:1010B000C4F8C032C4F8C47284F8C8524FF00203B6
:1010C00084F8C932C4F8CC5204F5307005F016F932
:1010D00004F1A003C4F8D032C4F8D47284F8D85212
:1010E00084F8D9A2C4F8DC5204F5347005F006F98E
:1010F00004F1D403C4F8E032C4F8E46284F8E8529E
:1011000084F8E952C4F8EC5204F5387005F0F6F8AA
:1011100004F58473C4F8F032C4F8F46284F8F85229
:1011200084F8F982C4F8FC5204F53C7005F0E6F846
:1011300004F59E73C4F80033C4F8046384F80853BC
:101140004FF0020384F80933C4F80C5304F54070DF
:1011500005F0D4F804F5B873C4F81033C4F8146378
:1011600084F8185384F819A3C4F81C5304F5447088
:1011700005F0C4F8C4F82073C4F8249384F8285305
:1011800084F82953C4F82C5304F5487005F0B6F8D8
:10119000C4F83063C4F8349384F8385384F839833E
:1011A000C4F83C5304F54C7005F0A8F8C4F840931B
:1011B00004F51373C4F8443384F8485384F849534E
:1011C000C4F84C5304F5507005F098F804F5137307
:1011D000C4F850333833C4F8543384F8585384F87F
:1011E0005953C4F85C5304F5547005F087F8DFF8E0
:1011F000A0C104F56073DCF80000DCF8041003C340
:1012000004F562760CF108070FCF0FC60FCF0FC69B
:1012100097E80F0086E80F0004F56E760CF13807AA
:101220000FCF0FC697E80F0086E80F0004F576761B
:101230000CF158070FCF0FC697E80F0086E80F0094
:101240000026C4F8F863C4F8FC63C4F80064C4F86A
:101250000464C4F80864C4F80C64C4F81064C4F8E6
:10126000146404F583670CF1580EBEE80F000FC735
:101270009EE80F0087E80F0004F587670CF1780EF1
:10128000BEE80F000FC79EE80F0087E80F0004F5C7
:101290008B670CF1980CBCE80F000FC79CE80F009F
:1012A00087E80F002D4BC4F87C34C4F880543223F7
:1012B000C4F884342A4BC4F88834DBF80030019336
:1012C000019BC4F88C34231DC4F860333433C4F854
:1012D00064333433C4F868333433C4F86C33343390
:1012E000C4F870333433C4F874333433C4F8783307
:1012F0003433C4F87C33C4F878541A4F38461A494A
:1013000000F080FA194C38461949224609F0CAF90A
:10131000184F3846184900F059FE384617492246FA
:1013200009F0C0F9164800F0DDF9164C84F8008089
:1013300084F80180201D0821FFF794F804F134009F
:101340000721FFF78FF8104B636623E098C9FF1F52
:10135000D4CBFF1FA8FA0000C8FA0000C520803FC8
:101360000AD7A33C9CC9FF1F00EC00003CBEFF1F36
:10137000ED0B000068D0FF1F10EC0000DD0B00003B
:1013800084C9FF1F78C8FF1F00001042ECD7FF1F61
:1013900028DF0000A366E366256704F174000621D8
:1013A000FFF760F804F1A4000921FFF75BF8DBF810
:1013B00000300393039BC4F8D430DBF80030029371
:1013C000029BC4F8D83084F8DC5084F8DD50C4F8AF
:1013D000E050134BC4F8E430C4F8E860C4F8EC60A3
:1013E000C4F8F0600F4C204603F0C0FA20460921F3
:1013F00003F0C4FA2046282103F0D6FADBF80030C7
:101400000593059BA3600A23E36025746574A574A6
:10141000DBF800300493049B636107B0BDE8F08FF4
:1014200018FCFFFF6CC9FF1F70B50446C0F8E01040
:10143000084608F0D7FE0546002604F17400314640
:101440002A46FFF729F804F1A40031462A46FFF79F
:1014500023F870BDF8B504460D460D2003F08EFC50
:101460000820002103F0B8FEEB7823702B7963701D
:101470002046697CFFF7D8FFA86808F0B3FE4FF05C
:101480007C5108F0FBFD0746261D287C08F0AAFECB
:10149000394608F0F3FD024630463946FEF7FCFFB8
:1014A00004F13405284600210B4AFEF7F5FF3046CB
:1014B0002178FFF717F828466178FFF713F83046D0
:1014C000FFF714F8054908F0E1FE09F0A5F8014618
:1014D0003046FFF705F8F8BD000040429A99993E62
:1014E00070B504467430FFF703F804F1A400FEF76A
:1014F000FFFF606FD4F8A41008F0C0FD0546D4F8D3
:10150000E060002109F060F850B9701E08F06AFE32
:1015100006462846314609F075F818B1304602E013
:10152000002000E0284609F077F82067D4F8E4307E
:1015300098421ABFC4F8E4002020002070BD00BF0C
:10154000F8B506460430FEF7D3FF054606F1340031
:10155000FEF7CEFF0446002D4FD100284AD10027C8
:1015600051E008F0FFF906F02FFF08F031FD70663A
:101570004FF00107D6F8F01009F01CF808B14FF051
:101580000007FFB201E070660127A4B173787BB158
:10159000284608F0E7F906F017FF08F019FDB066D5
:1015A000D6F8EC1009F006F828B947F0020702E077
:1015B000B56647F00207706EB16E08F05FFDF06629
:1015C00008F0D0F906F000FF04460D46D6F8E80012
:1015D00008F0C8F902460B462046294608F07EFC72
:1015E00088B947F004072046294608F0F1FCC6F800
:1015F000E80008E0756B0027C8E7756B7068337802
:10160000002BAED1BFE73846F8BD00BF30B589B07A
:101610000446082003F0D2FD1F4B1B680193019B79
:10162000D4F8D4209B1A0A2B0DD960B91A4B1B6829
:1016300002930299D4F8D830CB1AB3F57A7F24BF3D
:10164000012384F8DC30144B19680391039D196859
:1016500004910499AA1A02FB1010C4F8D4001B6864
:101660000593059B181AB0F57A7F0DD9012384F8EC
:10167000DD30094B1A680692069AC4F8D8201B6818
:101680000793079BC4F8D43094F8DC30002B0CBFD0
:101690000020402009B030BDECD7FF1F70B50446D4
:1016A000FFF71EFF05462046FFF74AFF0646204685
:1016B000FFF7ACFF35432843C0B223782BB110F0BD
:1016C000040F02D040F0800004E010F0010F18BFBA
:1016D00040F0800094F8DC3013B1002384F8DC3053
:1016E00070BD00BF10B483B0034600220270084AE8
:1016F00012680192019A4260064A00F1080407CA82
:1017000084E80700184603B05DF8044B704700BF3B
:10171000ECD7FF1F24F0000008B50620012103F0DC
:101720005BFD0520012103F057FD0420012103F09A
:1017300053FD0320012103F04FFD08BD10B50C46F9
:101740000320D1F1010138BF002103F013FD042073
:10175000012C14BF0021012103F00CFD0520022CF7
:1017600014BF0021012103F005FD0620032C14BF46
:101770000021012103F0FEFC10BD00BF82B0012357
:101780000370034B1B680193019B436002B07047D9
:10179000ECD7FF1F10B582B04B1E012B22D8174B80
:1017A0001B680093009C02314368E31A50F8211033
:1017B000994220D8114B1B680193019B4360037829
:1017C00083F0010303704BB10D49114003D501397A
:1017D00061F003010131FFF7B1FF0CE00F21FFF7CA
:1017E000ADFF08E00649114003D5013961F003015E
:1017F0000131FFF7A3FF02B010BD00BFECD7FF1F00
:1018000003000080F8B504460F46002303704370C0
:1018100083700122C2700271242282603222C2606F
:101820002622027443740B4E4FF4807512303146F9
:101830002A4603F0FBF804F5897071192A4603F073
:10184000F5F804F5067001F017FBC4F81472204691
:10185000F8BD00BF30F0000010B400F1100300F537
:10186000887408E0B3F8022123F8022F8B42F9D1E3
:10187000A14203D00B4603F11001F3E71023437498
:101880005DF8044B704700BF70B588B00546AE4C9C
:101890002046D5F8141201F007FD68462146D5F818
:1018A0001422132301F076FC9DF8043085F81C32D5
:1018B000029BC5F820329DF80C3085F8243208AB25
:1018C00053F8134D58689968C5F82542C5F82902A0
:1018D000C5F82D121B7B85F83132079BC5F83432D1
:1018E000684601F0D7FA05F50674D5F818325B683A
:1018F000204696493C229847204604F0F7FDD5F84B
:1019000018325B68204692493C229847204604F0F2
:10191000EDFDD5F818325B6820468E493D22984788
:10192000204604F0E3FDD5F818325B6820468A496A
:101930003D229847204604F0D9FDD5F818325B685F
:10194000204686493C229847204604F0CFFDD5F832
:101950001832834E5B682046314600229847204665
:1019600004F0C4FDD5F818325B6820467D493E225C
:101970009847204604F0BAFDD5F818325B68204637
:1019800079493E229847204604F0B0FDD5F8183238
:101990005B68204675493E229847204604F0A6FD24
:1019A000D5F818325B68204671493E229847204698
:1019B00004F09CFDD5F818325B6820466D493D2245
:1019C0009847204604F092FDD5F818325B6820460F
:1019D000314600229847204604F088FDD5F8183299
:1019E0005B682046644928229847204604F07EFD23
:1019F000D5F818325B682046604933229847204664
:101A000004F074FDD5F818325B6820465C492F223B
:101A10009847204604F06AFDD5F818325B682046E6
:101A2000584933229847204604F060FDD5F8183213
:101A30005B682046544919229847204604F056FD19
:101A4000D5F818325B682046314600229847204678
:101A500004F04CFDD5F818325B6820464B4915223E
:101A60009847204604F042FDD5F818325B682046BE
:101A7000474915229847204604F038FDD5F818321A
:101A80005B682046434919229847204604F02EFD02
:101A9000D5F818325B6820463F49192298472046FE
:101AA00004F024FDD5F818325B6820463B491A2221
:101AB0009847204604F01AFDD5F818325B68204696
:101AC00037491A229847204604F010FDD5F81832FD
:101AD0005B68204633491D229847204604F006FDE6
:101AE000D5F818325B6820462F49192298472046BE
:101AF00004F0FCFCD5F818325B6820462B4919220B
:101B00009847204604F0F2FCD5F818325B6820466E
:101B1000274918229847204604F0E8FCD5F81832E7
:101B20005B682046234918229847204604F0DEFCD3
:101B3000D5F818325B6820461F491922984720467D
:101B400004F0D4FC3AE000BF10D5FF1F30F20000D3
:101B500070F20000B0F20000F0F2000030F300007C
:101B6000ACF2000070F30000B0F30000F0F30000EE
:101B700030F4000070F40000B0F40000DCF4000069
:101B800010F5000040F5000074F5000090F500002D
:101B9000A8F50000C0F50000DCF50000F8F5000035
:101BA00014F6000030F6000050F600006CF600005D
:101BB00088F60000A4F60000C0F60000D5F8183240
:101BC0005B682046144918229847204604F08EFC92
:101BD000D5F818325B6820461049132298472046F2
:101BE00004F084FCD5F818325B6820460C491D22AD
:101BF0009847204604F07AFCD5F818325B682046F6
:101C0000084926229847204604F070FC204601F03F
:101C100069F908B070BD00BFDCF60000F8F60000FE
:101C20000CF700002CF700002DE9F047B4B0054692
:101C3000002747746846394604F030FE08A8A249D8
:101C4000D5F81422012301F0A5FA9DF8243085F877
:101C50001C320A9BC5F820329DF82C3085F82432BE
:101C600034AB53F8A34D58689968C5F82542C5F8B8
:101C70002902C5F82D121B7B85F831320F9BC5F860
:101C8000343208A801F006F93E46DFF85492DFF836
:101C90005482DFF854A2FEE0204601F085F8C1B27C
:101CA0005B2904D16B7C0F2B40F2F48002E12129E7
:101CB00000F0EB80012E2AD12C290ED16C7C6846D5
:101CC00004F0E2FE07EBC40405EB440460826846BE
:101CD000414604F001FE0137DDE05D2912D16C7C44
:101CE000684604F0D1FE07EBC40405EB44046082AF
:101CF0006846414604F0F0FD6B7C01336B740027AD
:101D00003E46C8E0684604F02DFE0126C3E0022EE0
:101D100040F0C1800A2940F0B8806846202104F0D4
:101D200069FE064610A8494604F0B8FD684610A9A9
:101D300004F042FE044610A804F064FD14B101232F
:101D40006B709CE014A8514604F0A8FD684614A9E5
:101D500004F032FE044614A804F054FDECB1012353
:101D6000AB70002E40F38B8018A86946324604F011
:101D700083FE18A804F088FEE86018A804F042FD6D
:101D8000EB68042B02DC0523EB6078E0B3F5FA6F17
:101D900075DD4FF4FA63EB6071E01CA84B4904F069
:101DA0007DFD68461CA904F007FE04461CA804F04B
:101DB00029FDC4B1002E62DD20A86946324604F038
:101DC0005BFE20A804F060FE287420A804F01AFD31
:101DD0002B7C0B2B02D80C232B7450E0482B4ED9B4
:101DE00048232B744BE024A8394904F057FD68467A
:101DF00024A904F0E1FD044624A804F003FD14B175
:101E000001232B703BE028A8324904F047FD6846C7
:101E100028A904F0D1FD044628A804F0F3FC74B30B
:101E2000002E2ADD04A86946324604F025FE2CA8BF
:101E3000294904F033FD04A82CA904F0F3FD04465D
:101E40002CA804F0DFFC002C02DD00232B7110E035
:101E500030A8224904F022FD04A830A904F0E2FDD4
:101E6000044630A804F0CEFC002C02DD0023EB7009
:101E70002B7104A804F0C6FC01E00023EB70684657
:101E8000414604F029FD002605E0684604F06AFD9D
:101E9000022600E0012605F50674204601F00EF842
:101EA00000287FF4F9AE204601F01CF8684604F0E3
:101EB000A9FC05E0012E3FF425AF022EEBD1E4E7AB
:101EC00034B0BDE8F08700BF10D5FF1FDCF700007D
:101ED000E4F70000ECF70000F8F7000000F800005D
:101EE000CCF70000ACF20000D4F7000010B50446B7
:101EF00011B9FFF7B1FC10BD0848D4F8141201F075
:101F0000C7F918B12046FFF78FFE10BD2046FFF736
:101F1000BBFC2046FFF788FE10BD00BF10D5FF1F99
:101F200008B50B20012103F057F90920012103F026
:101F300053F908BD08B50B2003F01CF908BD00BF1C
:101F400030B583B005460C462974092003F012F918
:101F500028462146FFF7EEFF24B1034B1B6801938F
:101F6000019BAB6003B030BDECD7FF1F10B584B050
:101F70000446037CCBB902F019FD204602F04EFD69
:101F8000A07420B1104B1B680193019B63610E4B41
:101F90001B680293029A6369D11A204613298CBFE9
:101FA00000210121FFF7C6FF0BE0074B1B680393DD
:101FB000039A8368D21AC368934202D20021FFF7C2
:101FC000BFFF04B010BD00BFECD7FF1F38B50446FB
:101FD0000D4600F5816000F04FFFC4F80052002369
:101FE000C4F80434204638BD70B59CB00C4604A833
:101FF000454904F053FC204604A904F013FD0546AE
:1020000004A804F0FFFB002D32DD08A83F4904F0CE
:1020100045FC204608A904F005FD054608A804F083
:10202000F1FB002D0DDD6846214600222B4604F011
:10203000FFFC684604F030FD0446684604F0E2FB0D
:1020400003E0204604F028FD04462046304908F00D
:10205000D1F9304908F0CEF907F084FC02460B466E
:1020600000204FF0804106F067FA07F0B1FF48E02A
:102070000CA8294904F012FC20460CA904F0D2FC5B
:1020800005460CA804F0BEFB002D33DD10A8224944
:1020900004F004FC204610A904F0C4FC054610A876
:1020A00004F0B0FB14A8214600222B4604F0C0FC2B
:1020B00014A804F0F1FC064614A804F0A3FB18A829
:1020C00021466A1C04F0D8FC18A804F0E5FC04467C
:1020D00018A804F097FB3046002108F06BFA68B9A5
:1020E0002046002108F066FA50B93046214608F033
:1020F00081F906E0204604F0CFFC02E0002000E079
:1021000000201CB070BD00BF8CF5000094F70000EB
:102110000000C8420000404108F8000070B582B0DD
:102120000546FFF761FF0646204C23685B682046A2
:102130001F490A2298472046D5F8041404F022FAD1
:1021400023685B6820461B4904229847304607F005
:1021500009FC02460B4604210091204604F01CFABB
:10216000204604F0C3F9D5F8044405EB8403C3F812
:10217000046230464FF0804108F026FA80B1013405
:10218000C5F804447F2C0DDD084C23685B682046AD
:10219000094949229847204604F0A8F9012002E0A5
:1021A000012000E0002002B070BD00BF18D9FF1F61
:1021B0000CF8000018F8000020F80000FFFFFFFFF7
:1021C00008B508460C4907F057FF07F0CBFB02465D
:1021D0000B4607A1D1E9000106F0AEF90022074B3A
:1021E00007F014FC07F0F4FE08BD00BFAFF3008059
:1021F000000000A08FF3F03F00008A4200807B4087
:102200002DE9F04F85B08146D0F80434022B6CDD07
:1022100000EB8303D3F80432039318463C4908F0DB
:10222000DDF960B13B4C23685B6820463A492422C3
:102230009847204604F05AF94FF07E530393D9F89B
:102240000484A9F1040A6FF044063746304607F0CB
:10225000C9FF0446404607F0C5FF0146204608F086
:10226000C9F807F07FFB06F0AFF804460D460022E0
:10227000002307F05BFE20B9009405F100430193B1
:1022800001E0CDE9004597FBF8FB08FB1B7B0398B9
:1022900007F068FB04460D46DDE9000107F050FE3B
:1022A00007F04EFB02460B462046294606F044F94D
:1022B00007F08EFE0146002F08DA184808F09AF859
:1022C000C3449BFBF8F308FB13BB02E0134907F080
:1022D000DDFF09EB8B0BDBF8041207F0D7FF4AF8A0
:1022E000040F01363B2EB0D10DE0051F002420461F
:1022F00007F078FF01464846FFF762FF45F8040FF4
:102300000134802CF3D1484605B0BDE8F08F00BF02
:1023100077CC2B3218D9FF1F6CF800000000DC438B
:102320002DE9F04790B0804608A85B49D8F8002214
:10233000012300F02FFF9DF8243088F80C340A9B0D
:10234000C8F810349DF82C3088F8143410AB53F8CA
:10235000134D58689968C8F81544C8F81904C8F8A6
:102360001D141B7B88F821340F9BC8F8243408A85F
:1023700000F090FD4FF07E53C8F804320127C8F8F2
:1023800004746846454904F089FA04A8002104F061
:1023900085FA002508F58164DFF80091DFF800A1D7
:1023A00056E0204600F000FDC1B225B1B1F10A05AA
:1023B00018BF01254CE021290CD1032F47D1029BE6
:1023C000012B57D8012543E06846494604F084FABA
:1023D00001253DE0012F16D10A2910D1029B23B916
:1023E00004A8514604F078FA03E004A8694604F012
:1023F00069FA6846494604F06FFA022728E0684601
:1024000004F0B0FA24E0022F0FD10A2909D168465E
:1024100004F03AFB60B36846494604F05DFA0327CE
:1024200016E0684604F09EFA12E0032F10D10A2944
:1024300009D140466946FFF771FE78B968464946BA
:1024400004F04AFA04E0684604F08CFA00E0012542
:102450002646204600F032FD0028A2D1304600F08A
:1024600041FDD8F80444012CD4BF0024012408E025
:10247000002406E040466946FFF750FE0028A3D03E
:10248000ECE704A804F0BEF9684604F0BBF9204666
:1024900010B0BDE8F08700BF10D5FF1FACF2000000
:1024A00094F8000010B504460548D4F8001200F076
:1024B000EFFE18B12046FFF733FF10BD002010BD1E
:1024C00010D5FF1F2DE9F84F0446002103F0F2FE5E
:1024D0008046002800F0A680237F1BB903F0A8FEE9
:1024E000BDE8F88F031D00F5827E734580F0928071
:1024F0004FF6FF7A4FF000094FF0040CE28B002AF0
:1025000055D1227F022A17D1A28DE28342B14FF02A
:10251000030121774FF480322262C4F8249076E0E0
:10252000E28DE28384F81CC0216BA1F58031D200DA
:1025300091FBF2F262626AE0032A0BD184F81CC0BC
:10254000E28DE283216BA1F5803191FBF2F2D21092
:1025500062625CE0042A09D14FF005012177A4F8FA
:102560001EA0226B2262C4F8249020E0052A02D12A
:10257000A4F81EA01BE0062A0BD1002222779E455C
:1025800048D91A605A609A60DA6010339E45F8D8CC
:1025900040E0012A0BD14FF002022277628DE283E4
:1025A0004FF4803191FBF2F2D21062622FE01E688C
:1025B0005D689F68D968626A206A02EB000B3BFB8A
:1025C00006F093443BFB16F6C0EA064693443BFBF9
:1025D00005F093443BFB15F5C0EA054593443BFBEE
:1025E00007F093443BFB17F7C0EA074093443BFBDB
:1025F00001F75A44226232FB11F2C7EA02471E6019
:102600005D609860DF60E28B013AE28310339E45A3
:102610003FF674AF20464146002203F029FE4046B3
:1026200003F006FEBDE8F88F72B600230362038D47
:10263000C38323B1012303770023436209E002230C
:102640000377438DC3834FF4803292FBF3F3DB10A7
:10265000436262B6704700BF10B5044603F018FF2E
:10266000204610BD08B503480349044A08F01AF88B
:1026700008BD00BF90D4FF1F592600003CBEFF1FBD
:1026800038B5064D064C07482946224608F00AF898
:1026900005482946224608F005F838BD59260000AD
:1026A0003CBEFF1F98D4FF1FA0D4FF1F08B50348EE
:1026B0000349044A07F0F6FF08BD00BFA8D4FF1F76
:1026C000592600003CBEFF1F08B503480349044AD1
:1026D00007F0E8FF08BD00BFB0D4FF1F5926000077
:1026E0003CBEFF1F2DE9F843814680460026374651
:1026F000F7B94846314603F0DDFD0746002853D0C0
:10270000D8F81810B1F5803F4ED0031D00F5827443
:102710001A6831FB02F031FB12F200F30F0002F3F2
:102720000F02C0EA024243F8042B9C42F0D83BE07F
:102730004846314603F0B2FD8446A8B33B1D051D53
:10274000D8F8184007F5827EB4F5803F16D107F11E
:102750000C040C3054F8082C50F8081C92FA11F2B2
:1027600044F8082C5A6850F8041C92FA11F25A6086
:102770000833083408309E45ECD812E055F8042B95
:1027800034FB02F034FB12F200F30F0002F30F02ED
:10279000C0EA0242196892FA11F143F8041B9E45FF
:1027A000ECD8604603F044FD013608F10408042E1D
:1027B0009ED13FB148463946002203F059FD3846C4
:1027C00003F036FDBDE8F88308B5002103F066FD8F
:1027D0000246A0B172B60A4B186810B91A6062B608
:1027E00008BD084B1B681BB9064B1A6062B608BDD2
:1027F00003490B60034B1A6062B603F019FD08BD74
:10280000C8D4FF1FB8D4FF1F38B51C4B1A68126814
:1028100019791B4B19701B4B9A4206D2A3F5807491
:1028200004F5807304F5007402E0174B03F580741F
:10283000164A106898B1021D47F6FF7532F9021B5F
:102840002944091123F8021B9C42F7D803F0F0FC3D
:102850000F4B1A680D490A6000221A6005E040F229
:10286000FF7223F8022B9C42FBD80A4B1B781BB14A
:102870004FF08042084B1A6038BD00BFBCD4FF1F28
:102880001F800040C8B5FF1FC8B4FF1FC8D4FF1F7A
:10289000B8D4FF1FC4D4FF1F08E200E070B54F4852
:1028A000012103F097FD4E4B1A6842F480521A60E2
:1028B000802203F5032303F6F5731A700024494EB2
:1028C00001253480284602F06BFD0834A4B223B2FF
:1028D000B3F5006FF5D1444B1B6813F4800F16D08D
:1028E000424B1A6848F6A2731A409A420FD1404BE5
:1028F0001A6840F22F339A4209D13E4B1B68012BD4
:1029000005D13D4B1A6840F201139A4217D0364B5D
:102910001A6842F480021A600122A3F59033303B1A
:102920001A6040F22F32083B1A60043B48F6A3724B
:102930001A60324A1A6040F2011210331A60274CB2
:1029400023681A6800222E49196023680221197130
:102950005A7101209871D87119725A729A72DA728A
:102960001A736FF0010159734FF0FF319973D973E6
:1029700019691C4919611A755A75D98A4FF4807101
:10298000D9821A765A769A76DA76D88BD983998B49
:1029900006219983237903F1804303F504331A70E8
:1029A000B0221A7003F0C2FC164B18702279164B35
:1029B0001A70227902F110011448154B43F82100D6
:1029C00053119B0003F1604303F5614302F01F02C2
:1029D000012101FA02F21A6070BD00BFBCD4FF1FD2
:1029E0002C80044000C00C403C8004400060034048
:1029F000046003400C60034010600340A28F01009C
:102A0000C8B4FF1FC4D4FF1F1B800040092800006A
:102A100000B8FF1F08B503480349044A07F042FE07
:102A200008BD00BFBCD4FF1F592600003CBEFF1FDD
:102A300008B503480349044A07F034FE08BD00BF47
:102A4000CCD4FF1F592600003CBEFF1F08B5034829
:102A50000349044A07F026FE08BD00BFD4D4FF1F77
:102A6000592600003CBEFF1F08B503480349044A2D
:102A700007F018FE08BD00BFDCD4FF1F5926000078
:102A80003CBEFF1F08B503480349044A07F00AFE8D
:102A900008BD00BFE4D4FF1F592600003CBEFF1F45
:102AA00008B503480349044A07F0FCFD08BD00BF10
:102AB000ECD4FF1F592600003CBEFF1F2DE9F84350
:102AC0000446B0F91830002B00F0FD8003F054FBF1
:102AD0000746002800F0F780061DB4F92C30072BBC
:102AE00000F2D980DFE803F0046A58922BAF7EC170
:102AF00000F5827E33464FF6FF757448E269D10DCA
:102B0000C2F3CF12B4F918C0C2EB050830F9119026
:102B1000013130F9111002FB01F109FB0812121406
:102B200002FB0CF2D21323F8022BA16AE2698A1885
:102B300048BF22F00042E2617345DFD1ABE0236B76
:102B40001BB903F075FBBDE8F88300F5827E3346C0
:102B50004FF6FF75E269D00D216BC2F3CF12B4F9C5
:102B600018C031F91080C2EB05090130C0B231F94B
:102B7000101002FB01F109FB0812121402FB0CF207
:102B8000D21323F8022BA16AE2690A4422F0004220
:102B9000E2617345DED17EE0821D8023E16911F0A0
:102BA000804F218B18BF494222F8021CA06AE169BC
:102BB0000144E1610232013BF0D16CE000F582702A
:102BC0003346E26942F3CF32B4F9181001FB02F246
:102BD000D21323F8022BA16AE2690A44E26183421C
:102BE000EFD158E000F582703346E26942F3CF320C
:102BF000B4F9181001FB02F2D21323F8022BA16AD8
:102C0000E269521AE2618342EFD144E000F582703A
:102C10003246E369002B258BBCBF6D42ADB29900F3
:102C200013F0804F18BF4942490C2BB203FB01F14E
:102C3000C91322F8021BA16AE36903EB4103E361B4
:102C40008242E6D127E0821D8023E069216A884222
:102C5000218B38BF494222F8021CA06AE169014475
:102C6000E1610232013BF0D115E000F58278354692
:102C7000A26AE369934205D2B4F91810484203F0FE
:102C8000B7FDA084A38C25F8023BA26AE369134434
:102C9000E3614545ECD1B4F92E3063B107F582719B
:102CA000B6F90030B4F92E20134403F30F0326F8CD
:102CB000023BB142F4D820463946002203F0D8FA4C
:102CC000384603F0B5FABDE8F88300BF9CF8000071
:102CD000184B1A6842F480521A60174B174A1A6050
:102CE000174ADA6002F180421A61164A1A60164BDE
:102CF0001B7813F0010F07BF4FF41072134B4FF402
:102D00000072134B1A60104B1B7813F0020F4FF434
:102D100000720CBF0F4B104B1A600B4B1B7813F05B
:102D2000040F07BF4FF410720C4B4FF400720C4BA2
:102D30001A6070473C80044000C0024001401F0000
:102D40000110003800001F8014D9FF1F18B0044084
:102D500008C004401CB004400CC0044014B004403F
:102D600004C0044010B582B002AB03F8011D026834
:102D7000546819460122A04702B010BD10B50446A0
:102D8000C3691BB901230371002010BD0020187115
:102D9000E06992B201F056F9E3691B7913B101239E
:102DA0002371002010BD00BF00B583B0C06960B1C1
:102DB0000DF10701012200F0ABFE01280CBF9DF8C8
:102DC00007004FF6FF7000B201E04FF0FF3003B094
:102DD0005DF804FB30B583B00446C06978B10DF1ED
:102DE0000701012200F094FE01280AD19DF8075046
:102DF000E069C168013900F045FF284603E0002082
:102E000001E04FF0FF3003B030BD00BF08B5C0692E
:102E100008B100F06FFF08BD2DE9F04104460E46F1
:102E20009046002303714FF47A7282600373114B52
:102E30000360242007F078FCE061B8B1354607460E
:102E400006F1200E3E4628686968AA68EB680FC63E
:102E5000103537467545F5D12868306004F10D000E
:102E600041460C2208F050FB002363762046BDE863
:102E7000F08100BFE8FA0000002202714FF47A717D
:102E80008160027302490160C2614273704700BFF2
:102E9000E8FA0000014B0360704700BFE8FA000049
:102EA000C3690BB1D86870474FF0FF30704700BF5F
:102EB000C3690BB1986970470020704738B5044664
:102EC000C36963B1FFF7F4FF05462046FFF7E8FF4B
:102ED000281A47F6FF73984228BF184638BD0020CD
:102EE00038BD00BF10B50446C06930B100F02EFFF8
:102EF000E06907F021FC0023E36110BD10B58AB042
:102F000004460A4600238DF80830094901918DF8DE
:102F10000A3001A82146012300F0CAFF041C18BF93
:102F2000012414B101A800F011FF20460AB010BD21
:102F300008FB000008B52AB101F068F8003018BF9E
:102F4000012008BD012008BDF0B40C68035D2F2BE3
:102F50001CD101341AE0002563B11EE001350134B3
:102F600007F8013F0C2D05D016F8013F2F2B01D09B
:102F7000002BF3D100235355035D2F2B08BF0134E1
:102F80000C60005D003018BF01200BE00619035DE6
:102F90002F2B08BF0025EDD0DDE701341370174655
:102FA0000125E1E7F0BC70472DE9F04F99B082466A
:102FB0000F469146984600238DF81C30244A06920D
:102FC0008DF81E308DF840300F928DF8423001930D
:102FD0000C4606AE4FF0010B03E00FAC234634461F
:102FE0001E46504601A902AAFFF7AEFF054680F033
:102FF0000102204602A9D2B24346C84730B9BC42BA
:103000001CD0204600F0A2FE00201EE07DB130461C
:10301000214602AA5B4600F04BFF0546BC4211D098
:10302000204600F093FE002DD8D100200DE0BC42D8
:1030300006D0204600F08AFE012006E0002004E0D1
:10304000012002E00028C8D1002019B0BDE8F08FAF
:1030500008FB000038B504460A46012100F076FA64
:10306000A8B1251D28462146012201F099FA28B968
:1030700028462146002201F093FA50B104F12C00B9
:10308000294600F01BFD003018BF012038BD00208C
:1030900038BD002038BD00BF2DE9F04F99B0814602
:1030A0009346019300238DF81C30394A06928DF81F
:1030B0001E308DF840300F928DF8423006A8043152
:1030C00000F0FCFC5C460FAE06AD4FF02F084FF051
:1030D000000A2CE023782F2B01D1013427E03F1B7D
:1030E000FFB20C2F28BF0C2702A821463A4608F051
:1030F0000BFA18AB3B4403F858AC304600F026FE00
:103100003046294602AA012300F0D2FE40B900232E
:1031100089F804301E4AC9F8002089F8063032E0E8
:103120003C44284600F012FE2B4635461E462046FB
:10313000414608F087F807460028CBD1CBEB0404C2
:10314000019B1C602B7989F80430114BC9F80030C1
:103150006B7989F80530AB7989F80630AB68C9F826
:103160000830EB68C9F80C302B69C9F810302B7D9A
:1031700089F81430AB69C9F81830EB69C9F81C300C
:103180002B6AC9F82030484619B0BDE8F08F00BF5F
:1031900008FB0000F0B5A7B0044615461F4602A87C
:1031A00001ABFFF779FF01996E18695C19BB9DF8B7
:1031B0000C308DF85430344B14939DF80D308DF84D
:1031C00055309DF80E308DF85630049B1693059BB4
:1031D0001793069B18939DF81C308DF86430089B5C
:1031E0001A93099B1B930A9B1C93204614A9274AF8
:1031F000FFF712FE45E000218DF83010224B0B93B3
:103200008DF832109DF80E301BB92046FFF734FEC2
:1032100037E00BA802A932463B4600F049FE18B938
:103220002046FFF729FE2CE002A800F08FFD17F0E2
:10323000060F03D00BA8119900F024FD9DF8303043
:103240008DF87830104B1D939DF831308DF8793022
:103250009DF832308DF87A300D9B1F930E9B209392
:103260000F9B21939DF840308DF88830119B23935C
:10327000129B2493139B259320461DA93246FFF7EA
:10328000CBFD204627B0F0BD08FB000008F8000089
:1032900008B500F12C0308461946024A0023FFF73F
:1032A00083FE08BDFD2E000008B500F12C03084682
:1032B0001946024A0023FFF777FE08BD352F0000AC
:1032C000064B00229A700221596083F8242083F86B
:1032D00030200349D96283F83220704710D5FF1F90
:1032E00008FB0000084B1A6842F480621A604FF035
:1032F0000042DA62FF225A631A46D36A002BFCDAD4
:10330000014B986BC0B2704700C00240064B1A6870
:1033100042F480621A604FF00042DA6258631A4643
:10332000D36A002BFCDA704700C0024008B50528BC
:103330001ED8DFE800F003080D1115194FF03842D0
:103340000E4B1A6017E04FF038420C4B1A6012E037
:103350000B4A0A4B1A600EE00A4A084B1A600AE050
:10336000094A064B1A6006E0084A044B1A6002E05C
:10337000074A024B1A60FFF7ABFC08BD64D5FF1F7C
:10338000000002B8000002380110013801000238C4
:103390000540013808B50078012101F0EBFE114B22
:1033A0001B78F3B100220F4B1A700F4B1B78C3B17F
:1033B00013F0010F03D00D4B1A680D4B1A600A4B26
:1033C0001B7813F0020F03D0084B5A68094B1A60A0
:1033D000054B1B7813F0040F03D0044B9A68064B7F
:1033E0001A6008BD68D5FF1F0CD5FF1F00D5FF1F51
:1033F00000E100E004E100E008E100E010B5244B4A
:103400001B78002B3ED10122214B1A70214B1A68E8
:10341000214B1B78002B28D072B61F4B1B7813F062
:10342000010F07D01D4B1C681D49096821401D4C28
:1034300021601960184B1B7813F0020F07D01A4B4C
:103440001C68174949682140164C61601960124B8D
:103450001B7813F0040F07D0144B1C6810498968BF
:103460002140104CA160196062B6114BDB68934299
:1034700008D00F4B0F491960DA6042F080421A61A0
:103480000D4A1A600078002101F074FE10BD00BFE3
:1034900068D5FF1F64D5FF1F0CD5FF1F80E100E03A
:1034A000F4D4FF1F00D5FF1F84E100E088E100E0B5
:1034B00000C0024001401F0000001F8070B582B0B4
:1034C0000E460B4B1B680093009C094DA4B2FFF7FE
:1034D00009FFFF2807D02B680193019B9BB21B1BA0
:1034E000B342F4DB01E0012000E0002002B070BD37
:1034F000ECD7FF1FF8B505460F4616464FF49671F8
:10350000FFF7DCFF47F04000FFF700FF182426FA22
:1035100004F0C0B2FFF7FAFE083C14F1080FF6D130
:1035200027B1082F0CBF8720FF2000E09520FFF770
:10353000EDFE0024FFF7D6FE687010F0800F03D078
:103540000134B4F5807FF5D1F8BD00BF2DE9F04F0F
:1035500087B0044601910023837002707D4B1B6885
:103560000393039FBFB21046012101F003FE2078B0
:10357000012101F031FE2078012101F0FBFD764BA5
:103580001A6842F480521A600620FFF7CFFE734B90
:103590001A68734B1B78002B28D072B6704B1B78BF
:1035A00013F0010F07D06F4B18686F49096801408D
:1035B0006E48016019606A4B1B7813F0020F07D048
:1035C0006B4B186868494968014068484160196058
:1035D000634B1B7813F0040F07D0664B18686249E1
:1035E0008968014061488160196062B6624BDB689E
:1035F000934200F0A080604B60491960DA6042F0AD
:1036000080421A615E4A1A6095E02846FFF77EFE06
:10361000013E16F0FF06F8D1514B1B78C3B113F0F1
:10362000010F03D0514B1A68564B1A604C4B1B7854
:1036300013F0020F03D04D4B5A68534B1A60484B9E
:103640001B7813F0040F03D0484B9A684F4B1A6055
:103650002046FFF7D3FE4FF00008DFF8F89008E0AF
:10366000D9F800300493049BDB1B9BB2B3F5FA6FCF
:103670005DD8204641464246FFF73CFF0546607054
:103680000128EDD1204608214FF4D572FFF732FF13
:1036900010F0040F04D00123A3704FF0000A0FE0D4
:1036A0004FF00408FFF71EFE607008F1FF3313F0BF
:1036B000FF08F7D1AA283AD10223A3704FF0804A1D
:1036C0004FF037094FF00008DFF888B008E0DBF86A
:1036D00000300593059BDB1B9BB2B3F5FA6F26D830
:1036E000204649464246FFF705FF2046292152461B
:1036F000FFF700FF60700028E9D1A378022B0ED1FC
:1037000020463A210022FFF7F5FE80B9FFF7EAFDD7
:1037100000F0C000C02811D10323A3700EE02046A2
:10372000FFF738FE0198FFF701FE2E460DE0204618
:10373000FFF730FE09E00A26FF2566E7FFF7D2FD16
:10374000FFF7D0FDFFF7CEFDE9E7304607B0BDE853
:10375000F08F00BFECD7FF1F3C80044064D5FF1FF3
:103760000CD5FF1F80E100E0F4D4FF1F00D5FF1F40
:1037700084E100E088E100E000C0024001401F0059
:1037800000001F8000E100E004E100E008E100E04B
:1037900070B582B004460E4B1B680093009D0C4E22
:1037A000ADB207E033680193019B9BB25B1BB3F59D
:1037B000967F09DCFFF796FD6070FF28F2D0FE28A7
:1037C00014BF0020012000E0002002B070BD00BF47
:1037D000ECD7FF1FF8B504460D4616468378032B39
:1037E00018BF4D02FFF70AFE204611212A46FFF7B7
:1037F00081FE002847D12046FFF7CAFF002842D0AB
:10380000234B244A1A60244A5A635A635A6306F5C2
:10381000FD7E764513D2B01C06F5FE771946CB6ABD
:1038200013F0F00FFBD04A638B6BC3F3072500F84E
:10383000025C00F8013C0230B842F0D100E0B6462C
:1038400006F5007676450DD97146114AD36A13F014
:10385000F00FFBD0936BC3F3072008704B7002315D
:103860008E42F3D80A4B0B4A1A600B4A5A631A4627
:10387000D36A13F0F00FFBD0054B9B6B2046FFF78C
:1038800089FD0120F8BD2046FFF784FD0020F8BD2A
:1038900000C0024000041F80FFFF0090F8B50646FC
:1038A0001E4B186840F4806018604FF00040D862EA
:1038B0005963114602F500770446DA6A002A08DBEC
:1038C000FBE7DA6A002A0DDBFBE7D36A002B15DB86
:1038D000FBE708460A781D6845F480651D60DC62D8
:1038E0005A63EEE742781D6845F480651D60DC622E
:1038F0005A630231B942E0D1084AE6E7FF20FFF7F8
:1039000005FDFF20FFF702FDFFF7ECFC707000F0F3
:103910001F00052814BF00200120F8BD00C0024090
:1039200070B5044616460D4629B38378032B18BF9D
:103930004D02FFF763FD204618212A46FFF7DAFD06
:10394000C8B92046FE213246FFF7A8FF98B12046AD
:103950004FF41671FFF7B2FD68B120460D21002229
:10396000FFF7C8FD38B9FFF7BDFC20B92046FFF7C7
:1039700011FD012070BD2046FFF70CFD002070BD39
:10398000014A024B1A6070470000023864D5FF1FDD
:1039900010B50446006A012104F1080200F076FD2A
:1039A000034650B1E3693BB9A368E361637963F00F
:1039B0007F036371012300E00123184610BD00BF9F
:1039C00070B50646FFF7E4FF0346E0B1336AB2681C
:1039D000023A197C02FA01F55A6915441C794CB176
:1039E000013D281900F088FC034660B1013C14F049
:1039F000FF04F6D1336A1B7C4FF400729A40B3691E
:103A00001344B3610123184670BD00BF10B50446CE
:103A1000006900F04DFC20B1207D034B03EB40100A
:103A200010BD002010BD00BF78D5FF1F2DE9F001AB
:103A300000232022CA5401330B2BFBD1013800256F
:103A400007264FF008084FF00A0C1B4F21E02E2CE0
:103A500001D03A4606E00A2E24D04546664618E0D4
:103A6000A34221D012F8013F002BF9D1AE421DD361
:103A7000A4F12103DBB25D2B1AD86B1CDBB20D4421
:103A8000A4F16102D2B2192A9CBF203CE4B22C708E
:103A90001D4610F8014F002CD9D10878203818BFE6
:103AA000012006E0002004E0002002E0002000E009
:103AB0000020BDE8F00170470FFB000038B5044658
:103AC0000D4683790BBB91F82020102A07D10223E1
:103AD00083710023C3614B8C5B0183610CE0202A5E
:103AE00014D103238371496AC161284604F1180285
:103AF00000F058FC034648B125620123637100229F
:103B0000A260E2602261227500E00023184638BD01
:103B10002DE9F04F83B00446884601928379002B4B
:103B200069D0437913F0010F68D08269C368D11A54
:103B30000198884201D98BB20193019B002B57D089
:103B40001D46DFF8F8A0DFF8F890DFF8F8B0E3687A
:103B5000C3F30807A279022A04D1226A516A01EB51
:103B600053211BE0206A0679013E06EA5326F6B28D
:103B70005FB956B913B9E369A36006E0224652F86B
:103B8000081F00F0D9FB00283BD0226AA368023B43
:103B9000117C03FA01F1526911443144C7F50073F5
:103BA0009D42C6BF1E46B6B22E46637913F0400F43
:103BB00002D1B6F5007F36D1D9F8003099422AD12A
:103BC00031E0B0440DE05744B819874209D03B4674
:103BD000424613F8011B02F8011B8342F9D1C71BAF
:103BE000B844E3683344E360AD1BADB2002DAED101
:103BF000019B98B20DE04FF6FF700AE04FF6FF70A0
:103C000007E04FF6FF7004E04FF6FF7001E04FF65B
:103C1000FF7000B20EE0DBF800004246FFF7DAFD6D
:103C20000028CED1F0E70846002100F041FB002833
:103C3000C9D1ECE703B0BDE8F08F00BF78D5FF1F16
:103C400044BEFF1F74D5FF1F30B583B0044683798F
:103C5000012B0FD9C5680DF107010122FFF758FFAD
:103C6000012809D1E3681F33E36005F4F070044BC9
:103C7000184402E0002000E0002003B030BD00BF87
:103C800078D5FF1FF8B504460F4683797BB3826968
:103C90008A422BD3022B02D1E160012327E021B914
:103CA00000238360C360012321E0C368026A157C9E
:103CB00009355A1EEA40013921FA05F5AA4200D811
:103CC00013B9E369A3600AE0AD1A08E0206AA168AD
:103CD000324600F031FB013D034610B907E004F124
:103CE0000806002DF2D1E760012300E0002318460A
:103CF000F8BD00BF38B50446807918B394F9053093
:103D0000002B1BDA20460121FFF780FE0546C0B1DB
:103D1000A379012B9CBFA369C361A38B4383E38B6E
:103D20008382094B1B682BB1183005F116019847A7
:103D30002B8B6B82637903F07F03637100F08CFA45
:103D400038BD002038BD00BF6CD5FF1F10B504463C
:103D5000FFF7D0FF034610B10023A37101231846DB
:103D600010BD00BFF0B583B004460D468379012B2A
:103D70004ED1427902F0020202F0FF01002A49D03E
:103D80008269AA4248D3002A47D0C6682946FFF76D
:103D900079FF0346002840D04DB9206AE16900F060
:103DA000D9FB0346002838D00023E3611DE0206AD8
:103DB000A16801AA00F0C0FAA8B1206A019990F8A0
:103DC00020704FF6F872164B102F08BF1346994219
:103DD0000BD200F0BFFB30B1206AA1686FF07042D7
:103DE00000F00CFB08B9002317E0A561637963F0CC
:103DF0007F0363712046FFF77DFF034668B12046CD
:103E0000B54234BF29463146FFF73CFF034604E084
:103E1000002302E00B4600E00023184603B0F0BD8B
:103E2000F8FFFF0F38B5044615461F4B03EB41134F
:103E3000DA7A12F0110F02D015F0420F2CD1217551
:103E40001A4A12682261998A0904E1615A8B114366
:103E5000E161D87A10F0180004D1DB69A361012375
:103E6000A3710AE0102819D1206A04F1180200F0A9
:103E700099FA0346A8B10423A37105F00F036371F7
:103E80000023A360E36015F0400F09D020461946D7
:103E9000FFF768FF034604E0002302E0002300E090
:103EA0000123184638BD00BF78D5FF1F44BEFF1F51
:103EB0002DE9F04F85B005460C469A468679002ECE
:103EC0007FD1104601A9FFF7B1FD00287BD0236AFE
:103ED0002B620027A760E760DFF8FC904FF0010835
:103EE00025E0C1F3431B2046FFF7AEFE0146002844
:103EF0006AD003780BB1E52B09D12FB985F814B03E
:103F0000D9F800302B6147460B7883B913E001A83C
:103F10000B2206F0B5FE50B90AF03003302B53D017
:103F2000284659465246FFF77DFF06464CE0E168B9
:103F3000A3699942D5D30AF01203122B44D137B1A9
:103F400028460121FFF762FD044660B93CE0A379F1
:103F5000022B39D02046FFF733FD0646002833D028
:103F600000232B751A4C20460021202206F01CFF4E
:103F700001AB03CB206061601A889B782281A37219
:103F8000144B1B682BB104F1100004F10E0198478B
:103F900007E021232374282363740023A3730823D9
:103FA000E373238A63822383E389E38200F054F975
:103FB000064648B12846297D5246FFF733FF06469C
:103FC00002E0002600E00646304605B0BDE8F08F6E
:103FD00078D5FF1F6CD5FF1F44BEFF1F10B50446E8
:103FE0000021FFF7BFFE034668B120460121FFF71D
:103FF0000DFD38B1E52202700023A37100F02CF909
:10400000034600E00023184610BD00BF10B58AB07B
:1040100004460A4600238DF80830094901918DF8BD
:104020000A3001A821460223FFF742FF034618B1D8
:1040300001A8FFF7D3FF034618460AB010BD00BF22
:1040400008FB00002DE9F04F85B004468846019238
:104050008379012B40F0BE80437913F0020F00F00A
:10406000B98013F0040F08D08169C3688B4204D073
:10407000FFF708FE002800F0AD80019A002A00F04A
:104080008C801646DFF8B0A1DFF8B0B1206AE7688F
:1040900090F8049009F1FF3909EA5729C7F3080796
:1040A00019F0FF0929D1002F40F0AA80A16851B969
:1040B000E36933B92046FFF76BFC002840F08E809F
:1040C00088E0A3608AE003AA00F036F9002800F037
:1040D000A880039B226A92F820004FF6F871524A9A
:1040E000102808BF0A46934205D32046FFF750FC2C
:1040F000002873D16EE0A36070E0C7F50075ADB223
:10410000AE4238BF3546A368023B027C9340426909
:1041100013449944B5F5007F12D1DBF800304B45CC
:1041200004BF4FF0FF33CBF80030404B18684946CE
:104130004246FFF7F5FB00284CD008F5007824E054
:104140007FB9E268A3699A420BD300F085F8002892
:1041500040D0CBF80090364A137843F00103137037
:1041600005E04846012100F0A3F8002832D057446A
:104170007819874209D03B46424612F8011B03F8E2
:10418000011B8342F9D1C71BB844761BB6B2E36862
:104190001D44E560002E7FF479AFE368A269934285
:1041A00005D9A361637963F07F03637108E0214B54
:1041B0001B682BB1019B1BB1637963F07F036371B3
:1041C000637913F0080F03D02046FFF793FD08B181
:1041D000019826E001232371002022E0B6F5007F3C
:1041E00034BF35464FF40075236AA268023A197C41
:1041F00002FA01F95B699944B5F5007FA1D18CE71A
:10420000C7F50075ADB2AE4238BF3546A368023B74
:10421000027C03FA02F943699944B5F5007FA0D105
:104220007BE705B0BDE8F08FF8FFFF0F74D5FF1FE7
:1042300078D7FF1F6CD5FF1F78D5FF1F44BEFF1F27
:1042400000B583B002AB03F8011D19460122FFF748
:10425000F9FE03B05DF804FB08B5104B1B78D3B131
:104260000F4B18680F4B19680F4AFFF759FB0346AD
:1042700090B10E4B196849B1094B18680A4AFFF70B
:104280004FFB034640B10022084B1A600022034B4B
:104290001A70012300E00123184608BD78D7FF1FDC
:1042A00074D5FF1F44BEFF1F78D5FF1F70D5FF1FB9
:1042B00038B504460D460C4B1B6883420DD0FFF702
:1042C000CBFF034670B1094B18682146084AFFF737
:1042D00081FA034630B1044B1C60064B1A78154333
:1042E0001D700123184638BD44BEFF1F74D5FF1F43
:1042F00078D5FF1F78D7FF1F10B50446FFF7ACFF36
:10430000034680B109494B1E01F2FF11002203F858
:10431000012F8B42FBD1064B1C60064B1A7842F0F2
:1043200001021A700123184610BD00BF78D5FF1F87
:1043300044BEFF1F78D7FF1F70B504460D461646D2
:10434000C36801338B4225D3C36990F82020102A1B
:104350000CBF080AC8091844104B1B68984204D0C7
:104360000021FFF7A5FF0346A8B194F82030102BD9
:1043700006D1EDB20A4B33F81530336001230AE061
:1043800005F07F05064B53F8253023F0704333606A
:10439000012300E00023184670BD00BF44BEFF1F8C
:1043A00078D5FF1F2DE9F04383B0044602AE46F8EE
:1043B000041D914600254FF400780F4F20460199C7
:1043C0003246FFF7B9FF034688B1237C08FA03F3AE
:1043D0001D4494F820104FF6F873102914BF394685
:1043E0001946019B8B42E9D3C9F8005001231846B6
:1043F00003B0BDE8F08300BFF8FFFF0FF8B5044637
:104400000D461746012931D9C368013399422FD887
:10441000C36990F82020102A0CBF0E0ACE091E4452
:10442000164B1B689E4205D030460021FFF740FF27
:10443000034600B394F82030102B04D1EDB2104B9A
:1044400023F8157004E005F07F050D4B43F8257047
:104450000C4B1A7842F001021A70237E012B09D905
:10446000A3681E44084B1E60012304E0002302E001
:10447000002300E001231846F8BD00BF44BEFF1F23
:1044800078D5FF1F78D7FF1F70D5FF1F2DE9F04F9C
:1044900085B006468A46009217681FB1013700238F
:1044A000019305E00768012914BF0023012301934C
:1044B000F36803F10108DBB13C4600254FF0020927
:1044C000CB46A0453CBF4C465F463046214603AA3A
:1044D000FFF732FF60B1039B0BB1671C03E0631C65
:1044E000DB1B534506D001350134F368AB42E8D8F5
:1044F00000232AE0304621466FF07042FFF77EFF2E
:10450000034648B921E0651E304629462246FFF79A
:1045100075FF034618B918E0BC42F4D803E0BD4269
:1045200001D92C46EFE7009B196829B130463A467D
:10453000FFF764FF034640B1009B1F60019B1BB166
:1045400001373760012300E00123184605B0BDE8BC
:10455000F08F00BFF0B583B005460C460223036020
:1045600000260E4F2846214601AAFFF7E5FE80B13E
:10457000284621463246FFF741FF50B1019C95F88D
:1045800020104FF6F873102918BF3B469C42E9D320
:1045900001E0002000E0012003B0F0BDF8FFFF0FB4
:1045A000F8B50546494B19601446DAB1042A7FD89C
:1045B00000200146FFF77CFE0346002800F08380C0
:1045C000434B03EB041494F8AE3104F5D47413F0A8
:1045D0007F036FD1D4F81210632974D9D4F80E4038
:1045E0000CB970E0002420460021FFF761FE03466D
:1045F000002868D0364BB3F80B30B3F5007F5BD1A1
:10460000334B1B7C002B5ED0314AD289002A55D017
:104610002F4A517B002953D02B76297100232B740C
:10462000012003E05A1C2A74072B4BD82B7C1E4612
:1046300000FA03F29142F5D1254BD98A01B9596AA2
:10464000A960234BDA892244EA61B3F8110087B2EA
:1046500068841B7C03FB01236B627A0102F2FF1268
:1046600003EB62236B611A4AB2F813200AB9184AA5
:10467000126AE31A134423FA06F6EE6040F6F47366
:104680009E4204D80C2385F8203001231BE04FF60E
:10469000F4739E4204D8102385F82030012312E0E1
:1046A0000B4BDB6A6B62202385F8203001230AE084
:1046B000002308E0002306E0002304E0002302E0DA
:1046C0000B4600E000231846F8BD00BF74D5FF1F5D
:1046D00078D5FF1F0B4B1B7813B90B4B1B7873B1AD
:1046E0000A4B1B78202B03D901230371002070474C
:1046F000581C064A1070064AD15401207047002009
:10470000704700BFE2D7FF1FA4D7FF1FE3D7FF1FEB
:1047100080D7FF1F704700BF024B1878024B1B78F1
:10472000C01A7047E1D7FF1FE0D7FF1F074B1B7868
:10473000074A12789A4205D9591C044A1170054A51
:10474000D05C70474FF0FF30704700BFE0D7FF1FCD
:10475000E1D7FF1FA8D7FF1F054B1B78054A12782A
:104760009A4286BF044AD05C4FF0FF30704700BFCA
:10477000E0D7FF1FE1D7FF1FA8D7FF1F08B5104BD9
:10478000DB7813F0200F0CD1122000F099FC0D4BB8
:104790001B689BB100210C4A11700C4A1078984795
:1047A00008BD0B4A13780133DBB21370012B02D81A
:1047B000084B1B7813B9122000F082FC08BD00BF23
:1047C000006006407CD7FF1FE0D7FF1FE1D7FF1F27
:1047D000CCD7FF1FA4D7FF1F38B514460D4B1B784D
:1047E00013B90D4B1B7893B10C4B1D78C5F1210308
:1047F000A34202D2012202711C46094828442246E3
:1048000000F014F92544054B1D70204638BD0020EA
:1048100038BD00BFE2D7FF1FA4D7FF1FE3D7FF1F9C
:1048200080D7FF1F002202714FF47A7181600273FA
:10483000014A0260704700BF28FB000008B53D4BED
:10484000DB78DBB213F0100F06D01021394AD1709B
:1048500013F0400F03D108BD13F0400F2CD013F01C
:10486000040F1BD00023344A1370344A1370344BA6
:104870001B681BB19847314B1B782BB901222F4B7A
:104880001A7000222F4B1A702A4BD0229A702D4A90
:1048900012781A7101222C4B1A7009E00122264B62
:1048A0001A700022294B1A70224BC0229A701B7971
:1048B0000222204BDA7008BD1E4A927812F0100FC7
:1048C0001CD013F0010F14D11F4B1B781B4A127818
:1048D0009A4207D9591C1C4A11701A4AD25C154BCE
:1048E0001A7102E00022134B1A71D022114B9A70F8
:1048F0001BE0104BC0229A701B7916E00022144B6B
:104900001A7012201349032200F0A6FC094B1B79F0
:10491000DAB20E4B1B781F2B07D80749097821B153
:10492000581C0A4908700C49CA540222014BDA701B
:1049300008BD00BF0060064079D7FF1FE3D7FF1F07
:10494000C8D7FF1F80D7FF1FE4D7FF1FE1D7FF1F86
:10495000CCD7FF1F7D470000A8D7FF1F08B502482E
:10496000FFF760FF08BD00BFD0D7FF1F0022026025
:104970000A2181808271C271704700BF10B582B078
:104980000446C8B2E0710023A37100F017FC08B11F
:104990000323A371034B1B680193019B236002B0A7
:1049A00010BD00BFECD7FF1F8180704730B585B0C8
:1049B0000446C07900F002FC003018BF0120A37942
:1049C00003F0F702A271C3F34001884208D0124BF2
:1049D0001B680193019B236082F00202A27116E022
:1049E0000D4909680291029D2168691AA588A942AA
:1049F0000DD303F00103984209D0074B1B680393C2
:104A0000039B236082F0010242F00802A271A079A8
:104A1000C0F3C00005B030BDECD7FF1F807900F0B7
:104A20000900092814BF002001207047844641EA8C
:104A3000000313F003036DD1403A41D351F8043B16
:104A400040F8043B51F8043B40F8043B51F8043B68
:104A500040F8043B51F8043B40F8043B51F8043B58
:104A600040F8043B51F8043B40F8043B51F8043B48
:104A700040F8043B51F8043B40F8043B51F8043B38
:104A800040F8043B51F8043B40F8043B51F8043B28
:104A900040F8043B51F8043B40F8043B51F8043B18
:104AA00040F8043B51F8043B40F8043B51F8043B08
:104AB00040F8043B51F8043B40F8043B403ABDD277
:104AC000303211D351F8043B40F8043B51F8043B19
:104AD00040F8043B51F8043B40F8043B51F8043BD8
:104AE00040F8043B103AEDD20C3205D351F8043BA8
:104AF00040F8043B043AF9D2043208D0D2071CBF74
:104B000011F8013B00F8013B01D30B88038060469C
:104B1000704700BF082A13D38B078DD010F0030312
:104B20008AD0C3F10403D21ADB071CBF11F8013B82
:104B300000F8013B80D331F8023B20F8023B7BE7D1
:104B4000043AD9D3013A11F8013B00F8013BF9D2FC
:104B50000B7803704B7843708B7883706046704796
:104B600030B4394A3949136813F0800FFBD10B6810
:104B700013F0800FF7D172B6354B1B78002B5FD046
:104B8000344B1C6804331D680433186804331968F7
:104B900004331A6804331B682C44204401440A443B
:104BA0001A44C2F34E0242F400422B4B1A602C33DB
:104BB0001C6804331D68043318680433196804330F
:104BC0001A6804331B682C44204401440A441A44E4
:104BD000C2F34E0242F40042204B1A6003F1081364
:104BE0001C6804331D6804331868043319680433DF
:104BF0001A6804331B682C44204401440A441A44B4
:104C0000C2F34E0242F40042154B1A602C331C686A
:104C100004331D68043318680433196804331A68B0
:104C200004331B682C44204401440A441A44C2F350
:104C30004E0242F400420B4B1A600022044B1A70E1
:104C400062B630BC704700BF24B0034024B00B40B4
:104C5000E6D7FF1F38B003402CB0034030B003400C
:104C60002CB00B4030B00B4060223A4B1A70E1225E
:104C700001331A70384B1B78082B10D1012203F135
:104C8000804303F56C331A60132334490B6001F53C
:104C9000FF2101F2FC710A60314A13601FE00A2B08
:104CA0000DD119222F4B1A6013232C490B6001F5EB
:104CB000FF2101F2FC710A60294A13600FE00C2BFE
:104CC0000CBF15223D22274B1A60122323490B608B
:104CD00001F5FF2101F2FC710A60214A1360224BA9
:104CE0001B7833B10123214A136002F500221360BF
:104CF00005E000231D4A136002F5002213601C4BDF
:104D00001B78012B06D880231A4A136002F5002273
:104D100013601AE0042B06D88423164A136002F5A8
:104D20000022136011E0082B06D88523114A136076
:104D300002F50022136008E0102B94BF862387231E
:104D40000C4A136002F50022136001220A4B1A700C
:104D5000704700BF0040074048BEFF1F0CB0034033
:104D60000CB00B4008B00340E9D7FF1F20B0034050
:104D700049BEFF1F24B00340E6D7FF1F08B50C282B
:104D800004D9102828BF1020102307E00A2804D8CF
:104D9000092834BF08230A2300E00C23DAB2101AD2
:104DA000094908700949097899420CD0074B1A70D3
:104DB000074B1B782BB10023064A136002F5002233
:104DC0001360FFF751FF08BDE5D7FF1F48BEFF1F67
:104DD000E6D7FF1F24B003402DE9F843282873D8F5
:104DE0003C4B1E5CFF2E72D03B4B1B780BB1FFF788
:104DF000B7FE16F0800F29D172B6384C384D4FF0FF
:104E0000010726602F7062B672B6236813F0800F18
:104E100004D12B7813F0FF0F0FD1F2E7314B186854
:104E200000222F4B1A7062B62F4B1B781841BDE839
:104E3000F8832B7813F0FF0FE3D062B601F06EFE1B
:104E400072B6236813F0800FF3D0E7E772B606F06E
:104E500040095FFA89F9254F254C06F03F06254D9C
:104E60004FF00108B9F1000F04D03B6823F01003A4
:104E70003B6003E03B6843F010033B60266085F82D
:104E8000008062B672B6236813F0800F04D12B78CD
:104E900013F0FF0F0FD1E5E7174B18680022154BF1
:104EA0001A7062B6104B1B781841BDE8F8832B7856
:104EB00013F0FF0FD6D062B601F030FE72B6236851
:104EC00013F0800FF3D0E7E70020BDE8F88300205F
:104ED000BDE8F88340FB0000E6D7FF1F00B00340A9
:104EE000E8D7FF1F10B00340E5D7FF1F0CB00B4001
:104EF00000B00B40E7D7FF1F10B00B40024A1378F9
:104F000013F0010FFBD070470100024010B584B0D0
:104F10001B4B6C46186859689A68DB680FC4194BBC
:104F20001B7813F0020F23D0174B1B7813F070037C
:104F30001CBF154A13708022144B1A700022033BC9
:104F40001A70332207331A700322013B1A7072B6AB
:104F50006B4643F001030C4C2046984762B6237819
:104F600013F0700304D0237008E0013B02D105E088
:104F7000074B04490A7812F0010FF6D004B010BDB7
:104F80006CFB0000010002400000024007000240EC
:104F9000410D030010B50446B0F5006F0BD2074B6E
:104FA0001B7813F0010F01D1FFF7B0FF04F1A054FB
:104FB0002078C0B210BD002010BD00BF010002402B
:104FC00038B504460D46B0F5006F16D20B4B1B7872
:104FD00013F0010F01D1FFF799FF04F1A0542378DA
:104FE000DBB2AB4209D0064B1B7813F070031CBF39
:104FF000034A13702570FFF781FF38BD010002409E
:1050000000000240024B1A6801321A60704700BF6C
:10501000ECD7FF1F08B50D4C236813F4802F01D087
:1050200000F014FB236813F4806F01D002F0BEF887
:10503000236813F4006F01D002F06AFC236813F4B4
:10504000805FE9D002F022FFE6E700BF3480044031
:1050500008B5FFF7DFFF00BF1022014B1A80704731
:1050600000200540704700BF024A136818441060D2
:10507000184670474CBEFF1FFEE700BFEFF31383D7
:10508000ABB9EFF31083ABB9EFF3058323B10F2B6B
:1050900005D9094A985C03E04FF4807000E00020D5
:1050A000EFF311833BB1834238BF184670474FF08E
:1050B000FF30704700207047F0E300E0704700BF0A
:1050C0001D4B03EBC000436803F14042A2F592225E
:1050D0007C2A18D903F14042A2F594227C2A14D9E3
:1050E00003F14042A2F596227C2A10D903F14042F6
:1050F000A2F598227C2A0CD903F14042A2F59A220B
:105100007C2A08D970470D4906E00D4904E00D4995
:1051100002E00D4900E00D4972B61A6822F087726C
:1051200022F4803242F080721A60C3F38403084A8A
:1051300041F8232062B670477CFB000050BEFF1F81
:1051400088BEFF1FD8BEFF1F08BFFF1F28BFFF1F5D
:10515000BD500000044B00221A6004490A60044A52
:10516000106010221A60704714D0034004D003402E
:1051700000D0034021281ED80F4B53F8303093F84D
:10518000802212F0FF0F08D019B1012283F880208D
:105190007047012283F800217047074B03EBC000E2
:1051A000436821B11A6842F003021A6070471A6816
:1051B00022F002021A6070477CFB0000212806D80A
:1051C000044B53F8303093F80002C0B2704700200F
:1051D000704700BF7CFB000021283AD81D4B03EB31
:1051E000C0035B68012919D0042925D0194A52F857
:1051F0003020002082F8800219B94FF480721A60C2
:105200007047022903D140F203121A607047032944
:105210000CBF4FF4817200221A6070470D4A52F899
:105220003020012182F880124FF4A2721A601A68AD
:1052300022F020021A607047064A52F830200121FD
:1052400082F880124FF4A2721A601A6842F02002AB
:105250001A6070477CFB000070B50D46212861D8AC
:10526000042A5FD8DFE802F00709050B03000B23CF
:1052700006E00A2304E0082302E00C2300E00923EF
:105280001E04294B03EBC0035C68236813F4E06F32
:1052900002D10021FFF7A0FF244B254AC3F89C212F
:1052A000244AC3F8A021244AC3F8A421234AC3F8FE
:1052B000A821234AC3F8AC2104F14043A3F592236B
:1052C0007C2B18D904F14042A2F594227C2A14D9EF
:1052D00004F14043A3F596237C2B10D904F14043FD
:1052E000A3F598237C2B0CD904F14043A3F59A2312
:1052F0007C2B08D970BD134906E0134904E013491B
:1053000002E0134900E0134972B6236823F47023C6
:105310002360C4F3840241F8225043F080731E439B
:10532000266062B670BD00BF7CFB000000B8FF1FA6
:1053300011BEFF1FE5BDFF1FB9BDFF1F8DBDFF1FC4
:1053400061BDFF1F50BEFF1F88BEFF1FD8BEFF1FDD
:1053500008BFFF1F28BFFF1F72B60D4B1B680D4A09
:1053600012680D49096862B611F0806F02D0322BC5
:1053700088BF0132C3F58C3303F23F130749A1FB09
:1053800003031B094FF47A7000FB0230704700BF23
:1053900018E000E0ECD7FF1F04ED00E0398EE338A1
:1053A00038B50546FFF7D8FF044625B938BD013D9D
:1053B0000AD004F57A74FFF7CFFF001BB0F57A7FAF
:1053C000F5D201F0ABFBF6E738BD00BF10B5264BB8
:1053D0004FF400021A604FF080721A604FF00072B2
:1053E0001A604FF080621A604FF000621A6000206D
:1053F0001E4B186048F6FF710433196028231C4ABD
:1054000013600832136008321360083213600832E8
:1054100013600832136008321360083213600922E7
:10542000144C226004F5805404342060043421605C
:105430000434236008342360143C226004F5FE2405
:10544000043420600C4801600C490B6008310B608B
:105450000B4B1A60FFF708FC4FF4C870FFF7A0FF72
:1054600000F074FC10BD00BF08E100E004800340C0
:105470000C8003400080034008800B400C800B40F0
:1054800000800B4030B40E4B1B7843F002020D4CF1
:1054900004EBC20460600C48007800280CBF88242C
:1054A000C82444EA0141074D45F8321080F001005C
:1054B000054A107083F00103014A137030BC704735
:1054C00058D8FF1F0080FF1FD1D8FF1F10B4431E04
:1054D000032B11D872B60A4A52F8230050B1426821
:1054E000074941F82320074A32F813400188611A1E
:1054F00022F8131062B600E000205DF8044B7047FC
:1055000048D8FF1F20DBFF1F013803280DD872B6D3
:10551000074B53F820302BB1002001305B68002B83
:10552000FBD100E0002062B670470020704700BF4A
:105530009CD8FF1F38B572B601231B491B4C5A1863
:1055400012F8012C12F0080F24D09A0054F83250AF
:105550006DB9164B03EBC20108304860144943F89B
:105560003210144B1A78013A1A7062B638BD42F004
:10557000010254F832506DB90C4B03EBC2010830F4
:1055800048600D4943F832100A4B1A78013A1A70F4
:1055900062B638BD0133052BD1D162B60022054B6E
:1055A0001A7000F037FC38BDC8FC00000080FF1FF7
:1055B00088004000C6D8FF1FC800400010B4431E3A
:1055C000032B37D8400140F010001C4A104472B63B
:1055D0001B4AD25C032A09D8DFE802F019021B0536
:1055E0000830022216E00830042213E0154A52F86F
:1055F00023201AB9134A42F8231003E0124A52F842
:1056000023205160104A42F8231062B612E00322B0
:1056100000E005220A4CE25401F10803436000F067
:105620000803002B0CBF8823C8230A8843EA0243DF
:10563000036062B65DF8044B704700BF0080FF1F37
:1056400004D8FF1F9CD8FF1FACD8FF1F2DE9F84FCF
:10565000A34CDFF8E092DFF8E0A2DFF8E0B22578B3
:10566000EDB215F0040F1DD09E4B1B7813F0FF0F09
:1056700016D09D4B1B7803F0FF022BB1531EDBB2FB
:10568000994A137003B900BE984B1B7803F0FF02D0
:1056900033B1531EDBB2954A13700BB900F018FDFD
:1056A0000423237015F0080F00F0E48299F800300D
:1056B000DBB21D0940F021828D4D9E0805EBC6032B
:1056C0005A6855F83630C3F38303013B0C2B00F2C4
:1056D0001082DFE813F0CB01CB010E020E020E02A6
:1056E0000E020E020E02E8010E020E020E020D0064
:1056F000804913680B6052684A607F4A45F836203B
:1057000000227E490A607A490A618A6101217C4A45
:1057100011709BB240F28162934218D8B3F5D06FFA
:105720002ED2B3F5817F00F01E8106D8802B00F0C9
:10573000C980822B00F0CC8066E140F202329342B5
:1057400000F02681B3F5A06F00F062815CE142F2C7
:105750002102934200F0868107D8B3F5086F00F06C
:10576000AB80B3F5106F11D04EE142F2212293428B
:1057700000F0418142F22132934200F0498143E13D
:10578000604B5D68002D40F0188130E1594B9A78EC
:10579000544B1A70564D05F180062B6A13F0800F9A
:1057A00003D0686A083800F035FB0835B542F4D1FB
:1057B000DFF88C8100263746534AB05828B1456837
:1057C00000F028FB0DB12846F9E700234E4973503D
:1057D0004E4AB3504E4BF05828B1456800F01AFBC2
:1057E0000DB12846F9E7002349497350494AB3509F
:1057F00028F8023F484BFB5C023B032B0AD8DFE84A
:1058000003F0020602060022434BDA5502E00122B1
:10581000414BDA5501370436102ECDD100223F4BD3
:105820001A7001253E4EDFF81C81314F05EB08034D
:1058300013F8013C06F8043B13F0080F2DD000F0DC
:10584000C9FA48B1A90007EB451200F108035360FB
:10585000344A47F8312007E0AB00002247F83320F4
:105860002E4B1A7801321A7000F0B4FA58B1AB001E
:1058700043F0010307EBC30100F108024A601E4A2E
:1058800047F8332009E0AB0043F00103002247F85A
:105890003320224B1A7801321A70AA0042F002011A
:1058A000002347F8313042F0030247F83230013527
:1058B0001D4B9E42BAD11EE20A4B1B781B4D2B702A
:1058C0000127AAE0194D00232B706B700227A4E07A
:1058D000084B9B88042B37D90F22154B1A70C1E057
:1058E00080200740D0D8FF1F59D8FF1FD2D8FF1FF4
:1058F0000080FF1FBCD8FF1FC8004000F0D7FF1F6B
:10590000D1D8FF1FCCFC000048D8FF1FF4D7FF1FE1
:105910009CD8FF1FACD8FF1F04D8FF1FC6D8FF1F9D
:10592000C420074088004000D4200740C8D8FF1F8B
:10593000C02007409020074094200740982007404F
:105940001EDBFF1FC8FC0000A04A0021117051702F
:105950009F4A12F8233013F0020F5CD09B4D0123B5
:105960002B70022759E09B4B9B8803F07F03042B8D
:1059700002DC984A52881AB10F22954B1A7071E0D6
:10598000934A12F8231021F0020102F82310B2E129
:10599000904B9B8803F07F03042B02DC8D4A5288D6
:1059A0001AB10F228A4B1A705CE0894A12F8231050
:1059B00041F0020102F823109DE1864B5E889F882A
:1059C000854BA3F10C02114633F80C0CB04209D1FF
:1059D00033F80A0CB84205D1360A032E0CBF2F78D3
:1059E00017891AE00D690C330C32002DEBD10F2210
:1059F000774B1A7036E0794B1A68794B1A60754B01
:105A00009A78784B1A7076E10F22714B1A7029E060
:105A100000273D4601E002276C4D6E4BDB889F421C
:105A200028BF1F46402F34BF3E46402628463146F9
:105A3000FFF728FD3544BF1B03D13F2E00F26081E4
:105A400010E0402F34BF3E46402628463146FFF73F
:105A500019FD3544BF1B01D13F2E03D9624B1D6098
:105A6000624B1F8001238AF8003042E0594B1988AD
:105A700042F22103994212D15D4BD81D12F8011B4D
:105A800003F8011F8342F9D15A4B1B68862B02D1C0
:105A90000F22594B1A7000200146FFF7F3FC574BB9
:105AA00045F8363025E0504B1E68BEB14F4FB7F871
:105AB0000080B8F1400F34BF4546402530462946A6
:105AC000FFF7E0FCC5EB08039BB23B800BB9402D10
:105AD00001D1354400E00025434B1D603D4B1B8840
