:1000000000800020BD010000D94600009D46000090
:100010009D4600009D4600009D4600009D46000054
:100020009D4600009D4600009D460000D946000008
:10003000D94600009D460000D94600008D460000CC
:10004000D9460000D9460000D9460000D946000034
:10005000D9460000D9460000D9460000D946000024
:10006000D9460000D9460000D9460000D946000014
:10007000D9460000D9460000D9460000D946000004
:10008000D9460000D9460000D9460000D9460000F4
:10009000D9460000D9460000D9460000D9460000E4
:1000A000E13F0000D9460000D9460000D9460000D3
:1000B000D9460000D9460000D9460000D9460000C4
:1000C000D9460000D9460000D9460000D9460000B4
:1000D000D9460000D9460000D9460000D9460000A4
:1000E000D9460000D9460000D9460000D946000094
:1000F000D94600001D670000D9460000816E00004F
:10010000D9460000FD730000D9460000D946000022
:10011000D9460000D9460000D9460000D946000063
:10012000D9460000D9460000D9460000D946000053
:10013000D9460000D9460000D9460000D946000043
:10014000D9460000D9460000D9460000D946000033
:10015000D9460000D9460000D9460000D946000023
:10016000D9460000E14C0000D9460000D946000005
:10017000D9460000D9460000D9460000D946000003
:10018000D9460000D9460000D9460000D9460000F3
:10019000D9460000D9460000D9460000D9460000E3
:1001A000D9460000D9460000D9460000D9460000D3
:1001B000D9460000D9460000E9590000574B4CF2DF
:1001C000205210B51A804DF628121A8000BF00BFC9
:1001D00004F086FA524B4FF010621A60514A9A604E
:1001E000514ADA60A3F53043203B1A6812F480725A
:1001F00004D14E490A604FF4A8521A604C4B1A7849
:10020000110703D51A7842F008021A70494B4A4C7C
:100210004A482A221A704A4A00239918A14203D256
:10022000195899500433F8E7464B474900228B424E
:1002300002D243F8042BFAE74448454900235A58B0
:100240001A500433B3F5DE7FF9D1424B424A802184
:1002500003F8011B9342FBD1404B3C4A1A60404BD0
:100260008A221A70A3F5805324225A70A0221A7091
:100270009A799207FCD59A79D406FCD4394A9379B5
:1002800003F00C03082B374BF9D103221A714022DB
:100290005A719A799006FCD5324A9179314B4906C8
:1002A000FBD5314A314911600221516020221A7078
:1002B0009A7902F00C020C2AFAD12D4B2D4A1A60C1
:1002C0002D4B2E4A1A6000225A60072243F8042C54
:1002D0002B4AC3F80C2D62B604F0C2FB134B1B680B
:1002E000DA0705D5274804F0F1FA274B274A1A60A8
:1002F000274B1B785B0609D5234C244A236893427D
:1003000004D1204804F0E2FA0023236009F0E0FB66
:1003100004F0ECF905F082FEFEE700BF0E20054078
:1003200030800440823F04000100002B14D00340C1
:1003300002D0074000E0074070CAFF1FECB9000080
:1003400060BDFF1F70CAFF1F24D5FF1F00B8FF1F2D
:100350000000000000E400E05FE400E008ED00E0E1
:100360000050064000400640448004400000030165
:1003700004800440C010050014E000E0FF76010096
:1003800000002020E8B29D581CE00340A5C3945A09
:1003900000F00740FFFFFFFFFFFFFFFFFFFFFFFF32
:1003A000FFFFFFFFFFFFFFFFFFFFFFFFFFFFFFFF5D
:1003B000FFFFFFFFFFFFFFFFFFFFFFFFFFFFFFFF4D
:1003C000FFFFFFFFFFFFFFFFFFFFFFFFFFFFFFFF3D
:1003D000FFFFFFFFFFFFFFFFFFFFFFFFFFFFFFFF2D
:1003E000FFFFFFFFFFFFFFFFFFFFFFFFFFFFFFFF1D
:1003F000FFFFFFFFFFFFFFFFFFFFFFFFFFFFFFFF0D
:10040000FFFFFFFFFFFFFFFFFFFFFFFFDEF9FFFF23
:1004100010B5054C237833B9044B13B10448AFF33E
:1004200000800123237010BD70CAFF1F0000000070
:10043000ECB9000008B5064B1BB106480649AFF3FE
:1004400000800648036813B1054B03B1984708BD07
:1004500000000000ECB9000074CAFF1F70CAFF1F43
:10046000000000000F4B0360417202610023037221
:10047000C36039B11946026942F823100133427A48
:100480009A42F8DC084B1A680AB9186004E053690C
:100490000BB11A46FBE75061002343618380C380A0
:1004A000704700BF18AD0000D0D2FF1F144B03608F
:1004B0000423437200F12803036100230372C36025
:1004C0001946026942F823100133427A9342F8DB5D
:1004D0000C4B1A680AB9186004E053690BB11A464C
:1004E000FBE75061002343618380C380064B0360B8
:1004F0004FF480338361C36103624362704700BF7E
:1005000018AD0000D0D2FF1FB0B400000F4B036045
:100510000023437203610372C3600D4B1A680AB96A
:10052000186004E053690BB11A46FBE750610023E1
:1005300043618380C380074A026003834383C361AE
:10054000036283628385C3850363704718AD00002F
:10055000D0D2FF1FD0B4000010B54FF08042884BBE
:100560001A60884B1C682046874909F047FA28B969
:100570002046864909F024FA10B902E0824C00E0D6
:10058000824C20464FF08F4109F07CF809F040FA88
:100590007F4B98617B4B5C6820467B4909F02EFAC3
:1005A00028B92046794909F00BFA10B902E0764CD7
:1005B00000E0764C20464FF08F4109F063F809F0D7
:1005C00027FA734BD8616F4B9C6820466E4909F03F
:1005D00015FA28B920466D4909F0F2F910B902E080
:1005E000694C00E0694C20464FF08F4109F04AF811
:1005F00009F00EFA664B1862624BDC6820466249CD
:1006000009F0FCF928B92046604909F0D9F910B978
:1006100002E05D4C00E05D4C20464FF08F4109F058
:1006200031F809F0F5F95A4B5862564B1C692046CF
:10063000554909F0E3F928B92046544909F0C0F9B1
:1006400010B902E0504C00E0504C20464FF08F4172
:1006500009F018F809F0DCF94E4B9861494B5C69D8
:100660002046494909F0CAF928B92046474909F006
:10067000A7F910B902E0444C00E0444C20464FF08A
:100680008F4108F0FFFF09F0C3F9424BD8613D4BA1
:100690009C6920463C4909F0B1F928B920463B49FC
:1006A00009F08EF910B902E0374C00E0374C2046D3
:1006B0004FF08F4108F0E6FF09F0AAF9354B1862B8
:1006C000304BDC692046304909F098F928B92046BA
:1006D0002E4909F075F910B902E02B4C00E02B4CC3
:1006E00020464FF08F4108F0CDFF09F091F9294BDA
:1006F0005862294B1C682046002109F061F928B98D
:100700002046264909F07AF910B902E0002400E0F9
:10071000224C2046224908F0B5FF4FF07C5108F0EA
:10072000A9FE09F09BF91F4B98621B4B5C682046A1
:10073000002109F045F928B92046184909F05EF969
:1007400010B902E0002400E0144C2046144908F0DF
:1007500099FF4FF07C5108F08DFE09F07FF9124BA4
:1007600098620D4B9C682046002109F029F928B9B0
:1007700020460A4909F042F9C0B918E0002416E001
:1007800088E100E044BEFF1F00FEFF4600FEFFC6FA
:10079000CCCCFF1F04CDFF1F74C0FF1FA655AC4675
:1007A0004B243E47D8CAFF1F0CCBFF1F4E4C2046A0
:1007B0004E4908F067FF4FF07C5108F05BFE09F0EE
:1007C0004DF94B4B98624B4BDC682046002109F0F9
:1007D000F7F828B92046444909F010F910B902E0A9
:1007E000002400E0404C2046404908F04BFF4FF009
:1007F0007C5108F03FFE09F031F93F4B98623D4BC8
:100800001C692046002109F0DBF828B9204636494A
:1008100009F0F4F810B902E0002400E0324C204660
:10082000324908F02FFF4FF07C5108F023FE09F009
:1008300015F9324B98622F4B5C692046002109F074
:10084000BFF828B92046284909F0D8F810B902E0C5
:10085000002400E0244C2046244908F013FF4FF008
:100860007C5108F007FE09F0F9F8254B9862214BFE
:100870009C692046002109F0A3F828B920461A49AE
:1008800009F0BCF810B902E0002400E0164C204644
:10089000164908F0F7FE4FF07C5108F0EBFD09F027
:1008A000DDF8184B9862134BDC692046002109F0F3
:1008B00087F828B920460C4909F0A0F810B902E0E1
:1008C000002400E0084C2046084908F0DBFE4FF009
:1008D0007C5108F0CFFD09F0C1F80A4B98624FF047
:1008E0008042094B1A6010BDA655AC464B243E47CA
:1008F00040CBFF1F74C0FF1F94CDFF1F78CBFF1F9D
:10090000ACCBFF1FD4CDFF1F08E100E0FFFFFFFFCE
:1009100008B5453808F038FA02460B4606A1D1E979
:10092000000107F031F80022054B08F093FA08F0B7
:100930004BFD08BDAFF30080000000A08FF3F03F37
:1009400000807B40AFF3008010B50446D0F1010178
:1009500038BF0021032003F0C9FF0420012C14BF7D
:100960000021012103F0C2FF0520022C14BF002149
:10097000012103F0BBFF0620032C14BF002101213D
:1009800003F0B4FF10BD00BF70B58CB0092003F0B8
:1009900067FD0646062003F063FD0546072003F0C9
:1009A0005FFD0446082003F05BFD731940F2FF323F
:1009B0009342A8BF134623EAE3735D490B602044CA
:1009C0005C49904294BF08600A605B4A126802F179
:1009D0001001994203DBA2F11001994202DD564A4F
:1009E000136006E09B1A02EB6312534B1A60504BE4
:1009F0001A60524B1A684F4B1B6802F11001994262
:100A000003DBA2F110018B4202DA4C4A136006E0CC
:100A10009B1A02EB6312494B1A60464B1A60444B17
:100A20001868474B1B68009300214FF480620B4607
:100A300005F028FA434B1860434B1B68984204D0DA
:100A40000122424B1A70404B18603A4B18685423ED
:100A5000009300214FF48062242305F013FA3C4BED
:100A600018603C4B1B68984204D00122374B1A7027
:100A7000384B1860082003F05DFF374B1B68039369
:100A8000039B364A12689B1A0A2B0DD960B9324B68
:100A90001B6804930499324B1B68CB1AB3F57A7F19
:100AA00002D301212F4B19702B4B19680591059C1E
:100AB000196806910699A21A02FB1010274A1060C5
:100AC0001B680793079B181AB0F57A7F0DD901228E
:100AD000254B1A70204B1A6808920899204A116019
:100AE0001B680993099A1D4B1A60204B1B78EBB9C0
:100AF0001F4C204601F078F8204601F0ADF81D4B60
:100B0000187028B1144B1B680A930A9A1A4B1A6082
:100B1000114B1B680B930B99174B1B68C91A0B20C1
:100B200013298CBF0021012103F0E0FE0CB070BD41
:100B30004CCEFF1FCCCDFF1F0CCEFF1FB4CCFF1F30
:100B400068BEFF1F08CEFF1F50CCFF1F64BEFF1FF3
:100B500074CBFF1F10CEFF1FD8D1FF1FC8CDFF1FC2
:100B600048CEFF1F74CCFF1FD0CDFF1F60CEFF1FEC
:100B700064CEFF1FD4CAFF1F4CCCFF1F2DE9F047E6
:100B800086B0FFF701FF934B1B78002B4ED000245B
:100B90000025914F914E4FF07E58336804EBC3030C
:100BA00057F8233040F2E73293420CD08C4A106859
:100BB0001844FFF7ADFE8B4B43F82400284641460E
:100BC00008F058FC05460134082CE6D1864C236811
:100BD0005B68204685490C229847284608F0E6F8CD
:100BE00002460B4602210091204605F015F82046EA
:100BF00004F0C4FF794B1A68774B03EB42180024CA
:100C000040F2E7377A4E4FF0000A4FF07E5958F81D
:100C10000430BB4205D04846294608F0E7FD305174
:100C200001E044F806A00434202CF0D1714A136886
:100C300002930298704B1968411A70480078126844
:100C40000392039A00FB112119606D4B1B78002B56
:100C500000F06B816B4B186801306B4B184003D56B
:100C6000013860F003000130664C2060FFF76CFE35
:100C70000122584B1A7040F2D240217803F0E4FC74
:100C800000225F4B1A704FF08042604B1A60554B48
:100C90001D6822685E4B33F8124047F6FF725D4BC9
:100CA0001A832846002108F08BFE28B928465A49A5
:100CB00008F0A4FE10B902E0002500E0564D2846D9
:100CC000564908F0DFFC4FF07C5108F0D3FB08F0E8
:100CD000C5FE504B98620022DA619C85414B5D68ED
:100CE00047F6FF724E4B1A832846002108F068FE33
:100CF00028B92846484908F081FE10B902E00025CD
:100D000000E0454D2846454908F0BCFC4FF07C51B9
:100D100008F0B0FB08F0A2FE414B98620022DA61B5
:100D20009C85304B9D6847F6FF723E4B1A832846E0
:100D3000002108F045FE28B92846374908F05EFE34
:100D400010B902E0002500E0334D2846334908F091
:100D500099FC4FF07C5108F08DFB08F07FFE314B81
:100D600098620022DA619C851E4BDD6847F6FF72AF
:100D70002D4B1A832846002108F022FE28B9284668
:100D8000254908F03BFE10B902E0002500E0224DA5
:100D90002846224908F076FC4FF07C5108F06AFBA7
:100DA00008F05CFE204B98620022DA619C850D4BB6
:100DB0001D6947F6FF721D4B1A832846002108F073
:100DC000FFFD28B92846144908F018FE80BB30E022
:100DD00000252EE064BEFF1F6CBEFF1F08CEFF1F64
:100DE00074CBFF1F74C0FF1F04D3FF1F20AD000092
:100DF00044BEFF1FD8D1FF1FB0CAFF1FACCAFF1FE0
:100E000074CCFF1F24CEFF1F0300008088E100E0A8
:100E10006CC0FF1FD8CAFF1FA655AC464B243E47E7
:100E20000CCBFF1F40CBFF1F94CDFF1F78CBFF1FC4
:100E30005C4D28465C4908F025FC4FF07C5108F0D9
:100E400019FB08F00BFE594B98620022DA619C8571
:100E5000574B5D6947F6FF72564B1A8328460021AF
:100E600008F0AEFD28B928464E4908F0C7FD10B974
:100E700002E0002500E04B4D28464B4908F002FCFB
:100E80004FF07C5108F0F6FA08F0E8FD494B986203
:100E90000022DA619C85464B9D6947F6FF72464BFE
:100EA0001A832846002108F08BFD28B928463D49C1
:100EB00008F0A4FD10B902E0002500E0394D2846F5
:100EC000394908F0DFFB4FF07C5108F0D3FA08F005
:100ED000C5FD394B98620022DA619C85344BDD698F
:100EE00047F6FF72354B1A832846002108F068FD4B
:100EF00028B928462B4908F081FD10B902E00025E9
:100F000000E0284D2846284908F0BCFB4FF07C51F2
:100F100008F0B0FA08F0A2FD284B98620022DA61CE
:100F20009C854FF08042264B1A60264B1B78CBB134
:100F3000254B1B680493049A244B1A600124244B0C
:100F40001C700920214603F003FD0B20214603F00D
:100F5000CDFC0920214603F0C9FCFFF7FDFA002271
:100F6000184B1A70184B1B680593059A174B1B6892
:100F7000D31A184A12689A4211D2154B1B7873B1D2
:100F80000B20002103F0B2FC0920002103F0AEFC8D
:100F90000920002103F0DCFC00220D4B1A7006B082
:100FA000BDE8F087A655AC464B243E4778CBFF1FE3
:100FB00074C0FF1FACCBFF1FD4CDFF1FE0CBFF1FC2
:100FC00008E100E064BEFF1FD8D1FF1FB8CCFF1FAF
:100FD00060CEFF1F40BEFF1F30B589B09B4D9C4CBB
:100FE0002846214601F032FD684629462246132351
:100FF00001F0A2FC974C9DF804302371029BA36082
:101000009DF80C30237308AB53F8135D586899684A
:10101000C4F80D50C4F81100C4F815101B7B63769A
:10102000079BE361684601F007FB23685B68204685
:1010300089493C229847204604F0A0FD23685B685C
:10104000204686493C229847204604F097FD2368B5
:101050005B68204682493D229847204604F08EFD79
:1010600023685B6820467F493D229847204604F06C
:1010700085FD23685B6820467B493C2298472046D3
:1010800004F07CFD2368794D5B68204629460022E8
:101090009847204604F072FD23685B682046744937
:1010A0003E229847204604F069FD23685B6820468D
:1010B00070493E229847204604F060FD23685B6833
:1010C00020466D493E229847204604F057FD23688C
:1010D0005B68204669493E229847204604F04EFD51
:1010E00023685B68204666493D229847204604F005
:1010F00045FD23685B682046294600229847204624
:1011000004F03CFD23685B6820465E49282298472E
:10111000204604F033FD23685B6820465A49332299
:101120009847204604F02AFD23685B68204657490B
:101130002F229847204604F021FD23685B68204653
:10114000534933229847204604F018FD23685B6812
:101150002046504919229847204604F00FFD236885
:101160005B682046294600229847204604F006FD89
:1011700023685B682046484915229847204604F0BA
:10118000FDFC23685B6820464449152298472046A9
:1011900004F0F4FC23685B68204641491922984713
:1011A000204604F0EBFC23685B6820463D49192289
:1011B0009847204604F0E2FC23685B6820463A49E1
:1011C0001A229847204604F0D9FC23685B68204621
:1011D00036491A229847204604F0D0FC23685B6801
:1011E000204633491D229847204604F0C7FC236857
:1011F0005B6820462F4919229847204604F0BEFC20
:1012000023685B6820462C4919229847204604F041
:10121000B5FC23685B682046284918229847204679
:1012200004F0ACFC23685B682046254918229847E7
:10123000204604F0A3FC23685B682046214919225C
:101240009847204604F09AFC23683DE0FCCEFF1F3F
:1012500030AD00008CCAFF1F40AD000080AD000023
:10126000C0AD000000AE000040AE0000BCAD00000C
:1012700080AE0000C0AE000000AF000040AF000034
:1012800080AF0000C0AF0000ECAF000020B0000055
:1012900050B0000084B00000A0B00000B8B0000062
:1012A000D0B00000ECB0000008B1000024B1000094
:1012B00040B1000060B100007CB1000098B10000B6
:1012C000B4B10000D0B100005B682046124918227A
:1012D0009847204604F052FC23685B6820460F497B
:1012E00013229847204604F049FC23685B68204697
:1012F0000B491D229847204604F040FC23685B6898
:101300002046084926229847204604F037FC20460C
:1013100001F0BAF909B030BDECB1000008B200002C
:101320001CB200003CB2000008B5002801DD03F04B
:1013300081FB024A024B1A6008BD00BF0400FA0597
:101340000CED00E02DE9F04F87B003F023F9824C5B
:10135000204600F029FC2046092100F02DFC204603
:10136000282100F03FFC7D4E304601F057F97C4DBE
:101370007C4C30462946224608F090FB7A4E304697
:1013800001F04CF930462946224608F087FB774B9E
:101390001A6805920599764A11601A6804920499B0
:1013A000744A11601A6803920399734A11601A68AB
:1013B00002920299714A11601B680193019A704B65
:1013C0001A60DFF81CB25846FFF7A0F8DFF814A245
:1013D0005046FFF79BF86B48FFF798F86A48FFF70D
:1013E00095F86A48FFF792F86948FFF78FF869485F
:1013F000FFF78CF86848FFF789F8684F3846FFF721
:1014000055F8674E3046FFF751F8DFF8DC91484653
:10141000FFF74CF8634D2846012105F11802FFF74C
:1014200021F8614B2B6000242C772C8509236B85D8
:101430004FF00303AB855323EB854AF6C0232B63A0
:10144000A623AB86DFF8A4814046012108F11802EB
:10145000FFF708F8554BC8F80030404600F0F0FDA3
:101460005348C0F800B0476004724472C46004F08E
:101470008DFA5048C0F800A0476004724FF0010A8E
:1014800080F809A0C46004F081FA4B483D4B03602A
:10149000476004724FF0020B80F809B0C46004F09A
:1014A00075FA4648384B0360476004724FF00303F7
:1014B0004372C46004F06AFA4148344B03604660EA
:1014C00004724472C46004F061FA3E48304B036019
:1014D0004660047280F809A0C46004F057FA3A48E4
:1014E0002C4B03604660047280F809B0C46004F0BD
:1014F0004DFA3648284B0360466004724FF00303F0
:101500004372C46004F042FA31480760C0F80490A6
:1015100004724472C46004F039FA2E480660C0F8C0
:101520000490047280F809A0C46004F02FFA2A48DD
:10153000C0F80090456004724472C46004F026FA5A
:1015400026480560C0F8048004724472C46004F048
:101550001DFA07B0BDE8F08F64CEFF1FB4CAFF1FAD
:10156000392600003CBEFF1F8CCAFF1FD8D1FF1FC9
:10157000B0CAFF1F4CCCFF1FC8CDFF1F48CEFF1FB6
:10158000B8CCFF1F40CBFF1F94CDFF1F78CBFF1FB0
:10159000ACCBFF1FD4CDFF1FE0CBFF1FCCCCFF1F78
:1015A00004CDFF1F14CCFF1FA0B40000C0B4000086
:1015B00054CCFF1F64CCFF1F14CEFF1F28CEFF1F8B
:1015C00074CDFF1F84CDFF1F78CCFF1F88CCFF1F79
:1015D00038CEFF1F6CCEFF1FBCCCFF1F50CEFF1FAD
:1015E000D8CAFF1F0CCBFF1F3CCDFF1F98CCFF1F9D
:1015F0002DE9F0478CB06846002104F09DFC04A85A
:101600003549364A012301F097F9354B9DF81420EE
:101610001A71069A9A609DF81C201A730CAA52F847
:10162000135D54689068C3F80D50C3F81140C3F8B7
:101630001500127B5A760B9ADA6104A800F0FCFFC1
:1016400000263746B046264DDFF898A0DFF8989080
:1016500034E0284600F07AFFC4B25B2C22D02C2C58
:101660000DD106B3684604F0D1FC07EBC8034AF875
:1016700023006846494604F073FC013713E05D2CF3
:1016800011D1DEB1684604F0C1FC07EBC8074AF887
:1016900027006846494604F063FC08F1010800276A
:1016A0003E460BE001264EB15B2C07D02C2C05D01A
:1016B0005D2C03D06846214604F098FC284600F0D3
:1016C000CFFF0028C5D1064800F0DEFF684604F0D1
:1016D000E7FB0CB0BDE8F087FCCEFF1F30AD00008B
:1016E0008CCAFF1F6CBEFF1FBCAD0000F0B589B0F7
:1016F0000220002103F02CF90820002103F028F932
:101700000920002103F024F90B20012103F020F926
:101710000620012103F01CF90520012103F018F92E
:101720000420012103F014F90320012103F010F932
:101730009E48322104F038F89D4C23685B682046AF
:101740009C4908229847204604F018FA9A4B1868DA
:10175000FFF7FAF8994B1B7843F0010298490968A2
:1017600011F4805F02D0934240F0F38193490A70F4
:1017700043F005039249096811F4805F02D09A4250
:1017800040F0F1818D4A137040F2D24002F046FFE2
:10179000032802D8884B186002E00022864B1A60AA
:1017A000854B1868FFF7D0F886480A2101F024F825
:1017B000E8B90024834E0A250F2712E03846FFF7C8
:1017C000C3F8642003F036F90020FFF7BDF8642069
:1017D00003F030F90134062C03DD4FF4FA70FFF703
:1017E000A3FD3046294601F007F80028E6D0754DE4
:1017F00068462946744A012301F09EF8734B9DF810
:1018000004201A71029A9A609DF80C201A7308AA93
:1018100052F8136D50689168C3F80D60C3F8110059
:10182000C3F81510127B5A76079ADA61684600F001
:1018300003FF2846664901F0FDF810B1FFF7D8FE16
:1018400003E0FFF7C9FBFFF7D3FE624D624B2B624B
:101850004FF08043614A1362614A1362614A136226
:10186000614A1362614A1362614A1362614A1362F8
:10187000614A4FF480439361D361136253625F4ABC
:101880009361D3611362002151625D4B47F6705240
:101890009A61DA61196259625A4806234385C38501
:1018A0004FF480320263838600F090FA564B1E6834
:1018B000414B1A68554B33F8124047F6FF732B83A0
:1018C0003046002108F07CF828B93046504908F02D
:1018D00095F810B902E0002600E04D4E30464D4923
:1018E00007F0D0FE4FF07C5107F0C4FD08F0B6F8C9
:1018F000384B98620022DA619C85434B5D6847F65D
:10190000FF72364B1A832846002108F059F828B98F
:1019100028463F4908F072F810B902E0002500E0BF
:101920003B4D28463B4907F0ADFE4FF07C5107F098
:10193000A1FD08F093F8294B98620022DA619C859A
:10194000314B9D6847F6FF72254B1A8328460021CC
:1019500008F036F828B928462D4908F04FF810B994
:1019600002E0002500E02A4D28462A4907F08AFEB9
:101970004FF07C5107F07EFD08F070F8184B98622C
:101980000022DA619C85204BDD6847F6FF72154B1B
:101990001A832846002108F013F828B928461C4964
:1019A00008F02CF8C0BB38E0002536E00082FF1FAD
:1019B00004D3FF1F80B2000024CEFF1F00D3FF1FFF
:1019C0003C800440FCCEFF1F8CB20000B4CAFF1F55
:1019D00030AD0000D8CAFF1FA09999190CCBFF1F8A
:1019E00040CBFF1F94CDFF1F78CBFF1FACCBFF1F59
:1019F000D4CDFF1FE0CBFF1FCCCCFF1F04CDFF1FBA
:101A00003CCDFF1F14CCFF1F74C0FF1F6CC0FF1F15
:101A1000A655AC464B243E47594D2846594907F038
:101A200031FE4FF07C5107F025FD08F017F8564BBA
:101A300098620022DA619C85544B1D6947F6FF725B
:101A4000534B1A832846002107F0BAFF28B92846CD
:101A50004B4907F0D3FF10B902E0002500E0484DE4
:101A60002846484907F00EFE4FF07C5107F002FD72
:101A700007F0F4FF464B98620022DA619C85434BE5
:101A80005D6947F6FF72434B1A832846002107F031
:101A900097FF28B928463A4907F0B0FF10B902E08D
:101AA000002500E0364D2846364907F0EBFD4FF0A3
:101AB0007C5107F0DFFC07F0D1FF364B9862002223
:101AC000DA619C85314B9D6947F6FF72324B1A8370
:101AD0002846002107F074FF28B92846284907F056
:101AE0008DFF10B902E0002500E0254D284625496C
:101AF00007F0C8FD4FF07C5107F0BCFC07F0AEFFCB
:101B0000254B98620022DA619C85204BDD6947F6FF
:101B1000FF72224B1A832846002107F051FF28B993
:101B20002846174907F06AFF10B902E0002500E0D7
:101B3000134D2846134907F0A5FD4FF07C5107F0DF
:101B400099FC07F08BFF154B98620022DA619C85A7
:101B500013E04FF4A270124908604FF4007001F5D1
:101B60007F61086002E64FF4A2710E4A11604FF4E3
:101B7000007102F57F62116004E609B0F0BD00BF9C
:101B8000A655AC464B243E4794CDFF1F74C0FF1FA3
:101B900078CBFF1FACCBFF1FD4CDFF1FE0CBFF1FC7
:101BA00018B0044014B00440002202600A21818071
:101BB0008271C271704700BF10B582B00446C8B2CE
:101BC000E0710023A37102F0B5FE08B10323A371F5
:101BD000034B1B680193019B236002B010BD00BF43
:101BE000D8D1FF1F8180704730B585B00446C079D9
:101BF00002F0A0FE003018BF0120A37903F0F70225
:101C0000A271C3F34001884208D0124B1B680193B4
:101C1000019B236082F00202A27116E00D4909685F
:101C20000291029D2168691AA588A9420DD303F08B
:101C30000103984209D0074B1B680393039B236061
:101C400082F0010242F00802A271A079C0F3C00044
:101C500005B030BDD8D1FF1F807900F009000928F8
:101C600014BF0020012070472DE9F84F04460021E1
:101C700003F068FE8046002800F0A680237F1BB991
:101C800003F01EFEBDE8F88F031D00F5827E73454C
:101C900080F092804FF6FF7A4FF000094FF0040C6D
:101CA000E28B002A55D1227F022A17D1A28DE2832E
:101CB00042B14FF0030121774FF480322262C4F821
:101CC000249076E0E28DE28384F81CC0216BA1F5BC
:101CD0008031D20091FBF2F262626AE0032A0BD1FA
:101CE00084F81CC0E28DE283216BA1F5803191FB69
:101CF000F2F2D21062625CE0042A09D14FF00501D1
:101D00002177A4F81EA0226B2262C4F8249020E060
:101D1000052A02D1A4F81EA01BE0062A0BD100223E
:101D200022779E4548D91A605A609A60DA6010336B
:101D30009E45F8D840E0012A0BD14FF002022277ED
:101D4000628DE2834FF4803191FBF2F2D210626235
:101D50002FE01E685D689F68D968626A206A02EB9E
:101D6000000B3BFB06F093443BFB16F6C0EA06462D
:101D700093443BFB05F093443BFB15F5C0EA054556
:101D800093443BFB07F093443BFB17F7C0EA074043
:101D900093443BFB01F75A44226232FB11F2C7EA3B
:101DA00002471E605D609860DF60E28B013AE2836B
:101DB00010339E453FF674AF20464146002203F0A3
:101DC0009FFD404603F07CFDBDE8F88F72B600230E
:101DD0000362038DC38323B101230377002343628E
:101DE00009E002230377438DC3834FF4803292FBD3
:101DF000F3F3DB10436262B6704700BF10B50446D0
:101E000003F08EFE204610BD08B503480349044A7E
:101E100007F044FE08BD00BF7CCEFF1FFD1D000083
:101E20003CBEFF1F38B5064D064C074829462246E2
:101E300007F034FE05482946224607F02FFE38BD3C
:101E4000FD1D00003CBEFF1F84CEFF1F8CCEFF1F78
:101E500008B503480349044A07F020FE08BD00BF47
:101E600094CEFF1FFD1D00003CBEFF1F08B50348B8
:101E70000349044A07F012FE08BD00BF9CCEFF1FB5
:101E8000FD1D00003CBEFF1F2DE9F8438146804642
:101E900000263746F7B94846314603F053FD07465A
:101EA000002853D0D8F81810B1F5803F4ED0031D4C
:101EB00000F582741A6831FB02F031FB12F200F374
:101EC0000F0002F30F02C0EA024243F8042B9C42C7
:101ED000F0D83BE04846314603F028FD8446A8B3DD
:101EE0003B1D051DD8F8184007F5827EB4F5803FEC
:101EF00016D107F10C040C3054F8082C50F8081CCB
:101F000092FA11F244F8082C5A6850F8041C92FA1C
:101F100011F25A600833083408309E45ECD812E0BC
:101F200055F8042B34FB02F034FB12F200F30F00DF
:101F300002F30F02C0EA0242196892FA11F143F863
:101F4000041B9E45ECD8604603F0BAFC013608F14C
:101F50000408042E9ED13FB148463946002203F0C2
:101F6000CFFC384603F0ACFCBDE8F88308B500218F
:101F700003F0DCFC0246A0B172B60A4B186810B937
:101F80001A6062B608BD084B1B681BB9064B1A6085
:101F900062B608BD03490B60034B1A6062B603F0DA
:101FA0008FFC08BDB4CEFF1FA4CEFF1F38B51C4B5D
:101FB0001A68126819791B4B19701B4B9A4206D28A
:101FC000A3F5807404F5807304F5007402E0174BE8
:101FD00003F58074164A106898B1021D47F6FF7524
:101FE00032F9021B2944091123F8021B9C42F7D83D
:101FF00003F066FC0F4B1A680D490A6000221A6054
:1020000005E040F2FF7223F8022B9C42FBD80A4BFA
:102010001B781BB14FF08042084B1A6038BD00BFDF
:10202000A8CEFF1F1F800040C8B5FF1FC8B4FF1F08
:10203000B4CEFF1FA4CEFF1FB0CEFF1F08E200E00A
:1020400070B54F48012103F00DFD4E4B1A6842F464
:1020500080521A60802203F5032303F6F5731A7089
:102060000024494E01253480284602F0E3FC083460
:10207000A4B223B2B3F5006FF5D1444B1B6813F43F
:10208000800F16D0424B1A6848F6A2731A409A4243
:102090000FD1404B1A6840F23F439A4209D13E4B60
:1020A0001B68012B05D13D4B1A6840F201139A427F
:1020B00017D0364B1A6842F480021A600122A3F549
:1020C0009033303B1A6040F23F42083B1A60043BB9
:1020D00048F6A3721A60324A1A6040F201121033B5
:1020E0001A60274C23681A6800222E491960236859
:1020F000022119715A7101209871D87119725A729E
:102100009A72DA721A736FF0010159734FF0FF314E
:102110009973D97319691C4919611A755A75D98A45
:102120004FF48071D9821A765A769A76DA76D88BFD
:10213000D983998B06219983237903F1804303F591
:1021400004331A70B0221A7003F038FC164B187062
:102150002279164B1A70227902F110011448154B9E
:1021600043F8210053119B0003F1604303F56143E1
:1021700002F01F02012101FA02F21A6070BD00BFD5
:10218000A8CEFF1F2C80044000C00C403C800440BF
:1021900000600340046003400C6003401060034093
:1021A000A28F0100C8B4FF1FB0CEFF1F1B800040EC
:1021B000AD1F000000B8FF1F08B503480349044ADB
:1021C00007F06CFC08BD00BFA8CEFF1FFD1D00007E
:1021D0003CBEFF1F08B503480349044A07F05EFCF4
:1021E00008BD00BFB8CEFF1FFD1D00003CBEFF1F95
:1021F00008B503480349044A07F050FC08BD00BF76
:10220000C0CEFF1FFD1D00003CBEFF1F08B50348E8
:102210000349044A07F042FC08BD00BFC8CEFF1FB7
:10222000FD1D00003CBEFF1F08B503480349044ADA
:1022300007F034FC08BD00BFD0CEFF1FFD1D00001D
:102240003CBEFF1F08B503480349044A07F026FCBB
:1022500008BD00BFD8CEFF1FFD1D00003CBEFF1F04
:102260002DE9F8430446B0F91830002B00F0FD804A
:1022700003F0CAFA0746002800F0F780061DB4F9FB
:102280002C30072B00F2D980DFE803F0046A589263
:102290002BAF7EC100F5827E33464FF6FF75744842
:1022A000E269D10DC2F3CF12B4F918C0C2EB050830
:1022B00030F91190013130F9111002FB01F109FBE5
:1022C0000812121402FB0CF2D21323F8022BA16A9B
:1022D000E2698A1848BF22F00042E2617345DFD10B
:1022E000ABE0236B1BB903F0EBFABDE8F88300F514
:1022F000827E33464FF6FF75E269D00D216BC2F343
:10230000CF12B4F918C031F91080C2EB05090130C1
:10231000C0B231F9101002FB01F109FB08121214CE
:1023200002FB0CF2D21323F8022BA16AE2690A44E1
:1023300022F00042E2617345DED17EE0821D8023FF
:10234000E16911F0804F218B18BF494222F8021C2D
:10235000A06AE1690144E1610232013BF0D16CE025
:1023600000F582703346E26942F3CF32B4F91810B7
:1023700001FB02F2D21323F8022BA16AE2690A449C
:10238000E2618342EFD158E000F582703346E269A2
:1023900042F3CF32B4F9181001FB02F2D21323F842
:1023A000022BA16AE269521AE2618342EFD144E052
:1023B00000F582703246E369002B258BBCBF6D426D
:1023C000ADB2990013F0804F18BF4942490C2BB2AF
:1023D00003FB01F1C91322F8021BA16AE36903EBB5
:1023E0004103E3618242E6D127E0821D8023E06958
:1023F000216A8842218B38BF494222F8021CA06A18
:10240000E1690144E1610232013BF0D115E000F5E0
:1024100082783546A26AE369934205D2B4F918106E
:10242000484203F025FDA084A38C25F8023BA26A54
:10243000E3691344E3614545ECD1B4F92E3063B14F
:1024400007F58271B6F90030B4F92E20134403F376
:102450000F0326F8023BB142F4D820463946002249
:1024600003F04EFA384603F02BFABDE8F88300BFBC
:1024700090B20000184B1A6842F480521A60174B51
:10248000174A1A60174ADA6002F180421A61164A46
:102490001A60164B1B7813F0010F07BF4FF4107230
:1024A000134B4FF40072134B1A60104B1B7813F050
:1024B000020F4FF400720CBF0F4B104B1A600B4B06
:1024C0001B7813F0040F07BF4FF410720C4B4FF43E
:1024D00000720C4B1A6070473C80044000C0024000
:1024E00001401F000110003800001F8000D3FF1FB3
:1024F00018B0044008C004401CB004400CC00440A4
:1025000014B0044004C0044010B582B002AB03F81C
:10251000011D0268546819460122A04702B010BD8F
:1025200010B50446C3691BB901230371002010BD17
:1025300000201871E06992B201F056F9E3691B7945
:1025400013B101232371002010BD00BF00B583B07B
:10255000C06960B10DF10701012200F0ABFE012856
:102560000CBF9DF807004FF6FF7000B201E04FF07E
:10257000FF3003B05DF804FB30B583B00446C0699A
:1025800078B10DF10701012200F094FE01280AD173
:102590009DF80750E069C168013900F045FF284601
:1025A00003E0002001E04FF0FF3003B030BD00BF7A
:1025B00008B5C06908B100F06FFF08BD2DE9F04112
:1025C00004460E469046002303714FF47A728260EF
:1025D0000373114B0360242007F0A2FAE061B8B145
:1025E0003546074606F1200E3E4628686968AA6807
:1025F000EB680FC6103537467545F5D12868306051
:1026000004F10D0041460C2208F020F90023637606
:102610002046BDE8F08100BFE0B400000022027156
:102620004FF47A718160027302490160C2614273A2
:10263000704700BFE0B40000014B0360704700BF6B
:10264000E0B40000C3690BB1D86870474FF0FF30A9
:10265000704700BFC3690BB198697047002070478D
:1026600038B50446C36963B1FFF7F4FF0546204659
:10267000FFF7E8FF281A47F6FF73984228BF18466D
:1026800038BD002038BD00BF10B50446C06930B168
:1026900000F02EFFE06907F04BFA0023E36110BD64
:1026A00010B58AB004460A4600238DF8083009495F
:1026B00001918DF80A3001A82146012300F0CAFFDC
:1026C000041C18BF012414B101A800F011FF20461A
:1026D0000AB010BD00B5000008B52AB101F068F8D5
:1026E000003018BF012008BD012008BDF0B40C68FF
:1026F000035D2F2B1CD101341AE0002563B11EE0CD
:102700000135013407F8013F0C2D05D016F8013FC3
:102710002F2B01D0002BF3D100235355035D2F2B1A
:1027200008BF01340C60005D003018BF01200BE0D1
:102730000619035D2F2B08BF0025EDD0DDE701341E
:10274000137017460125E1E7F0BC70472DE9F04F03
:1027500099B082460F469146984600238DF81C306A
:10276000244A06928DF81E308DF840300F928DF875
:10277000423001930C4606AE4FF0010B03E00FAC64
:10278000234634461E46504601A902AAFFF7AEFF73
:10279000054680F00102204602A9D2B24346C8474E
:1027A00030B9BC421CD0204600F0A2FE00201EE042
:1027B0007DB13046214602AA5B4600F04BFF05463C
:1027C000BC4211D0204600F093FE002DD8D100204D
:1027D0000DE0BC4206D0204600F08AFE012006E053
:1027E000002004E0012002E00028C8D1002019B038
:1027F000BDE8F08F00B5000038B504460A46012157
:1028000000F076FAA8B1251D28462146012201F0E4
:1028100099FA28B928462146002201F093FA50B1CE
:1028200004F12C00294600F01BFD003018BF0120E8
:1028300038BD002038BD002038BD00BF2DE9F04F65
:1028400099B081469346019300238DF81C30394A94
:1028500006928DF81E308DF840300F928DF8423080
:1028600006A8043100F0FCFC5C460FAE06AD4FF04C
:102870002F084FF0000A2CE023782F2B01D10134D0
:1028800027E03F1BFFB20C2F28BF0C2702A82146D0
:102890003A4607F0DBFF18AB3B4403F858AC304630
:1028A00000F026FE3046294602AA012300F0D2FE9F
:1028B00040B9002389F804301E4AC9F8002089F87D
:1028C000063032E03C44284600F012FE2B463546E6
:1028D0001E462046414607F0B1FE07460028CBD1F0
:1028E000CBEB0404019B1C602B7989F80430114B5D
:1028F000C9F800306B7989F80530AB7989F8063072
:10290000AB68C9F80830EB68C9F80C302B69C9F816
:1029100010302B7D89F81430AB69C9F81830EB6999
:10292000C9F81C302B6AC9F82030484619B0BDE8F8
:10293000F08F00BF00B50000F0B5A7B00446154603
:102940001F4602A801ABFFF779FF01996E18695C79
:1029500019BB9DF80C308DF85430344B14939DF80E
:102960000D308DF855309DF80E308DF85630049BA3
:102970001693059B1793069B18939DF81C308DF8B2
:102980006430089B1A93099B1B930A9B1C93204657
:1029900014A9274AFFF712FE45E000218DF83010F8
:1029A000224B0B938DF832109DF80E301BB9204648
:1029B000FFF734FE37E00BA802A932463B4600F091
:1029C00049FE18B92046FFF729FE2CE002A800F0C6
:1029D0008FFD17F0060F03D00BA8119900F024FD0E
:1029E0009DF830308DF87830104B1D939DF83130C4
:1029F0008DF879309DF832308DF87A300D9B1F9329
:102A00000E9B20930F9B21939DF840308DF88830CA
:102A1000119B2393129B2493139B259320461DA95E
:102A20003246FFF7CBFD204627B0F0BD00B50000D1
:102A30008CB2000008B500F12C0308461946024A82
:102A40000023FFF783FE08BDA126000008B500F1B2
:102A50002C0308461946024A0023FFF777FE08BDFB
:102A6000D9260000064B00229A700221596083F893
:102A7000242083F830200349D96283F8322070473C
:102A8000FCCEFF1F00B50000084B1A6842F48062BC
:102A90001A604FF00042DA62FF225A631A46D36A84
:102AA000002BFCDA014B986BC0B2704700C00240AB
:102AB000064B1A6842F480621A604FF00042DA62F4
:102AC00058631A46D36A002BFCDA704700C00240F4
:102AD00008B505281ED8DFE800F003080D11151908
:102AE0004FF038420E4B1A6017E04FF038420C4B53
:102AF0001A6012E00B4A0A4B1A600EE00A4A084BB1
:102B00001A600AE0094A064B1A6006E0084A044BBC
:102B10001A6002E0074A024B1A60FFF7ABFC08BDDF
:102B200050CFFF1F0000013801100138032000388A
:102B3000032001380650003808B50078012101F063
:102B4000D5FE114B1B78F3B100220F4B1A700F4BBF
:102B50001B78C3B113F0010F03D00D4B1A680D4B56
:102B60001A600A4B1B7813F0020F03D0084B5A6807
:102B7000094B1A60054B1B7813F0040F03D0044B6C
:102B80009A68064B1A6008BD54CFFF1FF8CEFF1F8E
:102B9000ECCEFF1F00E100E004E100E008E100E00E
:102BA00010B5244B1B78002B3ED10122214B1A700B
:102BB000214B1A68214B1B78002B28D072B61F4B73
:102BC0001B7813F0010F07D01D4B1C681D490968C5
:102BD00021401D4C21601960184B1B7813F0020F27
:102BE00007D01A4B1C68174949682140164C616090
:102BF0001960124B1B7813F0040F07D0144B1C689C
:102C0000104989682140104CA160196062B6114BCF
:102C1000DB68934208D00F4B0F491960DA6042F02D
:102C200080421A610D4A1A600078002101F05EFEB0
:102C300010BD00BF54CFFF1F50CFFF1FF8CEFF1FA6
:102C400080E100E0E0CEFF1FECCEFF1F84E100E05A
:102C500088E100E000C0024001401F0000001F802A
:102C600070B582B00E460B4B1B680093009C094D5B
:102C7000A4B2FFF709FFFF2807D02B680193019B3F
:102C80009BB21B1BB342F4DB01E0012000E00020FB
:102C900002B070BDD8D1FF1FF8B505460F461646E5
:102CA0004FF49671FFF7DCFF47F04000FFF700FF9D
:102CB000182426FA04F0C0B2FFF7FAFE083C14F11B
:102CC000080FF6D127B1082F0CBF8720FF2000E0A6
:102CD0009520FFF7EDFE0024FFF7D6FE687010F098
:102CE000800F03D00134B4F5807FF5D1F8BD00BF6B
:102CF0002DE9F04F87B004460191002383700270E4
:102D00007D4B1B680393039FBFB21046012101F066
:102D1000EDFD2078012101F01BFE2078012101F05A
:102D2000E5FD764B1A6842F480521A600620FFF7E0
:102D3000CFFE734B1A68734B1B78002B28D072B6EA
:102D4000704B1B7813F0010F07D06F4B18686F4959
:102D5000096801406E48016019606A4B1B7813F0E6
:102D6000020F07D06B4B18686849496801406848F2
:102D700041601960634B1B7813F0040F07D0664B5A
:102D8000186862498968014061488160196062B6CB
:102D9000624BDB68934200F0A080604B6049196091
:102DA000DA6042F080421A615E4A1A6095E0284675
:102DB000FFF77EFE013E16F0FF06F8D1514B1B785F
:102DC000C3B113F0010F03D0514B1A68564B1A6070
:102DD0004C4B1B7813F0020F03D04D4B5A68534BEA
:102DE0001A60484B1B7813F0040F03D0484B9A68C5
:102DF0004F4B1A602046FFF7D3FE4FF00008DFF874
:102E0000F89008E0D9F800300493049BDB1B9BB2D8
:102E1000B3F5FA6F5DD8204641464246FFF73CFFC6
:102E2000054660700128EDD1204608214FF4D57287
:102E3000FFF732FF10F0040F04D00123A3704FF00E
:102E4000000A0FE04FF00408FFF71EFE607008F163
:102E5000FF3313F0FF08F7D1AA283AD10223A37059
:102E60004FF0804A4FF037094FF00008DFF888B084
:102E700008E0DBF800300593059BDB1B9BB2B3F544
:102E8000FA6F26D8204649464246FFF705FF2046FE
:102E900029215246FFF700FF60700028E9D1A3788E
:102EA000022B0ED120463A210022FFF7F5FE80B911
:102EB000FFF7EAFD00F0C000C02811D10323A37082
:102EC0000EE02046FFF738FE0198FFF701FE2E4680
:102ED0000DE02046FFF730FE09E00A26FF2566E7F1
:102EE000FFF7D2FDFFF7D0FDFFF7CEFDE9E7304653
:102EF00007B0BDE8F08F00BFD8D1FF1F3C80044071
:102F000050CFFF1FF8CEFF1F80E100E0E0CEFF1F93
:102F1000ECCEFF1F84E100E088E100E000C0024049
:102F200001401F0000001F8000E100E004E100E01C
:102F300008E100E070B582B004460E4B1B680093B8
:102F4000009D0C4EADB207E033680193019B9BB22C
:102F50005B1BB3F5967F09DCFFF796FD6070FF28D9
:102F6000F2D0FE2814BF0020012000E0002002B0B3
:102F700070BD00BFD8D1FF1FF8B504460D461646F8
:102F80008378032B18BF4D02FFF70AFE204611215C
:102F90002A46FFF781FE002847D12046FFF7CAFFE7
:102FA000002842D0234B244A1A60244A5A635A63A9
:102FB0005A6306F5FD7E764513D2B01C06F5FE7702
:102FC0001946CB6A13F0F00FFBD04A638B6BC3F347
:102FD000072500F8025C00F8013C0230B842F0D14D
:102FE00000E0B64606F5007676450DD97146114AE1
:102FF000D36A13F0F00FFBD0936BC3F30720087074
:103000004B7002318E42F3D80A4B0B4A1A600B4ABE
:103010005A631A46D36A13F0F00FFBD0054B9B6B33
:103020002046FFF789FD0120F8BD2046FFF784FD0B
:103030000020F8BD00C0024000041F80FFFF009088
:10304000F8B506461E4B186840F4806018604FF0D3
:103050000040D8625963114602F500770446DA6AE7
:10306000002A08DBFBE7DA6A002A0DDBFBE7D36AFC
:10307000002B15DBFBE708460A781D6845F48065E0
:103080001D60DC625A63EEE742781D6845F4806596
:103090001D60DC625A630231B942E0D1084AE6E7BA
:1030A000FF20FFF705FDFF20FFF702FDFFF7ECFC17
:1030B000707000F01F00052814BF00200120F8BD2B
:1030C00000C0024070B5044616460D4629B3837809
:1030D000032B18BF4D02FFF763FD204618212A4637
:1030E000FFF7DAFDC8B92046FE213246FFF7A8FFF8
:1030F00098B120464FF41671FFF7B2FD68B1204633
:103100000D210022FFF7C8FD38B9FFF7BDFC20B93B
:103110002046FFF711FD012070BD2046FFF70CFD92
:10312000002070BD014A024B1A607047011001383F
:1031300050CFFF1F10B50446006A012104F10802B8
:1031400000F076FD034650B1E3693BB9A368E36143
:10315000637963F07F036371012300E00123184664
:1031600010BD00BF70B50646FFF7E4FF0346E0B1AF
:10317000336AB268023A197C02FA01F55A691544B9
:103180001C794CB1013D281900F088FC034660B160
:10319000013C14F0FF04F6D1336A1B7C4FF400723B
:1031A0009A40B3691344B3610123184670BD00BF50
:1031B00010B50446006900F04DFC20B1207D034BA2
:1031C00003EB401010BD002010BD00BF64CFFF1FF7
:1031D0002DE9F00100232022CA5401330B2BFBD12F
:1031E0000138002507264FF008084FF00A0C1B4F46
:1031F00021E02E2C01D03A4606E00A2E24D0454686
:10320000664618E0A34221D012F8013F002BF9D105
:10321000AE421DD3A4F12103DBB25D2B1AD86B1C87
:10322000DBB20D44A4F16102D2B2192A9CBF203C4A
:10323000E4B22C701D4610F8014F002CD9D108784B
:10324000203818BF012006E0002004E0002002E042
:10325000002000E00020BDE8F001704707B5000045
:1032600038B504460D4683790BBB91F82020102A0F
:1032700007D1022383710023C3614B8C5B018361FF
:103280000CE0202A14D103238371496AC1612846C6
:1032900004F1180200F058FC034648B125620123EE
:1032A00063710022A260E2602261227500E00023C7
:1032B000184638BD2DE9F04F83B004468846019288
:1032C0008379002B69D0437913F0010F68D08269AC
:1032D000C368D11A0198884201D98BB20193019B2E
:1032E000002B57D01D46DFF8F8A0DFF8F890DFF884
:1032F000F8B0E368C3F30807A279022A04D1226A6E
:10330000516A01EB53211BE0206A0679013E06EA6F
:103310005326F6B25FB956B913B9E369A36006E064
:10332000224652F8081F00F0D9FB00283BD0226A41
:10333000A368023B117C03FA01F152691144314444
:10334000C7F500739D42C6BF1E46B6B22E466379CE
:1033500013F0400F02D1B6F5007F36D1D9F8003016
:1033600099422AD131E0B0440DE05744B819874260
:1033700009D03B46424613F8011B02F8011B834269
:10338000F9D1C71BB844E3683344E360AD1BADB269
:10339000002DAED1019B98B20DE04FF6FF700AE010
:1033A0004FF6FF7007E04FF6FF7004E04FF6FF7036
:1033B00001E04FF6FF7000B20EE0DBF8000042467D
:1033C000FFF7DAFD0028CED1F0E70846002100F033
:1033D00041FB0028C9D1ECE703B0BDE8F08F00BF86
:1033E00064CFFF1F94C0FF1F60CFFF1F30B583B0B5
:1033F00004468379012B0FD9C5680DF1070101221D
:10340000FFF758FF012809D1E3681F33E36005F493
:10341000F070044B184402E0002000E0002003B0EC
:1034200030BD00BF64CFFF1FF8B504460F46837957
:103430007BB382698A422BD3022B02D1E160012344
:1034400027E021B900238360C360012321E0C36822
:10345000026A157C09355A1EEA40013921FA05F540
:10346000AA4200D813B9E369A3600AE0AD1A08E0E4
:10347000206AA168324600F031FB013D034610B9D5
:1034800007E004F10806002DF2D1E760012300E017
:1034900000231846F8BD00BF38B50446807918B33C
:1034A00094F90530002B1BDA20460121FFF780FE3E
:1034B0000546C0B1A379012B9CBFA369C361A38B4F
:1034C0004383E38B8382094B1B682BB1183005F1D2
:1034D000160198472B8B6B82637903F07F0363712E
:1034E00000F08CFA38BD002038BD00BF58CFFF1F58
:1034F00010B50446FFF7D0FF034610B10023A371B7
:103500000123184610BD00BFF0B583B004460D4638
:103510008379012B4ED1427902F0020202F0FF01C1
:10352000002A49D08269AA4248D3002A47D0C668F7
:103530002946FFF779FF0346002840D04DB9206A9D
:10354000E16900F0D9FB0346002838D00023E3618D
:103550001DE0206AA16801AA00F0C0FAA8B1206AA3
:10356000019990F820704FF6F872164B102F08BF93
:10357000134699420BD200F0BFFB30B1206AA1681C
:103580006FF0704200F00CFB08B9002317E0A56152
:10359000637963F07F0363712046FFF77DFF034685
:1035A00068B12046B54234BF29463146FFF73CFF9B
:1035B000034604E0002302E00B4600E00023184627
:1035C00003B0F0BDF8FFFF0F38B5044615461F4B9A
:1035D00003EB4113DA7A12F0110F02D015F0420F0B
:1035E0002CD121751A4A12682261998A0904E16175
:1035F0005A8B1143E161D87A10F0180004D1DB69CD
:10360000A3610123A3710AE0102819D1206A04F1F3
:10361000180200F099FA0346A8B10423A37105F03B
:103620000F0363710023A360E36015F0400F09D01E
:1036300020461946FFF768FF034604E0002302E036
:10364000002300E00123184638BD00BF64CFFF1FF0
:1036500094C0FF1F2DE9F04F85B005460C469A46F1
:103660008679002E7FD1104601A9FFF7B1FD002811
:103670007BD0236A2B620027A760E760DFF8FC900D
:103680004FF0010825E0C1F3431B2046FFF7AEFED3
:10369000014600286AD003780BB1E52B09D12FB978
:1036A00085F814B0D9F800302B6147460B7883B900
:1036B00013E001A80B2206F0DFFC50B90AF030033A
:1036C000302B53D0284659465246FFF77DFF064619
:1036D0004CE0E168A3699942D5D30AF01203122B9A
:1036E00044D137B128460121FFF762FD044660B995
:1036F0003CE0A379022B39D02046FFF733FD064684
:10370000002833D000232B751A4C2046002120229C
:1037100006F046FD01AB03CB206061601A889B7800
:103720002281A372144B1B682BB104F1100004F129
:103730000E01984707E02123237428236374002394
:10374000A3730823E373238A63822383E389E382D9
:1037500000F054F9064648B12846297D5246FFF745
:1037600033FF064602E0002600E00646304605B07C
:10377000BDE8F08F64CFFF1F58CFFF1F94C0FF1F1D
:1037800010B504460021FFF7BFFE034668B120468E
:103790000121FFF70DFD38B1E52202700023A3716E
:1037A00000F02CF9034600E00023184610BD00BFCE
:1037B00010B58AB004460A4600238DF8083009493E
:1037C00001918DF80A3001A821460223FFF742FF3C
:1037D000034618B101A8FFF7D3FF034618460AB005
:1037E00010BD00BF00B500002DE9F04F85B00446C4
:1037F000884601928379012B40F0BE80437913F013
:10380000020F00F0B98013F0040F08D08169C3687B
:103810008B4204D0FFF708FE002800F0AD80019A2B
:10382000002A00F08C801646DFF8B0A1DFF8B0B1B6
:10383000206AE76890F8049009F1FF3909EA5729EE
:10384000C7F3080719F0FF0929D1002F40F0AA801B
:10385000A16851B9E36933B92046FFF76BFC002832
:1038600040F08E8088E0A3608AE003AA00F036F979
:10387000002800F0A880039B226A92F820004FF6EF
:10388000F871524A102808BF0A46934205D32046D1
:10389000FFF750FC002873D16EE0A36070E0C7F51D
:1038A0000075ADB2AE4238BF3546A368023B027C1C
:1038B0009340426913449944B5F5007F12D1DBF877
:1038C00000304B4504BF4FF0FF33CBF80030404B86
:1038D000186849464246FFF7F5FB00284CD008F52A
:1038E000007824E07FB9E268A3699A420BD300F024
:1038F00085F8002840D0CBF80090364A137843F082
:103900000103137005E04846012100F0A3F80028E8
:1039100032D057447819874209D03B46424612F8C4
:10392000011B03F8011B8342F9D1C71BB844761B66
:10393000B6B2E3681D44E560002E7FF479AFE3681A
:10394000A269934205D9A361637963F07F03637130
:1039500008E0214B1B682BB1019B1BB1637963F01D
:103960007F036371637913F0080F03D02046FFF7DC
:1039700093FD08B1019826E001232371002022E085
:10398000B6F5007F34BF35464FF40075236AA26850
:10399000023A197C02FA01F95B699944B5F5007F96
:1039A000A1D18CE7C7F50075ADB2AE4238BF354640
:1039B000A368023B027C03FA02F943699944B5F516
:1039C000007FA0D17BE705B0BDE8F08FF8FFFF0FC7
:1039D00060CFFF1F64D1FF1F58CFFF1F64CFFF1FB1
:1039E00094C0FF1F00B583B002AB03F8011D194658
:1039F0000122FFF7F9FE03B05DF804FB08B5104B98
:103A00001B78D3B10F4B18680F4B19680F4AFFF79B
:103A100059FB034690B10E4B196849B1094B186820
:103A20000A4AFFF74FFB034640B10022084B1A60D9
:103A30000022034B1A70012300E00123184608BD41
:103A400064D1FF1F60CFFF1F94C0FF1F64CFFF1F13
:103A50005CCFFF1F38B504460D460C4B1B688342F4
:103A60000DD0FFF7CBFF034670B1094B1868214614
:103A7000084AFFF781FA034630B1044B1C60064B3D
:103A80001A7815431D700123184638BD94C0FF1FD6
:103A900060CFFF1F64CFFF1F64D1FF1F10B5044626
:103AA000FFF7ACFF034680B109494B1E01F2FF113D
:103AB000002203F8012F8B42FBD1064B1C60064B02
:103AC0001A7842F001021A700123184610BD00BF97
:103AD00064CFFF1F94C0FF1F64D1FF1F70B5044661
:103AE0000D461646C36801338B4225D3C36990F84F
:103AF0002020102A0CBF080AC8091844104B1B6864
:103B0000984204D00021FFF7A5FF0346A8B194F81E
:103B10002030102B06D1EDB20A4B33F8153033604C
:103B200001230AE005F07F05064B53F8253023F00A
:103B300070433360012300E00023184670BD00BFCE
:103B400094C0FF1F64CFFF1F2DE9F04383B00446EC
:103B500002AE46F8041D914600254FF400780F4F41
:103B6000204601993246FFF7B9FF034688B1237C0E
:103B700008FA03F31D4494F820104FF6F873102947
:103B800014BF39461946019B8B42E9D3C9F800504E
:103B90000123184603B0BDE8F08300BFF8FFFF0F14
:103BA000F8B504460D461746012931D9C3680133DB
:103BB00099422FD8C36990F82020102A0CBF0E0A12
:103BC000CE091E44164B1B689E4205D0304600218C
:103BD000FFF740FF034600B394F82030102B04D1C8
:103BE000EDB2104B23F8157004E005F07F050D4B86
:103BF00043F825700C4B1A7842F001021A70237EAC
:103C0000012B09D9A3681E44084B1E60012304E060
:103C1000002302E0002300E001231846F8BD00BFA6
:103C200094C0FF1F64CFFF1F64D1FF1F5CCFFF1F35
:103C30002DE9F04F85B006468A46009217681FB1FD
:103C400001370023019305E00768012914BF002311
:103C500001230193F36803F10108DBB13C46002521
:103C60004FF00209CB46A0453CBF4C465F4630466C
:103C7000214603AAFFF732FF60B1039B0BB1671C1B
:103C800003E0631CDB1B534506D001350134F368A8
:103C9000AB42E8D800232AE0304621466FF070425C
:103CA000FFF77EFF034648B921E0651E30462946EE
:103CB0002246FFF775FF034618B918E0BC42F4D856
:103CC00003E0BD4201D92C46EFE7009B196829B1FA
:103CD00030463A46FFF764FF034640B1009B1F6041
:103CE000019B1BB101373760012300E00123184617
:103CF00005B0BDE8F08F00BFF0B583B005460C46B7
:103D00000223036000260E4F2846214601AAFFF732
:103D1000E5FE80B1284621463246FFF741FF50B10B
:103D2000019C95F820104FF6F873102918BF3B46F8
:103D30009C42E9D301E0002000E0012003B0F0BD87
:103D4000F8FFFF0FF8B50546494B19601446DAB184
:103D5000042A7FD800200146FFF77CFE0346002896
:103D600000F08380434B03EB041494F8AE3104F568
:103D7000D47413F07F036FD1D4F81210632974D96F
:103D8000D4F80E400CB970E0002420460021FFF763
:103D900061FE0346002868D0364BB3F80B30B3F50C
:103DA000007F5BD1334B1B7C002B5ED0314AD28924
:103DB000002A55D02F4A517B002953D02B762971E8
:103DC00000232B74012003E05A1C2A74072B4BD8C4
:103DD0002B7C1E4600FA03F29142F5D1254BD98A7D
:103DE00001B9596AA960234BDA892244EA61B3F820
:103DF000110087B268841B7C03FB01236B627A018C
:103E000002F2FF1203EB62236B611A4AB2F813202D
:103E10000AB9184A126AE31A134423FA06F6EE6046
:103E200040F6F4739E4204D80C2385F82030012319
:103E30001BE04FF6F4739E4204D8102385F820301F
:103E4000012312E00B4BDB6A6B62202385F82030E4
:103E500001230AE0002308E0002306E0002304E039
:103E6000002302E00B4600E000231846F8BD00BF27
:103E700060CFFF1F64CFFF1F0B4B1B7813B90B4B99
:103E80001B7873B10A4B1B78202B03D901230371D4
:103E900000207047581C064A1070064AD154012071
:103EA00070470020704700BFCED1FF1F90D1FF1F89
:103EB000CFD1FF1F6CD1FF1F704700BF024B187896
:103EC000024B1B78C01A7047CDD1FF1FCCD1FF1F0A
:103ED000074B1B78074A12789A4205D9591C044AA5
:103EE0001170054AD05C70474FF0FF30704700BF3B
:103EF000CCD1FF1FCDD1FF1F94D1FF1F054B1B78E5
:103F0000054A12789A4286BF044AD05C4FF0FF30CF
:103F1000704700BFCCD1FF1FCDD1FF1F94D1FF1F31
:103F200008B5104BDB7813F0200F0CD1122000F0F5
:103F300083FC0D4B1B689BB100210C4A11700C4A8D
:103F40001078984708BD0B4A13780133DBB2137021
:103F5000012B02D8084B1B7813B9122000F06CFC1F
:103F600008BD00BF0060064068D1FF1FCCD1FF1F15
:103F7000CDD1FF1FB8D1FF1F90D1FF1F38B5144618
:103F80000D4B1B7813B90D4B1B7893B10C4B1D785F
:103F9000C5F12103A34202D2012202711C46094845
:103FA0002844224600F0B4F82544054B1D702046F5
:103FB00038BD002038BD00BFCED1FF1F90D1FF1FFC
:103FC000CFD1FF1F6CD1FF1F002202714FF47A7115
:103FD00081600273014A0260704700BF20B5000093
:103FE00008B53D4BDB78DBB213F0100F06D0102183
:103FF000394AD17013F0400F03D108BD13F0400FC0
:104000002CD013F0040F1BD00023344A1370344A11
:104010001370344B1B681BB19847314B1B782BB97D
:1040200001222F4B1A7000222F4B1A702A4BD022DC
:104030009A702D4A12781A7101222C4B1A7009E0DD
:104040000122264B1A700022294B1A70224BC022E3
:104050009A701B790222204BDA7008BD1E4A9278B2
:1040600012F0100F1CD013F0010F14D11F4B1B784E
:104070001B4A12789A4207D9591C1C4A11701A4AD5
:10408000D25C154B1A7102E00022134B1A71D02238
:10409000114B9A701BE0104BC0229A701B7916E0EE
:1040A0000022144B1A7012201349032200F04CFB1B
:1040B000094B1B79DAB20E4B1B781F2B07D8074927
:1040C000097821B1581C0A4908700C49CA540222C7
:1040D000014BDA7008BD00BF0060064065D1FF1FCC
:1040E000CFD1FF1FB4D1FF1F6CD1FF1FD0D1FF1F55
:1040F000CDD1FF1FB8D1FF1F213F000094D1FF1F7A
:1041000008B50248FFF760FF08BD00BFBCD1FF1F24
:10411000844641EA000313F003036DD1403A41D3D2
:1041200051F8043B40F8043B51F8043B40F8043B91
:1041300051F8043B40F8043B51F8043B40F8043B81
:1041400051F8043B40F8043B51F8043B40F8043B71
:1041500051F8043B40F8043B51F8043B40F8043B61
:1041600051F8043B40F8043B51F8043B40F8043B51
:1041700051F8043B40F8043B51F8043B40F8043B41
:1041800051F8043B40F8043B51F8043B40F8043B31
:1041900051F8043B40F8043B51F8043B40F8043B21
:1041A000403ABDD2303211D351F8043B40F8043BC1
:1041B00051F8043B40F8043B51F8043B40F8043B01
:1041C00051F8043B40F8043B103AEDD20C3205D3D1
:1041D00051F8043B40F8043B043AF9D2043208D0C9
:1041E000D2071CBF11F8013B00F8013B01D30B883B
:1041F00003806046704700BF082A13D38B078DD019
:1042000010F003038AD0C3F10403D21ADB071CBFEA
:1042100011F8013B00F8013B80D331F8023B20F854
:10422000023B7BE7043AD9D3013A11F8013B00F88D
:10423000013BF9D20B7803704B7843708B78837015
:104240006046704730B4394A3949136813F0800F1B
:10425000FBD10B6813F0800FF7D172B6354B1B788A
:10426000002B5FD0344B1C6804331D68043318687E
:104270000433196804331A6804331B682C4420443F
:1042800001440A441A44C2F34E0242F400422B4B4A
:104290001A602C331C6804331D6804331868043317
:1042A000196804331A6804331B682C442044014401
:1042B0000A441A44C2F34E0242F40042204B1A60F0
:1042C00003F108131C6804331D68043318680433B1
:1042D000196804331A6804331B682C4420440144D1
:1042E0000A441A44C2F34E0242F40042154B1A60CB
:1042F0002C331C6804331D680433186804331968B0
:1043000004331A6804331B682C44204401440A44D3
:104310001A44C2F34E0242F400420B4B1A600022D0
:10432000044B1A7062B630BC704700BF24B0034023
:1043300024B00B40D2D1FF1F38B003402CB0034053
:1043400030B003402CB00B4030B00B4060223A4BF1
:104350001A70E12201331A70384B1B78082B10D1E8
:10436000012203F1804303F56C331A6013233449AF
:104370000B6001F5FF2101F2FC710A60314A136004
:104380001FE00A2B0DD139222F4B1A6013232C4921
:104390000B6001F5FF2101F2FC710A60294A1360EC
:1043A0000FE00C2B0CBF35223D22274B1A60122345
:1043B00023490B6001F5FF2101F2FC710A60214ADB
:1043C0001360224B1B7833B10123214A136002F59D
:1043D0000022136005E000231D4A136002F500224D
:1043E00013601C4B1B78012B06D880231A4A1360DC
:1043F00002F5002213601AE0042B06D88423164A23
:10440000136002F50022136011E0082B06D8852303
:10441000114A136002F50022136008E0102B94BFCC
:10442000862387230C4A136002F5002213600122C1
:104430000A4B1A70704700BF0040074098C0FF1F2A
:104440000CB003400CB00B4008B00340D5D1FF1FA7
:1044500020B0034099C0FF1F24B00340D2D1FF1FFA
:104460002DE9F843282873D83C4B1E5CFF2E72D0F0
:104470003B4B1B780BB1FFF7E5FE16F0800F29D1FF
:1044800072B6384C384D4FF0010726602F7062B677
:1044900072B6236813F0800F04D12B7813F0FF0F4E
:1044A0000FD1F2E7314B186800222F4B1A7062B619
:1044B0002F4B1B781841BDE8F8832B7813F0FF0FC2
:1044C000E3D062B601F0E2FD72B6236813F0800F0C
:1044D000F3D0E7E772B606F040095FFA89F9254F95
:1044E000254C06F03F06254D4FF00108B9F1000FAD
:1044F00004D03B6823F010033B6003E03B6843F0CB
:1045000010033B60266085F8008062B672B62368AF
:1045100013F0800F04D12B7813F0FF0F0FD1E5E7D4
:10452000174B18680022154B1A7062B6104B1B7897
:104530001841BDE8F8832B7813F0FF0FD6D062B690
:1045400001F0A4FD72B6236813F0800FF3D0E7E703
:104550000020BDE8F8830020BDE8F88338B50000EE
:10456000D2D1FF1F00B00340D4D1FF1F10B00340D1
:10457000D1D1FF1F0CB00B4000B00B40D3D1FF1FB7
:1045800010B00B40024A137813F0010FFBD07047B4
:104590000100024010B584B01B4B6C461868596886
:1045A0009A68DB680FC4194B1B7813F0020F23D0F5
:1045B000174B1B7813F070031CBF154A1370802231
:1045C000144B1A700022033B1A70332207331A70FF
:1045D0000322013B1A7072B66B4643F001030C4C88
:1045E0002046984762B6237813F0700304D02370F6
:1045F00008E0013B02D105E0074B04490A7812F0BC
:10460000010FF6D004B010BD64B5000001000240F7
:104610000000024007000240410D030010B50446AF
:10462000B0F5006F0BD2074B1B7813F0010F01D1CF
:10463000FFF7B0FF04F1A0542078C0B210BD0020F5
:1046400010BD00BF0100024038B504460D46B0F56C
:10465000006F16D20B4B1B7813F0010F01D1FFF73F
:1046600099FF04F1A0542378DBB2AB4209D0064B8A
:104670001B7813F070031CBF034A13702570FFF7FB
:1046800081FF38BD0100024000000240024B1A6861
:1046900001321A60704700BFD8D1FF1F08B50D4C1A
:1046A000236813F4802F01D000F01AFB236813F461
:1046B000806F01D002F032F8236813F4006F01D04C
:1046C00002F0DEFB236813F4805FE9D002F096FE6F
:1046D000E6E700BF3480044008B5FFF7DFFF00BF06
:1046E0001022014B1A80704700200540704700BF20
:1046F000024A136818441060184670479CC0FF1F98
:10470000FEE700BFEFF31383ABB9EFF31083ABB950
:10471000EFF3058323B10F2B05D9094A985C03E019
:104720004FF4807000E00020EFF311833BB183422F
:1047300038BF184670474FF0FF3070470020704771
:10474000F0E300E0704700BF30B421285AD8042AB3
:1047500058D8DFE802F00709050B03000B2206E03A
:104760000A2204E0082202E00C2200E009221404DC
:10477000254B03EBC0004368244A2548C2F89C013E
:104780002448C2F8A0012448C2F8A4012348C2F872
:10479000A8012348C2F8AC0103F14042A2F59222DD
:1047A0007C2A18D903F14040A0F594207C2814D924
:1047B00003F14042A2F596227C2A10D903F140422F
:1047C000A2F598227C2A0CD903F14042A2F59A2244
:1047D0007C2A08D916E0134D06E0134D04E0134D72
:1047E00002E0134D00E0134D72B61A6822F47022F5
:1047F0001A60C3F3840045F8201042F0807214431D
:104800001C6062B630BC704774B5000000B8FF1F72
:1048100011BEFF1FE5BDFF1FB9BDFF1F8DBDFF1FEF
:1048200061BDFF1FA0C0FF1FD8C0FF1F28C1FF1F11
:1048300058C1FF1F78C1FF1F1D4B03EBC000436829
:1048400003F14042A2F592227C2A18D903F140429A
:10485000A2F594227C2A14D903F14042A2F59622B3
:104860007C2A10D903F14042A2F598227C2A0CD967
:1048700003F14042A2F59A227C2A08D970470D49DB
:1048800006E00D4904E00D4902E00D4900E00D4944
:1048900072B61A6822F0877222F4803242F0807277
:1048A0001A60C3F38403084A41F8232062B67047B4
:1048B00074B50000A0C0FF1FD8C0FF1F28C1FF1F94
:1048C00058C1FF1F78C1FF1F45470000044B00225D
:1048D0001A6004490A60044A106010221A60704786
:1048E00014D0034004D0034000D0034021281ED838
:1048F0000F4B53F8303093F8802212F0FF0F08D09E
:1049000019B1012283F880207047012283F8002129
:104910007047074B03EBC000436821B11A6842F0AF
:1049200003021A6070471A6822F002021A60704788
:1049300074B50000212806D8044B53F8303093F8A2
:104940000002C0B270470020704700BF74B500007D
:1049500021284AD8254B03EBC0035B68012911D0FD
:1049600004291DD0214A52F83020002082F880020C
:1049700000292FD0022931D003291FD040F2031281
:104980001A607047194A52F83020012182F88012CB
:104990004FF4A2721A601A6822F020021A6070475F
:1049A000124A52F83020012182F880124FF4A2728C
:1049B0001A601A6842F020021A6070474FF4807241
:1049C0001A601A6842F002021A601A6822F00102A4
:1049D0001A6070474FF480721A6070474FF480720B
:1049E0001A601A6842F003021A60704774B500003A
:1049F00072B60C4B1B680C4A12680C49096862B607
:104A000011F0806F02D0322B88BF0132C3F5BB3367
:104A1000FF330749A1FB03039B094FF47A7000FBA6
:104A20000230704718E000E0D8D1FF1F04ED00E02D
:104A3000ABAAAAAA38B50546FFF7DAFF044625B99E
:104A400038BD013D0AD004F57A74FFF7D1FF001B91
:104A5000B0F57A7FF5D201F019FBF6E738BD00BF5B
:104A600010B5264B4FF400021A604FF080721A60A6
:104A70004FF000721A604FF080621A604FF00062CF
:104A80001A6000201E4B18604BF6FF71043319604A
:104A900028231C4A1360083213600832136008325E
:104AA0001360083213600832136008321360083252
:104AB00013600922144C226004F5805404342060F1
:104AC000043421600434236008342360143C2260E1
:104AD00004F5FE24043420600C4801600C490B608E
:104AE00008310B600B4B1A60FFF730FC4FF4C870B5
:104AF000FFF7A0FF00F074FC10BD00BF08E100E06C
:104B0000048003400C8003400080034008800B4079
:104B10000C800B4000800B4030B40E4B1B7843F0F0
:104B200002020D4C04EBC20460600C4800780028BF
:104B30000CBF8824C82444EA0141074D45F83210CF
:104B400080F00100054A107083F00103014A1370E0
:104B500030BC704744D2FF1F0080FF1FBDD2FF1F33
:104B600010B4431E032B11D872B60A4A52F8230020
:104B700050B14268074941F82320074A32F81340F0
:104B80000188611A22F8131062B600E000205DF877
:104B9000044B704734D2FF1F0CD5FF1F0138032888
:104BA0000DD872B6074B53F820302BB100200130DE
:104BB0005B68002BFBD100E0002062B6704700204C
:104BC000704700BF88D2FF1F38B572B601231B495A
:104BD0001B4C5A1812F8012C12F0080F24D09A001E
:104BE00054F832506DB9164B03EBC20108304860DF
:104BF000144943F83210144B1A78013A1A7062B60D
:104C000038BD42F0010254F832506DB90C4B03EB41
:104C1000C201083048600D4943F832100A4B1A7837
:104C2000013A1A7062B638BD0133052BD1D162B694
:104C30000022054B1A7000F037FC38BDC0B60000EA
:104C40000080FF1F88004000B2D2FF1FC800400054
:104C500010B4431E032B37D8400140F010001C4A0B
:104C6000104472B61B4AD25C032A09D8DFE802F06E
:104C700019021B050830022216E00830042213E056
:104C8000154A52F823201AB9134A42F8231003E0B8
:104C9000124A52F823205160104A42F8231062B69B
:104CA00012E0032200E005220A4CE25401F108035D
:104CB000436000F00803002B0CBF8823C8230A8838
:104CC00043EA0243036062B65DF8044B704700BFDD
:104CD0000080FF1FF0D1FF1F88D2FF1F98D2FF1F57
:104CE0002DE9F84FA34CDFF8E092DFF8E0A2DFF8FF
:104CF000E0B22578EDB215F0040F1DD09E4B1B7865
:104D000013F0FF0F16D09D4B1B7803F0FF022BB161
:104D1000531EDBB2994A137003B900BE984B1B783F
:104D200003F0FF0233B1531EDBB2954A13700BB987
:104D300000F016FD0423237015F0080F00F0E48244
:104D400099F80030DBB21D0940F021828D4D9E089C
:104D500005EBC6035A6855F83630C3F38303013BAD
:104D60000C2B00F21082DFE813F0CB01CB010E0216
:104D70000E020E020E020E020E02E8010E020E02DA
:104D80000E020D00804913680B6052684A607F4A2A
:104D900045F8362000227E490A607A490A618A6114
:104DA00001217C4A11709BB240F28162934218D873
:104DB000B3F5D06F2ED2B3F5817F00F01E8106D8F7
:104DC000802B00F0C980822B00F0CC8066E140F29D
:104DD0000232934200F02681B3F5A06F00F06281A9
:104DE0005CE142F22102934200F0868107D8B3F5DC
:104DF000086F00F0AB80B3F5106F11D04EE142F2B6
:104E00002122934200F0418142F22132934200F08C
:104E1000498143E1604B5D68002D40F0188130E12D
:104E2000594B9A78544B1A70564D05F180062B6AEF
:104E300013F0800F03D0686A083800F035FB08359E
:104E4000B542F4D1DFF88C8100263746534AB0587A
:104E500028B1456800F028FB0DB12846F9E700238A
:104E60004E4973504E4AB3504E4BF05828B14568E6
:104E700000F01AFB0DB12846F9E7002349497350A9
:104E8000494AB35028F8023F484BFB5C023B032BD6
:104E90000AD8DFE803F0020602060022434BDA5587
:104EA00002E00122414BDA5501370436102ECDD1F4
:104EB00000223F4B1A7001253E4EDFF81C81314F16
:104EC00005EB080313F8013C06F8043B13F0080F48
:104ED0002DD000F0C9FA48B1A90007EB451200F146
:104EE00008035360344A47F8312007E0AB00002242
:104EF00047F833202E4B1A7801321A7000F0B4FABA
:104F000058B1AB0043F0010307EBC30100F1080205
:104F10004A601E4A47F8332009E0AB0043F0010322
:104F2000002247F83320224B1A7801321A70AA0067
:104F300042F00201002347F8313042F0030247F803
:104F4000323001351D4B9E42BAD11EE20A4B1B780E
:104F50001B4D2B700127AAE0194D00232B706B709D
:104F60000227A4E0084B9B88042B37D90F22154B4E
:104F70001A70C1E080200740BCD2FF1F45D2FF1F3E
:104F8000BED2FF1F0080FF1FA8D2FF1FC800400035
:104F9000DCD1FF1FBDD2FF1FC4B6000034D2FF1FFB
:104FA000E0D1FF1F88D2FF1F98D2FF1FF0D1FF1F53
:104FB000B2D2FF1FC420074088004000D420074021
:104FC000B4D2FF1FC0200740902007409420074024
:104FD000982007400AD5FF1FC0B60000A04A002154
:104FE000117051709F4A12F8233013F0020F5CD0F9
:104FF0009B4D01232B70022759E09B4B9B8803F0AC
:105000007F03042B02DC984A52881AB10F22954B79
:105010001A7071E0934A12F8231021F0020102F88D
:105020002310B2E1904B9B8803F07F03042B02DC3A
:105030008D4A52881AB10F228A4B1A705CE0894A55
:1050400012F8231041F0020102F823109DE1864B73
:105050005E889F88854BA3F10C02114633F80C0C37
:10506000B04209D133F80A0CB84205D1360A032EF2
:105070000CBF2F7817891AE00D690C330C32002D04
:10508000EBD10F22774B1A7036E0794B1A68794BC7
:105090001A60754B9A78784B1A7076E10F22714B33
:1050A0001A7029E000273D4601E002276C4D6E4B47
:1050B000DB889F4228BF1F46402F34BF3E46402614
:1050C00028463146FFF728FD3544BF1B03D13F2E4C
:1050D00000F2608110E0402F34BF3E464026284653
:1050E0003146FFF719FD3544BF1B01D13F2E03D9CF
:1050F000624B1D60624B1F8001238AF8003042E042
:10510000594B198842F22103994212D15D4BD81DA7
:1051100012F8011B03F8011F8342F9D15A4B1B6897
:10512000862B02D10F22594B1A7000200146FFF73F
:10513000F3FC574B45F8363025E0504B1E68BEB1A6
:105140004F4FB7F80080B8F1400F34BF45464025B7
:1051500030462946FFF7E0FCC5EB08039BB23B80D5
:105160000BB9402D01D1354400E00025434B1D60B3
:105170003D4B1B88B3F5A06F05D13B4B00225A7005
:105180009B788BF8003001238AF80030B9E0414E5B
:105190009F0806EBC708D8F80420A2F10800013DDB
:1051A000EDB213F0080F47D000F07EF93A4B53F8F8
:1051B00025304BB35A68384941F8252003F10802DD
:1051C000C8F80420354A525D032A12D8DFE802F0FD
:1051D00002060A0E0321314A51550AE002212F4AE4
:1051E000515506E005212D4A515502E004212B4A74
:1051F000515518F0080F0CBF8822C8221B8842EABC
:10520000034346F837307CE0244B5B5D032B0BD81F
:10521000DFE803F0777702060022204B5A5570E052
:1052200001221E4B5A556CE018F0080F0CBF0222E9
:1052300003221A4B5A5564E056F837301B0C22F8FB
:10524000083C002B55D0002322F8063C42F8043CD1
:10525000134B53F825302BBB114B43F8250025E0A9
:10526000B4D2FF1FC0200740A8D2FF1FD0B6000055
:10527000D8D1FF1F1CD5FF1FCCD2FF1FDCD1FF1FD1
:10528000B0D2FF1F13D5FF1F14D5FF1F45D2FF1F3C
:10529000C80040000080FF1F88D2FF1FF0D1FF1F11
:1052A00034D2FF1F3F4B53F8253058603D4B43F835
:1052B00025003D4B33F8151032F8082C0A4423F82A
:1052C000152000F0D1F860B100F10803C8F80430EF
:1052D00018F0080F354B364A08BF134646F83730EA
:1052E0000FE0002346F83730324B1A7801321A703B
:1052F00007E018F0080F2D4B2D4A08BF134646F85B
:10530000373008232370F4E415F0010F22D02A4926
:1053100002230B700022294B1A70294B2448186075
:10532000284C5C6098602848D8601A619A610D200A
:10533000264B1870FF232648037008380370183076
:105340000270244A13709F22234B1A7001230B70A2
:10535000BDE8F88F15F0800F05D00D221B4B1A7099
:105360008022403B1A7015F0020F06D0184B1A78B5
:10537000D2B21A700222083B1A7015F0100F0ED02C
:105380001022164B1A70BDE8F88F00200146FFF777
:10539000C3FBB1E628460021FFF7BEFBACE6BDE843
:1053A000F88F00BFE0D1FF1F0CD5FF1FC8004000E1
:1053B00088004000B2D2FF1F9420074044D2FF1F54
:1053C0000080FF1FF4D1FF1F48D2FF1FC0200740FD
:1053D000882007408C200740842007408020074019
:1053E00008B502F07FF800231B491A465A50C81826
:1053F00042600833882BF9D1184B1A6842F4802296
:105400001A60154BC3F30721154A1170C3F3074106
:10541000143211701B0E04321370FF23343A1370D0
:1054200008321370783A137001238432137000210C
:105430006C3211707C3A137070220A4B1A704FF460
:105440000072A3F241331A60102203F1C04303F546
:10545000C8231A7008BD00BF0080FF1F34800440BD
:105460009C20074049E400E072B60D4B1A68B2FA7E
:1054700082F30B2B02D962B6002070474FF0004137
:10548000D94022EA010206490A6062B6054903EBE7
:10549000C303DB00C8180022CA504260704700BF37
:1054A00080C1FF1F00BAFF1F08B50F4BC31A0F4A78
:1054B000A2FB03131B090B2B14D80D4A12783AB127
:1054C0000C4A127812F0FF0F02D0FFF77DFB08BDE7
:1054D00072B6094A4FF0004121FA03F311681943EB
:1054E000116062B608BD00BF00BAFF1F398EE338F5
:1054F000B2D2FF1FBCD2FF1F80C1FF1F10B5134BDC
:105500001B6853B9124B1B7813F0FF0F18D0032000
:10551000FFF726FB0D4B1860A8B10C4B18684388A9
:105520005A1C03441C7A03889A4206D3FFF7BCFF37
:105530000022064B1A60204610BD4280204610BD56
:105540004FF0FF3010BD4FF0FF3010BDC8D2FF1F2D
:10555000BCD2FF1F08B50D4B1B6883B90C4B1B78E1
:1055600013F0FF0F08D00320FFF7FAFA074B18607B
:1055700028B94FF0FF3008BD4FF0FF3008BD034B96
:105580001B685A881344187A08BD00BFC8D2FF1F91
:10559000BCD2FF1F044B9888044B1B681BB11A88B0
:1055A0005B88D31A184470470CD5FF1FC8D2FF1F61
:1055B00010B50B4B1B7813F0FF0F0FD0094B186879
:1055C00020B1FFF771FF0022064B1A60032420462A
:1055D000FFF7C6FA10B1FFF767FFF8E710BD00BF8D
:1055E000BCD2FF1FC8D2FF1F2DE9F047044601229D
:1055F000374B1A700E46002964D0DFF8E080DFF8E0
:10560000E0909A46334FD8F8003083BB99F80030C9
:1056100013F0FF0F06D100222D4B1A704FF0FF3010
:10562000BDE8F0874AF2F9250420FFF7B7FA07280A
:105630000AD801238AF80030FFF716FFC8F80000E7
:10564000A8B900238AF80030013D01D03B7833B17E
:105650000122204B1A704FF0FF30BDE8F08700F0B8
:1056600015FD99F8003013F0FF0FDDD1D3E70023CB
:105670003B70D8F800104A88C2F14005AE4238BFEE
:10568000354602F108030B442A444A80761B3DB19B
:10569000254414F8012B03F8012BAC42F9D100E0AA
:1056A00025464B883F2B07D940230B800420FFF76A
:1056B000CFFA0023C8F800300522074B1A700EB14C
:1056C0002C46A0E70020024B1870BDE8F08700BF11
:1056D000BFD2FF1FC4D2FF1FBED2FF1FC0D2FF1F09
:1056E000BCD2FF1F00B583B002AB03F8010D184612
:1056F0000121FFF779FF03B05DF804FB10B5144BEF
:105700001B7813F0FF0F21D00122124B1A70124B9D
:10571000196851B10024114B1C704B880B80042078
:10572000FFF796FA0C4B1C600DE0FFF79DFE01465B
:1057300030B10022094B1A700420FFF789FA02E009
:105740000122064B1A700022024B1A7010BD00BFD6
:10575000BCD2FF1FBFD2FF1FC0D2FF1FBED2FF1F90
:1057600008B50E4B1B7813F0FF0F16D10C4B1968C0
:1057700041B14B880B800420FFF76AFA0022084BE6
:105780001A6008BDFFF770FE014618B10420FFF74C
:105790005FFA08BD0122034B1A7008BDBFD2FF1F7C
:1057A000C0D2FF1FBED2FF1FF0B4C02928BFC02146
:1057B00072B6134B1860134B00221A605A609A603D
:1057C000DA601A615A61C1B113460E4C01275A09B9
:1057D00003F01F0607FA06F654F82250354344F842
:1057E000225001338B42F2D1002213468418637099
:1057F000013302F582728B42F8D162B6F0BC704779
:10580000D8D2FF1FE0D2FF1F10B472B6234B1B6823
:105810008BB9224B5B6883B9204B9B687BB91F4BCC
:10582000DB6873B91D4B1B696BB91C4B5B6963B9B2
:1058300062B600202EE0194A08E0194A06E0194A2B
:1058400004E0194A02E0194A00E0194AB3FA83F168
:105850004FF00040C84023EA000313601548037866
:105860000133DBB2037062B60C48121A9210C1EB1E
:10587000421202EB821241F67C7101EB82020E4968
:105880000968881801248C540C4A12789A423CBF4B
:105890000A4A13705DF8044B704700BFE0D2FF1F47
:1058A000E4D2FF1FE8D2FF1FECD2FF1FF0D2FF1F90
:1058B000F4D2FF1FDDD2FF1FD8D2FF1FD4D2FF1FAB
:1058C000427872B60378012B02D9013B037011E0D4
:1058D0005111094BD24302F01F024FF0004020FA51
:1058E00002F253F82100104343F82100034B1A78C9
:1058F000013A1A7062B67047E0D2FF1FDDD2FF1F77
:1059000030B4C36883B1187A90420AD158685C7A7F
:10591000006950F8245025B940F824100878013067
:105920000870DB68002BEED130BC7047437A8B42A5
:1059300006D9036953F82100002243F8212070475B
:105940000020704738B5437A8B4218D9036953F861
:105950002140002243F821209CB12378012B12D949
:10596000FFF752FF054628B10430211D4FF4807225
:10597000FEF7CEFB2378013B2370284638BD00207C
:1059800038BD204638BD204638BD00BF4368427A46
:105990005B7A9A4210D872B60368DA680AB9D8609E
:1059A00004E0D3680BB11A46FBE7D060026801231C
:1059B00013724268137262B6704700BF084B1B78BF
:1059C0005BB9D022074B1A704FF08042A3F25633D6
:1059D0001A600120024B187070470020704700BF0A
:1059E000DCD2FF1F5EE400E0F8B5184B1A6842F005
:1059F00080721A60164B1A6842F001021A60043372
:105A00001F68144B1C689CB1134D237A6BB12E6830
:105A100023681B68204698472B689B1B1B099AB27A
:105A2000A280E1888B4288BFE2806469002CECD1BF
:105A3000094B1B68DF1B3F09BBB2084A1380084AA9
:105A40001288974284BF064A1380F8BDFCED00E03F
:105A5000001000E0D0D2FF1F041000E0F8D2FF1FBA
:105A6000DED2FF1F30B472B699B902688AB10379E9
:105A70000F2B0ED827490988194111F0010F08D0C2
:105A800003F1007303F59063B2EB431F01D162B6DB
:105A90003EE0204B1D882946002341FA03F212F014
:105AA000010F2DD1012202FA03F42543194A158072
:105AB00062B6DAB2027118490C6844F002040C6054
:105AC00004390C6844F002040C60822413490C6011
:105AD0001A310A7004310A7006390A7007310A70E7
