:1000000000800020BD0100002D4E0000E54D0000E5
:10001000E54D0000E54D0000E54D0000E54D000018
:10002000E54D0000E54D0000E54D00002D4E0000BF
:100030002D4E0000E54D00002D4E0000D54D000076
:100040002D4E00002D4E00002D4E00002D4E0000C4
:100050002D4E00002D4E00002D4E00002D4E0000B4
:100060002D4E00002D4E00002D4E00002D4E0000A4
:100070002D4E00002D4E00002D4E00002D4E000094
:100080002D4E00002D4E00002D4E00002D4E000084
:100090002D4E00002D4E00002D4E00002D4E000074
:1000A0008D470000994700002D4E00002D4E0000A6
:1000B0002D4E00002D4E00002D4E00002D4E000054
:1000C0002D4E00002D4E00002D4E00002D4E000044
:1000D0002D4E00002D4E00002D4E00002D4E000034
:1000E0002D4E00002D4E00002D4E00002D4E000024
:1000F0002D4E0000656F00002D4E0000A976000017
:100100002D4E0000197C00002D4E00002D4E0000E9
:100110002D4E00002D4E00002D4E00002D4E0000F3
:100120002D4E00002D4E00002D4E00002D4E0000E3
:100130002D4E00002D4E00002D4E00002D4E0000D3
:100140002D4E00002D4E00002D4E00002D4E0000C3
:100150002D4E00002D4E00002D4E00002D4E0000B3
:100160002D4E0000395400002D4E00002D4E000091
:100170002D4E00002D4E00002D4E00002D4E000093
:100180002D4E00002D4E00002D4E00002D4E000083
:100190002D4E00002D4E00002D4E00002D4E000073
:1001A0002D4E00002D4E00002D4E00002D4E000063
:1001B0002D4E00002D4E000085620000564B4CF283
:1001C000205210B51A804DF628121A8000BF00BFC9
:1001D00004F030FE514B4FF010621A60504A9A60A2
:1001E000504ADA60504A136813F4807304D14F49BF
:1001F0000B604FF4A85313604D4B1A78110703D5C9
:100200001A7842F008021A704A4B4B492A221A7097
:100210004A4A4B4B8B4204D252F8040F43F8040B6A
:10022000F8E7484B484900228B4202D243F8042B9E
:10023000FAE74649464A002352F8230041F82300D2
:1002400001336F2BF8D1434B434A802103F8011B44
:100250009342FBD1414B3D4A1A60414B8A221A70AE
:10026000A3F5805324225A70A0221A709A7992071B
:10027000FCD59A79D406FCD43A4A937903F00C035E
:10028000082B384BF9D105221A7143225A719A79F9
:100290009006FCD5334A9179324B4906FBD5324A58
:1002A0004FF0817111600521516020221A709A79F6
:1002B00002F00C020C2AFAD12C4B2D4A1A602D4B5D
:1002C0002D4A1A6000225A60072243F8042C2B4A58
:1002D000C3F80C2D62B604F087FF144B1B68DA07D5
:1002E00005D5274804F004FF264B274A1A60274B00
:1002F0001B785B0609D5234C234B22689A4204D114
:100300001F4804F0F5FE0023236009F0BFFF04F04E
:1003100097FD06F087FAFEE70E2005403080044086
:10032000823F04000100002B10D0034014D0034092
:1003300002D0074000E0074038CAFF1F50D8000035
:1003400020BDFF1F38CAFF1F0CE9FF1F00B8FF1FA9
:100350000000000000E400E05FE400E008ED00E0E1
:1003600000500640004006404480044004800440A1
:10037000C010050014E000E03F190100000020203B
:10038000C95718591CE00340A5C3945A00F0074010
:10039000FFFFFFFFFFFFFFFFFFFFFFFFFFFFFFFF6D
:1003A000FFFFFFFFFFFFFFFFFFFFFFFFFFFFFFFF5D
:1003B000FFFFFFFFFFFFFFFFFFFFFFFFFFFFFFFF4D
:1003C000FFFFFFFFFFFFFFFFFFFFFFFFFFFFFFFF3D
:1003D000FFFFFFFFFFFFFFFFFFFFFFFFFFFFFFFF2D
:1003E000FFFFFFFFFFFFFFFFFFFFFFFFFFFFFFFF1D
:1003F000FFFFFFFFFFFFFFFFFFFFFFFFFFFFFFFF0D
:10040000FFFFFFFFFFFFFFFFFFFFFFFFDEF9FFFF23
:1004100010B5054C237833B9044B13B10448AFF33E
:1004200000800123237010BD38CAFF1F00000000A8
:1004300054D80000084B10B51BB108490848AFF369
:1004400000800848036803B910BD074B002BFBD0A0
:10045000BDE81040184700BF000000003CCAFF1F65
:1004600054D8000038CAFF1F0000000010B5044631
:1004700000F58A50183002F073FB204610BD00BF13
:10048000002310B4104C4172026104600372C36017
:1004900041B1194600E0026942F82310427A013363
:1004A0009A42F8DC094B1A680AB90AE01A465369FD
:1004B000002BFBD15061002343618380C38010BCBB
:1004C00070471860F7E700BF04BA0000B8E6FF1FE6
:1004D0002DE9F04F544A554B11681B685448554A52
:1004E000047803EB011385B0053302EB031300938B
:1004F000002C58D01946504A504B12681B68504D7A
:10050000DFF850814F4C01928E1E01F1060B4FF027
:10051000000ACDF800B0029337460396D34637F968
:10052000021FFF291ED0019BC9187AD47F29A8BFBA
:100530007F21454B53F82190C5F800900299484619
:1005400009F082FCD8F800A02861064651464846CA
:1005500009F070FB51462060304609F06BFB0BF14F
:10056000020B2061009B9F4205F1040508F104087D
:1005700004F10404D3D1DA460AF1FF3A334A039E68
:1005800052F82A109B46324B002036F9022FFF2AE0
:100590001ABF1960196118605E4503F10403F4D1B4
:1005A00005B0BDE8F08F244BDFF89CB01F68009BBE
:1005B000DFF890A09D1EA046A94614E07F2BA8BF9F
:1005C0007F235BF82360234B304653F8241009F057
:1005D00031FB1B4B4AF8240043F8246008F1010862
:1005E0000134082C07D039F9023FFF2BF8D0DB1972
:1005F000E4D50023E5E71549154B08F1FF32002447
:1006000051F8220000990E3135F9022FFF2A14BF4C
:1006100018601C608D4203F10403F5D105B0BDE8FC
:10062000F08F002185E700BF18E1FF1F4CE0FF1F9E
:100630009FE1FF1F78CEFF1FD0E1FF1FA4BEFF1F69
:10064000B8BEFF1FB4E0FF1F20CCFF1F84BEFF1FFA
:1006500024BEFF1F04BEFF1F2DE9F84F1B4D1C4F8A
:10066000834605F1200A47F6FF794FF0000816E0AF
:10067000304609F0A5FD1749174B48B9304609F037
:10068000E3FB4FF07C5109F0D7FA09F0C9FD0346AE
:100690005545A362C4F81C80A4F82CB014D057F8B8
:1006A000046F55F8044F0021A4F81890304609F063
:1006B00069FD0A490028DBD000235545A362C4F830
:1006C0001C80A4F82CB0EAD1BDE8F88FECDFFF1F46
:1006D000B4BEFF1F4B243E47C0FFFF3FA655AC46AC
:1006E0000B4A0C4904380240002A0CDB0A4B51F833
:1006F000220003F1200153F8042F8B421063FAD13A
:100700000420FFF7A9BF013A62F007020132EDE7CA
:1007100007000080D8BEFF1FECDFFF1F30B583103D
:10072000144D002B83B004462B6008DD124B134A96
:100730001B6801930199124B116001221A70E1B2FA
:1007400040F2D24004F01EFB0E4B4FF080421A6084
:100750002B6843B12046FFF7C3FF0B4B4FF080429D
:100760001A6003B030BD094B33F91400FFF774FF72
:10077000F3E700BF1CCCFF1FB8E5FF1FE4E0FF1F3D
:10078000D8CBFF1F88E100E008E100E0ACBEFF1F0E
:100790002DE9F04F3F4C237883B0002B50D03E4AD8
:1007A0003E4B126801921B680198C01A09F0F4FAD6
:1007B0003B4B196809F048FB01464FF07E5009F0A9
:1007C00039FA0021824609F0DDFC00285DD1354C64
:1007D000DFF8E880344F354E04F1200B13E0284653
:1007E00009F0EEFC3249334B48B9284609F02CFB9E
:1007F0004FF07C5109F020FA09F012FD03465C45E8
:10080000C9F8283019D058F8041F504609F01CFBCD
:10081000014654F8040F09F00DFA002147F8040FBF
:10082000054609F0AFFC56F8049F23490028D6D0AE
:1008300000235C45C9F82830E5D103B0BDE8F08F4E
:100840001A4C184E04F1200812E0284609F0B8FCB2
:100850001749184B48B9284609F0F6FA4FF07C5171
:1008600009F0EAF909F0DCFC03464445BB62E4D038
:1008700056F8045F54F8047F0021284609F082FCF2
:100880000D490028E1D00023EFE700234FF0000AD4
:1008900023709CE7A0E0FF1FB8E5FF1F58CAFF1FA9
:1008A00048BEFF1FB4BEFF1F00BEFF1FECDFFF1FCF
:1008B0004B243E47C0FFFF3FA655AC46B0E0FF1FAC
:1008C000734AF8B51268734B734D53F82240296888
:1008D000204609F0B9FA7149064609F071FC40B9A1
:1008E0006F49304609F04EFC002800F0BC806D488E
:1008F00000E06D486D4E6968B061204609F0A4FAC9
:100900006649074609F05CFC40B96549384609F07C
:1009100039FC002800F09F80624800E06248A96826
:10092000F061204609F090FA5C49074609F048FC5E
:1009300040B95B49384609F025FC002800F0838067
:10094000584800E05848E9683062204609F07CFACF
:100950005249074609F034FC38B95149384609F084
:1009600011FC002867D04F4800E04F4870622969A9
:10097000204609F069FA4949064609F021FC38B9D0
:100980004749304609F0FEFB00284CD0454800E0BE
:100990004548474E6969B061204609F055FA3F491C
:1009A000074609F00DFC38B93D49384609F0EAFB25
:1009B000002830D03B4800E03B48A969F061204660
:1009C00009F042FA3549074609F0FAFB30B93449D3
:1009D000384609F0D7FBB0B1324800E03248E96947
:1009E0003062204609F030FA2C49044609F0E8FB51
:1009F000002849D12A49204609F0C4FB00283AD0F2
:100A000028487062F8BD4FF08F41384609F01CFA53
:100A100009F0E0FBE3E74FF08F41384609F014FAA4
:100A200009F0D8FBC9E74FF08F41304609F00CFAC6
:100A300009F0D0FBADE74FF08F41384609F004FADA
:100A400009F0C8FB92E74FF08F41384609F0FCF9F6
:100A500009F0C0FB77E74FF08F41384609F0F4F911
:100A600009F0B8FB5BE74FF08F41304609F0ECF935
:100A700009F0B0FB3EE74FF08F41204609F0E4F962
:100A800009F0A8FB7062F8BD07487062F8BD00BFAE
:100A900030CEFF1F54BEFF1F24BEFF1F00FEFF46C7
:100AA00000FEFFC6000001800000FF7F14E0FF1F72
:100AB00064E1FF1FB0FA80F110B549090446032034
:100AC00004F028FBA4F10101B1FA81F149090420E5
:100AD00004F020FBA4F10201B1FA81F149090520DB
:100AE00004F018FBA4F10301B1FA81F149090620D1
:100AF000BDE8104004F00EBB38B50A210F4802F0E3
:100B0000D5F8C0B904460A210C4802F0CFF80546D2
:100B100088B90F20FFF7CEFF142004F015FB04F076
:100B20000300FFF7C7FF0134142004F00DFB052C70
:100B3000E9D1284638BD0125284638BD68E2FF1FA7
:100B400010B5C0F3C0010446062004F0E3FAC4F374
:100B50008001052004F0DEFAC4F34001042004F013
:100B6000D9FA04F001010320BDE8104004F0D2BA24
:100B70002DE9F041002182B0022004F0DFFA0021CB
:100B8000082004F0DBFA0021092004F0D7FA012143
:100B90000B2004F0D3FA0121062004F0CFFA012142
:100BA000052004F0CBFA0121042004F0C7FA01214A
:100BB000032004F0C3FA32217B487C4C7C4E7D4DEF
:100BC0007D4F05F04BFA0D2003F0C8FF7B4B7C49AD
:100BD0007C4A7D4819605A607C497D4ADE601D610F
:100BE0009F6058619961DA6104F500766FF0440501
:100BF000284608F0B5FC02460B4669A1D1E9000180
:100C000007F0A4FA0022734B08F010FD08F0BEFFB5
:100C100044F8040FA64205F10105E9D16E496F4A77
:100C200008681378C40443F0010109D58B4207D04A
:100C30006B4D6C484FF4A2764FF400742E60046044
:100C4000654811700068C00443F0050309D58B4264
:100C500007D0654C65494FF4A2754FF400702560CC
:100C6000086040F2D240137004F072F8604C614B9F
:100C700020601868604FFFF763FFFFF73DFF0146F4
:100C8000384601F073F97B79002B77D15B4A2360FA
:100C90005B4E012313605B4B5B49BA79B8681A70ED
:100CA000086009F079F801464FF07E5009F080F9AC
:100CB000DFF88C81554D564A564B3979C8F80000FB
:100CC000387B2860117003F120004FF0804153F809
:100CD000042F98421162FAD14F4B504F5049514A5C
:100CE0004FF4803EC3F830E04FF0060E1846A3F8EC
:100CF0002AE0A3F82EE0A3F834E04FF48043BB6170
:100D0000FB613B627B628B6147F67057CB610B6284
:100D10004B620023136253629761D76101F0E4FADA
:100D20003368002B32D02068FFF7DAFC3E4B3F4A95
:100D30001B68019301993E4B116001221A702868CB
:100D40003C4D09F02DF8044601464FF08C4009F067
:100D50002FF94FF07C5109F077F809F03BFA364A49
:100D600003461360C0F5005009F01AF8014620460A
:100D700009F01EF9286002B0BDE8F0812368204E1A
:100D80001E4A9B1003213360116084E722682B4BBD
:100D900033F91200FFF760FCD1E700BFAFF300802A
:100DA000000000A08FF3F03F0082FF1F1CCCFF1F4C
:100DB000C8CAFF1FFCCAFF1F94CAFF1FF0DFFF1F36
:100DC000E4CBFF1F60CAFF1F44CEFF1F34CBFF1FC1
:100DD00068CBFF1F00807B403C800440E8E6FF1F9B
:100DE00018B0044008C0044014B0044004C00440DB
:100DF00030CEFF1F18E1FF1F78CEFF1F4CBEFF1F34
:100E00001CCCFF1F30CBFF1FA8BEFF1FB4BEFF1FAF
:100E10009FE1FF1FECDFFF1FA0CBFF1F14E0FF1FB0
:100E200064E1FF1F50E0FF1FB8E5FF1FE4E0FF1F74
:100E3000D8CBFF1F14E1FF1F88E0FF1FACBEFF1FD0
:100E400048BEFF1F2DE9F04108208AB004F068F980
:100E5000854E864B306001280CBF187000224FF081
:100E6000090018BF1A7003F0ADFE8046062003F09B
:100E7000A9FE0446072003F0A5FE0546082003F05E
:100E8000A1FEDFF848E27A4FDEF80020794908EB4E
:100E9000040341F6FF74A342A8BF2346A042A8BFA3
:100EA000204623EAE373AC4202F1400CA8BF2C4673
:100EB0004FF000089C4520EAE07524EAE4743B60AA
:100EC00081F8008004DBA2F14000984240F39F804B
:100ED000CEF80030684B1A6802F14000844204DC0E
:100EE000A2F14000844280F2998001221C600A70C5
:100EF000624B1A6802F14000A84203DBA2F14000F5
:100F0000A8427FDD01221D600A705D4B5D491A68B1
:100F100038680432002351F82220009219464FF419
:100F2000005205F0FBFA584B58491A680860904285
:100F300003D0574A186001231370564B1868854236
:100F40004FDD281A08F02CFF534B196808F07CFF7E
:100F5000524908F071FE4FF07E5108F06DFE09F025
:100F600039F90546002330221946009220464FF4F5
:100F7000005205F0D3FA4A4B4A491A682844904275
:100F8000086003D0424A186001231370464C474D55
:100F90002368029302992B683068C91A0A2900D97C
:100FA00008B322680692069A21680591059E216879
:100FB0000491D21A04993C4F00FB1263CA1AB2F58D
:100FC000617F2B6007D93B680793394A394B0799F2
:100FD000116001221A70384B1B7823B30AB0BDE8A8
:100FE000F0812425BEE7226831490392039A0968FB
:100FF000521AB2F57A7FD4D330492E4A01260E70A8
:101000001070CEE7AD1A02EB65151D607DE79B1AE7
:1010100002EB6313CEF800303B605BE7A41A02EBEF
:1010200064141C6064E7264801F044F8244801F089
:1010300079F8244B187078B9234B19682368099301
:10104000099B591A13298CBF002101210B2004F0A0
:1010500061F80AB0BDE8F08123680893089B1A4A3A
:1010600019461360EAE700BFA0E1FF1F9EE1FF1FE2
:1010700050E1FF1F9CE1FF1FB0E0FF1F18CCFF1FD6
:1010800018E1FF1F78CEFF1FE0CBFF1F4CE0FF1FD2
:1010900044BEFF1F88E0FF1F14E1FF1F0000104245
:1010A00054CAFF1FD0E1FF1FB8E5FF1F8CE0FF1FF0
:1010B0004CE1FF1F5CCAFF1F9DE1FF1F10E1FF1FF6
:1010C000A4E0FF1F10E0FF1FDCCBFF1FE8E0FF1FC5
:1010D0002DE9F043784D8DB0FFF7B4FE2B78002B4F
:1010E00040F0D580754C764F236804937549049A77
:1010F000754826680B680396DFF814820078039E13
:10110000D21A00FB126398F800200B606B4B002A88
:101110002ED01B686D4E0593059B32689B1AB3F564
:10112000AF7F15D36A4B6B49186841F2500201300A
:101130008A5818609042A4BF00201860FFF700FD95
:10114000FFF7C6F923680693069B336001232B70D3
:10115000082003F0E5FF604B0128186000F0A8802C
:10116000DFF8A8910190002389F8003000283CD0D6
:101170005A4E3378002B50D12B78002B62D1584E29
:101180003B784F4A9BB1236856480A9356490A9BBD
:10119000006809681B1A99429CBF00231370534BC7
:1011A0004FF080451D60FFF7F3FA514B1D60337817
:1011B0004B4DBBB123684F490B934F4A0B9B0968BA
:1011C00012685B1A9A420DD200210B2003F0A2FF95
:1011D0000021092003F09EFF0021092003F0AEFF4B
:1011E00000232B700DB0BDE8F083FFF771F9236881
:1011F0000893DDF820E041492368384E0793404AC0
:10120000C1F800E03378079901981160012288F84D
:10121000000089F800002A70A3B1DFF8F8E0394B2C
:10122000DEF800101B6801319B0091FBF3F203FB19
:1012300012131846CEF80030FFF770FA012200238F
:101240002A703370236809934FF00108294B244E0C
:10125000099A1A604146092086F8008003F06EFF63
:1012600041460B2003F056FF4146092003F052FF90
:101270001E4B4FF08048C3F80080FFF789FAFFF754
:101280001FFB1B4A0023C2F800802B7078E7FFF792
:101290001FF91D4B094C1B7843B12268114B029278
:1012A000074F029A1A6001233B701DE7044F1BE7AA
:1012B000164B18705CE700BF44BEFF1FB8E5FF1F68
:1012C000A0E0FF1F9CCBFF1FACE0FF1FE4E1FF1F6E
:1012D00018E1FF1F78CEFF1FA0E1FF1F10E1FF1FE5
:1012E0009DE1FF1F58CAFF1FA8BEFF1F88E100E055
:1012F00008E100E0FCE0FF1F50BEFF1F4CE1FF1FB4
:101300008CE0FF1F4CBEFF1F30CBFF1F9EE1FF1F75
:101310005CCAFF1F30CEFF1F2DE9F04F89B003F0EC
:10132000CFFCBC48DFF84083BB4FDFF84093BB4E97
:10133000BB4DBC4C00F09EFE0921B64800F0A2FE59
:101340002821B44800F0B4FEB74BDFF824C31A6874
:101350000092DDF800A01A680192DDF804E01A6836
:10136000029202981A6803920399CCF800A01A68B6
:10137000DFF800A30492049ACAF800E0D3F800B0A2
:10138000DFF8F4E2CDF814B0DDF814C0CEF80000B8
:10139000D3F800A0DFF8E4E2CDF818A0CEF80010F2
:1013A0000698A2491B680793A14B0A60A14AC3F89B
:1013B00000C0A14B07991060002292461960404678
:1013C0001146FFF75DF8524651463846C8F800907E
:1013D000A8F818A0A8F81AA0C8F81CA0C8F820A05F
:1013E000C8F828A0A8F82CA0A8F82EA0C8F830A00B
:1013F000FFF746F8524651469048C7F80090A7F8C4
:1014000018A0A7F81AA0C7F81CA0C7F820A0C7F812
:1014100028A0A7F82CA0A7F82EA0C7F830A0FFF7A7
:101420002FF8864B8648C3F8009052465146A3F8E1
:1014300018A0A3F81AA0C3F81CA0C3F820A0C3F8F2
:1014400028A0A3F82CA0A3F82EA0C3F830A0FFF783
:1014500017F87B4B7B48C3F8009052465146A3F8DF
:1014600018A0A3F81AA0C3F81CA0C3F820A0C3F8C2
:1014700028A0A3F82CA0A3F82EA0C3F830A0FEF754
:10148000FFFF704B7048C3F8009052465146A3F8D6
:1014900018A0A3F81AA0C3F81CA0C3F820A0C3F892
:1014A00028A0A3F82CA0A3F82EA0C3F830A0FEF724
:1014B000E7FF654B6548C3F8009052465146A3F8D4
:1014C00018A0A3F81AA0C3F81CA0C3F820A0C3F862
:1014D00028A0A3F82CA0A3F82EA0C3F830A0FEF7F4
:1014E000CFFF5A4B5A48C3F8009052465146A3F8D2
:1014F00018A0A3F81AA0C3F81CA0C3F820A0C3F832
:1015000028A0A3F82CA0A3F82EA0C3F830A0FEF7C3
:10151000B7FF4F4B06F12802042130464FF4803BC1
:10152000C3F80090A3F818A0A3F81AA0C3F81CA051
:10153000C3F820A0C3F828A0A3F82CA0A3F82EA0DD
:10154000C3F830A0FEF79CFF424B336005F1280240
:1015500004212846C6F818B0C6F81CB0C6F820B05A
:10156000C6F824B0FEF78CFF3B4BC5F818B003F16A
:10157000280218460421374B2B60C5F81CB0C5F86B
:1015800020B0C5F824B0FEF77BFF334B314A1A6018
:10159000012104F118022046DFF8C490C3F818B006
:1015A000C3F81CB0C3F820B0C3F824B0FEF768FF3E
:1015B00003222A4BA2850921A622DFF8C4E023607A
:1015C000618553234AF6C0210120A28609F1180241
:1015D000E3852163C9F800E084F81CA0A4F828A0E2
:1015E0005346514689F808A0C9F80CA089F80900AB
:1015F000C9F81020CE4601E0DEF8102042F8231092
:1016000099F80920164801339A42F5DC154B1A68FF
:10161000CABBF5E0A4E0FF1F60CAFF1F14E0FF1F74
:1016200064E1FF1FA0CBFF1FB8E5FF1F4CE1FF1FC8
:10163000FCE0FF1FE4E0FF1F58CAFF1F94CAFF1F12
:10164000C8CAFF1FFCCAFF1F44CEFF1F34CBFF1FB9
:1016500068CBFF1F24D3000050E0FF1F18D3000009
:10166000A4E1FF1FB8E6FF1FE4CBFF1F3CD300003F
:101670009CCBFF1FDCCBFF1F8CE0FF1FE4E1FF1FB3
:1016800004BA00001A465369002BFBD1C2F814902B
:101690004FF0000A5B4B5C48C9F814A0A9F804A0FD
:1016A000A9F806A0C9F8003000F054FF574B1846BF
:1016B00083F808A0C3F800805E6083F809A0C3F82F
:1016C0000CA004F0AFFD524B4FF00108184683F810
:1016D00008A01F605E60C3F80CA083F8098004F0C6
:1016E000A1FD4C4B4C4A83F808A00227184683E81A
:1016F0004400C3F80CA05F7204F094FD474B484AC5
:1017000083F808A04FF0030B184683E84400C3F8A1
:101710000CA083F809B004F085FD424B424A83F8DF
:1017200008A0184683E8240083F809A0C3F80CA099
:1017300004F078FD3D4B3E4A83F808A0184683E844
:10174000240083F80980C3F80CA004F06BFD394B2A
:10175000394A5F72184683E8240083F808A0C3F86A
:101760000CA004F05FFD354B354A83F809B01846EC
:1017700083E8240083F808A0C3F80CA004F052FD0D
:10178000304B314A83F808A018461E605A6083F82F
:1017900009A0C3F80CA004F045FD2C4B2A4A83F89D
:1017A000098018461D605A6083F808A0C3F80CA091
:1017B00004F038FD264B244A83F808A0184683E835
:1017C000140083F809A0C3F80CA004F02BFD214BF2
:1017D000184683F808A083E8100283F809A0C3F82C
:1017E0000CA004F01FFD1C4B1C48196800F03CF8CD
:1017F0001B4A1C49194808F033FD09B0BDE8F08FB9
:10180000186045E730D30000A4E1FF1FECE0FF1FA4
:1018100020CEFF1F90E0FF1F94CAFF1F1CE1FF1F97
:10182000C8CAFF1F2CE1FF1FFCCAFF1FD4E0FF1F27
:1018300044CEFF1F34CEFF1F34CBFF1FC0E1FF1F7C
:1018400068CBFF1F3CE1FF1F50E0FF1FD4E1FF1FEB
:1018500000E1FF1F54E1FF1F00BEFF1F78CEFF1FF6
:10186000FCBDFF1F6D0400002DE9F041DFF86CE0C6
:10187000194C7546064688460FCD32273460B7604E
:101880004FF0260C002706F1100486F80CC03771C3
:101890007771B7710FC40FCD0FC40FCD0FC495E88A
:1018A0000F0041F2500584E80F0006F582500EF15A
:1018B00040014FF480727751143002F0A3FF06F517
:1018C0008A50183001F03EF941F25413304646F880
:1018D0000380BDE8F08100BF9CCB00005CCA000023
:1018E0002DE9F04341F2500306468DB0F35804331E
:1018F00000200C4646F823000146684604F05AFED4
:10190000224604A806F58A540123994901F06CFA8D
:1019100018340CAA9DF8140012F8143D0699207191
:1019200006F58B502373A16004F10D03123012F8F9
:10193000011F03F8011B9842F9D10B9BE36104A836
:1019400001F00EF900252F46204601F075F8002819
:1019500036D0204601F08EF8C1B25B2939D021295A
:101960004FD0012D40D0022DEED10A2949D10721B7
:10197000804804F093FA69467F4804F057FD01213E
:101980007E4804F08BFA7C4804F076FD7C4904A87C
:1019900004F010FE04A9684604F09AFE054604A867
:1019A00004F0C8FD002D69D00123737175496846A4
:1019B00004F022FE2046002501F03EF80028C8D1A0
:1019C000204601F0D9F8684604F0B4FD0DB0BDE83A
:1019D000F08306F5825310331B68043356F8233026
:1019E0000F2B0ADC0125AFE72C292FD05D290DD064
:1019F000684604F043FE0125A6E7012DF8D0022D2C
:101A0000A2D1684604F03AFE02259DE706F5825809
:101A10006846D8F8109009F1040356F8235005EBF6
:101A2000091504F0F9FE07EBC5072837554926F8D4
:101A30001700684604F0E0FDD8F8103006EB830389
:101A400000271A6901321A613D467DE706F5825387
:101A50006846D3F8109009F1040356F8238004F087
:101A6000DBFE08EB091307EBC3032833454926F8CF
:101A700013006846013704F0BFFD65E7424904A83A
:101A800004F098FD04A9684604F022FE054604A867
:101A900004F050FDC5B10123B3712021684604F064
:101AA00051FE021E82DD694604A804F07FFE04A8F0
:101AB00004F0B2FEB06004A804F03CFDB368042B4F
:101AC0003ADC0523B36071E7304904A804F072FDE5
:101AD00004A9684604F0FCFD054604A804F02AFDAC
:101AE000D5B12021684604F02DFE021E7FF75EAFBF
:101AF000694604A804F05AFE04A804F08DFE307371
:101B000004A804F017FD337B0B2B1DD9482B7FF65F
:101B10004DAF4823337349E71D4904A804F04AFD3B
:101B200004A9684604F0D4FD054604A804F002FDAB
:101B30006DB10123337139E7B3F5967F7FF736AF87
:101B40004FF49673B36031E70C2333732EE70F2104
:101B5000104804F0A3F96946074804F067FC012126
:101B60000D4804F09BF9044804F086FC1EE700BF12
:101B700068E2FF1FA0CB0000ECE6FF1F40CF000093
:101B8000A8CB000060CC0000B0CB0000B8CB0000B8
:101B9000C0CB0000C8CB0000D8CB00002DE9F0433B
:101BA00000F5825695B080460F4610364FF000097A
:101BB0003EE00CA800F0D6FF0146684604F0FAFCAF
:101BC0000CA800F0D9FF684604F0F8FD10220DEBD8
:101BD0000201002304F09CFD214908A804F0EAFC5E
:101BE00008A9684604F07EFD044608A804F0A2FC9B
:101BF0001C4908A804F0DEFC08A9684604F068FD4A
:101C0000054608A804F096FC64B104A940464DB10D
:101C100033680F2B1DDCFFF763FE3368013333603D
:101C20004FF00109684604F085FC0CA800F098FF0D
:101C30000CA80122394601F057F90CA800F0AAFFC0
:101C40000028B6D10CA800F08BFF484615B0BDE8BF
:101C5000F083684604F06EFC4FF00109F2E700BF24
:101C600054CA0000DCCB000030B5054641F25414E4
:101C700089B029599C4801F02BF92A599A4968469C
:101C8000132301F0B1F805F58A5408AA183405F5B4
:101C90008B5012F8143D9DF804500299237325715E
:101CA0001230A16004F10D0312F8011F03F8011BAB
:101CB0009842F9D1079BE361684600F051FF3C224E
:101CC0008A49204600F0C4FE204604F0D5FB3C22A1
:101CD0008749204600F0BCFE204604F0CDFB3D22A3
:101CE0008449204600F0B4FE204604F0C5FB3D22A6
:101CF0008149204600F0ACFE204604F0BDFB3C22AA
:101D00007E49204600F0A4FE204604F0B5FB0022E8
:101D10007B49204600F09CFE204604F0ADFB3E22AD
:101D20007849204600F094FE204604F0A5FB3E22B0
:101D30007549204600F08CFE204604F09DFB3E22B3
:101D40007249204600F084FE204604F095FB3E22B6
:101D50006F49204600F07CFE204604F08DFB3D22BA
:101D60006C49204600F074FE204604F085FB0022FA
:101D70006349204600F06CFE204604F07DFB2822DB
:101D80006549204600F064FE204604F075FB3322CE
:101D90006249204600F05CFE204604F06DFB2F22D5
:101DA0005F49204600F054FE204604F065FB3322D4
:101DB0005C49204600F04CFE204604F05DFB1922F1
:101DC0005949204600F044FE204604F055FB00220D
:101DD0004B49204600F03CFE204604F04DFB152206
:101DE0005249204600F034FE204604F045FB1522FF
:101DF0004F49204600F02CFE204604F03DFB1922FE
:101E00004C49204600F024FE204604F035FB192200
:101E10004949204600F01CFE204604F02DFB1A2202
:101E20004649204600F014FE204604F025FB1A2205
:101E30004349204600F00CFE204604F01DFB1D2205
:101E40004049204600F004FE204604F015FB19220C
:101E50003D49204600F0FCFD204604F00DFB192210
:101E60003A49204600F0F4FD204604F005FB182214
:101E70003749204600F0ECFD204604F0FDFA182218
:101E80003449204600F0E4FD204604F0F5FA19221A
:101E90003149204600F0DCFD204604F0EDFA18221E
:101EA0002E49204600F0D4FD204604F0E5FA132226
:101EB0002B49204600F0CCFD204604F0DDFA1D221F
:101EC0002849204600F0C4FD204604F0D5FA262219
:101ED0002549204600F0BCFD204604F0CDFA2046FE
:101EE00000F04AFE09B030BD68E2FF1FE4CB0000FD
:101EF00024CC000064CC0000A4CC0000E4CC0000A2
:101F000060CC000024CD000064CD0000A4CD000012
:101F1000E4CD000024CE000064CE000090CE00008E
:101F2000C4CE0000F4CE000028CF000044CF000053
:101F30005CCF000074CF000090CF0000ACCF000059
:101F4000C8CF0000E4CF000004D0000020D0000083
:101F50003CD0000058D0000074D0000090D00000A9
:101F6000ACD00000C0D00000E0D00000F0B500F51B
:101F70008A5691B0103600F5A875FF24A5F5807338
:101F800003F1100223F8024B9342FBD19D42F7D19B
:101F900005F58075AE42F1D129BB00F5825E00F5F2
:101FA0008A560F460EF1120E1236A7F58055023DE5
:101FB0007346EA1803F1100433F9021F22F8021BDA
:101FC000A342F9D19E42F4D107F58077B7F5805F3F
:101FD000EBD100F10C0310224C3043F8042F98424F
:101FE000FBD111B0F0BD01231F4A204904466846C9
:101FF00000F0FAFE684600F0D1FF10AB9DF80C50DF
:1020000053F8330DCDF82D0059689A6802981B7B60
:102010009DF80460CDF83110CDF835208DF83930B9
:10202000134A079B0A9008A920468DF82C508DF87A
:10203000246008920F93FFF7B1FD054608A800F051
:102040008FFD3DB1684600F097FD684600F088FDC1
:1020500011B0F0BD2046FFF707FE41F254132046B1
:10206000E158FFF73DFCEDE708D1000068E2FF1FF3
:1020700048D3000000220A21818002608271C2716F
:10208000704700BF10B504460023C8B282B0E071AB
:10209000A37103F045F808B10323A371034B1B6838
:1020A0000193019B236002B010BD00BFB8E5FF1F84
:1020B00081807047F0B5044685B0C07903F030F8F0
:1020C000A279003018BF0120C2F3400102F0F703EB
:1020D0008842A3710BD0124A1268019283F0020366
:1020E000019AA3712260C3F3C00005B0F0BD0C4D8E
:1020F0002768296802910299A688C91BB142F2D3C8
:1021000002F001029042EED02A68039283F00903A4
:10211000039AA371C3F3C000226005B0F0BD00BFF5
:10212000B8E5FF1F807900F00900A0F10900B0FABE
:1021300080F04009704700BF2DE9F84F002180462C
:1021400004F04EF8002800F0BE8098F81C30002BF8
:1021500073D0041D00F5827C6445074667D24FF4B6
:10216000803A4FF00409834644E098F81C20022A84
:102170004DD0032A65D0042A73D0052A00F08E8042
:10218000062A00F0A280012A00F08F80D8F82020D3
:10219000D8F824304FF6FF7E201D1A44256883C8E6
:1021A00032FB05F61A4432FB15F5C6EA05461A4419
:1021B00032FB00F51A4432FB10F0C5EA00451A4420
:1021C00032FB01F01A4432FB11F1C0EA01401A441B
:1021D00032FB07F11344C8F8203033FB17F3C1EA90
:1021E000034326606560A060E360A8F81EE0103439
:1021F000A4451BD9B8F81E30002BB6D003F1FF3E22
:10220000D8F82020D8F824301FFA8EFEC4E7B8F89A
:102210002C20A8F81E208AB34FF00302A44588F8AA
:102220001C20C8F820A0C8F82430E3D85F464046F8
:102230000022394603F0AEFF3846BDE8F84F03F000
:1022400085BFD8F83030B8F82E2088F81C90A3F558
:10225000803393FBF2F3DB10C8F82430A8F81E207B
:10226000C6E7D8F83020C8F824304FF0050188F8C8
:102270001C10C8F820204FF6FE7E8DE7B8F82E20FF
:10228000D8F83030A8F81E20A3F58033D20088F8A3
:102290001C9093FBF2F3C8F82430A9E7D8F820206B
:1022A000D8F824304FF6FE7E76E7B8F82A209AFB5D
:1022B000F2F34FF00201DB1088F81C10A8F81E2082
:1022C000C8F8243094E7BDE8F88FA4455F4688F845
:1022D0001C30ACD923606360A3601034A44544F87B
:1022E000043CF7D8A3E700BF72B6038DC383002276
:1022F00002625BB9428DC28302214FF4803393FBAB
:10230000F2F3DB104362017762B670470123426249
:10231000037762B6704700BF10B5044604F058F862
:10232000204610BD024A0349034807F099BF00BF89
:10233000FCBDFF1F19230000E8E1FF1F38B5074D62
:10234000074C08482A46214607F08AFF2A462146BC
:102350000548BDE8384007F083BF00BFFCBDFF1F44
:1023600019230000F0E1FF1FF8E1FF1F024A0349B3
:10237000034807F075BF00BFFCBDFF1F1923000015
:1023800000E2FF1F024A0349034807F069BF00BF8C
:10239000FCBDFF1F1923000008E2FF1F2DE9F843D1
:1023A0004FF00008064600F1180547464146304602
:1023B000002F4FD003F008FFF0B12C68B4F5803F38
:1023C00007F1040100F1040E07F5827C27D05EF8C6
:1023D000042B34FB02F334FB12F903F30F0209F36D
:1023E0000F03C2EA03430A6893FA12F341F8043B6D
:1023F0008C45ECD803F0AAFE08F10108B8F1040FEF
:1024000005F10405D2D1002F40D0304639460022D4
:1024100003F0C0FE3846BDE8F84303F097BE07F16D
:102420000C0100F10C0451F8083C54F8082C93FA04
:1024300012F341F8083C54F8042C51F8043C93FA88
:1024400012F38C4541F8043C04F1080401F1080141
:10245000E9D8CFE703F0C4FE07460028CCD02868AF
:10246000B0F5803FC8D0391D07F582740B6830FB8A
:1024700003F230FB13F302F30F0203F30F03C2EA7C
:10248000034341F8043B8C42F0D8B5E7BDE8F8833C
:1024900010B5002103F098FE70B172B60A4B1A68AD
:1024A00072B10A490C6844B11C60086062B61046FB
:1024B000BDE8104003F04ABE10BD086062B610BD12
:1024C000186062B610BD00BF20E2FF1F10E2FF1FC0
:1024D00038B5194B19491A68194C12681B79194DEE
:1024E0000B70A242286836BF2246A4F5807202F51E
:1024F0008074C8B1011D31F9023B03F5FF437F33FE
:102500001B1122F8023B9442F5D803F01FFE0E4B3C
:102510000022196829601A600C4B1B781BB10C4B08
:102520004FF080421A6038BD40F2FF7322F8023B40
:102530009442FBD8F0E700BF14E2FF1F1F80004069
:10254000C8B5FF1F20E2FF1F10E2FF1F1CE2FF1FA4
:1025500008E200E0F8B501215148524D03F0D4FEE5
:10256000514A52491368802043F480531360002479
:1025700008702C800120083402F0E6FDA3B2B3F508
:10258000006F1CB2F5D14A4B1B685B0208D5494B62
:102590001A6848F6A273134048F6A27293426DD0AF
:1025A0004349444A0B68444F444D4548454C43F425
:1025B00080030B604FF0010E40F22F3648F6A371F6
:1025C00040F20113C7F800E02E6011601460036050
:1025D000334D3D492B6800221960197C1A746FF045
:1025E0003F01587C59740C21987C99744021D87C07
:1025F000D974997D9A750124D97DDC7502204FF03C
:10260000FF316FF001065A715A729A72DA721A73B8
:102610001A755A751A765A769A76DA765E739C71BE
:10262000DC71187118729973D973997F29799A7727
:1026300001F18041D87FDC7701F5043106201E7F4F
:102640001877B0205E7F5A770A70087003F002FE98
:102650002A791E4B1E4E187053119B0003F16043E4
:1026600002F01F051B49327003F5614302F11000AF
:10267000AC40194D41F820501C60F8BD0F4B1A6852
:1026800040F22F339A428BD10B4B1B68012B87D121
:102690000B4B1A6840F201139A4281D198E700BFB0
:1026A00014E2FF1F00C00C402C80044021C00C40ED
:1026B0003C800440006003400C6003400460034021
:1026C00010600340A28F0100C8B4FF1F1CE2FF1F6F
:1026D0001B80004000B8FF1FD1240000024A0349BC
:1026E000034807F0BDBD00BFFCBDFF1F192300005C
:1026F00014E2FF1F024A0349034807F0B1BD00BFBF
:10270000FCBDFF1F1923000024E2FF1F024A0349FA
:10271000034807F0A5BD00BFFCBDFF1F1923000043
:102720002CE2FF1F024A0349034807F099BD00BF8E
:10273000FCBDFF1F1923000034E2FF1F024A0349BA
:10274000034807F08DBD00BFFCBDFF1F192300002B
:102750003CE2FF1F024A0349034807F081BD00BF66
:10276000FCBDFF1F1923000044E2FF1F2DE9F84FB5
:10277000B0F918300BB9BDE8F88F044603F09AFCA5
:1027800005460028F7D0B4F92C30061D072B32D8A7
:10279000DFE813F066009000A700B9000800D6003B
:1027A000E9004C00D4F830C0BCF1000F39D0E0692A
:1027B00005F58278B646C10D4A1CC0F3CF13D2B2DC
:1027C0003CF911A03CF91210B4F91820A76AC3F51E
:1027D0007F4909F1FF0909FB0AF903FB01931B1467
:1027E00002FB03F3DB132EF8023B3844C64520F00E
:1027F0000040E0D1E061B4F92E206AB105F58271A4
:1028000001E0B4F92E20B6F90030134403F30F03AE
:1028100026F8023BB142F4D820460022294603F0B4
:10282000B9FC2846BDE8F84F03F090BCE36900F519
:102830008278374608E0B4F92400A26A27F8020B30
:1028400013444745E361D6D0A26A9A42F3D9B4F95A
:102850001810484203F058FE00B2E369A084ECE788
:102860004A4F00F5827E3046E369B4F91810D4F877
:1028700028804FEAD35CC3F3CF1B37F91C900CF1CF
:10288000010CCBF57F4A0AF1FF0A37F91CC009FB9E
:102890000AF20BFB0C22121401FB02F2D21320F8F5
:1028A000022B13EB080348BF23F000437045E3619C
:1028B000DAD1A0E7E26900F5827E3146B4F91870FA
:1028C000A06A42F3CF3303FB07F3DB1321F8023B8B
:1028D00071450244F2D1E261B4F92E20002A8DD173
:1028E0009AE7E269831D00F5837051004ABF218B8E
:1028F000B4F91810494223F8021CA16A0233984225
:102900000A44F2D1E7E7E16900F5827E304600290A
:10291000B7BF238BB4F918205B421AB24F004FEABD
:10292000810348BF5B425B0C02FB03F3DB13A76A26
:1029300020F8023B704501EB4701E8D1E1615AE71D
:10294000E269276A831D00F58370BA4236BF218B86
:10295000B4F91810494223F8021CA16A02339842C4
:102960000A44F2D1B7E7E26900F5827E3146B4F954
:102970001870A06A42F3CF3303FB07F3DB1321F88F
:10298000023B7145A2EB0002F1D1A4E70CD100009B
:102990001649174B0A681748F0B442F48052164F94
:1029A000164E174D174C0A601F60DE601D611C60DB
:1029B0000378D90755BF144A144A4FF410714FF4E5
:1029C000007111609A0754BF114A124A5B074FF415
:1029D000007154BF104B114B116054BF4FF4107273
:1029E0004FF400721A60F0BC704700BF3C80044096
:1029F00000C00240E8E6FF1F01401F000110003840
:102A00000110007800001F8018B0044008C0044086
:102A10001CB004400CC0044014B0044004C0044086
:102A200010B582B002AB026803F8011D5468194664
:102A30000122A04702B010BDC06938B18369C068E7
:102A400047F6FF72181A904228BF1046704700BF21
:102A5000C36910B5044643B10020187192B2E06911
:102A600001F006FAE3691B791BB1012323710020F1
:102A700010BD10BDC06978B100B583B001220DF161
:102A8000070100F07BFF01280CBF9DF807004FF005
:102A9000FF3003B05DF804FB4FF0FF30704700BF1C
:102AA000C369C3B110B582B00446012218460DF1C6
:102AB000070100F063FF012803D04FF0FF3002B0A0
:102AC00010BDE0699DF80740C168013901F02AF89E
:102AD000204602B010BD1846704700BFC06908B15B
:102AE00001F052B8704700BF2DE9F04105464FF4A0
:102AF0007A731348AB60002328602B712B7324205A
:102B00000C46904607F00EFCE861B0B1064604F1B1
:102B1000200E20686168A268E36837460FC710344A
:102B200074453E46F5D12068386041460C2205F1D7
:102B30000D0008F0C3FC00236B762846BDE8F08149
:102B400048D300004FF47A72044982600022016089
:102B500002710273C2614273704700BF48D3000024
:102B6000704700BF0D307047C06920B180790128DF
:102B700094BF002001207047C36953B110B50446CB
:102B8000184600F069FEE06907F0D4FB0023E3611A
:102B900010BD7047C06918B18079003018BF01209E
:102BA000704700BF0AB90120704708B501F048F925
:102BB000003018BF012008BDF0B50E68835D2F2BD3
:102BC00008BF0136841902F1FF3E002523782F2B20
:102BD000274604F1010408D03BB101350C2D06F164
:102BE00001060EF8013FF1D18719002353553B78B8
:102BF0002F2B04BF013687190E603878003018BFBC
:102C00000120F0BD2DE9F04F99B08846264D06957C
:102C100000218DF81C1083469246994644468DF853
:102C20001E108DF840108DF8421001910F9506AEE0
:102C300005E000F011FEFDB1234634461E4602AA0F
:102C400001A95846FFF7B8FF80F00102D2B24B4607
:102C500002A905462046D04721460746012302AA7D
:102C600070B13046ADB101F0C3F844450546204689
:102C7000DFD10DB10FACDFE7002019B0BDE8F08F58
:102C80004445F9D0204600F0E7FD384619B0BDE8CC
:102C9000F08F444506D0204600F0DEFD012019B03B
:102CA000BDE8F08F0120E8E768D3000038B50A4698
:102CB0000121044600F0CEFA08B9002038BD251DD8
:102CC00028460122214601F0B9FB40B1294604F112
:102CD0002C0000F02BFE003018BF012038BD02464A
:102CE0002146284601F0AAFB0028EFD1002038BD7C
:102CF0002DE9F04F99B04FF00008DFF8E8A08DF80B
:102D00001C808146043106A8934601938DF81E80ED
:102D10008DF840808DF84280CDF818A0CDF83CA009
:102D200000F004FE06AE5D460FAF2F21284608F0E6
:102D3000C9F8441BE4B2294608B32B782F2B02A80C
:102D40001BD00C2C28BF0C24224608F0B7FB18AB74
:102D50002344384603F8588C00F07EFD012302AA74
:102D60003146384601F044F888B3304600F074FD2F
:102D7000334625443E461F46D7E70135D5E701983F
:102D800031797279B379B468377DCBEB050505608D
:102D9000F068356989F8041089F80520B16989F867
:102DA0000630F269336AC9F80C004846C9F800A039
:102DB000C9F80840C9F8105089F81470C9F81810FB
:102DC000C9F81C20C9F8203019B0BDE8F08F89F887
:102DD000040089F806004846C9F800A019B0BDE80B
:102DE000F08F00BF68D30000F0B59DB005461F46C8
:102DF00001A86B461446FFF77BFF009AA35C1444BE
:102E0000002B42D09DF80A202F4E0A9600238DF801
:102E10002C308DF82E30002A31D00AA83B462246AD
:102E200001A900F0E5FF50B301A800F015FD17F06F
:102E3000060F43D19DF82C700C9B9DF82DE0139646
:102E400022469DF82E408DF850708DF85240159313
:102E50000D990E989DF83C70109E119C129B8DF858
:102E600051E01691179013A928468DF860701996B5
:102E70001A941B93FFF738FE28461DB0F0BD284674
:102E8000FFF760FE28461DB0F0BD9DF808700E4E9D
:102E90009DF809409DF80A30039A8DF850701396FA
:102EA0008DF851408DF852301592049905989DF88F
:102EB0001870079E089C099B044AD2E70AA810993B
:102EC00000F030FEB6E700BF68D3000008D1000074
:102ED00010B40C46002300F12C01024A204610BC1D
:102EE000FFF790BEA52B0000F0B505469FB00C463D
:102EF000164604A9E06900F0D3FD002845DD9DF8E1
:102F00001030002B41D0E52BF3D02E2BF1D09DF8C3
:102F10001B3003F0080303F0FF02002BE9D104A8E3
:102F200069461D4F8DF834208DF836200C9700F03F
:102F3000A3FC33466A46E1690CA800F059FF20B3B0
:102F40009DF835609DF836400E9B0F9910989DF8BE
:102F500034E015978DF859609DF84470129E8DF8F5
:102F60005A401793139C149B189119906A4615A9FF
:102F700028468DF858E08DF868701B961C941D93B8
:102F8000FFF7B2FD28461FB0F0BD2846FFF7DAFD77
:102F900028461FB0F0BD00BF68D3000010B504463E
:102FA000FFF7E2FD18B1E36900229A60DA6010BD14
:102FB000064B074ADA620221002259609A7083F8B0
:102FC000242083F8302083F83220704768E2FF1F06
:102FD00068D3000005281ED8DFE800F003030E13B5
:102FE00018090F4B4FF038421A60FFF7D1BC0C4B59
:102FF0000C4A1A60FFF7CCBC094B0B4A1A60FFF76A
:10300000C7BC074B094A1A60FFF7C2BC044B084A09
:103010001A60FFF7BDBC024B064A1A60FFF7B8BC46
:10302000BCE2FF1F01000238000002B800000238B5
:10303000011001380540013808B50121007802F07F
:1030400069F80E4B1A7802B908BD0D4A12780021B2
:103050001970002AF8D0D00703D50A490A4B09682D
:103060001960910703D50749084B49681960530750
:10307000EAD5044A064B92681A6008BDC0E2FF1FF9
:1030800064E2FF1F58E2FF1F00E100E004E100E0FE
:1030900008E100E0204B1A781AB10078002102F014
:1030A00039B870B41D491E4A0C78126801251D708C
:1030B00004B372B60B78DC0707D51A4C1A49266898
:1030C00009681A4D314029602160990707D5184CCD
:1030D000154926684968154D3140216069605B07D4
:1030E00007D51449104B0D689B68104C2B400B60A2
:1030F000A36062B6104BD968914207D00F4C1C6098
:103100000F49DA6042F080441C61196000780021A8
:1031100070BC01F0FFBF00BFC0E2FF1F64E2FF1FF1
:10312000BCE2FF1F80E100E04CE2FF1F58E2FF1FFE
:1031300084E100E088E100E000C0024001401F009F
:1031400000001F80F0B4134C134A236882B0174666
:10315000009300984FF0004680B2FF25136843F4B7
:1031600080631360D6625563D36A002BFCDABB6BB5
:10317000DBB2FF2B0AD023680193019B9BB21B1A81
:103180008B42EBDB002002B0F0BC7047012002B0A4
:10319000F0BC7047B8E5FF1F00C00240F8B50D460F
:1031A0004FF4967116460446FFF7CCFF284B1A6879
:1031B0004FF0004042F4806245F040011A60D8624E
:1031C0001A465963D36A002BFCDA214918204FF0C4
:1031D00000470A6826FA00F342F48062DBB20A6014
:1031E000CF624B63CB6A002BFCDA083810F1080F72
:1031F000EFD155B3082D0CBF8721FF21144B1A685E
:103200004FF0004042F480621A60D8621A46596357
:10321000D36A002BFCDA0E4A002716464FF0004511
:10322000FF21136843F480631360D5625163D36A4E
:10323000002BFCDAB36BD8B21B06607000D4F8BD6B
:103240000137B7F5807FECD1F8BD9521D6E700BFF7
:1032500000C002402DE9F0430023944F027085B076
:1032600083703B6801930546884610460121019E04
:1032700001F050FF2878012101F060FF287801213A
:1032800001F048FF8A4A136843F480531360062014
:10329000FFF7A0FE874B884A93F800E01268B6B2A9
:1032A000BEF1000F23D072B61978CC070BD5834C32
:1032B0008348D4F800C00068DFF818E20CEA000088
:1032C000CEF80000206088070BD57E4C7C48D4F8EF
:1032D00000C04068DFF8FCE10CEA00002060CEF896
:1032E0000400490700F19F8062B693F800E0764B36
:1032F000D968914207D0754818607549DA6042F084
:10330000804018611960704A0A244FF00040FF2184
:10331000136843F480631360D0625163D36A002B57
:10332000FCDA013C14F0FF04F2D1BEF1000F14D01E
:103330001EF0010F03D0674A674B12681A601EF037
:10334000020F03D0634A654B52681A601EF0040FE7
:1033500003D0604A624B92681A602846FFF79AFED3
:1033600007E03B680293029B9B1B9BB2B3F5FA6F8D
:1033700052D8002211462846FFF710FF0128814647
:103380006870EED14FF4D57208212846FFF706FF8A
:10339000430727D585F802904FF0000907E03B6806
:1033A0000393039B9B1B9BB2B3F5FA6F34D80022A7
:1033B00037212846FFF7F2FE4A4629212846FFF723
:1033C000EDFE68700028EAD1AB78022B3BD028468E
:1033D000FFF732FE4046FFF7FDFD0124204605B011
:1033E000BDE8F083384A042194464FF0004EFF2098
:1033F000136843F480631360C2F82CE05063D36A0F
:10340000002BFCDADCF838300139DBB211F0FF01B7
:103410006B70EDD1AA2B11D02846FFF70DFE204688
:1034200005B0BDE8F0832F482549D0F800E0896851
:10343000284C0EEA01010160A16055E70223AB7040
:103440004FF08049B3E702463A212846FFF7A6FE2F
:103450000028E1D11C4B1A684FF0004442F480620E
:10346000FF201A601946DC625863CB6A164A002BAB
:10347000FBDA936B144A03F0C003C02B04BF032391
:10348000AB70032116464FF00044FF20136843F44D
:1034900080631360D4625063D36A002BFCDA013975
:1034A00011F0FF01B36BF1D191E700BFB8E5FF1F49
:1034B0003C80044064E2FF1FBCE2FF1F80E100E0AB
:1034C0004CE2FF1F84E100E000C0024001401F0009
:1034D00000001F8058E2FF1F00E100E004E100E06F
:1034E00008E100E088E100E0F0B4164C164A2368D9
:1034F00082B01746009300994FF0004689B2FF252D
:10350000136843F480631360D6625563D36A002B5B
:10351000FCDABB6BDBB2FF2B43700BD1236801934A
:10352000019B9BB25B1AB3F5967FE9DD002002B0E8
:10353000F0BC7047A3F1FE00B0FA80F0400902B081
:10354000F0BC7047B8E5FF1F00C00240F8B58378B3
:10355000032B0E46044618BF4E021546FFF79AFD90
:10356000324611212046FFF719FE18B92046FFF711
:10357000BBFF20B92046FFF75FFD0020F8BD204BC0
:103580002049214A1A608E4659631A4659631E46DD
:10359000596305F5FD70A91C05F5FE77D36A13F094
:1035A000F00FFBD0C6F834E0B36B01F8013C1B12FE
:1035B00001F8023C02318F42F0D105F50075A842B6
:1035C0000DD20F4A1646D36A13F0F00FFBD0B36B3F
:1035D000191200F8021BA84200F8013CF3D3084B73
:1035E0000949084A196019465A63CB6A044A13F01C
:1035F000F00FFAD02046936BFFF71EFD0120F8BDB7
:1036000000C00240FFFF009000041F80F0B4314E64
:1036100033684FF0004743F4806333603D46F76200
:10362000344671633346511C02F20127E26A002AD4
:10363000FCDA1A6811F8016C42F480621A60DD62EB
:103640005E63E26A002AFCDA1A6811F8026B42F43F
:1036500080628F421A60DD625E63E7D11D49CA6AEB
:103660001C4B002AFBDA1A684FF0004542F48062D6
:10367000FF241A601946DD625C63CB6A154A002B91
:10368000FBDA13684FF0004543F48063FF241360B6
:103690001146D5625463CB6A0E4A002BFBDA1368DD
:1036A0004FF0004543F48063FF2413601146D56258
:1036B0005463CB6A074A002BFBDA936BDBB203F04F
:1036C0001F024370A2F10500B0FA80F04009F0BC7F
:1036D000704700BF00C0024070B5044671B18378E6
:1036E000032B0D4618BF4D021646FFF7D3FC2A46A2
:1036F00018212046FFF752FD054620B12046FFF76E
:103700009BFC002070BD3246FE212046FFF77EFF65
:103710000028F3D04FF416712046FFF713FD002860
:10372000ECD02A460D212046FFF738FD0028E5D1D0
:103730000B4B1A684FF0004542F48062FF201A607C
:103740001946DD625863CB6A054A002BFBDA936B9E
:1037500013F0FF0FD2D12046FFF76EFC012070BDA1
:1037600000C00240014B024A1A607047BCE2FF1FD2
:103770000000023838B590F90530002B03DBBDE8B6
:10378000384000F091BC04460121006900F0B6FC0D
:10379000F8B1257D104B13EB45151AD0A3790F4ACC
:1037A000012B9CBFA369EB61E36912686B831B0C5F
:1037B000AB8232B105F1160105F1180090472B8B51
:1037C0006B82637903F07F036371BDE8384000F0DA
:1037D0006BBC002038BD00BFD0E2FF1FC4E2FF1F5A
:1037E00010B500F1080204460121006A00F070FDE6
:1037F00050B1E3693BB96379A268E26163F07F038A
:103800006371012010BD012010BD00BF70B50646D8
:10381000FFF7E6FF98B1326AB568117C53691479F5
:10382000023D8D40013B74B11D4402E014F0FF04E1
:1038300007D0601900F0C8FC013C0028F6D1002038
:1038400070BD336A197CB0694FF4007202FA01F35B
:103850000344B361012070BD82790AB9002070472A
:1038600010B50446FFF786FF18B10023A3710120AD
:1038700010BD002010BD00BF002270B401381446F6
:103880002E2610F8013F202B04D0082A09D0651CF1
:103890000B55ECB201320B2AF3D100230B5570BC4F
:1038A00070470E550134E4B20378F0E770B44B1E54
:1038B00001F10A04202203F8012FA342FBD10138B1
:1038C0000025072610F8014F2CB32E2C1ED0164AC7
:1038D00001E09C4217D012F8013B002BF9D1AE4217
:1038E0001FD3A4F121025D2A1BD8A4F16102192A79
:1038F00005F1010398BF203C0D44DBB298BFE4B250
:103900002C701D46DEE7002070BC70470A2EFAD0EE
:1039100008250A26D6E70B78B3F1200018BF01204E
:10392000F2E71846F0E700BF70D3000038B583799E
:103930003BB991F82020102A0D46044603D0202AD6
:1039400010D0002038BD022282714A8CC36153011D
:10395000836100230120607123752562A360E36009
:10396000236138BD03238371496AC16100F11802E4
:10397000284600F07DFC0028EBD1E2E72DE9F04F6E
:103980008B4683B08179019219B14379DA070646F3
:1039900004D44FF0FF3003B0BDE8F08F8369C268F4
:1039A00001989B1A98426CD8019B002B6CD002297D
:1039B0001D46DFF8E490374FDFF8E080316AC2F34C
:1039C000080A42D00C79013C04EA5224E4B2BAF16C
:1039D000000F54D1002C52D1002A47D1F269B260B5
:1039E000087C4969023A82400C441019CAF50074F7
:1039F0007279A542CCBFA4B22C46530629D4B4F5A3
:103A0000007F26D0002100F079FB0028C1D00AEB0E
:103A1000090E0EEB040086450BD00BF1FF32734606
:103A200013F8011B02F8011F9842F9D1CEEB0000F8
:103A30008344F2682D1B2244ADB2F26025B3B17904
:103A40000229C2F3080A316ABCD1486A00EB52204D
:103A5000CCE73A689042D5D001465A46D8F80000E3
:103A6000FFF774FD002894D0A344E2E7084606F16E
:103A70000802B16800F0C4FB00288AD0316AB2683D
:103A8000AEE79BB201938FE7BDF9040003B0BDE838
:103A9000F08F00BFF8BEFF1FD0E2FF1FCCE2FF1F78
:103AA00038B58379012B16D9C368DA060C4605466A
:103AB00011D1202221462846FFF760FF40B220287E
:103AC0000CD1237863B1E52BF3D02E2BF1D0E37A20
:103AD0001B07EED438BD4FF0FF3038BDC01738BDDE
:103AE000184638BD8379012B17D930B5C36883B028
:103AF00001220DF107010446C3F34315FFF73EFF12
:103B0000012802D0002003B030BDE36804481F3311
:103B100000EB4510E36003B030BD0020704700BFEC
:103B2000D0E2FF1FF8B5837913B182698A4201D2CE
:103B30000020F8BD022B0F4605461AD007B32B6AAA
:103B4000E9681C7C4A1E04F109037C1EDA40DC4053
:103B5000A24211D9EB69AB6005F1080606E0A9683D
:103B6000286A00F04DFB013C0028E1D03246002CD1
:103B7000F5D1EF600120F8BD0029EBD0A41AEBE7E6
:103B8000AF60EF600120F8BD83790BB1FFF7F2BDA4
:103B9000184670478379012B01D000207047F0B59B
:103BA0004579AC0783B002461CD585698D420C4629
:103BB00018D3D5B12546D6681446FFF7B3FF88B1B0
:103BC000B5B9E169206A00F00BFC58B1E56122E06B
:103BD00000F006FC30B16FF07042A168206A00F07E
:103BE000EFFBC0B9002003B0F0BD184603B0F0BD34
:103BF00001AAA168206A00F003FB0028F2D0206A25
:103C00000F4B90F8207001994FF6F872102F08BFF3
:103C100013469942DCD36379A279A56163F07F03EF
:103C20006371002ADED02046FFF7A4FD0028D9D01A
:103C3000B5422946204628BF3146FFF773FFD2E739
:103C4000F8FFFF0F70B51D4B03EB4116F37A13F02D
:103C5000110F02D012F0420F1ED1194B01751B68D3
:103C60000361738BB18A43EA0141C161F37A13F0B6
:103C70001803154604460DD1F3698361012383714E
:103C800005F00F03002163716B06A160E1600FD4A2
:103C9000012070BD102B01D0002070BD00F1180272
:103CA000006A00F0E5FA0028F6D00423A371E7E7E4
:103CB0002046BDE87040FFF76DBF00BFD0E2FF1F98
:103CC000F8BEFF1F2DE9F04784B001AF06460C4651
:103CD000104639469946FFF7E9FD78B30022216A7C
:103CE000316213461546A260E260DFF8008108E009
:103CF000E52B1CD001460B22384606F0F1FD88B3B7
:103D0000E368A2699A421DD92046C3F3431AFFF71C
:103D1000E9FE98B10378002BEAD15DB9D8F80030FC
:103D200086F814A03361037823B10125E8E7002D5C
:103D3000FBD1F3E709F01203122B1DD0002004B0D1
:103D4000BDE8F08709F01203122BF7D1A5B9A379CA
:103D5000022BF3D02046FFF759FD0028EED0214C6E
:103D6000357514E009F03003302BE7D04A46514650
:103D70003046FFF767FFE2E70121306900F0BEF946
:103D80000028DBD0347D174B13EB4414D6D020220F
:103D90000021204606F03AFE97E80700234603C3B9
:103DA000114923F8022B0D68120C1A709DB104F111
:103DB0000E0104F11000A847238AE289638223835D
:103DC000E28200F071F90028B8D04A46317D3046D1
:103DD000FFF738FFB3E742F621034FF40062238276
:103DE000E281EBE7D0E2FF1FC4E2FF1FF8BEFF1F36
:103DF00010B4847914B1002010BC704710BCFFF7D8
:103E000061BF00BF10B500210446FFF7C3FE08B92B
:103E1000002010BD0121206900F070F90028F7D0C2
:103E2000237D064A5B01DA42F2D0E5209854002156
:103E3000A171BDE8104000F037B900BFD0E2FF1F0C
:103E400030B58BB000240A46084D8DF80840014675
:103E5000022301A88DF80A400195FFF733FF10B146
:103E600001A8FFF7CFFF0BB030BD00BF68D3000043
:103E70002DE9F04F8B46817985B00129804601926A
:103E800006D0012388F80430002005B0BDE8F08F8B
:103E900042799107F5D553070AD5D8F80C40D8F8E0
:103EA00018108C4200F0C680FFF73CFE0028E8D0D6
:103EB000019BD8F80C40002B00F0AF80DFF8C891D0
:103EC000DFF8C8A1019F3AE0002C43D1D8F80810D0
:103ED000002940F08380D8F81C20002A00F092804E
:103EE000C8F80820C4F50076B6B2BE4239D890F8BA
:103EF00010E04169023A02FA0EF20D44B6F5007F75
:103F0000154435D1DAF80020954204BF4FF0FF3256
:103F1000CAF80020584A294610685A46FFF7DCFBC9
:103F20000028AED00BF5007B4FF40074D8F80C20BD
:103F3000BF1B1444BFB2C8F80C40002F6DD0D8F896
:103F400020000579013D05EA542515F0FF05C4F36D
:103F50000804B9D0C4F50076B6B2BE42D8F808203D
:103F6000C5D9067C4169023AB2400D4415443E462B
:103F70002CB9D8F80C10D8F8182091421BD228463A
:103F8000012100F0BBF800283FF47BAF4C4404EB68
:103F9000060E744520D00BF1FF31621E0EF1FF3585
:103FA00011F8010F02F8010F9542F9D1C4EB0E0E82
:103FB000F3443446BAE700F077F800283FF461AFE5
:103FC0002E49CAF800500A784C4404EB060E42F021
:103FD000010274450A70DED13446A7E703AA00F057
:103FE0000FF900283FF451AFD8F82000244B90F887
:103FF0002060039A4FF6F871102E18BF19468A42B6
:10400000FFF46EAF4046FFF7EBFB00283FF439AFFB
:10401000D8F82000D8F8082064E7D8F81830A34270
:104020000DD298F80520C8F8184042F0800288F8B0
:1040300005200FE0019B002B7FF440AF0AE0114BFD
:1040400098F805201B682BB1019B1BB142F0800240
:1040500088F8052012070AD598F80630002B3FF49F
:1040600010AF4046FFF786FB00283FF40AAF0198E7
:1040700005B0BDE8F08F00BFCCE2FF1FD0E4FF1F0A
:10408000F8FFFF0FC4E2FF1FD0E2FF1FF8BEFF1FC3
:1040900000B583B002AB012203F8011D1946FFF7FA
:1040A000E7FE03B05DF804FB70B50F4C23780BB945
:1040B000012070BD0D4B0E4D196828680D4AFFF7A1
:1040C0000BFB70B10C4E316819B90023237001202D
:1040D00070BD2868074AFFF7FFFA10B1002333606C
:1040E000F3E7002070BD00BFD0E4FF1FF8BEFF1F44
:1040F000CCE2FF1FD0E2FF1FC8E2FF1F70B50D4DDD
:104100002B6883420E460ED00446FFF7CDFF08B958
:10411000002070BD084B094A18682146FFF716FABF
:104120000028F5D02C60064B197831431970012016
:1041300070BD00BFF8BEFF1FCCE2FF1FD0E2FF1F23
:10414000D0E4FF1FF8B590F82030C469102B1A4B4B
:1041500005460E4617461B6816D004EBD1149C4248
:1041600016D106F07F06154A42F826701449287EBB
:104170000A78012842F001020A7018D9A968114A88
:104180000B4413600120F8BD04EB11249C4208D0BD
:1041900000212046FFF7B2FF50B195F82030102BD8
:1041A00007D1F6B2054A234622F81670DEE7012051
:1041B000F8BD2346D5E700BFF8BEFF1FD0E2FF1FC2
:1041C000D0E4FF1FC8E2FF1F10B50446FFF76CFFE5
:1041D00078B1084B002103F5007203F8011F9342E8
:1041E000FBD1054A054913780C6043F001031370B5
:1041F000012010BDCFE2FF1FD0E4FF1FF8BEFF1F5C
:10420000C36801338B4218D370B590F82030102B5F
:10421000154B044616460D46C0691B680FD000EBCF
:10422000D11098420FD105F07F01104B53F8213087
:1042300023F070433360012070BD0020704700EB15
:104240001120984207D00021FFF758FF50B194F891
:104250002030102BE7D1E9B2044B33F81130336032
:10426000012070BD002070BDF8BEFF1FD0E2FF1F0F
:104270002DE9F04782B002ADDFF8508045F8041D0B
:10428000044691464FF0000A4FF400774FF6F87657
:104290000CE094F82030227C0199102B14BF434687
:1042A000334607FA02F29942924408D22A4620463F
:1042B000FFF7A6FF0028ECD102B0BDE8F08701208F
:1042C000C9F800A002B0BDE8F08700BFF8FFFF0FFB
:1042D0002DE9F04F176883B06FB301374FF0000A34
:1042E000C36803F1010813B38B46064691463C466A
:1042F000002505E01C461F46F3680135AB4216D980
:10430000A04538BF0224214601AA304638BF2746BF
:10431000FFF776FF631CD91B48B1019A002AE9D147
:104320008B4510D01C46F3680135AB42E8D800201D
:1043300003B0BDE8F08FA1F1010ABAFA8AFA076862
:104340004FEA5A1ACCE7012CF1D9F36801339C42A9
:10435000EDD86FF0704221463046FFF7F3FE00289B
:10436000E5D0A74214D2013C012CE0D9F368013317
:104370009C42DCD8621C21463046FFF7E3FE002851
:10438000D5D0A74204F1FF3402D0012CEED1CEE704
:10439000D9F8001059B10129C9D9F36801339942FC
:1043A000C5D83A463046FFF7CDFE0028BFD0C9F841
:1043B0000070BAF1000F01D0013737600120B7E774
:1043C00001290AD9C3680133994210B402D810BC3C
:1043D000FFF7B8BE002010BC70470020704700BF38
:1043E000F0B5022383B00546134F03600C464FF629
:1043F000F8760FE0EB6801339C4216D8FFF7A2FE77
:1044000098B195F82030019C102B0CBF33463B46E9
:104410009C420DD201AA21462846FFF7F1FE214613
:10442000002210B1012C2846E4D8002003B0F0BDD2
:10443000012003B0F0BD00BFF8FFFF0FF8B53E4B01
:10444000054619601446DAB1042A01D90020F8BDE6
:1044500000210846FFF752FE0028F7D0374B03EB48
:10446000041292F8AE215206F0D11B3403EB04146F
:10447000D4F80A30632BE9D9D4F80640002CE5D0F3
:1044800000212046FFF73AFE0028DFD02B4AB2F881
:104490000B30B3F5007FD9D1117C0029D6D0D38958
:1044A000002BD3D0567B002ED0D0002329762E713E
:1044B0002B74012703E009290B462974C6D007FA9B
:1044C00003F0B04203F10101F5D1D68A1B4906B9C8
:1044D0004E6AB2F80EE0AE60A644C5F81CE0B2F831
:1044E0001110177C6984480106FB07E600F2FF10F3
:1044F00006EB60206E626861B2F813100F4E01B9CE
:10450000316A241A0C4424FA03F340F6F4718B4206
:10451000EB600BD94FF6F4718B4285BFD36A6B62A7
:104520001023202385F820300120F8BD0C2385F8C6
:1045300020300120F8BD00BFCCE2FF1FD0E2FF1FFA
:1045400090F8392090F83800101A704790F83830F9
:1045500090F839209A4205D95A1C034480F8382033
:10456000187E70474FF0FF30704700BF90F838302A
:1045700090F839209A4286BF1B18187E4FF0FF3002
:10458000704700BF704700BFB0F85E306BB190F865
:104590005D30202B07D8C218013380F85D30012030
:1045A00082F83B107047012303710020704700BF61
:1045B00038B50546B0F85E0090B195F85D30144608
:1045C000C3F1210294420CD805F13B001844224665
:1045D00000F018F995F85D30234485F85D302046E9
:1045E00038BD012014462871EEE700BF10B50269FE
:1045F000D378DBB2D90604463DD510215806D170D8
:1046000038D503F0040303F0FF02002B51D03D49DD
:10461000626E00230B7084F85D30002A5BD09047F7
:1046200094F85D30002B56D02369D0229A7023690C
:1046300094F83B201A712369012284F85C2002223D
:10464000DA7010BD304B84F860009C424AD02F4B8A
:104650009C4252D094F8391013791F29DBB207D845
:104660002848007820B16018013184F839100376A9
:104670000223D37010BD5906C3D4917801F0100104
:1046800001F0FF000029DDD013F001031ED194F8E2
:104690005C1094F85D00884281BF4B1C091984F8B6
:1046A0005C3091F83B3013712369D0229A702269F3
:1046B000DEE7236984F83920C0229A702369114A01
:1046C0001979012111700222DA7010BDC023937094
:1046D00022691379CCE70122002384F85D2084F855
:1046E0003B30A1E7626994F8613009491344032221
:1046F000187A00F03DFC2269ACE7626994F86130F9
:104700000449F3E740E5FF1F44E5FF1FD4E4FF1F22
:1047100075470000814700000369DB7803F0200340
:1047200073B190F860300133DBB2012B80F8603058
:104730001AD9426990F861301344187A00F094BC99
:1047400070B5426903F0FF0590F8613013440446E8
:10475000187A00F089FCA36E5BB184F8385094F8A5
:104760003900BDE87040184790F85F30002BE0D06A
:10477000704770BD0148FFF7CFBF00BF44E5FF1F82
:104780000148FFF7C9BF00BFD4E4FF1F0148FFF78E
:104790002DBF00BF44E5FF1F0148FFF727BF00BF43
:1047A000D4E4FF1FF0B41049104B114A0A610022F3
:1047B0004FF47A740F4F1048104E114D0A710A735E
:1047C00081F8612081F862201A711A7383F86120E0
:1047D00083F862204F618C609C601E615D6108609F
:1047E0001860F0BC704700BF44E5FF1FD4E4FF1F12
:1047F0000060064080D30000C8D30000007006406F
:10480000A0D30000844641EA000313F003036DD1F6
:10481000403A41D351F8043B40F8043B51F8043B83
:1048200040F8043B51F8043B40F8043B51F8043B8A
:1048300040F8043B51F8043B40F8043B51F8043B7A
:1048400040F8043B51F8043B40F8043B51F8043B6A
:1048500040F8043B51F8043B40F8043B51F8043B5A
:1048600040F8043B51F8043B40F8043B51F8043B4A
:1048700040F8043B51F8043B40F8043B51F8043B3A
:1048800040F8043B51F8043B40F8043B51F8043B2A
:1048900040F8043B403ABDD2303211D351F8043BCA
:1048A00040F8043B51F8043B40F8043B51F8043B0A
:1048B00040F8043B51F8043B40F8043B103AEDD279
:1048C0000C3205D351F8043B40F8043B043AF9D2CA
:1048D000043208D0D2071CBF11F8013B00F8013B9D
:1048E00001D30B8803806046704700BF082A13D3AA
:1048F0008B078DD010F003038AD0C3F10403D21AC2
:10490000DB071CBF11F8013B00F8013B80D331F8F5
:10491000023B20F8023B7BE7043AD9D3013A11F875
:10492000013B00F8013BF9D20B7803704B784370E0
:104930008B78837060467047374A384913681B0686
:10494000FCD40B6813F08003F8D172B634490A78AE
:10495000002A5FD0334A3448F0B4344C17680668F4
:104960002568D4680C303E44143200681268304F19
:1049700035442C4420440244C2F34E022D4E2E48AE
:104980002E4D2F4C42F400423A60376806682D687D
:104990002C4A24680C303E44006812682A4F354483
:1049A0002C4420440244C2F34E02284E2848294D8C
:1049B000294C42F400423A60376806682D68274A5D
:1049C00024680C303E4400681268254F35442C445E
:1049D00020440244C2F34E02224E2348234D244C6D
:1049E00042F400423A60376806682D68214A24681C
:1049F0000C303E440068126835442C442044024484
:104A0000C2F34E021C4842F4004202600B7062B6D0
:104A1000F0BC704762B6704724B0034024B00B402E
:104A2000B1E5FF1F38B003403CB0034040B0034045
:104A30002CB0034058B003405CB0034060B003406A
:104A400064B003406CB0034030B0034038B00B405A
:104A50003CB00B4040B00B4044B00B404CB00B405E
:104A60002CB00B4058B00B405CB00B4060B00B401A
:104A700064B00B406CB00B4030B00B4030B42948F0
:104A8000294A2A4B2A4D6024E121047011701B78B9
:104A9000284C082B30D00A2B2748284937D00C2B1C
:104AA0000CBF15223D2212232A60236002600B6096
:104AB000234B24491B78244ABBB101230B601360AC
:104AC000224B23491B78234A012B26D9042B0FD9CB
:104AD000082B1ED9102B94BF862387230B601360ED
:104AE0001D4B01221A7030BC70470B601360E7E762
:104AF00084230B601360F3E700F58E200F49083024
:104B0000012213232A60236002600B60D0E7192280
:104B1000F7E785230B601360E2E780230B601360E7
:104B2000DEE700BF0040074001400740FCBEFF1F1A
:104B300008B003400CB0034008B00B400CB00B4071
:104B4000B4E5FF1F20B0034020B00B40FDBEFF1FA7
:104B500024B0034024B00B40B1E5FF1F0C2830B453
:104B600017D91023984228BF18461C46104A114DE9
:104B70001178181A8C42287018D00F4913700B78CE
:104B800023B10E490E4A00230B60136030BCFFF7BF
:104B900075BF0A2802D90C231C46E7E7082802D96A
:104BA0000A231C46E2E708231C46DFE730BC7047B7
:104BB000FCBEFF1FB0E5FF1FB1E5FF1F24B003409F
:104BC00024B00B4028282FD8334B2DE9F0411E5C30
:104BD000FF2E2BD0314B1B78002B2AD132062CD440
:104BE00072B62F4D2F4C2F46012326602B7062B6D4
:104BF00072B623681B060CD43B781BB9F4E72B78FC
:104C0000002BF1D062B601F037FE72B623681806A9
:104C1000F5D5254B1B6800222A7062B6234A10780E
:104C200043FA00F0BDE8F081002070470020BDE8A5
:104C3000F081FFF781FE3206D2D572B61C4DDFF847
:104C40007C801C4C06F04007FFB206F03F06D8F807
:104C50000030DFB123F01003C8F8003001232660D4
:104C6000134A2B7062B672B6236819060CD41378F7
:104C70001BB9ECE72B78002BE9D062B601F0FCFD04
:104C800072B623681B06F5D50B4BC3E743F0100340
:104C9000C8F80030E2E700BFE0D30000B1E5FF1F35
:104CA000B3E5FF1F00B0034010B00340B0E5FF1FA5
:104CB000B2E5FF1F00B00B4010B00B400CB00B4032
:104CC000F0B51B4B1B4E596818689A68DB6885B0B5
:104CD0006C460FC4337899071DD5174A174C1378C3
:104CE000174913F0700318BF1370164A164B80272C
:104CF000177000263320032226706D4608701A7044
:104D000072B6043C45F001052046A84762B62378F8
:104D100013F0700309D10D4B064901E0013B02D0AD
:104D20000A78D207FAD505B0F0BD237005B0F0BD02
:104D30000CD40000010002400000024004000240C8
:104D40000B000240070002400A000240410D030030
:104D5000B0F5006F0AD210B5094B1B78DB0704468B
:104D600006D504F1A0500078C0B210BD00207047F5
:104D7000FFF7A6FF04F1A0500078C0B210BD00BF3D
:104D800001000240B0F5006F17D238B50F4B1B7809
:104D9000DA070D46044611D504F1A0500378AB4262
:104DA0000AD00B4A137813F0700318BF1370074A28
:104DB00005701378DB07FCD538BD7047FFF780FF1F
:104DC00004F1A0500378AB42EBD1F5E701000240BB
:104DD00000000240024A136801331360704700BFAD
:104DE000B8E5FF1F08B5104C08E0236859050DD43D
:104DF00023681A050FD42368DB0411D423685803F1
:104E0000F3D500F019FB23685905F1D502F0AAF893
:104E100023681A05EFD502F047FC2368DB04EDD5C3
:104E200002F0FAFEEAE700BF3480044008B5FFF75D
:104E3000D9FF00BF014B10221A80704700200540A7
:104E4000704700BF094908B50B6830B16A4618447D
:104E5000A2F58052904202D20860184608BD05F0C3
:104E60000FFA0C2303604FF0FF3008BD00BFFF1F97
:104E7000FEE700BFEFF3138070B9EFF310836BB957
:104E8000EFF305825AB94FF48070EFF311832BB121
:104E9000984228BF184670474FF0FF3070470F2ADE
:104EA00001D81846F1E7014BD05CEEE7F0E300E0F3
:104EB000704700BF10B40F4B53F8302092F8804277
:104EC0002CB1012369B182F8803010BC704703EB2C
:104ED000C0035B681A6841B922F002021A6010BC74
:104EE000704782F8003110BC704742F003021A602C
:104EF00010BC70471CD400001C4A02EBC0030129FF
:104F00005B6811D004291BD052F83000002280F8D1
:104F1000802229B1022920D0032922D01A607047AB
:104F20004FF480721A60704752F830004FF4A2724A
:104F300080F880121A601A6822F020021A60704706
:104F400052F830104FF4A272012081F880021A60EA
:104F50001A6842F020021A60704740F203121A6089
:104F600070474FF481721A60704700BF1CD4000074
:104F7000212817D8F8B5042A13D8DFE802F0494CE5
:104F80004F1446002C4872B6236823F4702343F074
:104F90008072C4F384011643236040F821502660D8
:104FA00062B6F8BD70474FF41026244B03EBC003E4
:104FB0000D465C68216811F4E06134D0204B214A31
:104FC0002149C3F89C2104F140422048C3F8A411B0
:104FD000A2F592211E4FC3F8A0017C291D48C3F8F9
:104FE000A871C3F8AC01CDD9A2F594237C2B18D9B4
:104FF000A2F596237C2B19D9A2F598237C2B17D9DF
:10500000A2F59A227C2A15D9F8BD4FF43026CCE7B8
:105010004FF40026C9E74FF44026C6E74FF4202698
:10502000C3E70D48AFE7FFF767FFC7E70B48AAE7FD
:105030000B48A8E70B48A6E704BFFF1F1CD40000DD
:1050400000B8FF1FD1BDFF1F79BDFF1FA5BDFF1F0A
:105050004DBDFF1F21BDFF1F3CBFFF1F8CBFFF1FAA
:10506000BCBFFF1FDCBFFF1F1A4B03EBC00010B417
:10507000426802F14043A3F592217C2905D9A3F5AA
:1050800094217C2913D8144900E0144972B613689E
:10509000134C23F08773C2F3840023F4803343F06E
:1050A0008073136041F8204062B610BC7047A3F5CE
:1050B00096217C2909D9A3F598217C2907D9A3F544
:1050C0009A237C2BF1D80749E0E70749DEE7074937
:1050D000DCE700BF1CD400003CBFFF1F04BFFF1F64
:1050E000B14E0000DCBFFF1F8CBFFF1FBCBFFF1F06
:1050F00030B4054B054D064C002210211A602A6081
:105100002060196030BC704714D0034004D00340C5
:1051100000D00340212801D8FFF7CCBE704700BF64
:10512000212806D8044B53F8303093F80002C0B25F
:1051300070470020704700BF1CD40000212801D810
:10514000FFF7DABE704700BF2DE9F843054672B697
:10515000214F224B224A1B683C68126862B65201FA
:1051600002D5322B88BF0134A5B3C3F58C331D4E55
:10517000DFF86890DFF8688003F23F134FF47A722B
:10518000A6FB031302FB04F404EB131472B6D9F864
:1051900000103A68D8F800E062B6C1F58C3303F22B
:1051A0003F13A6FB03031EF0806FC4EB13134FF4F1
:1051B0007A7002D0322988BF013200FB0233B3F586
:1051C0007A7F04D3013D05D004F57A74DEE701F05F
:1051D00053FBDBE7BDE8F883B8E5FF1F18E000E00C
:1051E00004ED00E0398EE338F8B52D4B2D49DFF89A
:1051F000D0E0DFF8D0C02C4E2C4D2D4C2D4A2E4F38
:105200004FF4000018604FF0807018604FF000708D
:1052100018604FF0806018604FF000601860002048
:105220000860282348F6FF71CCF80010CEF8003053
:10523000336013602B6023603B60B362936209228A
:1052400045F8242CC4F8D80F05F57F65C7F8D41F9E
:1052500007F5FF2707F5FA67C6F8F83F2B6006F554
:10526000FF26C4F8D42F05F5FD2504F5FF2438608A
:1052700006F2F4761148316005F5FF6504F5FD642A
:105280002B6023600260FFF7F9FB3220FFF75CFF21
:1052900000F0FCFC4FF4AF70BDE8F840FFF754BFDE
:1052A00008E100E0048003401480034024800340B0
:1052B0002C8003401C8003403480034000800B405E
:1052C0000C80034008800340431E032B14D872B6A1
:1052D0000A4951F8230068B170B4094C058834F8C4
:1052E0001320466841F82360521B24F8132062B64D
:1052F00070BC704762B670470020704714E6FF1F0D
:10530000F4E8FF1F013803280BD872B6074B53F897
:10531000203043B100205B680130002BFBD162B626
:105320007047002070471846F9E700BF68E6FF1F86
:10533000F0B472B61A491B4E012311F8014B194FF4
:105340009A00240742F0010505D556F8324064B1B1
:1053500056F83520BAB10133052BEED162B6124BA7
:1053600000221A70F0BC00F00DBD0F4C0F4D2178DB
:1053700047F8325007EB431308304A1E586022703A
:1053800062B6F0BC70470849094B0A7847F83530D7
:1053900007EBC5030830013A58600A7062B6F0E7BF
:1053A00054D500000080FF1F91E6FF1F88004000D9
:1053B000C8004000431E032B1DD81B4A400140F08B
:1053C000100030B4104472B6184CE25C032A1BD8AB
:1053D000DFE802F00212151703220D88E25410F0E4
:1053E000080F14BFC823882343EA0543083103602C
:1053F000416062B630BC704708300222EDE70522FA
:10540000EBE708300422E8E7094A52F8230038B1F4
:10541000084A52F82300416042F8231062B6E9E7D7
:1054200042F82310034AF7E70080FF1FA0E6FF1FA2
:1054300068E6FF1F78E6FF1F2DE9F04FDFF800A3B5
:10544000DFF800B387B044E0A84F4FEA930807EBBA
:10545000C809013ED9F8042003F00803F6B2A2F10E
:10546000080003F0FF04002B40F0FC8057F83830B0
:105470001B0C99B222F8081C002B00F0EA809C4B10
:1054800022F8064C42F8044C53F82620002A00F07B
:105490002982984D55F826305860974C45F82600DB
:1054A00034F81630194424F8161000F04BFC00288C
:1054B00000F01182914A924B19F0080F00F1080098
:1054C00018BF1346C9F8040047F8383008238AF893
:1054D00000309AF80040E4B260071AD5894B1B7877
:1054E000A3B189490A7802F0FF0322B1013BDBB284
:1054F0000B7003B900BE85490A7802F0FF032AB198
:10550000013BDBB20B70002B00F0BB8104238AF857
:10551000003004F0080303F0FF02002B00F0C68007
:105520009BF80030DBB21E098ED19C086F4F57F8F4
:10553000342007EBC401C2F38302013A49680C2A04
:1055400000F28380DFE802F07777818181818181B9
:1055500040818181070008686D4B6E4D0193674B58
:105560004A686D4E47F8343081B240F28164684B2E
:105570006A60286000220120A1421A603A61BA6183
:10558000307000F2E180B1F5D06F80F02582B1F586
:10559000817F00F0DE8100F2C181802900F0348239
:1055A000822940F0DC81A9885C4B042900F2D88173
:1055B0005B4C89000B44227062701A78930740F1AB
:1055C00022832070022023E2514B01931A683AB3E0
:1055D000544B514E5449188834780D7840288646EB
:1055E00045F0020828BF4FF0400E002C84F0010463
:1055F0003470CEEB00000CBF8824C82407EBC8062B
:1056000080B285F0010544EA0E447260188047F8C4
:10561000384072440D70002800F0B780019B1A607A
:105620003C4B1A88B2F5A06F0FD100219A785970BF
:105630003E4B1A7009E0374A108842F2210290422C
:1056400000F0A8802D4A47F83420394A012313700E
:105650003CE72A4A2A4B19F0080F18BF134647F8AF
:10566000383033E700F08EFB324A334952F82630A7
:10567000002B00F03B8158688C5D42F8260003F156
:105680000802C9F80420032C05D8DFE804F02C0236
:10569000292602228A551A8819F0080F0CBF882380
:1056A000C82343EA024347F838300FE7E00700F128
:1056B000EB80210600F12881A20706D51F4A204968
:1056C00013780220DBB213700870E30602D51C4B7E
:1056D00010221A7007B0BDE8F08F04228A55DAE76D
:1056E00005228A55D7E703228A55D4E70080FF1F99
:1056F00014E6FF1FC0E5FF1FF4E8FF1FC8004000CD
:10570000880040009CE6FF1F25E6FF1FA4E6FF1F60
:10571000BCE5FF1F88E6FF1F24E6FF1FC0200740EF
:1057200094E6FF1FD0E5FF1F90E6FF1F982007407B
:105730009420074068E6FF1FA0E6FF1F882007406F
:10574000802007409020074042F22104A14200F04F
:10575000948043D8B1F5086F00F0A881B1F5106FBF
:1057600040F0FD80B84AB94CA978117004F1800569
:1057700003E00834AC4200F09E81236A1906F8D594
:10578000606A083800F0FEFAF3E7BEF1400F18BF78
:10579000002243E7AE4ACD1D11F8013B02F8013F5C
:1057A000A942F9D1AB4A1268862A00F01181AA49B0
:1057B000AA4E0A78307882F00105002842F00202F1
:1057C0000D700CBF8821C82147F8321007EBC202C8
:1057D00080F0010000213070516033E742F2212453
:1057E000A14240F0FE81DFF8BCC29D4B9D49AC78E0
:1057F000DCF800501D6081460C700020029080464D
:105800008446044694490D7845F0020E07EBCE031A
:10581000B9F1000F5C600CBF8824C82444EA080377
:1058200085F0010447F83E3032700C70DFF81CE25E
:105830008A4BDFF82482002840F09880BCF1400FAA
:105840001BD144F0020407EBC403029FDFF8FCE124
:105850005F60002A40F09F80020442F08802074403
:105860004EF8342086F800900D703B46402804D155
:1058700000207D4A019910800B607C4A012313703F
:10588000E3E600F0C7FB41E6704B784872491A61C5
:105890004FF0020E80F800E0754F0A7075491960EC
:1058A0009960754E754D764C9A610D213970FF21C6
:1058B0003170DFF8F4E129702270724D724A8EF86F
:1058C00000109F27012406F8047C5D600470DA60F4
:1058D00007B0BDE8F08F6D4A47F838001378013300
:1058E0001370F3E543F82600694DD6E58B5D032B75
:1058F00067D801A252F823F0CD540000CD54000027
:105900004D5900004759000059495C4B80220D2039
:1059100008701A70A2077FF5D8AECFE640F20232C7
:10592000914240F05681A98801F07F01042916D8E0
:105930006A88A2B94E4C89000C448146217841F016
:105940000201217059E701238B55BFE500238B55D8
:10595000BCE5A98801F07F01042940F24781444B4E
:105960000F221A70414A012313706EE640287FF619
:1059700068AF44F002040EEBC401029E4E60AAB16F
:10598000444A83F800903346403888F8005040334A
:105990004EF834206DE70204029B86F8009042F036
:1059A000C8020D7003444EF834205FE783F800907E
:1059B000029B304A88F80050403840334EF834207B
:1059C00057E719F0080F0CBF022303238B557DE521
:1059D000314A0F211170EAE6304A5468002CBED0DB
:1059E0006888B5F804E003E00C325468002CB6D0A7
:1059F00013888342F8D153887345F5D1000A0328F0
:105A00000CBF2078108903E0254C022022706270C0
:105A1000EA88824280F00C810F490D78402A45F0D7
:105A2000020E944607EBCE0028BF4FF0400C04EB6B
:105A30000C0344600293CCEB02004FEA0C484FF099
:105A400001090022C824E9E69CE6FF1F0080FF1F31
:105A5000FBE8FF1FFCE8FF1F90E6FF1F24E6FF1F87
:105A600004E9FF1FB4E6FF1FD0E5FF1F94200740A5
:105A7000C020074088004000882007408020074061
:105A800098200740D4E5FF1F28E6FF1F91E6FF1F7F
:105A9000C0E5FF1FC800400025E6FF1F58D50000E5
:105AA00094E6FF1FB8E5FF1F8C200740684A694C49
:105AB00012782270ACE76849684B694A02916949DB
:105AC000694C6A4D039405964FF0000988461C46C0
:105AD00016460495206828B1456800F053F9284619
